:020000040800F2
:10000000B08901205502000825760008A36B00087E
:1000100085740008E9640008A78500080000000056
:100020000000000000000000000000009D0100082A
:10003000B966000800000000F1010008617B0008BB
:100040006F0200086F0200086F0200086F020008CC
:100050006F0200086F0200086F0200086F020008BC
:100060006F0200086F0200086F0200086F020008AC
:100070006F0200086F0200086F0200086F0200089C
:100080006F0200086F0200086F0200086F0200088C
:100090006F0200086F0200086F0200086F0200087C
:1000A0006F0200086F0200086F0200086F0200086C
:1000B0006F0200086F020008117E00086F0200083E
:1000C0006F0200086F0200086F0200086F0200084C
:1000D0006F02000865820008FD8200086F020008B8
:1000E0006F0200086F0200086F0200086F0200082C
:1000F0006F0200086F0200086F0200086F0200081C
:100100006F0200086F0200086F0200086F0200080B
:100110006F0200086F0200086F0200086F020008FB
:100120006F0200086F0200086F0200086F020008EB
:100130006F0200086F0200086F0200086F020008DB
:100140006F0200086F0200086F0200086F020008CB
:100150006F0200086F0200086F0200086F020008BB
:100160006F0200086F0200086F0200086F020008AB
:100170006F0200086F0200086F0200086F0200089B
:100180006F0200086F020008DFF80CD005F0CAFF0C
:10019000004800477DEE0008B08901202A4B19680D
:1001A0000868B0E8F04F80F30988BFF36F8F4FF015
:1001B000000080F3118870470000000006480068C6
:1001C000006880F3088862B661B6BFF34F8FBFF353
:1001D0006F8F00DF00BF00BF08ED00E0DFF80C000C
:1001E000016841F470010160704700BF88ED00E0D4
:1001F000EFF30980BFF36F8F134B1A681EF0100FD7
:1002000008BF20ED108A20E9F04F106008B44FF0CD
:10021000500080F31188BFF34F8FBFF36F8F12F040
:1002200025F84FF0000080F3118808BC19680868B1
:10023000B0E8F04F1EF0100F08BFB0EC108A80F34A
:100240000988BFF36F8F704754000020EFF30580DB
:10025000704700000648804706480047FEE7FEE773
:10026000FEE7FEE7FEE7FEE7FEE7FEE7FEE7FEE766
:10027000717B000889010008FE4880ED3A0A70474A
:100280002DE9F047DFF8EC9300262DED0A8B0446AC
:10029000B0EE408AF0EE608A884635463746D9F897
:1002A000AC0005F022FD53EC182B05F083FD6FD355
:1002B000D9F8B00005F019FD53EC182B05F092FDAC
:1002C000F5D3B4F90000B4F90610401A05F00DFD9D
:1002D00053EC182B05F06EFD00D20126B4F90E0088
:1002E000B4F91410401A05F000FD53EC182B05F07A
:1002F00061FD00D2761CB4F91C00B4F92210401A3A
:1003000005F0F3FC53EC182B05F054FD00D2761CDD
:100310009FEDD90B012E3BDC53EC102B51EC180B4D
:1003200005F0ECFB8946064649EC180BB4F90000D1
:10033000B4F90610401A05F0D8FC53EC182B05F060
:1003400051FD00D20125B4F90E00B4F9141049ECA6
:10035000186B401A05F0C9FC53EC182B05F042FD50
:1003600000D26D1CB4F91C00B4F9221049EC186BD2
:10037000401A05F0BAFC53EC182B05F033FD00D2FF
:100380006D1C002D05DD0220BDEC0A8BBDE8F08759
:1003900065E000269FEDBACB06EB460904EB890524
:1003A000B5F90A0005F0A1FC98ED048B53EC182B6D
:1003B00005F09EFB41EC190BB5F9040005F095FC26
:1003C00053EC182B05F094FB53EC192B05F096FB1E
:1003D00041EC190BB5F9080005F087FC98ED028B8C
:1003E00053EC182B05F084FB41EC1A0BB5F9020015
:1003F00005F07BFC53EC182B05F07AFB53EC1A2B21
:1004000005F07CFB41EC1A0BB5F9060005F06DFC1C
:1004100098ED008B53EC182B05F06AFB41EC1B0B9D
:1004200034F9290005F061FC53EC182B05F060FB52
:1004300053EC1B2B05F062FB53EC1A2B05F0B7FABB
:1004400053EC192B05F0B3FA53EC1C2B05F0B2FC5E
:1004500000D27F1C761C032E9EDB022F01DA0120C6
:1004600092E7002090E788490A684B68D00180EA4B
:10047000D20080EA031048608B68520380EAC3030D
:1004800082EA5312520282EAD0208B6008607047E1
:1004900010B52DED048BF0EE408AFFF7E4FF00EE7F
:1004A000100AB8EE400ADFED790A20EE200A9FED2F
:1004B000789A20EE090A08F043FBB0EE408AFFF775
:1004C000D2FF00EE100AB8EE400A20EE090AB5EE9F
:1004D000C00AF1EE10FA01D1B7EE000A10EE100AD0
:1004E00005F054FC41EC100B08F0DEFB9FED691B9E
:1004F00051EC100B53EC112B05F000FB05F08AFCBE
:1005000000EE100A09F0D5FC20EE280A20EE080AB9
:10051000BDEC048B10BD2DE9F04105462DED048B9B
:10052000B0EE608AF0EE408A0F4618EE100A05F031
:100530002DFC97ED301B53EC112B05F0DFFA41EC4D
:10054000190B18EE900A05F021FC95ED301B53ECC9
:10055000112B05F0D3FA53EC192B05F028FA0024DF
:10056000C5E9300118EE100A05F010FC07EBC408CD
:1005700098ED001B53EC112B05F0C0FA41EC190B60
:1005800018EE900A05F002FC05EBC40696ED001B80
:1005900053EC112B05F0B2FA53EC192B05F007FAC6
:1005A000C6E9000118EE100A05F0F0FB98ED241BD7
:1005B00053EC112B05F0A2FA41EC190B18EE900A3E
:1005C00005F0E4FB96ED241B53EC112B05F096FA95
:1005D00053EC192B05F0EBF9641CC6E92401062C39
:1005E000C0DB002418EE100A05F0D0FB41EC100B24
:1005F00007EBC40090ED121B51EC100B53EC112BC8
:1006000005F07CFA41EC190B18EE900A05F0BEFBE0
:1006100005EBC40696ED121B53EC112B05F06EFA98
:1006200053EC192B05F0C3F9641CC6E91201092C1F
:10063000D8DB002418EE100A05F0A8FB41EC100BE3
:1006400007EBC40090ED0C1B51EC100B53EC112B7D
:1006500005F054FA41EC190B18EE900A05F096FBE0
:1006600005EBC40696ED0C1B53EC112B05F046FA76
:1006700014E00000903C0120000000000000044055
:10068000000000000000000038010020DB0FC9401E
:100690000000802F00000000000000C053EC192B68
:1006A00005F085F9641CC6E90C01032CC2DBBDEC26
:1006B000048BBDE8F0812DE9F04F04462DED068B4B
:1006C00083B00D46086805F010FB41EC1A0B686812
:1006D00005F00BFB41EC190BA86805F006FB41EC9B
:1006E000180B94ED300B9FEDFE1B51EC100B53ECEF
:1006F000112B05F05CF9C4E9300194ED0C0B53ECBF
:100700001A2B51EC100B05F052F9C4E90C0194EDD1
:100710000E0B53EC192B51EC100B05F048F9C4E902
:100720000E0194ED100B53EC182B51EC100B05F04F
:100730003EF9C4E9100153EC1A2B51EC1A0B05F0E9
:10074000DDF9029194ED001B064653EC112B05F0E8
:100750002EF9C4E9000153EC192B51EC1A0B05F0EA
:10076000CDF9894649EC100B94ED021B054653EC7C
:10077000112B51EC100B05F01AF9C4E9020153ECEE
:10078000182B51EC1A0B05F0B9F98B464BEC100BFA
:1007900094ED041B804653EC112B51EC100B05F02B
:1007A00006F9C4E9040153EC192B51EC190B05F0BF
:1007B000A5F9019194ED061B074653EC112B05F0AA
:1007C000F6F8C4E9060153EC182B51EC190B05F0AF
:1007D00095F9009194ED081B824653EC112B05F01E
:1007E000E6F8C4E9080153EC182B51EC180B05F09E
:1007F00085F994ED0A1B53EC112B05F0D8F8C4E9E8
:100800000A01029953EC1A2B41EC106B51EC100BBE
:1008100005F074F994ED121B53EC112B05F0C7F899
:1008200049EC105BC4E9120153EC192B51EC100B8D
:1008300005F064F994ED141B53EC112B05F0B7F897
:100840004BEC108BC4E9140153EC182B51EC100B3A
:1008500005F054F994ED161B53EC112B05F0A7F895
:1008600049EC105BC4E9160153EC1A2B51EC100B48
:1008700005F044F994ED181B53EC112B05F097F893
:10088000C4E91801019953EC192B41EC107B51EC90
:10089000100B05F033F994ED1A1B53EC112B05F0F6
:1008A00086F8C4E91A010099554641EC10AB0E4692
:1008B00053EC182B51EC100B05F020F994ED1C1B98
:1008C00053EC112B05F073F8C4E91C0153EC1A2BFF
:1008D00051EC180B05F012F953EC1A2B05F00EF938
:1008E00094ED1E1B53EC112B05F061F846EC105BE8
:1008F000C4E91E0153EC192B51EC100B05F0FEF866
:1009000094ED201B53EC112B05F051F8C4E92001A4
:1009100053EC182B51EC180B05F0F0F8894649EC14
:10092000100B074653EC182B51EC100B05F0E6F8B2
:1009300094ED221B53EC112B05F039F8C4E9220188
:1009400053EC1A2B51EC1A0B05F0D8F8884648ECFA
:10095000100B054653EC1A2B51EC100B05F0CEF89A
:1009600053EC1A2B05F0CAF894ED241B53EC112B11
:1009700005F01DF8C4E9240153EC192B51EC190BB7
:1009800005F0BCF88A464AEC100B064653EC192BCE
:1009900051EC100B05F0B2F853EC192B05F0AEF842
:1009A00094ED261B53EC112B05F001F849EC107B5C
:1009B000C4E9260153EC182B51EC100B05F09EF8FE
:1009C00053EC182B05F09AF894ED281B53EC112BDF
:1009D00004F0EDFF48EC105BC4E9280153EC192B3F
:1009E00051EC100B05F08AF853EC192B05F086F842
:1009F00094ED2A1B53EC112B04F0D9FF48EC105B4B
:100A0000C4E92A0153EC182B51EC100B05F076F8D1
:100A100053EC182B05F072F894ED2C1B53EC112BB2
:100A200004F0C5FF4AEC106BC4E92C0153EC182B01
:100A300051EC100B05F062F853EC182B05F05EF842
:100A400094ED2E1B53EC112B04F0B1FFC4E92E01E1
:100A500003B0BDEC068BBDE8F08F2DE9F04F934657
:100A60002DED108B0D46044693B090ED0CEB53EC3E
:100A70001E2B51EC1E0B05F041F894ED000B41ECE0
:100A8000190B8DED080B94ED308B53EC102B51ECC2
:100A9000180B05F033F853EC192B05F029F894EDF9
:100AA0000EDB41EC1F0B53EC1D2B51EC1D0B05F025
:100AB00025F894ED060B41EC190B8DED060B53EC6C
:100AC000102B51EC180B05F019F853EC192B05F00D
:100AD0000FF841EC100B8DED040B94ED10CB03E0FF
:100AE000000000000000F03F53EC1C2B51EC1C0BED
:100AF00005F004F894ED0A0B41EC190B8DED020B97
:100B000053EC102B51EC180B04F0F8FF53EC192B9D
:100B100004F0EEFF41EC110B53EC1D2B8DED001B8F
:100B200051EC1E0B04F0EAFF94ED020B41EC190BA3
:100B300053EC102B51EC180B04F0E0FF53EC192B85
:100B400004F0D6FF41EC1B0B53EC1C2B51EC1E0B9D
:100B500004F0D4FF94ED040B41EC190B53EC102B73
:100B600051EC180B04F0CAFF53EC192B04F0C0FF32
:100B700041EC1A0B53EC1C2B51EC1D0B04F0BEFF87
:100B800094ED080B41EC190B53EC102B51EC180BA6
:100B900004F0B4FF53EC192B04F0AAFF9DED020BF7
:100BA00041EC190B53EC102B51EC1E0B04F0A6FF7B
:100BB00041EC110B51EC180B8DED101B94ED160B45
:100BC00053EC102B04F09AFF41EC110B51EC1E0B6F
:100BD0008DED0E1B9DED060B53EC102B04F08EFFDC
:100BE00041EC110B51EC180B8DED0C1B94ED140B1B
:100BF00053EC102B04F082FF41EC110B51EC1E0B57
:100C00008DED0A1B9DED080B53EC102B04F076FFC5
:100C100094ED120B41EC1E0B53EC102B51EC180B06
:100C200004F06CFF53EC1E2B04F062FF9DED0A1BD9
:100C300053EC112B04F0BBFE9DED0C1B53EC112B60
:100C400004F056FF9DED0E1B53EC112B04F0AFFE8C
:100C50009DED101B53EC112B04F04AFF9FEDFE1B82
:100C600053EC112B04F04AFF9DED020B41EC1E0BDF
:100C700053EC102B51EC1D0B04F040FF41EC110B19
:100C800051EC180B8DED101B94ED1C0B53EC102B3D
:100C900004F034FF41EC110B51EC1D0B8DED0E1BDC
:100CA0009DED060B53EC102B04F028FF41EC110BCB
:100CB00051EC180B8DED0C1B94ED1A0B53EC102B13
:100CC00004F01CFF41EC110B51EC1D0B8DED0A1BC8
:100CD0009DED080B53EC102B04F010FF94ED180B56
:100CE00041EC1D0B53EC102B51EC180B04F006FFDC
:100CF00053EC1D2B04F0FCFE9DED0A1B53EC112B55
:100D000004F055FE9DED0C1B53EC112B04F0F0FE8E
:100D10009DED0E1B53EC112B04F049FE9DED101BB5
:100D200053EC112B04F0E4FE9FEDCB1B53EC112B85
:100D300004F0E4FE9DED020B41EC1D0B53EC102B77
:100D400051EC1C0B04F0DAFE41EC110B51EC180BCA
:100D50008DED021B94ED220B53EC102B04F0CEFE14
:100D600041EC110B51EC1C0B8DED0A1B9DED060B9C
:100D700053EC102B04F0C2FE41EC110B51EC180B9C
:100D80008DED0C1B94ED200B53EC102B04F0B6FEF4
:100D900041EC110B51EC1C0B8DED061B9DED080B6E
:100DA00053EC102B04F0AAFE94ED1E0B41EC1C0B2F
:100DB00053EC102B51EC180B04F0A0FE53EC1C2B41
:100DC00004F096FE9DED061B53EC112B04F0EFFD95
:100DD0009DED0C1B53EC112B04F08AFE9DED0A1BBC
:100DE00053EC112B04F0E3FD9DED021B53EC112B92
:100DF00004F07EFE9FED981B53EC112B04F07EFE59
:100E00009DED040B41EC180B53EC102B51EC1F0B18
:100E100004F074FE10919DED001B824653EC112BE3
:100E200004F06CFE41EC110B53EC192B8DED0A1BF9
:100E300051EC1F0B04F062FE53EC192B04F05EFE24
:100E400041EC110B53EC1A2B8DED081B9DED040B9F
:100E500051EC100B04F052FE814653EC1A2B119109
:100E600004F04CFE41EC110B8DED061B9FED7C0B4D
:100E700051EC1B0B53EC102B04F040FE53EC1A2BDF
:100E800004F03CFE53EC192B04F038FE9DED001BE2
:100E900041EC1C0B53EC1B2B51EC110B04F02EFE00
:100EA000074653EC1B2B029104F028FE53EC1C2B3D
:100EB00004F01EFE9DED061B53EC112B04F077FD94
:100EC0009DED081B53EC112B04F071FD9DED0A1BE9
:100ED00053EC112B04F00CFE41EC1C0B9FED620B4C
:100EE00053EC102B04F066FF7DD053EC192B51EC22
:100EF0001B0B04F003FE53EC182B04F0FFFD41EC38
:100F0000110B53EC1D2B8DED0E1B029941EC107B48
:100F100051EC100B04F0F2FD41EC110B8DED0C1BAC
:100F20009DED000B53EC102B9DED040B51EC100BC1
:100F300004F0E4FD53EC1E2B04F0E0FD41EC110B3A
:100F400053EC192B8DED081B51EC190B04F0D6FD59
:100F500053EC1E2B04F0D2FD41EC110B53EC1D2B76
:100F60008DED0A1B51EC190B04F0C8FD41EC110B7F
:100F700053EC182B8DED061B9DED040B51EC100B63
:100F800004F0BCFD9DED061B53EC112B04F0B0FDED
:100F900053EC1A2B04F0B2FD9DED0A1B53EC112B00
:100FA00004F005FD9DED081B53EC112B04F0A0FD92
:100FB0009DED0C1B53EC112B04F0F9FC9DED0E1B69
:100FC00053EC112B04F094FD41EC100B53EC1A2B55
:100FD0008DED060B51EC1B0B04F090FD8846064688
:100FE00048EC100B00E065E153EC182B51EC100BB2
:100FF00004F084FD41EC110B53EC1E2B8DED041B12
:10100000029941EC107B51EC100B04F077FD41ECA0
:10101000110B51EC1F0B8DED021B9DED000B53ECE2
:10102000102B04F06BFD53EC1D2B04F067FD41EC1D
:10103000110B53EC1A2B8DED081B51EC1A0B04F01D
:101040005DFD53EC1D2B04F059FD41EC110B53ECED
:101050001E2B8DED001B0BE0000000000000E03FA8
:101060000000000000000040000000000000000040
:1010700051EC1A0B04F042FD41EC1A0B53EC182B07
:1010800051EC1F0B04F03AFD53EC1A2B04F030FD29
:1010900053EC192B04F032FD9DED001B53EC112B8A
:1010A00004F085FC9DED081B53EC112B04F020FD92
:1010B0009DED021B53EC112B04F079FC9DED041BFC
:1010C00053EC112B04F014FD41EC100B53EC1D2BD1
:1010D0008DED040B48EC106B51EC100B04F00EFD81
:1010E00041EC110B53EC1E2B8DED001B119941ECC3
:1010F000109B51EC100B04F001FD41EC110B53EC73
:10110000182B8DED021B109941EC10AB51EC100B1C
:1011100004F0F4FC41EC1A0B53EC1B2B51EC1B0BB1
:1011200004F0ECFC53EC182B04F0E8FC41EC180B39
:1011300053EC1E2B51EC1B0B04F0E0FC41EC1B0BA1
:1011400053EC1D2B51EC1F0B04F0D8FC53EC1B2B64
:1011500004F0CEFC53EC192B04F0D0FC53EC182B0C
:1011600004F025FC53EC1A2B04F0C2FC9DED021B8D
:1011700053EC112B04F01BFC9DED001B53EC112BC9
:1011800004F0B6FC9DED060B41EC190B53EC1C2B47
:1011900051EC100B04F024FD41EC180B53EC1C2B0C
:1011A00085ED008B9DED040B51EC100B04F018FD48
:1011B00041EC1A0B53EC1C2B85ED02AB51EC190BD7
:1011C00004F00EFD41EC190B85ED049B94ED100B22
:1011D00053EC102B04F092FC94ED0E0B41EC1B0B26
:1011E00053EC102B51EC1A0B04F088FC94ED0C0B13
:1011F00041EC1C0B53EC102B51EC180B04F07EFC53
:1012000053EC1C2B04F0D3FB53EC1B2B04F0CFFB53
:101210001FED6D1B53EC112B04F070FC94ED061BBD
:1012200094ED000B41EC1B0B53EC112B51EC100B0C
:1012300004F0BDFB94ED0A1B53EC112B04F0B7FB3B
:1012400053EC1B2B04F054FC94ED301B53EC112B8E
:1012500004F0C6FC41EC1B0B53EC192B51EC190BA1
:1012600004F04CFC41EC190B53EC1A2B51EC1A0B0B
:1012700004F044FC41EC1A0B53EC182B51EC180B06
:1012800004F03CFC53EC1A2B04F091FB53EC192BAB
:1012900004F08DFB53EC1B2B04F089FB41EC100B8D
:1012A00008F0CAFD8BED000B012013B0BDEC108BD4
:1012B000BDE8F08F0020F8E72DE9F04F0D462DED49
:1012C000108B04468BB091ED00AB53EC1A2B51EC14
:1012D0001A0B04F013FC94ED0CCB53EC1C2B04F014
:1012E0000DFC53EC1C2B04F009FC94ED30FB41EC9D
:1012F000180B53EC1A2B51EC1F0B04F0FFFB8B4621
:101300004BEC100B074653EC1A2B51EC100B04F06E
:10131000F5FB94ED00EB53EC1E2B04F0EFFB53ECCC
:10132000182B04F0E5FB41EC190B53EC1E2B51EC90
:101330001A0B04F0E3FB53EC1C2B04F0DFFB4BEC2B
:10134000107B94ED121B41EC180B53EC112B51EC5C
:10135000100B04F0D3FB53EC192B04F0CCFB53EC33
:10136000182B04F024FB41EC1B0B1FEDC30B51ECBD
:101370001A0B53EC102B04F0C1FB894649EC100BFF
:1013800095ED029B064653EC192B51EC100B04F023
:10139000B5FB53EC1C2B04F0B1FB94ED0EDB53ECCE
:1013A0001D2B04F0ABFB41EC180B1FEDD30B51ECE4
:1013B0001F0B53EC102B04F0A1FB824653EC1A2BAD
:1013C000069104F09BFB53EC192B04F097FB94ED72
:1013D000021B53EC112B04F091FB53EC1B2B04F07C
:1013E000E6FA53EC182B04F083FB41EC180B53EC9A
:1013F0001C2B51EC1A0B04F081FB049194ED06BBFD
:10140000804653EC1B2B04F079FB41EC110B4BECA9
:10141000107B8DED001B94ED141B51EC100B53EC65
:10142000112B04F06BFB53EC182B04F064FB9DEDC7
:10143000001B53EC112B04F0BAFA41EC110B49ECF0
:10144000106B8DED001B95ED048B51EC100B53ECE4
:10145000182B04F053FB53EC1C2B04F04FFB94EDC2
:1014600010CB53EC1C2B04F049FB41EC110B53EC5B
:101470001A2B8DED021B069941EC10AB51EC100BB1
:1014800004F03CFB53EC182B04F038FB94ED041BE8
:1014900053EC112B04F032FB9DED001B53EC112B90
:1014A00004F085FA9DED021B53EC112B04F020FB98
:1014B00041EC100B8DED000B049994ED0AAB41EC5F
:1014C000108B53EC1A2B51EC100B04F017FB41EC72
:1014D000110B4BEC107B8DED021B94ED161B51ECA8
:1014E000100B53EC112B04F009FB9DED001B53EC8A
:1014F000112B04F000FB9DED021B53EC112B04F0AB
:1015000056FA41EC110B8DED001B9FEDFE0B51ECDB
:101510001E0B53EC102B04F0F1FA53EC1E2B04F0CD
:10152000EDFA41EC110B8DED021B9FEDF60B51EC2A
:101530001F0B53EC102B04F0E1FA059194ED241BE2
:10154000814653EC112B04F0D9FA9DED001B53ECAE
:10155000112B04F02CFA9DED021B53EC112B04F01F
:10156000C7FA41EC110B53EC1E2B8DED001B51EC17
:10157000190B04F0C3FA53EC1D2B04F0BFFA41EC35
:10158000110B53EC192B8DED081B51EC1F0B04F0C4
:10159000B5FA039194ED181B064653EC112B04F099
:1015A000ADFA9DED001B53EC112B04F0A4FA9DED58
:1015B000081B53EC112B04F0FAF941EC110B8DEDE3
:1015C000001B9FEDD20B51EC1E0B53EC102B04F0C3
:1015D00095FA8B464BEC100B054653EC1B2B51EC4C
:1015E000100B04F08BFA41EC110B8DED081B9FEDF5
:1015F000C70B51EC1F0B53EC102B04F07FFA049136
:1016000094ED2A1B804653EC112B04F077FA9DEDE4
:10161000001B53EC112B04F0CAF99DED081B53EC91
:10162000112B04F065FA41EC110B53EC1E2B8DEDE0
:10163000001B51EC180B04F061FA53EC1C2B04F066
:101640005DFA41EC1E0B53EC182B51EC1F0B04F010
:1016500055FA029194ED1E1B074653EC112B04F032
:101660004DFA9DED001B53EC112B04F044FA53ECA2
:101670001E2B04F09CF94BEC105B41EC1F0B53EC60
:101680001A2B51EC100B04F039FA41EC1E0B0499A3
:1016900094ED2C1B41EC108B53EC112B51EC100BE7
:1016A00004F02CFA53EC1F2B04F081F953EC1E2BA1
:1016B00004F01EFA41EC1F0B53EC192B51EC190BE3
:1016C00004F01CFA53EC1D2B04F018FA53EC1D2BFC
:1016D00004F014FA41EC1E0B039953EC192B41EC66
:1016E000106B51EC100B04F009FA53EC1B2B04F0B7
:1016F00005FA53EC1F2B04F05AF953EC1E2B04F09F
:10170000F7F941EC1F0B53EC1B2B51EC190B04F0B8
:10171000F5F953EC1D2B04F0F1F941EC1E0B039984
:1017200094ED1A1B41EC106B53EC112B51EC100B88
:1017300004F0E4F953EC1F2B04F0DDF953EC1E2BFD
:1017400004F035F941EC1F0B9FED720B51EC190BB6
:1017500053EC102B04F0D2F953EC182B04F0CEF913
:1017600053EC1D2B04F0CAF953EC1C2B04F0C6F902
:1017700041EC1E0B069953EC192B41EC10AB51ECCC
:10178000100B04F0BBF953EC182B04F0B7F994EDEF
:10179000081B53EC112B04F0B1F953EC1F2B04F090
:1017A00006F953EC1E2B04F0A3F941EC1E0B53EC8D
:1017B0001D2B51EC190B04F0A1F953EC1A2B04F07A
:1017C0009DF941EC190B039994ED1C1B41EC106B36
:1017D00053EC112B51EC100B04F090F953EC1E2B31
:1017E00004F089F953EC192B04F0E1F841EC1D0BDE
:1017F0009FED44EB51EC1B0B53EC1E2B04F07EF9D8
:1018000053EC1B2B04F07AF941EC190B059994ED7C
:10181000261B41EC109B53EC112B51EC100B04F0E8
:101820006DF953EC1D2B04F0C2F853EC192B04F0A6
:101830005FF941EC1D0B53EC1B2B51EC180B04F022
:101840005DF953EC1C2B04F059F941EC190B02998A
:1018500094ED201B41EC107B53EC112B51EC100B41
:1018600004F04CF953EC1D2B04F045F953EC192B03
:1018700004F09DF89FED250B41EC190B53EC102B58
:1018800051EC1B0B04F03AF953EC1A2B04F036F927
:1018900041EC1B0B049994ED2E1B41EC108B53EC87
:1018A000112B51EC100B04F029F953EC192B04F017
:1018B0007EF853EC1B2B04F01BF941EC1B0B53EC93
:1018C000182B51EC180B04F019F953EC1C2B04F0F5
:1018D00015F953EC1C2B04F011F941EC190B02998A
:1018E00053EC182B41EC107B51EC100B04F006F973
:1018F00053EC1A2B04F002F953EC1B2B04F057F8AD
:101900000CE00000000000000000D03F00000000DC
:101910000000E03F000000000000004053EC192BE5
:1019200004F0E6F841EC190B53EC1A2B51EC180BB0
:1019300004F0E4F853EC1C2B04F0E0F841EC180B35
:10194000029994ED221B41EC107B53EC112B51ECCE
:10195000100B04F0D3F853EC192B04F0CCF853EC33
:10196000182B04F024F841EC180B53EC1E2B51EC0F
:101970001A0B04F0C3F853EC1A2B04F0BFF841EC37
:10198000190B059994ED281B41EC109B53EC112B7E
:1019900051EC100B04F0B2F853EC182B04F007F8DC
:1019A00053EC192B04F0A4F841EC100B0BB07DE4C0
:1019B00030B50446B0F88C0089B000040690B4F845
:1019C0008E000D4600040790B4F89000883400049F
:1019D000089002A80BF0F4FF029906982B46401AD3
:1019E00006900399079806AA401A07900499089848
:1019F000401A08902088616A80B20BF031FE09B06D
:101A000030BDF0B50D462DED048B87B06946FFF76C
:101A1000CFFF9FEDFE8B00246F469FEDFE9A03AE35
:101A200057F8240000EE100A06EB8400B8EEC00A56
:101A300020EE090A80ED000A20EE000A10EE100ADE
:101A400004F0A4F953EC182B03F0B1FF41EC180B90
:101A5000641C032CE4DBB0EE480AF0EE680A08F0E0
:101A6000EBF9B0EE408AF0EE608A002456F82400CC
:101A700004F08CF953EC182B04F0B2F804F0CAF916
:101A800000EE100A05EB8400641CD0ED000A032C64
:101A900030EE200A80ED000AE8DB686D401C6865C6
:101AA0000CF07EFAE86707B0BDEC048BF0BD2DE9C1
:101AB000F04104460CF02EF840BB0BF0AFFF0428B9
:101AC00024D0D54920460E46FFF79BFFD34DD5E9DC
:101AD0005C01814205DB304603F0E5FB0020C5F8E0
:101AE0007401208E4FF00406C00515D504F11800CE
:101AF0000CF002F88009B0F5C87F0AD2D5F8B8001A
:101B0000002850DD401EC5F8B8004AE00120BDE8BD
:101B1000F081C5F8B86044E0D4F8A010D5F81401FD
:101B2000081A01D4034600E04342BB4A4FF4A02CFC
:101B3000583A634505DDD4E929035365C2E913101A
:101B40002FE00312D4F8A470D5F818015B43381ABB
:101B500001D4864601E0C0F1000EE64505DDD4F86B
:101B6000A800D164C2E914701BE0001200FB00332E
:101B7000D4F8A800D5F81C11401A01D4014600E0A1
:101B8000414261450DDC001200FB0030B0F5403FE2
:101B9000B4DBA034C5F8B86094E80B004C3282E89E
:101BA0000B000020B3E70220B1E72DE9F04F9B4C7A
:101BB0002DED028B93B0D4F8A81090ED000B04EB40
:101BC000C10181ED000BD4F8A810491CC4F8A8107D
:101BD00090ED020B04EBC10181ED000BD4F8A810CD
:101BE000491CC4F8A81090ED040B04EBC10080ED73
:101BF000000BD4F8A800401CC4F8A800152802DB8C
:101C00000020C4F8A800182284490CA803F090FE14
:101C10001822824904A803F08BFE01260DF1300A38
:101C20000DF1100BA146002406EB460808EB040159
:101C300009EBC1050AEBC40795ED001B97ED000BFE
:101C400053EC112B51EC100B04F0CCF803D295EDB2
:101C5000000B87ED000B0BEBC40795ED001B97ED18
:101C6000000B53EC112B51EC100B04F0A3F803D232
:101C700095ED000B87ED000B641C032CD6DB761C66
:101C8000072ED0DB9DED0C1B9DED040B53EC112BAF
:101C900051EC100B03F02CFF9DED0E1B9DED060B80
:101CA00041EC180B53EC112B51EC100B03F020FFFF
:101CB00053EC182B04F07EF80BD39DED0E1B9DED1D
:101CC000060B53EC112B51EC100B03F011FF41EC00
:101CD000180B9DED101B9DED080B53EC112B51ECD7
:101CE000100B03F005FF53EC182B04F063F80BD333
:101CF0009DED101B9DED080B53EC112B51EC100BBF
:101D000003F0F6FE41EC180B13B0B0EE480AF0EE0B
:101D1000680ABDEC028BBDE8F08F10B504462DEDCE
:101D2000068B9CB0002155200E91CDE90F1011902B
:101D30009FED3B8B0AA80BF00DFE12A90AA80CF030
:101D400038FA16AA0EA912A80CF056FA6A460AA981
:101D500016A80CF051FA0198B2EE059A00F59670AB
:101D600001900298B0EE490A00F59670029003982F
:101D700000F596700390FEF78BFBBDEEC00A01994B
:101D800010EE100AB0EE490A08440190FEF780FBFD
:101D9000BDEEC00A029810EE101AB0EE490A0844CF
:101DA0000290FEF775FBBDEEC00A039910EE100A13
:101DB00008440390204601A9FEF77DFC94ED300B0A
:101DC0009FED191B51EC100B53EC112B04F00AF88A
:101DD0005DD21AAA04A92046FEF73FFE60B39DED2E
:101DE000080B9FED138B51EC100B53EC182B03F0E9
:101DF0007FFE41EC100B53EC102B03F07FFE41EC07
:101E0000190B9DED060B53EC182B16E0000000009B
:101E10000000000000008037B03D0120903C012010
:101E20000000000000408F4000000000000034402F
:101E30000000000000C0724029E051EC100B03F0DC
:101E400057FE41EC100B53EC102B03F057FE9DEDA9
:101E5000040B41EC1A0B53EC182B51EC100B03F054
:101E600047FE41EC100B53EC102B03F047FE53ECF4
:101E70001A2B03F09CFD53EC192B03F098FD41EC59
:101E8000100B07F0D9FFB0EE408AF0EE608A9FEDAC
:101E9000FD0B51EC180B53EC102B03F0A1FE1CB002
:101EA00041EC100BBDEC068B10BD10B5E821F748D6
:101EB00003F065FDF648F74920F8BC1F4A0CC280C4
:101EC000C181828281834284F048E821E83003F0B6
:101ED00056FDEF490020C1F8B40010BD2DE9F043D4
:101EE000EB4D04462DED108BC3B0006BC5F8A0017F
:101EF0002046FFF7DCFD00287ED1D5F8941105F1CE
:101F0000BC08012911D1B4F98C003D90B4F98E00C0
:101F10003E90B4F990003F903DA9DC48FEF7CBFB22
:101F200004F18C01404600F0A4FB1FED48DB9FED5F
:101F3000DABB9FEDDBCB9FEDDCAB9FEDDDEBD34E52
:101F4000D5F80801E83E002802DD401EC5F808016A
:101F500096ED300B53EC1D2B51EC100B03F042FFB0
:101F60007DD2CA49E822E839684603F0E1FCC74857
:101F70003DA9E838FEF79FFBC44940AA20390F4627
:101F8000A1F1C800FEF769FD00287BD0BF483946A3
:101F9000E838FFF791F9B0EE408AF0EE608A95EDEF
:101FA000400B51EC180B53EC102B03F0A1FD96EDF8
:101FB000300B41EC190B53EC1B2B51EC100B03F0C5
:101FC00097FD41EC100B51EC190B53EC102B03F067
:101FD00007FE41EC100B07F02FFF96ED30FBB0EE43
:101FE000409AF0EE609A53EC1B2B51EC1F0B03F060
:101FF0007FFD53EC1F2B00E0E9E003F07FFD41EC97
:102000001F0B53EC1C2B51EC180B03F077FD53EC1A
:102010001F2B03F0E5FD41EC100B07F00DFFD5F889
:10202000E80003F0B3FE95ED381B53EC112B03F0E1
:1020300065FD53EC192B03F0BDFE03D3D5F8080161
:10204000002826DD9148E8226946E83803F070FC54
:10205000D5F8E80003F09AFE95ED381B01E010E09A
:1020600010E053EC112B03F049FD53EC192B03F056
:10207000A1FE5CD24FF4FA7001F03CFE0A20C5F8D4
:10208000080154E08148E8226946E83803F050FC32
:102090004DE0D5F89801012849D1D5F8B400401C8D
:1020A000C5F8B40000200CF019FD96ED320B53EC8E
:1020B0001A2B51EC100B03F021FD03F048FE3A906F
:1020C00096ED340B53EC1A2B51EC100B03F016FD6C
:1020D00003F03DFE3B9096ED360B53EC1A2B51EC82
:1020E000100B03F00BFD03F032FE3C9003213AA8E5
:1020F0000CF058FC96ED300B53EC1E2B51EC100BF2
:1021000003F070FE11D29FED6C0A6049E839F0EEE1
:10211000400A0846FEF7FFF95C483946E838FFF701
:10212000CBF8B0EE408AF0EE608A85ED408B208ED1
:10213000564FC0050CD5B4F87400C00508D507F19A
:10214000E800FFF7EAFDB0EE408AF0EE608A01E0B9
:102150009FED4C8B97ED300B1FEDCD1B51EC100B11
:1021600053EC112B03F026FE31D3484940AAC83165
:1021700089464648FEF771FC00287CD0D4F8AC00B4
:1021800003F0B3FD41EC100B53EC102B9FED4B0B08
:1021900051EC100B03F024FD41EC1F0B4846FFF7F8
:1021A00004FDB0EE409AF0EE609A53EC1F2B51EC18
:1021B000190B03F017FE0BD29FED420B51EC180BDD
:1021C00053EC102B03F0F6FD02D2FFF76EFEDBE1BD
:1021D00053EC1F2B51EC190B03F0ECFD51D251ECD9
:1021E000180B9FED3A9B53EC192B03F0E3FDF5D24E
:1021F00097ED300B9FED371B51EC100B53EC112B6F
:1022000003F0F0FDEAD296ED300B53EC1D2B51ECB0
:10221000100B03F0CFFD7CD149461C48FFF74CF86A
:10222000B0EE408AF0EE608A85ED408B97ED309BF2
:1022300053EC1B2B51EC190B03F05AFC53EC192BEC
:1022400003F05CFC41EC190B53EC1C2B51EC180B0C
:1022500003F054FC53EC192B03F0C2FC41EC100BBF
:1022600007F0EAFDB0EE408AF0EE608AD5F8E800AB
:1022700003F08CFD00E088E195ED381B53EC112B49
:102280002CE078E10000000000000840C03A012086
:10229000903C01200080FFFF000000000000F03FA4
:1022A0000000000000000040000000000000F040BE
:1022B0000000000000409F406666E63E9A999999AA
:1022C0009999A941000000000000F83F00000000BB
:1022D000000010400000000000003E4003F00EFC33
:1022E00053EC182B03F066FDFFF46FAF9DED400B30
:1022F00049464046FDF7C4FF02283FF466AF002878
:102300007ED1D5F898010128FAD100200CF0E6FB27
:1023100000E02FE097ED320B53EC1A2B51EC100B31
:1023200003F0ECFB03F013FD3A9097ED340B53EC04
:102330001A2B51EC100B03F0E1FB03F008FD3B906E
:1023400097ED360B53EC1A2B51EC100B03F0D6FB28
:1023500003F0FDFC3C9003213AA80CF023FB012084
:102360000CF050FB192000900190029068460CF090
:102370003FFBF6E0D5F8B40003F0B7FC97ED301B57
:1023800053EC112B03F02CFC9FEDE71B53EC112BAE
:1023900003F028FDA8D34946E548FEF78DFF97EDE9
:1023A00030DBB0EE408AF0EE608A53EC1B2B51EC30
:1023B0001D0B03F09DFB53EC1D2B03F09FFB41EC29
:1023C0001B0B53EC1C2B51EC180B03F097FB53EC3D
:1023D0001B2B03F005FC41EC100B07F02DFDB0EEBC
:1023E00040BAF0EE60BAD5F8E80003F0CFFC95ED06
:1023F000381B53EC112B03F081FB53EC1B2B00E03B
:1024000087E003F0D7FCC5D39DED400B494640461D
:10241000FDF736FF00287CD196ED361B97ED360B85
:1024200053EC112B51EC100B03F062FB41EC100B41
:1024300053EC102B03F062FB96ED341B97ED340B3D
:1024400041EC1B0B53EC112B51EC100B03F050FB28
:1024500041EC100B53EC102B03F050FB96ED321BAC
:1024600097ED320B41EC1C0B53EC112B51EC100B84
:1024700003F03EFB41EC100B53EC102B03F03EFB42
:1024800053EC1C2B03F093FA53EC1B2B03F08FFA45
:1024900041EC100B07F0D0FCB0EE40BAF0EE60BAA1
:1024A000D4F8AC0003F021FC53EC1B2B03F026FB0B
:1024B0009FEDA01B53EC112B03F020FB41EC1B0BF9
:1024C00053EC192B03F08EFC1AD39FED9C0B51ECAF
:1024D0001B0B53EC102B03F085FCBFF476AED5F844
:1024E000B40003F002FC97ED301B53EC112B03F00A
:1024F00077FB9FED941B53EC112B03F05BFCECD2AC
:10250000D5F8980101287FF460AE00200CF0E6FABF
:1025100000E039E085ED408B97ED320B53EC1A2B40
:1025200051EC100B03F0EAFA03F011FC3A9097ED2E
:10253000340B53EC1A2B51EC100B03F0DFFA03F0C1
:1025400006FC3B9097ED360B53EC1A2B51EC100B1D
:1025500003F0D4FA03F0FBFB3C9003213AA80CF003
:1025600021FAF7EE000A9FED790A7149A1F1E8001E
:10257000FDF7D1FF29E697ED300B53EC1E2B51EC04
:10258000100B03F02FFCF5D3002043B0BDEC108BF3
:10259000BDE8F08370B56E4C0546D4F80C0110B957
:1025A000284600F091F8D5F8B01044F6206081423A
:1025B0000ADAD4F8102111448142C4F810114FF006
:1025C000000005DBC4F810012846BDE8704085E432
:1025D00070BD04224FF4C871AFF247000CF04AB846
:1025E000AFF24F000CF0E8BB514810B5E821E838D5
:1025F00003F0C5F9FFF759FC4FF4D471544803F0C8
:10260000BEF9534CB7EE000A04F5907084ED3A0A17
:1026100002F095FD0A20C4F87001B2EE000A84EDC4
:10262000570A1E209FED4B0AC4F87C0184ED620A14
:102630009FED490A84ED610A9FED480A002084ED70
:10264000630A10BD10B5FFF7CFFF002805D1AFF228
:102650007D00BDE810400CF0D1B810BD10B5AFF250
:10266000CB000CF0A9FBAFF29500BDE810400CF0D8
:10267000D5BB30B50022C2EBC20331F9124030F9AC
:102680001350AC420ADD02EB42040D8820F82450BE
:1026900000EB84044D8865808D88A58000EB4303A2
:1026A00031F91240B3F906309C4209DA02EB4203D9
:1026B00000EB83030C88DC804C881C818C885C8157
:1026C000521C032AD7DB30BD70B5214DD0F8AC20A9
:1026D0000446EAB1D3170020192103F0D7F845F8D2
:1026E000AC0F54F8AC2F0020D317052103F0CEF81F
:1026F000686022680020D317962103F0C7F803F022
:10270000F4FAC5E90D01AC3D0120C5F80C0170BD1E
:102710006FF00040C5F8AC009FED110BC5F8B0009C
:1027200085ED380BF0E700000AD7A3703D0AE73FBC
:10273000C03A0120000000000000103E0000000030
:1027400000000440333333333333C33F0000000011
:10275000903C0120CDCCCC3E3333333F9A99193F86
:102760000000C0FFFFFFDF4110B5FF49C4074FF075
:1027700040434FF0804205D08B66CB66C1E91C32E6
:102780008A67CA67840709D5C1F80031C1F80431E6
:10279000C1E94232C1F81021C1F81421400709D51E
:1027A000C1F89831C1F89C31C1E96832C1F8A8215B
:1027B000C1F8AC2110BD2DE9F14F002082B0824656
:1027C00081460298806F00287ED000220020401CA5
:1027D0000428FCDB029800EBC203D3E90010A1FB44
:1027E0000167D3E9065400FB017701FB0077AB4694
:1027F000AD1BCDE900670326A5FB06C8A64664EB22
:10280000070404FB0684002705FB0745DDE9006794
:102810001CEB06047D41A4FB016705FB017504FB6D
:102820000055D3E90C47341B65EB0705CDE900459E
:102830005D46A5FB05670324A6FB04580EFB0B773A
:102840000BFB0E7707FB04844FF0000C06FB0C44D7
:10285000D3E91263761B63EB04034C18A4FB017CE1
:1028600040EB000505FB01C504FB0055A7FB014C2F
:1028700005FB01C507FB0055A4FB017C05FB01C559
:1028800004FB0054F6196341DDE90045AD0045EA5B
:102890009475A400A4FB017C05FB01C104FB00149A
:1028A000F01B73EB040103D50023404263EB0101ED
:1028B000BAEB000479EB010301DA82468946521C27
:1028C000032A83DB504600E016E0494603F0F7F99F
:1028D00000EE900AA54890ED0E1A80EE810A10EEE7
:1028E000100A03F013FAA04AD2F80C2203B09200A7
:1028F000BDE8F04F03F00AB8002003B00146BDE880
:10290000F08F2DE9F14F0020009A0146926FE2B35B
:1029100000240022521C042AFCDB009A02EBC405AE
:10292000AA46D5E90029A2FB023CD5E906769E46D7
:10293000FB1A0325A3FB057809FB02CC02FB09CB9C
:1029400066EB0B0606FB05854FF0000C03FB0C56EF
:1029500017EB0E03A3FB027C46EB0B0606FB02C241
:1029600003FB0923DAE90C25BA1AAB4103D500258C
:10297000524265EB0303851A71EB030501DA104639
:102980001946641C032CC4DB00E015E003F097F942
:1029900000EE900A754890ED0E1A80EE810A10EE56
:1029A000100A03F0B3F9704AD2F80C22BDE8F84FD0
:1029B00002EB420202F0AABF00200146BDE8F88FF8
:1029C0002DE9FE43684D80460024D5F810626F461D
:1029D00005EBC4013246D1E9020102F088FF05EBA4
:1029E0008401B1F884100904401847F8240004F168
:1029F0000104032CECDB5C489821083002F0BFFF97
:102A00000120FFF7B1FE95F8E8010199042807D1EC
:102A1000D5F81802B0F5201F02DD052085F8E80181
:102A2000524C0098636AC11A01D40E4600E01E1A87
:102A30000198A26A801A01D4074601E0019FD71BC2
:102A4000BE4206DD002901D4084606E00098181AA7
:102A500003E0002801D50198101A029AE16A521A7F
:102A600001D4134601E0029BCB1A834205DB002A06
:102A700001D4104601E00298081AD8F824100BF08F
:102A800050FBD5F81812814206DD032168460CF090
:102A9000BBF802200CF020F9009860620198A06257
:102AA0000298E062BDE8FE83304AC2E90201704745
:102AB0002E4AC2E9060170472C4AC2E90401704758
:102AC000294AD2F8E0310360D2E97402C1E9000278
:102AD0007047254AD2F8E0310360D2E97602C1E9B5
:102AE000000270472DE9FE4781460020EA468A6FC2
:102AF00022B901EB800339F91020DA6701EB80027B
:102B000039F91030D46F1D1B4AF82050136E9D42C6
:102B100000DD1566D36E9D4200DAD56601230024E0
:102B200022464FEAE578A3FB056704FB057403FB27
:102B30000844334602EB420601EBC60606EBC00C26
:102B4000DCE90076FF186641CCE90076521C042AC5
:102B5000E9DB401C0328CADB886F401C8867012022
:102B6000C1F89000BDE8FE87383E01209840012062
:102B700030B5002302EB830550F823405B1CEC6664
:102B8000032BF7DBC2F88810916F79B1002102EBBB
:102B9000810450F82130E56F5B1B00D55B42256E48
:102BA0009D4200DA2366491C0329F0DB906F401C2C
:102BB00090670120C2F8900030BD10B500210B468F
:102BC00000EB8102491CD46ED46713660329F7DB3E
:102BD000D0F8881040F8783FC0E9051310BDD0E95F
:102BE0002210081A70470146D1E91802824200DB20
:102BF0001046896E814200DB084670472DE9F04798
:102C00008046501E012686408946C2F12007404674
:102C100002F07CFE04460D46404649463A4602F024
:102C200066FE3A4602F072FEB04203DD641C45F1D6
:102C3000000505E07142884202DA641E45F1FF3565
:102C400020462946BDE8F087F7490020086248621F
:102C50008862C862086448648864C864086348631A
:102C60008863C863086548658865C865704730B57E
:102C7000EE4AD2F8483223B1D2E990542D1A8C4151
:102C800001DAC2E990015B1CC2F8483230BD30B5B0
:102C9000E64AD2F8583223B1D2E994542D1A8C4125
:102CA00001DAC2E994015B1CC2F8583230BD30B57C
:102CB000DE4AD2F828322BB1D2E98845041B71EBE9
:102CC000050401DAC2E988015B1CC2F8283230BD74
:102CD00030B5D64AD2F838322BB1D2E98C45041B34
:102CE00071EB050401DAC2E98C015B1CC2F83832D1
:102CF00030BD2DE9F0470246CC480125083080461A
:102D0000C36E016E046FC91A436E1B1B8B4200DB3E
:102D10001946836ED8F87400181A884200DB014601
:102D2000C14F6037F86B884204DA002400F010FAD3
:102D3000204687E7108E0124BC4EC0054FF00001ED
:102D40000ED5D6F880303068834209DBB2F87420A3
:102D5000D20506D5D6F8B021824201DB052400E079
:102D60000C4674B3600719D5AF48C8388146FFF7E1
:102D700022FD000D40EA01300915C6E97601D7E9C8
:102D800004321B1A8A4102DA0025FFF7A1FF9821BD
:102D9000484602F0F4FD0420FFF7E6FCE0070ED001
:102DA0004046FFF708FDC6E97C01D7E90634024634
:102DB000181A8C4103DA00251046FFF778FF2846E1
:102DC00040E7FFE702203DE71EB5044690F83000DB
:102DD000C0F38110032804D19449201D0831FFF766
:102DE00081FE94F87400C0F38110032805D18E4948
:102DF00004F14800C839FFF775FED4F8B8008B4AD3
:102E0000C0F38113A0326946032B0FD0C0F34110E9
:102E100003281AD1002004EB8003D3F8A0309B13C1
:102E200041F82030401C0328F5DB09E0002004EBCA
:102E30004003B3F98C3041F82030401C0328F6DB06
:102E40006846D4F8C010FFF793FE1EBD2DE9F04789
:102E500005460020296BCA056AD501F050014029BA
:102E600000D1012095F8741001F05001402900D1E3
:102E7000012095F8B8106D4C01F05001402900D0A8
:102E800030B100F065F90020C4F8E00184F8E801F1
:102E9000654ED4F80812E86A6036814228D0C4F83A
:102EA00008020A28306B0CDA40002060716B00EEDB
:102EB000100A491CC4F80C12B8EEC00A06F0F9FF5B
:102EC00005E02060706BC4F80C0296ED0E0A84EDEC
:102ED000850AD4F80C02C0F11000C4F810024FF4B7
:102EE0008040C4F8180296F8341019208840F06326
:102EF0002846FFF769FF94F8E811DFF830910527BD
:102F00004FF0020809F1A009072911D2DFE801F00A
:102F1000041127305E7E8500D4F8E001411CC4F81E
:102F2000E0110A2804DB00F013F9012084F8E8011D
:102F300086E0D4F89800012810D12846FFF7D9FE82
:102F400010B1012803D004E084F8E87101E084F8AE
:102F5000E8814846FFF731FEFFF776FE70E0032078
:102F600084F8E8012846FFF72BFD00F0F1F867E050
:102F70002846FFF7BEFEE8B3012861D1B5F8B800D6
:102F80004FF00403C00515D54846FFF72CFE014657
:102F9000C017C4E97410D6E902C2BCEB010182413A
:102FA00002DA84F8E87108E04846FFF718FE316A53
:102FB000884202D384F8E83124E0F4E97601FFF78F
:102FC00066FED4E90601FFF752FE39E0B5F8B80015
:102FD000C0050BD54846FFF706FE0146C017C4E9F9
:102FE0007410D6E90232591A824108DB2846FFF7ED
:102FF00080FE00E003E010B1012803D020E084F857
:10300000E8711DE02846FFF7DBFCD6E7062084F8D0
:10301000E80101200BF060FE0DE02846FFF769FE95
:10302000012805D038B10BE038400120383E01209E
:1030300084F8E88104E000F08BF84846FFF7BDFD16
:103040000020FFE510B500214010002802D001F15A
:103050000101F9DC4FF0010001F1010100FA01F07A
:10306000434C00EE100AC4E90C01B8EEC00A06F0A9
:1030700020FF84ED0E0A94F8341019208840E06394
:1030800010BD10B54FF418713A4802F078FC402199
:10309000374802F074FC0720FFF766FB344840F223
:1030A000DC510022C0E906121421C0E902124FF4DB
:1030B0001671C0E9041230492E4C01620120C4F897
:1030C000E4011920FFF7BEFF0020C4F8080210BD7C
:1030D00010B54FF41871274802F051FC0720FFF794
:1030E00043FB244801210022C0F8E41180F8E811D4
:1030F000032101200BF0E2FD07226421AFF2B3208F
:10310000BDE810400BF0B6BA10B501200BF0E4FD9D
:10311000AFF2C720BDE810400BF04EBE10B5FFF770
:10312000B0FF002805D1AFF25700BDE810400BF00A
:1031300065BB10BD10B5FFF7E7FFAFF26B00BDE850
:1031400010400BF06BBE0B49D1E97C017047704712
:10315000084810B59821083002F011FC9821074862
:1031600002F00DFCBDE810400520FFF7FDBA00009D
:1031700098400120383E01200008AF2F703F012009
:10318000F0B516462DED028B85B01F460C46054660
:103190003C22FE49A1F10C0002F0CAFBFB4950227F
:1031A0004C31A1F1100002F0C3FBF84996E80D0084
:1031B0000C3901F13C0C8CE80D005CCC01F198005D
:1031C00080E85C009FEDF28AD1F82401401CC1F830
:1031D0002401062802DD0620C1F82401C0F10606FC
:1031E0000C46A0351AE004EB06116A463846483111
:1031F0000BF002F806EB460004EB80016A46284615
:103200000AF0D6F9F0EEC00AB0EEC81AF4EEC10A20
:10321000F1EE10FA01D2B0EE408A761C062EE2DB07
:1032200005B0B0EE480ABDEC028BF0BD70B5144697
:103230002DED048B0E46B0EE408A00259FEDD59A09
:10324000416BF0EE498A002904DBD0F8BC0003286A
:1032500000D10125CD492422B431081F02F068FBBA
:10326000CA480C38002380ED388A00EB83015B1CD0
:1032700091ED2F0A0A2B70EE288AF6DBB2EE040AD3
:10328000C822C8EE800AC0ED390A9FEDC31A322E5B
:103290001DDB9FEDC20AC0F81C21B6F57A7FC8EE8F
:1032A000001A00EE104AB8EEC00A61EE801A81EEF4
:1032B000810A2FDB9FEDBA0AC8EE001A00EE104A11
:1032C000B8EEC00A61EE801A81EE810A22E041F276
:1032D000883194FBF1F14942D0F81C3101EB8101B6
:1032E000C918C0F81C1102D50021C0F81C119FEDAF
:1032F000AD0AC8EE001A00EE104AB8EEC00A61EE40
:10330000801A81EE810A29B9D0F82811012901D14A
:10331000B0EE490AD0F8201109B1B0EE480AA2492E
:103320008C4201D1B0EE480AB5EEC00AF1EE10FAB7
:1033300001D0C0ED3A0A90ED3A1A9C4B71EE600A4A
:10334000F0EEE00A10EE901A994227DDD0ED2E0A39
:10335000F5EEC00AF1EE10FA20D1002D1ED0C0F813
:103360001C21204602F0C1FC41EC190B18EE100A9A
:1033700002F00CFD9FED8E1B53EC112B02F030FC84
:1033800053EC192B02F0BAFB9FED8B1B53EC112B66
:1033900002F026FC02F03EFD00EE100ABDEC048BAC
:1033A00070BD2DE9F04F04462DED048BA9B09FEDC3
:1033B000799A4FF0000A754ECDF810A00C3ECDF86A
:1033C00014A0CDF818A0D6F82011022003297DD032
:1033D00000209FED7B8A20AD06EB800191ED2A0A4B
:1033E00005EB8001401CB8EEC00A042820EE080A54
:1033F00081ED000AF0DB0FA80AF0ACFA24A80AF06D
:1034000013FB624B24AA9C330FA920462793FFF796
:10341000B7FEF0EE408A04F118000AF06DFB810956
:103420006148D6F83021824200DB0246B0EE680ADD
:103430002046FFF7FBFED6ED3B0AB3460BA820EE75
:10344000200A86ED2E0A0AF085FA13A90BA80BF0C4
:10345000A4F84E480FAAF0300BA906460AF0CCFE9D
:1034600031460BA80AF0A5FE00210DF13C080DF134
:103470004C090DF1100E00221346104601EB410CD1
:103480000CEB000759F8276008EB8007401C7F68A9
:103490000328C6FB0723F3DB900F40EA83004EF8B6
:1034A0002100491C0329E6DBDBF820015E460028E9
:1034B0006AD05046CDF818A0404200EE100AB8EE8F
:1034C000C00A20EE080A05F03BFB00E0A2E08DED0B
:1034D000000A8DED019A8DED029A0698404200EEA9
:1034E000100AB8EEC00A20EE080A06F0DDFB8DEDEA
:1034F000030A9DED060ADFED330AD6F83001B8EE77
:10350000C00A41F2883190FBF1F080EE201A00EE03
:10351000100AF8EEC01A81EE210AB0EE001AC0EED1
:10352000011ABDEEE10A10EE101A490000EE101A61
:103530000691B8EEC00A60EE200A00EE100AB8EE5E
:10354000C00A20EE800ABDEEC00A8DED060AB8EE74
:10355000C00A20EE080A05F0F3FA8DED070A8DED9A
:10356000089A8DED099A9DED060AB8EEC00A20EE84
:10357000080A06F099FB8DED0A0A1CAA694620A8E4
:103580000AF093FE6A461FE04BE00000E440012091
:10359000002474490000000000409C45000048439E
:1035A000000048420000C84340420F000E2DB23DCB
:1035B0000000000000007940000000000088B340D7
:1035C00000008030E102374707A91CA80AF06DFE11
:1035D0006F46DFED958AD4F8BC00002813DD00208B
:1035E00007EB800191ED000A05EB800181ED000AF7
:1035F00020EE280A06EB8001401C0428BDEEC00A1C
:1036000081ED2A0AECDBD4F8BC00F6EE009A032820
:103610000CD108E0C6F8200129B0BDEC048BBDE850
:10362000F08F069848E700F03DFEE0B396ED2A0AD9
:10363000B8EEC00A20EE080A8DED1C0A96ED2B0AA2
:10364000B8EEC00A20EE080A8DED1D0A96ED2C0A90
:10365000B8EEC00A20EE080A8DED1E0A96ED2D0A7E
:10366000B8EEC00A20EE080A8DED1F0AD6F8200138
:103670000028D1D096ED2E0A20EE290A05F060FA36
:1036800020EE280ABDEEC00A86ED2A0AC6F8ACA0D4
:10369000C6F8B0A096ED2E0A20EE290A06F004FB2B
:1036A00020EE280A00E004E0BDEEC00A86ED2D0AF7
:1036B0002BE096ED2E0A20EE290A05F041FA8DED59
:1036C000070A8DED089A8DED099A96ED2E0A20EEE7
:1036D000290A06F0E9FA8DED0A0A6A4607A920A828
:1036E0000AF0E3FD68460AF09DFE002007EB80012A
:1036F00091ED000A06EB8001401C20EE280A042808
:10370000BDEEC00A81ED2A0AF0DBD4F8C01027987C
:103710000BF07EF9D6F820010028AAD0401E79E7E8
:1037200070B590F8B810414ACC064FF000034FF046
:10373000030101D4C2E94813B0F82041E40509D4DB
:10374000048EE40503D5B0F87440E40502D4C2E960
:1037500048131AE0D2F8341139B1D0E93013C91A3C
:103760004FF47A73B1FBF3F105E0D0F8B01044F6F2
:103770002064A14202DBC2F830110AE0D2F82C51D9
:103780002944C2F82C11A14201DA002070BDC2E91F
:103790004B31FFF706FEF8E710B54FF49C71234854
:1037A00002F0EDF8214C4FF080400021C4F8FC00FD
:1037B00044F8A80F1D48A8300BF02AF94FF47A708E
:1037C000B7EE000A606784ED110A10BD174880ED5E
:1037D0003B0A002070471549C1F8280100207047B6
:1037E0001249C1F834010020704704224FF41671C9
:1037F000AFF2D3000AF03EBFAFF2DB000BF0DCBA51
:1038000010B5FFF7C9FF09490020C1F82801C1F828
:103810003401AFF22900BDE810400AF0EFBFAFF26B
:1038200035000BF0FBBA00000000804ED8400120AC
:103830001FB501461022684602F07AF8F7489DE865
:103840000E0080E80E00F6499DF80C0081F8B001EA
:10385000002004B010BD1FB5F0490EC98DE80E0060
:10386000EF49102291F8B0118DF80C10694602F062
:103870005FF80020EDE72DE9F04F91B00025182109
:10388000684602F07CF80024182106A802F077F8B8
:10389000E348A046C14690F8C01101297ED1D0F876
:1038A000B8B1D0F8B4A10022C2EBC20000EB4001D5
:1038B000DB4800EB810E9EF850000F90002864D08A
:1038C00000215FE0DDE900076D1C5EF821300E93FA
:1038D000181847EBE376CDE900060EEB8100EDB258
:1038E00043690D93DDE9027C4FEAE376DB1946EB91
:1038F0000C06CDE90236836ADDE9047CDE170C9301
:10390000DB1946EB0C06CDE90436C06B0E9BDDE9F6
:10391000067C83FB0063360C46EA0346F6194CEB43
:103920002343CDE906630D9BDDE9087C83FB00633F
:103930004FEA164646EA0346F6194CEB2343CDE917
:1039400008630C9BDDE90A7C83FB00634FEA1646A3
:1039500046EA0346F6194CEB2343CDE90A6380FBA4
:1039600000634FEA164646EA034616EB080849EBA1
:1039700023490444584501DA834602E0504500DDFE
:103980008246491C0F9888429CDC521C052A8BDB1E
:10399000A348AAEB0B01D0F8BC0100E056E081423D
:1039A00054DBA5FB0823E0170026109006FB083027
:1039B00005FB0900CDE90C2084FB0420110C41EA31
:1039C00000410014CDE90E0106A800EBC601D1E9C3
:1039D0000003A0FB05B203FB0522002100FB012C24
:1039E000684600EBC601D1E90001A0FB043701FBEA
:1039F0000471109A00FB0210190C41EA00490CAA4C
:103A00004FEA204A92E889000F9983EA070880EA82
:103A1000010252EA080212D0421A63EB0703BBEB21
:103A200009006CEB0A0C4FEA0C4141EA104100041A
:103A300001F02CFF7A4901EB8601C1F8A401761C44
:103A4000032EC1DB7648012180F8B01111B00020AF
:103A5000BDE8F08FF8B5724D0E460446D5E96D010C
:103A6000091A052291FBF2F1301A90FBF1F0C0B275
:103A70008DF80000042801D92020F8BDC0EBC0005B
:103A800000EB400005EB800191F85000052816D0AE
:103A9000421C81F850209DF80010C1EBC10101EBE0
:103AA000410105EB810202EB8001CE63236842F8FD
:103AB000203060684861A06888620020F8BD01F18C
:103AC0004003181F1022194601F032FF9DF8000034
:103AD0001022C0EBC00000EB400005EB8000011D90
:103AE00001F026FF9DF800001022C0EBC00000EBA3
:103AF000400005EB800000F11801143001F018FFC0
:103B00009DF800001022C0EBC00000EB400005EB68
:103B1000800000F12C01283001F00AFF0420BAE7F0
:103B200030B585B0044603A9684609F0BBFF04A878
:103B30000AF080F802282BD0D4F8E4000399401A48
:103B4000374991F8B02112B308B3D1F8A421009CF1
:103B500080FB0232150445EA134222440092D1F858
:103B6000A821019C80FB0232150445EA134222443D
:103B70000192D1F8AC11029A80FB0110030443EAD0
:103B8000114010440290032168460BF03DF80CE010
:103B9000606B032809D109F097FF30B1684603999B
:103BA000FFF758FF08B9FFF766FE05B0002030BDEB
:103BB00010B54FF4E2711A4801F0E1FE18481949B6
:103BC000C0F8B4114FF4AA01C0F8B8114FF4A02105
:103BD000C0F8BC11012180F8C011002010BD1049AF
:103BE000C1F8B801002070470D49C1F8B4010020A8
:103BF00070470B49C1F8BC010020704758B1084913
:103C0000D1F8A4210260D1F8A8214260D1F8AC110A
:103C1000816000207047052070470000B4430120F8
:103C2000104201200000D8FF2420F5E720B12D49E3
:103C300081F8C0010020EFE72420EDE7294B93F83D
:103C4000B1010028E8D0D3E96D10401A052190FB9E
:103C5000F1F00020C0EBC00101EB410103EB810159
:103C600091F8502022B1002100E0491C8A42FCDC7E
:103C7000401C0528EEDB0020CEE7082296211A48DA
:103C80000AF0F8BC18480BF097B810B5FFF790FF92
:103C90004FF49A731022154915480AF067FD20B9B0
:103CA000AFF229000AF0AAFD08B1012010BD0D49AC
:103CB000012081F8B101002010BD10B5094C94F825
:103CC000B101002808D008480BF076F8AFF2550093
:103CD0000BF0A4F808B1012010BD002084F8B10158
:103CE00010BD000010420120213B00085738000899
:103CF00031380008002803DDFE490122C1E9200215
:103D00000020704710B5B821FA4801F038FE9FED49
:103D1000FA0AF84880ED030A9FEDF80A80ED020ADE
:103D20009FEDF70A4FF0804180ED000AB3EE0E0AD6
:103D300080ED010A41664FF4FA619FEDF20AC16716
:103D400080ED270A002010BD70B5EA4C002594EDE7
:103D5000001AB4EEC01AF1EE10FA17D394ED011A5E
:103D6000B4EEC01AF1EE10FA10DC2069012817D168
:103D700094ED030AB4EEE00AF1EE10FA06D394EDE6
:103D8000020AB4EEE00AF1EE10FA09DD606F20B924
:103D9000D848A16D18300AF03BFE0120C4E91D058A
:103DA000D4E91E01884204DB606F012800D1E5657B
:103DB000656770BD10B504462DED028BB0EE408AEC
:103DC00009F0D4FDCB49002220B918EE100ACE4BE1
:103DD000984202DD0A614A6102E00869002808D1C0
:103DE000486920444861B0F5FA7F02DD0120C1E94D
:103DF0000402BDEC028B10BDF0B58DB00D4614462B
:103E0000064669460AF0C9FB09AA314628460AF067
:103E1000F3F9294630460AF0CCF90021EC460DF1C1
:103E2000240E00231A46184601EB41073D180EEBFD
:103E300080065CF825507668401CC5FB06320328D6
:103E4000F4DB980F40EA820044F82100491C032962
:103E5000E7DB0DB0F0BDA7490020C1F88C0070472A
:103E600010B590ED000AD0ED010AB8EEC00AB8EE28
:103E7000E01AF8EEE00A20EE000A01EE200AD0ED8A
:103E8000020AB8EEE01AF8EEE00A01EE200A06F0A7
:103E900010F8DFED9E0A20EE200A10BD00229549A1
:103EA000012330B1012810D0C1F8983041F88C2F8F
:103EB00031E081ED280A81ED290A9FED950A81ED17
:103EC0002A0AE1E924328A607047D1ED280A91ED8F
:103ED000271A70EE600AF0EEE00AF4EEC10AF1EE85
:103EE00010FA16D2D1F89400401CC1F89400D1ED1C
:103EF000290A312830EE800A81ED290AE4DD02200A
:103F0000DFED840AC1F8900080EE201A81ED2A1AB4
:103F1000704741F8902F4A6070472DE9F047984666
:103F20002DED088B8AB017468A4604469FED788AA5
:103F30000025704E039504950595D6F88800002855
:103F40007DD009F0D1FD10B103A809F09DFDD6F890
:103F500080004FF00109002817DDC6F8849009F0B1
:103F6000C3FD48B103A809F0C7FD8009B0F5C87FBB
:103F700002D2D6F8800004E0D6F88000001BC6F814
:103F80008000002801DCC6F884500AF009F80028F7
:103F900055D000209FED5D9A57F8201000EE101AC2
:103FA00058F82010401CB8EEC00A032860EE090A39
:103FB00000EE101AB8EEC00A20EE800A00EE098A60
:103FC000EADB3846FFF74CFFF0EE408A4FF07E57B1
:103FD00088EE280AF7EE00AA10EE100AB84201DDBA
:103FE000B0EE6A0A10EE100ADFF82C81BFEE00BABC
:103FF000404501D9B0EE4B0A04F08AFBD6F88C009C
:10400000B0EE40AA98B196ED000AB4EEE80AF1EEDF
:1040100010FA0CDD96ED010AB4EEE80AF1EE10FAA2
:1040200005D2B0EE4A0AD6F89000FFF737FF68468F
:1040300009F0EAFD2F490C22AC31684600E0E2E0CD
:1040400001F0A8FC18B9D6F8980001286BD12948CE
:104050009DE80E00AC3080E80E00009818B9019879
:1040600008B90298F0B36846FFF7FAFEB0EE408A4E
:10407000B5EEC08AF1EE10FA55D0F2EE049A38EEA1
:10408000690A20EE000A05F014FF86ED010A38EEF9
:10409000290A20EE000A05F00CFF86ED000A9DEDCE
:1040A000020AB8EEC00A60EE090AB0EE480A80EED5
:1040B000808A18EE100AB84201DDB0EE6A8A18EE66
:1040C000100A404501D9B0EE4B8AB0EE480A04F020
:1040D0001FFBD6ED270A30EE600A86ED020AB0EE2D
:1040E000480A00E024E004F013FBD6ED270A30EE86
:1040F000200A14E0D44301200000B4420000B4C2FE
:10410000000070427B142E3E00401C4600008037A9
:104110000000000000004842000080BF03E086ED80
:10412000030AC6F88C50DFF88481F16D21B32FE0CB
:104130001FED0D0A86ED000AB3EE0E0A86ED010AA8
:10414000D6F89800012808D01FED140A86ED020A5F
:104150001FED170A86ED030AE5E796ED2A0A96EDAC
:10416000271A70EE410A30EE010AC6ED020A86ED0A
:10417000030AC6F89850D6E70027C6F85C9006EB0D
:1041800007104146183009F027FC7F1C042FF6DB8E
:10419000464906AA0C310F465046FFF72DFE394618
:1041A00050460AF006F803A809F0A6FC00EE100A33
:1041B000DFED3F0A2046B8EE400A20EE200AFFF766
:1041C000F9FDF0EE4A0AB0EE680AFFF7BDFDD6E948
:1041D0001E01884201DA2044B067706F90B9306EDA
:1041E00020443066B0F57A7F0CDD3049302230391A
:1041F000A1F11000356601F09BFB2C4841461038B8
:1042000009F0EAFB706F0AB0BDEC088BBDE8F087DF
:1042100070B588B0044604A809F006FCD4E9300162
:10422000451A684609F096FB064604AB04F1A00265
:1042300069462846FFF771FE0AF0FCFB08B03046DD
:1042400070BD04224FF49671AFF23B000AF012BA2F
:10425000AFF243000AF0B0BD10B5FFF753FD0028E0
:104260000DD1124800215838C0F88C100121C0F837
:104270008810AFF23100BDE810400AF0BFBA10BD9F
:1042800010B5AFF273000AF097FDAFF27B00BDE806
:1042900010400AF091BD054901205839C1F88C0041
:1042A0000020704701485838406F70472C44012067
:1042B0000000803CF0B51D462DED028B99B090EDCD
:1042C000000AD0ED010A1746B8EEC00AB8EEE01AAF
:1042D000F8EEE00A0E4620EE000A044601EE200A3F
:1042E000D0ED020AB8EEE01AF8EEE00A01EE200A7C
:1042F00005F0DFFDF0EEC00A10EE900AB0F18D4F30
:104300007EDDD6ED000AB8EEE01ADFEDFE0A21EE02
:10431000201A8DED041A96ED011AB8EEC11A21EE9D
:10432000201A8DED051A96ED021AB8EEC11A21EE8B
:10433000201A8DED061A96ED031AB8EEC11A61EE39
:10434000200ACDED070A9FEDF08A10AA8DED0C8AA8
:10435000D4ED000A0CA904A8F8EEE00A80EE801A59
:104360008DED0D1AD4ED010AF8EEE00A80EE801A08
:104370008DED0E1AD4ED020AF8EEE00A80EE801AF6
:104380008DED0F1A09F091FF14A904A809F01DFF83
:104390006A4614A910A809F088FF9DED021ADDED08
:1043A000010ADA4921EE010A00EEA00A10EE100A15
:1043B000884202DA9FEDD60A11E010EE100AD549C4
:1043C000884202DA9FEDD40A09E010EE100AD349C0
:1043D000884202DAB5EE000A01E09FEDD10A01EE53
:1043E000907AB8EEE12ADFEDCF2A8DED088AC2EE91
:1043F000221A21EE800A21EE001A8DED091A00E042
:1044000038E020EEC00A6A4604A98DED0A0A8DED57
:104410000B8A08A809F049FF6A4604A9104609F06A
:10442000A7FE684609F0AAFFDDED000A9FEDBE0A6F
:1044300060EE800AFDEEE00AC5ED000ADDED010A3E
:1044400060EE800AFDEEE00AC5ED010ADDED020A2C
:1044500060EE800AFDEEE00AC5ED020ADDED030A1A
:1044600020EE800ABDEEC00A85ED030A19B0BDEC4E
:10447000028BF0BD96E80F0085E80F00F6E72DE906
:10448000F0410C462DED068B054690ED000AD0ED6F
:10449000010AB8EEC00AB8EEE01AF8EEE00A20EE23
:1044A000000A01EE200AD0ED020AB8EEE01AF8EE9A
:1044B000E00A01EE200A05F0FCFC10EE100A4FF0B5
:1044C0007E5800264FF0804740453FDDD5ED020A7B
:1044D000B7EE009AF8EEE00AC0EE808A39EE680A7C
:1044E0009FED89AAB5EEC00AF1EE10FA01DCB0EE3C
:1044F0004A0AF6EE009A20EE290A05F0DAFCB0EE40
:10450000408A38EE890AB5EEC00AF1EE10FA01DCF5
:10451000B0EE4A0A20EE290A05F0CBFCF0EE408A04
:1045200095ED000AB8EEC00A60EE000A95ED010AAA
:10453000B8EEC01AB8EEC00A41EE000AB0EE600A4A
:1045400005F0B7FC10EE100A404503DCC4E9007624
:10455000A66025E0DFED740A28EEA01ABDEEC11AB0
:1045600084ED001A95ED011AF8EEC11A81EE801A59
:1045700021EE081A61EE200AFDEEE00AC4ED010A00
:10458000D5ED000AF8EEE00A80EE801A21EE080A66
:10459000DFED660A20EE200ABDEEC00A84ED020AB5
:1045A000E660BDEC068BBDE8F08170B590ED000AC9
:1045B000D0ED010A0546B8EEC00AB8EEE01AF8EEF2
:1045C000E00A0C4620EE000A01EE200AD0ED020AB5
:1045D000B8EEE01AF8EEE00A01EE200AD0ED030A88
:1045E000B8EEE01AF8EEE00A01EE200AB5EEC00AD5
:1045F000F1EE10FA07D84FF0804020600020606094
:10460000A060C86070BD05F054FCB7EE001AC1EEA2
:10461000000A9FED450A20EE800AD5ED000AF8EE6B
:10462000E00A60EE800AFDEEE00AC4ED000AD5ED76
:10463000010AF8EEE00A60EE800AFDEEE00AC4ED41
:10464000010AD5ED020AF8EEE00A60EE800AFDEEFE
:10465000E00AC4ED020AD5ED030AF8EEE00A20EE06
:10466000800ABDEEC00A84ED030A70BD70B5044631
:1046700090F8300088B040067ED5A069002801DBA4
:10468000014600E041424FF480320026284D91421D
:104690000BDAE169002900DA4942914205DA216A20
:1046A000002900DA4942914267DB002800DA4042E3
:1046B0004FF4C80188420BDCE069002800DA404270
:1046C000884205DC206A002800DA4042884201DD89
:1046D000032000E00220A863696BA06A814242D0F7
:1046E000686394ED0A0A9FED131AF8EEC00A80EE93
:1046F000810ADFED110A20EE200A10EE100A01F007
:1047000045FB1BE0000080300000000017B7513966
:10471000A69BC43B0AD7233C8FC2753DCDCC4C3EF3
:10472000CDCCCC3E0014CD470000804E000080CEA2
:104730008C440120002474490000004E9FEDFA1BB8
:1047400053EC112B01F0DAF99FEDF91B53EC112B0F
:1047500001F0D4F99FEDF81B53EC112B01F040FA56
:1047600001F0F5FA28630496296BA06909F0D9FCD9
:104770000590296BE06901E022E023E009F0D1FC1B
:104780000690296B206A09F0CCFC07906A4604A9C0
:10479000EB4809F031FD0098E94A8001009001984A
:1047A000694680010190029880010290039880017F
:1047B0000390104609F0CAFCE1490846FFF7F5FEF0
:1047C00008B070BDAE63FBE770B504462DED048BF9
:1047D0008EB0D0F82001410676D5D94DD4F810110D
:1047E000D84B2A68891AD4F82C215A438A4201DA14
:1047F000032100E00221A963800504F5887602D533
:10480000CF493046B5E0002107A809F04BF9CC4963
:104810000C223C3107A801F0BDF820B9D4F82801DA
:10482000A96D88427ED020886B4680B207AA616A53
:1048300008F016FF9DED000ADDED010AB8EEC00A92
:10484000B8EEE01AF8EEE00A20EE000A01EE200AC7
:10485000DDED020AB8EEE01AF8EEE00A01EE200AF9
:1048600005F027FBB0EE408A9FEDB70A68EE000A1C
:104870009FEDB61A80EE810ADFEDB50A20EE200A20
:10488000D4ED4A0AF8EEE00A60EE800A1FED571AEE
:1048900080EE810AF6EE000A20EE209AB0EE490A78
:1048A00004F04EF9F0EE408AB0EE490A05F0FCF94A
:1048B00018EE100A4FF08041884206DA0020C5E960
:1048C00012102865686532E055E05FED690A68EE10
:1048D000A00AFDEEE00AC5ED120A5FED6C0A20EEBB
:1048E000200ADDED000AF8EEE00A60EE200A80EE14
:1048F000881AFDEEC10AC5ED130ADDED010AF8EED6
:10490000E00A60EE200A80EE881AFDEEC10AC5EDCD
:10491000140ADDED020AF8EEE00A20EE200AC0EEED
:10492000080A00E00DE0BDEEE00A85ED150A07ABD0
:1049300093E8070005F13C0383E80700D4F8280159
:10494000A8657F4903AA4831304609F055FC7C48E8
:104950000AAA5C3003A9044609F04EFC2146304601
:1049600009F027FC03AA0AA9754809F045FC744917
:1049700003A8FFF71AFE0EB0BDEC048B70BD1FB587
:10498000044669466E4809F014FC6D4A69462032B7
:10499000204609F031FC6A491DCC103181E81D0028
:1049A0001FBD2DE9F0470446654E90F8740006F1EE
:1049B0005C0A06F12008012500F05001103692B083
:1049C00004F5887904F15C07402906D094F82001A9
:1049D00000F0500040280DD01DE031463846FFF76A
:1049E0004EFDB4F82001C0050CD55146484609F0EB
:1049F000E0FB07E05146484609F0DBFBB4F87400E1
:104A0000C00508D569464E4809F0D3FB42466946C1
:104A1000304609F0F1FBB4F82001C005204602D56C
:104A2000FFF7D2FE01E0FFF721FE3246444940463F
:104A300009F0E2FB94F8740040066FD5208EB4F8BC
:104A400020110843C0056DD50FAA3946304609F03C
:104A500083FDD4E9172080FB0001C2FB0201626ED6
:104A6000374FC2FB02014FF08042801A71F1020001
:104A700014DB04A809F088F8DDE9042080FB0001BC
:104A8000C2FB0201069AC2FB02014FF08042801A6B
:104A900071F1020002DB0420B8630BE0B86B04285C
:104AA00008D041F28832022806D0032804D0012819
:104AB00052D009E0002507E0E16E91FBF2F5012DEF
:104AC00000DA0125032800D0AD0022480024454328
:104AD000109807948002294609F023FB08900F984C
:104AE00029464042800209F01CFBCDE909040BAACB
:104AF000314607A809F080FB32460BA9104609F0A1
:104B000025FB31460846FFF750FD69460C4809F081
:104B100050FB42466946304609F06EFB12B0002059
:104B2000BDE8F08720E00000112D4454FB2109402E
:104B3000000000000000704000000000008066409F
:104B40008C44012071981C00DB0F49400000344365
:104B500000008037A69BC400E06E90FBF2F00128B5
:104B600000DA01204500AFE7334619463846E26EC9
:104B7000FFF7A0FBC9E770B50446008EC105D4F865
:104B8000200107D4B4F87410C90503D4C10501D4B9
:104B9000002070BDC0F30120032807D02046FFF796
:104BA00000FF2348A16B0AF0F5F8F1E704F58871DE
:104BB0001F482EC980E82E00F3E71E480AF0FCB813
:104BC0001B4810B56C21103800F0D9FE18484FF082
:104BD00080411038016101600162C163C16500203C
:104BE00010BD184810B5082213A1006800F0D2FECD
:104BF00008B1322010BD1322BDE81040C8210D4875
:104C000009F038BD10B5FFF7DBFF002805D1AFF282
:104C10002D00BDE8104009F0F1BD10BD10B50548EC
:104C20000AF0CAF8AFF24500BDE810400AF0F6B845
:104C30009C440120774B0008654D504C20352E31A7
:104C400000000000A400002000209FEDFE0AFE4AA4
:104C5000DFEDFE0A02EB8001401C81ED080AC0B2C4
:104C6000C1ED0B0A0328F5D37047F74A002002EB89
:104C70008001D1ED080A91ED2D0AF4EEC00AF1EEA3
:104C800010FA01D281ED080AD1ED0B0AF4EEC00A48
:104C9000F1EE10FA01DD81ED0B0A401CC0B20328D1
:104CA000E5D370473EB50B46B0F8481009040091B3
:104CB000B0F84A10009A09040191B0F84C100904A8
:104CC0000291E1494C6E121B0092019A8C6E121BEC
:104CD0000192029AC96E511A0291816EB0F8440095
:104CE0006A4680B208F0BCFC3EBDF0B5D64F002449
:104CF0002546D7F894208DB02E46012A01D1C7F859
:104D0000946009A9FFF7CEFF05A808F08DFE05996C
:104D100009986022A0EBA130099006990A98A0EBAF
:104D2000A1300A9007990B98A0EBA130C8490B90CD
:104D3000081F00F0FDFD0DF1240CC5489CE80E0095
:104D4000143080E80E00684608F01EFFC04960225B
:104D50006C31081F00F0ECFDBD489DE80E0080306E
:104D600080E80E0000210922D7F82C04401CC7F867
:104D70002C0401EB410007EB8000DDF800C0D0F807
:104D80004C33491C93FBF2F31C44D0F850330929EF
:104D900093FBF2F31D44D0F8543393FBF2F31E441B
:104DA000D0F8B83393FBF2F363440093D0F8BC33EC
:104DB000DDF804C093FBF2F363440193D0F8C00321
:104DC000029B90FBF2F018440290CDDB002C00DA3D
:104DD0006442002D00DA6D42002E00DA764200981F
:104DE000002800DA404200900198002800DA404292
:104DF00001900298002800DA4042029000990020B9
:104E00008C4200DA012001998D4200DA401C02999F
:104E10008E4200DA401CD7F82C14092900DB401C14
:104E200004280DD197F8240402280BD9014686489E
:104E3000D7F82824643009F063FD012009F05AFDF9
:104E40000DB0F0BD09F044FDFAE72DE9F0417E4DCB
:104E500000272DED048B06463C4685F824749FED13
:104E60007D9B9FED7E8BC5F8287405EB8400D5ED06
:104E70000F0A90ED330AB4EEE00AF1EE10FA1EDBF1
:104E800095ED140B53EC182B51EC100B00F030FE89
:104E900041EC100B03F0FCFE53EC192B51EC100B02
:104EA00000F088FF0BD295F824040121401C85F8FE
:104EB0002404D5F82804A1400843C5F82804641C3C
:104EC000E4B2032CD1D395F82404B8B3002406EB44
:104ED000C40090ED000B51EC100B00F038FF05EB17
:104EE0008401641CE4B24866032CF0D3C5F82C742A
:104EF000A868042802DA95F82404A86095F8240428
:104F000003281BD15749E868884217DC95ED140B3C
:104F100053EC182B51EC100B00F0EAFD41EC100B98
:104F200003F0B6FE53EC192B51EC100B00F042FFCE
:104F300004D2A868032801D10420A8604A4928693E
:104F400088421DDA4949E868884219DC95ED140B5E
:104F500053EC182B51EC100B00F0CAFD41EC100B78
:104F600003F096FE9FED421B51EC100B53EC112BFE
:104F700000F020FF04D2A868042801D10520A86011
:104F8000BDEC048BBDE8F0812DE9F0412E4C0746C5
:104F9000D4F8A404012802D000252846F2E73649B7
:104FA000F7EE000AA1F1E800B7EE000A0646FBF7AB
:104FB000B2FA254A3046503202F5AC71FBF74DFD8E
:104FC0000500EAD06068401C606094ED140B51EC61
:104FD000100B00F0BCFEB96E09F0A3F800EE100A49
:104FE000DFED260AB8EEC00A20EE200A10EE100A05
:104FF00000F0CCFEC4E9140194ED6A0B51EC100BE7
:1050000000F0A5FEA06594ED6C0B51EC100B00F0C8
:105010009EFEE06594ED6E0B51EC100B00F097FED8
:10502000206694ED680B9FED161B51EC100B53ECB2
:10503000112B00F0D7FEB0D231469FED130AF0EEEF
:10504000400A23E000401CC6F844012000401C46F2
:10505000484801209A9999999999B93F0000000010
:105060000000F03FAE47E13D00007A43BC74933C42
:105070009CC420B07268913FC04601200000803778
:10508000000000000070A740CDCCCC3E0846FBF7E6
:1050900042FA82E7D0ED030A90ED040A00210122D2
:1050A000F4EEC00A0223F1EE10FA12DD90ED051ABB
:1050B000F4EEC10AF1EE10FA0BDDB4EEC10A0164A0
:1050C000F1EE10FA02DBC0E911237047C0E911329A
:1050D0007047B4EEE00AF1EE10FA12DD90ED051A19
:1050E000B4EEC10AF1EE10FA0BDDF4EEC10A02646F
:1050F000F1EE10FA02DBC0E911137047C0E911317B
:105100007047F4EEC00A0364F1EE10FA02DBC0E966
:1051100011127047C0E911217047002319469FED15
:10512000FE0AC36400EB8102491C82ED000A82ED95
:10513000090A0329F6DB0121C0E91D13704730B5C8
:1051400004461420A0650A202066002584F87050CB
:105150002046FFF7E2FF656530BD70B52DED048B8D
:1051600086B06946FFF79EFD9FEDEC8B1FED3D9AE3
:1051700000246E4603AD56F8240000EE100A05EB3D
:105180008400B8EEC00A20EE090A80ED000A20EE85
:10519000000A10EE100A00F0F9FD53EC182B00F095
:1051A00006FC41EC180B641C032CE4DBB0EE480A4F
:1051B000F0EE680A04F040FEDA4EB0EE408AF0EEFF
:1051C000608A002455F8240000F0E0FD53EC182B11
:1051D00000F006FD00F01EFE00EE100A06EB840053
:1051E00000F58060641CD0ED0C0A032C30EE200A20
:1051F00080ED0C0AE6DBD6F88404401CC6F8840473
:105200000120C6F8AC0406B0BDEC048B70BD70B5CF
:1052100005462DED028B86B004AA03A9684608F066
:1052200087FE9FEDBE8B00246E4606EB840090ED5A
:10523000000A20EE000A10EE100A00F0A7FD53EC61
:10524000182B00F0B4FB41EC180B641C032CECDBB6
:10525000B0EE480AF0EE680A04F0EEFDB0EE408AC7
:10526000F0EE608A002456F8240000F08FFD53EC25
:10527000182B00F0B5FC00F0CDFD00EE100A05EB98
:105280008400641CD0ED000A032C30EE200A80ED6F
:10529000000AE8DB686D401C68650120E86706B01D
:1052A000BDEC028B70BDF0B504460021F7EE001A8C
:1052B0009FED992A94ED140A04EB8100B8EEC01A10
:1052C000D0ED000A80EE810AB5EEC00AF1EE10FAC8
:1052D00002DBB0EE401A01E0B1EE401AD0ED060A52
:1052E000F5EEC00AF1EE10FA01DAF1EE600A71EEA5
:1052F000600AC0ED0C0A80ED060A94ED0F1AD0ED9D
:10530000092A71EE610A00EEA20AC0EE010AC0EDA0
:10531000090AF5EEC00AF1EE10FA01DAF1EE600AC0
:10532000C0ED030A491C80ED002A0329C2DB204698
:10533000FFF7B0FEE06CB0F57A7F01DA401CE06464
:1053400094F8707000210526042303250122206CA7
:10535000062F09D2DFE807F00309102B52376267E6
:10536000A267E16484F87020F0BDE06F0128FBD1F2
:10537000022084F870000DE004EB8000D4ED190ADF
:1053800090ED030AB4EEE00AF1EE10FA04DB84F8C3
:10539000703031E0A167F0BDD4ED1A0AB4EEE00A36
:1053A000F1EE10FA22D934E06267A267F0BD04EB97
:1053B0008000D4ED190A90ED030AB4EEE00AF1EE94
:1053C00010FAE4DAF0BD04EB8000D4ED1A0A90ED97
:1053D000030AB4EEE00AF1EE10FA07D9006B524E60
:1053E000B04206D9216EE06C8842EBDB84F8705045
:1053F000DAE784F87030E1646167CBE704EB8000A2
:10540000D4ED1B0A90ED030AB4EEE00AF1EE10FAB7
:10541000D8D884F87060E164C6E710B5044600EEA1
:10542000104AB8EEC00ADFED410A20EE200A9FEDD7
:10543000401AC0EE010AB6EE000A20EE800A10EE15
:10544000100A00F0A3FC41EC100B03F015FB9FEDDC
:10545000391B51EC100B53EC112B00F04FFB00F0FB
:1054600076FC01462F48C0E9204110BD2DE9F04FE0
:1054700000242DED028B91B005460494059406940A
:10548000C06E44F62061274E884206DBD6F88010B5
:10549000884210D0FFF7C1FF0DE0D6F84823104432
:1054A000C6F8480388427DDBE96E814201D0FFF7F0
:1054B000B4FFC6F84843286BC6F8B0042846FFF787
:1054C0004CFE06F5906003C8814204DB1B48FFF7E1
:1054D000EAFEC6F88444D6F8A804012802D128467A
:1054E000FFF703FCD6F8A40401285BD104A808F058
:1054F00069FB9DED040ADDED050A20EE000A00EED1
:10550000A00ADDED060A00EEA00A04F0D2FC86ED4A
:10551000030ADFED0B0A15E00000000000000000A8
:1055200000000000F8440120CDCC4CBD368D274052
:1055300000247449000000000000D04128490120E7
:105540000000804620EE200AC149A146ADF8204067
:10555000BDEEC00A099110EE100AADF81C00ADF8BE
:105560001E4007A8FDF7BEFA684608F06DFB316FD4
:10557000009808F0D6FD0446716F019808F0D1FD3F
:105580000444B16F029808F0CCFD0444F16F039815
:1055900008F0C7FD04EB00089DE80F0000240DF1A2
:1055A000340A00E0A2E006F170079FEDAA8A87E8BE
:1055B0000F000DF1280B05EB4407A96E37F8480FD3
:1055C000000408F0AEFD00EE100A4AF8240006EBD5
:1055D0008400B8EEC00A20EE080A80ED050A38887B
:1055E00001044BF82410641CE4B2032CE3D3984864
:1055F0000AA9E8380446FBF75EF83168D6F82803B4
:10560000884273DB95ED390AD6ED360AB8EEC00A4A
:10561000F5EEC00A20EE080AF1EE10FA05D070EEA1
:10562000600AF0EEE00AC6ED370A86ED360AB06889
:10563000062818D2DFE800F0030303030D249FEDD2
:10564000860AC82086ED0E0AB7EE000A86ED0F0A1C
:1056500008E09FED820A86ED0E0A9FED810A642024
:1056600086ED0F0A3064288EC005099812D4FDF724
:1056700048F900F024FB00EE100A5FED530A11E038
:105680009FED780A86ED0E0A9FED770A322086EDAF
:105690000F0AE7E7FDF78FF800F011FB00EE100AA4
:1056A000DFED720A982180EE201A86ED041A09981F
:1056B00000F065F9D6F88410414543DA96ED040A06
:1056C000B5EEC00AF1EE10FA3CDDD6ED0E0AB4EEEE
:1056D000E00AF1EE10FA35D2316C7068884206DAD1
:1056E0002846FFF751FC002859D00CE056E06049ED
:1056F000D6F8B000884206DB2846FFF745FC0028B4
:105700004DD0C6F80490002006EB8001401C91EDBE
:10571000050AC0B281ED2D0A0328F5D3FFF7A5FADB
:10572000002006EB8001401C91ED080AD1ED0B0A28
:10573000C0B2032830EE600A81ED330AF1D34D4840
:10574000FFF783FB002006EB8001401C91ED260A49
:10575000D1ED050AC0B2032830EE600AB0EEC00AEF
:1057600081ED290AEFD396ED290AD6ED2A0A002009
:1057700030EE200AD6ED2B0A30EE200A86ED2C0AF8
:1057800006EB8001401C91ED050AC0B281ED260AAE
:105790000328F5D3E821204600F0F1F8002011B0ED
:1057A000BDEC028BBDE8F08F10B54FF49761324825
:1057B00000F0E5F8304C0A20206040072067FFF732
:1057C00043FA04F58660FFF7BAFC2068C4F8800449
:1057D0009FED2A0A04F580601E2180ED1B0A9FEDD3
:1057E000280AC4F88C1480ED260A9FED260A80ED65
:1057F000250A9FED250A80ED270A1920FDF722FCD6
:10580000002010BD012240F25231AFF29F3008F06B
:1058100031BFAFF2A73009F0CFBA10B5FFF7C4FF20
:10582000002805D1AFF22300BDE8104008F0E6BF24
:1058300010BD10B5AFF2CB3009F0BEFAAFF23B00AD
:10584000BDE8104009F0EABA0B48806870470000D4
:10585000A8470120000080370080BB440000964329
:105860009A99993F000070423333B33F0050C347C9
:10587000CDCC4C3DA0460120F84401200000004260
:10588000CDCCCC3ECDCC4C3F3333333F2DE9F04132
:105890000024061B254671F1000605DA01240027C5
:1058A000D0EB070067EB0101161E73F1000605DA65
:1058B0000027D2EB0702012567EB030300F0DCFAB7
:1058C00086460E4617469C46AC4204D00025D0EBD7
:1058D000050E65EB010624B10020D2EB000760EB5A
:1058E000030C704631463A466346BDE8F081202AF3
:1058F00004DB203A00FA02F1002070479140C2F127
:10590000200320FA03F3194390407047202A06DB56
:10591000CB17203A41FA02F043EAE07306E041FA7D
:1059200002F3D040C2F1200291400843194670476B
:1059300010B5431A934209D28318881803E010F86F
:10594000011D03F8011D521EF9D210BD40EA0103EA
:105950009B0703D009E008C9121F08C0042AFAD225
:1059600003E011F8013B00F8013B521EF9D210BDD3
:10597000D2B201E000F8012B491EFBD27047002291
:10598000F6E710B513460A4604461946FFF7F0FF3E
:10599000204610BD30B504460020034600E05B1CE5
:1059A000934203D2E05CCD5C401BF8D030BD2DE9C2
:1059B000FE4F804681EA0300C00F0C46009021F0A4
:1059C000004123F00045B8EB0200A94105D2404652
:1059D000214690461C460B46024623F000401043E9
:1059E00047D0270DC7F30A00C3F30A510290401AAB
:1059F000019040286BDAC3F3130040F4801B009839
:105A0000924620B10023D2EB030A63EB0B0B019803
:105A10005946C0F140025046FFF769FF06460D4661
:105A200050465946019AFFF771FF10EB080061419B
:105A3000002487EA115284EAE7731A4340D0009A9F
:105A400062B3019A012A4FEA075215DC001B61EB91
:105A500002014FF0004202EA0752CDE90042001C69
:105A600041F5801132462B4600F08DFA03B0BDE8B7
:105A7000F08F40462146F9E7001B61EB0201001C54
:105A800041F5801300185B412018A2F5001747EB81
:105A9000030140EAD570B6196D4111E06D084FEA77
:105AA000360645EAC0754FEA0752001B61EB02015A
:105AB000001C41F5801149084FEA3000001951419E
:105AC00032462B4603B0BDE8F04F00F04DBA0098C7
:105AD000012240000023D0EB020263EBE073009848
:105AE00021464FEAE074B8EB000061EB0401E9E7FE
:105AF00083F000435BE781F0004158E72DE9FE4F5A
:105B000081EA030404F0004421F0004100944FF0C6
:105B1000000B23F0004350EA01045ED052EA030474
:105B20005BD0C3F30A54C1F30A552C44A4F2F334F6
:105B30000194A0FB0254C1F3130141F48011C3F39B
:105B4000130343F4801301FB024400FB034E840A59
:105B5000970A44EA815447EA8357A4FB07680295F1
:105B60008D0A05FB07854FEA932C04FB0C5427058F
:105B7000029D4FEA065847EA1637B5EB08056EEB6B
:105B8000070C870E920E47EA811742EA8312A7FBA1
:105B90000201B6EB0B0164EB00042B0D43EA0C335E
:105BA0005E1844EB1C50DA465146E7FB0201C5F390
:105BB00013044FEA0B3343EA14534FEA0432019CB7
:105BC00043EA0603A4F10C040294009CCDE900B45E
:105BD00000F0D9F903B0BDE8F08F00200146F9E7E5
:105BE0002DE9F04D81EA030404F0004B21F000455B
:105BF00014464FF0000A23F0004150EA050220D07D
:105C000054EA01021DD0C5F30A570246C5F3130337
:105C1000C1F31300C1F30A5640F4801543F4801316
:105C2000A7EB0608101BD64608F2FD3873EB0500FB
:105C300002D308F1010801E092185B41B8F1000FAE
:105C400003DA00200146BDE8F08D00204FF48011FA
:105C5000064684460EE0171B73EB050705D3121B9F
:105C600063EB050306434CEA010C49084FEA300098
:105C700092185B4150EA0107EDD152EA030012D0BD
:105C800082EA040083EA0501084305D0101BAB41FA
:105C900006D20122002306E000224FF0004302E07A
:105CA0006FF0010253101AEB06004CEB085110EB99
:105CB0000A0041EB0B01BDE8F04D00F055B9F0B41E
:105CC000CA17CB0F50405140C61841F100054FEAAA
:105CD000C372314628004FF0960303D0B623F0BCC0
:105CE00000F014B930460021F9E70EB5C10F80EA83
:105CF000E0700844CA07002140F233438DE80E00EB
:105D00000A460B4600F03FF903B000BD10B500F0A5
:105D1000004420F00040C20DC0F3160040F4000023
:105D20007F2A02DA0020014610BD0021962A03DCFA
:105D3000C2F19602D04002E0963AFFF7D8FD002C5F
:105D4000F2D00023D0EB030063EB010110BD70B56E
:105D5000C1F30A5201F000450024C1F3130140F2DF
:105D6000FF3341F480119A4201DA002070BD40F205
:105D700033439A42A2F2334203DC524200F0ADF8C0
:105D800000E090402C43F1D0404270BD00F0004252
:105D900030F000400AD0C10D01F56071C0F316006B
:105DA00042EA0151C20840071143704700200146F2
:105DB0007047000030B5041E71F1000404DB4FF0A1
:105DC0000044404264EB0101141E73F1000405DB42
:105DD0001C464FF00043524263EB04038B4208BF62
:105DE000824230BD30B5041E71F1000404DB4FF077
:105DF0000044404264EB0101141E73F1000405DB12
:105E00001C464FF00043524263EB0403994208BF23
:105E1000904230BD01F0004330B421F0004150EA1F
:105E2000010206D00A0DA2F56072C1F31301002A27
:105E300002DC30BC00207047440F44EAC104C100BA
:105E4000E01830BC00EBC25000F057B830B50B463C
:105E5000014600202022012409E021FA02F59D429A
:105E600005D303FA02F5491B04FA02F52844151E6E
:105E7000A2F10102F1DC30BD2DE9F05F0546002002
:105E800092469B4688460646814640241BE02846AB
:105E900041464746224600F020F853465A46C01A6B
:105EA000914110D3114618462246FFF720FD2D1AC6
:105EB00067EB01084F46224601200021FFF717FD3E
:105EC00017EB00094E41201EA4F10104DFDC484617
:105ED00031462A464346BDE8F09F202A04DB203A9B
:105EE00021FA02F00021704721FA02F3D040C2F1FA
:105EF000200291400843194670470029A8BF704707
:105F0000401C490008BF20F00100704710B4B0FAEF
:105F100080FC00FA0CF050EA010404BF10BC70478A
:105F200049B1CCF1200421FA04F411FA0CF118BFA4
:105F3000012121430843A3EB0C01CB1D4FEA006173
:105F40004FEA102042BF002010BC704700EBC35046
:105F500010440029A4BF10BC7047401C490008BF72
:105F600020F0010010BC704710B5141E73F100043E
:105F700008DA401C41F1000192185B411A4301D13B
:105F800020F0010010BD2DE9F04D92469B4611B165
:105F9000B1FA81F202E0B0FA80F220329046FFF7C7
:105FA000A6FC04460F4640EA0A0041EA0B015346AC
:105FB0005A46084313D0114653EA010019D0C8F1DC
:105FC00040025046FFF789FF05460E4650465946A7
:105FD0004246FFF78CFC084305D0012004E0204630
:105FE0003946BDE8F08D0020054346EAE0762C43B3
:105FF00037430A986305E40AA0EB08000022FD0A73
:1060000044EA47540A3002D500200146E9E7010579
:1060100010196941DDE9084500196941BDE8F04DF5
:10602000A2E770B521F0004303430CD0C1F30A5539
:106030000024D5EB040564EB0403D617AD1AB34175
:1060400002DB0020014670BD201841EB025170BDFB
:106050002DE9F04D00231A461B1A8A4103DB00206C
:106060000146BDE8F08DC1F30A52C1F3130141F4BA
:1060700080154FF0000BD10702D100186D41521E60
:106080000027044640F2FF11384601EB620A3E4603
:106090008046024600204FF48011FFF71EFFC21910
:1060A0007141BB1846EB0100B4EB030C75EB000C1F
:1060B00004D3E41A65EB000517460E46241908F1CF
:1060C00001006D4180463428E3DDF91946EB0600F6
:1060D000091BA84103D24FF0FF32134601E0002212
:1060E00013461BEB070046EB0A51BDE8F04DFFF7E6
:1060F0003BBFC1F30A52C1F3130140F2FF3341F435
:1061000080119A4202DA00200146704740F2334380
:106110009A42A2F2334202DC5242FFF7DEBEFFF7A0
:10612000E6BB0000064C074D06E0E06840F00103C6
:1061300094E8070098471034AC42F6D3FAF728F8F1
:10614000505B0108705B01080EB540F233410291CB
:106150000021CDE900110A460B46FFF714FF03B0FA
:1061600000BD70B58C1810F8015B15F0070301D164
:1061700010F8013B2A1106D110F8012B03E010F8AA
:10618000016B01F8016B5B1EF9D12B0705D40023CD
:10619000521E0DD401F8013BFAE710F8013BCB1A6F
:1061A000921C03E013F8015B01F8015B521EF9D564
:1061B000A142D8D3002070BD21B1826842F0010213
:1061C000826003E0826822F0010282607047000072
:1061D0000021084A1168084A1140D0E900231A43F7
:1061E00083681A43C3681A431143044AC2F804136C
:1061F0007047000004230140E030FCFF0020014014
:1062000030B50246002000235068104C20400D7924
:106210000C6844EA05242043506090680C4C2040F0
:10622000D1E903542C438D682C434D7944EA45044D
:1062300020439060D06A20F470000C7D641EE4B2AC
:10624000234340EA0350D06230BD0000FFFEFFFC54
:10625000FDF7FFC0F0B504460D4600200021092DD2
:1062600011DDE068A5F10A0606EB4607072606FAE7
:1062700007F18843A5F10A0606EB460603FA06F184
:106280000843E0600CE0206905EB4507072606FAA5
:1062900007F1884305EB450603FA06F10843206140
:1062A000072A0FDA606B561E06EB86071F2606FAD2
:1062B00007F18843561E06EB860605FA06F10843E9
:1062C000606322E00D2A0FDA206BD61F06EB8607EB
:1062D0001F2606FA07F18843D61F06EB860605FA45
:1062E00006F10843206310E0E06AA2F10D0606EB18
:1062F00086071F2606FA07F18843A2F10D0606EB72
:10630000860605FA06F10843E062F0BD38B1084997
:10631000096841F40001074AC2F8041306E0044981
:10632000096821F40001034AC2F804137047000011
:10633000042301400020014000B58DB00121084632
:1063400001F07CFA0121080201F098FA20200B905C
:1063500003208DF8300001208DF833000BA91D4873
:1063600000F066FA0121080201F098FA00214FF4CA
:10637000807001F093FA0120FFF7C8FF002007901A
:106380000A9009904FF48030089007A8FFF720FF8B
:10639000002001908DF808008DF809000390059009
:1063A00001208DF8180001A90B48FFF729FF0723EA
:1063B000012205210848FFF74DFF07230122102184
:1063C0000548FFF747FF01210348FFF7F5FE0DB031
:1063D00000BD0000000002400020014008B54FF45D
:1063E000407001F05DF9FFF7A7FFA82005F028FB3A
:1063F0004FF4165000F094FA00F04CF800F0D4FD81
:106400004FF4E1300BF042FC00F00AFE4EF67D70D6
:1064100000F0EAFD11A04EF67D734FF478420021A2
:106420000090084600F0DCFA10A04EF67D731F22A3
:1064300020210090002000F0D3FA08F05BFD02E07C
:106440000DA002F017F908F0FBFD0028F8D10BF0C1
:1064500057FA00F04BF800F065F908BD53544D337E
:106460003246343035524754360000005533303907
:106470002066345F666C79006D70755F646D705F67
:10648000696E6974206973206572726F7221090ADE
:10649000000000001CB50121042001F0CFF94FF4E9
:1064A0000050009001208DF8040000208DF80600B7
:1064B00003208DF8050001208DF807006946094882
:1064C00000F0B6F94FF40051064800F01EFA4FF400
:1064D000487005F0D7FA4FF40051024800F013FA63
:1064E0001CBD00000008024000BFFEE700B59FEDA4
:1064F000502ADFED4F1A9FED4F1ADFED4F0AB7EE2E
:10650000080A4E480AF028F8DFED4D0A9FED4D0AC3
:106510004A4801F08BFA9FED462ADFED4B1AB2EEA6
:10652000041ADFED4A0AB7EE000A49480AF014F8E7
:10653000DFED480A9FED480A454801F077FA9FEDE4
:106540003C2ADFED461A9FED461ADFED460A9FED25
:10655000380A45480AF000F8DFED440A9FED440A86
:10656000414801F063FA9FED432AF1EE061AB2EEBC
:106570000B1ADFED410A9FED2E0A404809F0ECFFAF
:10658000DFED3F0A9FED3F0A3C4801F04FFA9FEDD7
:10659000282ADFED271AB0EE001ADFED370A9FED4B
:1065A000240A394809F0D8FFDFED350A9FED370A94
:1065B000354801F03BFA9FED1E2ADFED351A9FEDBD
:1065C000351ADFED350A9FED1A0A344809F0C4FF89
:1065D000DFED330AB3EE0E0A304801F027FA9FEDE3
:1065E000142ADFED301A9FED301ADFED2B0A9FEDF4
:1065F000100A2E4809F0B0FFDFED290A9FED2C0AA2
:106600002A4801F013FA9FED0A2ADFED091AB7EEC6
:10661000001ADFED0E0A9FED060A264809F09CFFDE
:10662000DFED1F0AB3EE040A224801F0FFF900BDB6
:1066300000000000666666406F12033BD4370120FD
:106640000000484300004842CDCCCC3D6F12833A55
:106650001038012000009644000002430EF8D1409B
:106660009FE58F4152491D3A003901200000DC436B
:106670000000A04217B7513A6F12033A3C3901208B
:106680000000C8430000BE42783901200000B44237
:106690003C93C43FE770A43F52499D3A4C380120D7
:1066A00000003443CDCCAC3FEC51983F88380120FA
:1066B00000002042C43801207047000040F6C41199
:1066C000884203DD13490978032903DC114909785D
:1066D0000A290BD100210F4A11700F490988491C62
:1066E0000D4A118001210D4A117011E0B0F5967F1D
:1066F0000EDD40F6B83188420ADA01B2084A054B8D
:106700001B7822F8131003490978491C014A1170BB
:1067100070470000310100202E01002030010020D0
:10672000C039012000B587B005A800F0F0F802A834
:1067300001F0C4FB0121042001F090F801210220A6
:1067400001F07CF81E208DF8040002208DF8050071
:1067500001208DF806008DF8070001A800F064FF05
:106760004FF48070059002208DF8180003208DF8FA
:10677000190000208DF81A0002208DF81B0005A9D1
:10678000154800F055F802220821134800F098F847
:106790005320124908800820ADF808000A20ADF8FF
:1067A0000A000120ADF80C000020ADF80E00ADF895
:1067B000100002A90948283801F049FB01210748C7
:1067C000283801F035FB012208210448283801F05F
:1067D0007EFB07B000BD0000000402402808004016
:1067E00008B58DED000A009901700099090A417001
:1067F0000099090C81700099090EC17008BD000054
:1068000010B54FF42F61094801F0B5FC4FF42F612A
:10681000064801F0B2FC4FF42F61044801F0AFFCD0
:106820004FF42F61014801F0ACFC10BD00040040A2
:10683000F0B50A4600210023002400BF3DE00125F9
:1068400005FA01F3156805EA03049C4234D1056892
:106850004F000326BE40B543056015794E00B54094
:106860000668354305601579012D02D01579022D92
:1068700016D185684F000326BE40B5438560557923
:106880004E00B540866835438560456801268E40D8
:10689000B5434560456896798E40B6B2354345604C
:1068A000C5684F000326BE40B543C560D5794E008C
:1068B000B540C6683543C560491C1029BFD3F0BD3B
:1068C000F0B5002300244D07ED0E02FA05F3CE10BB
:1068D00000F1200555F826504E07F70E0F26BE4052
:1068E000B543CF1000F1200646F82750CE1000F136
:1068F000200555F8265045EA0304CE1000F1200586
:1069000045F82640F0BD41837047018370474FF63C
:10691000FF7101600021017141718171C171704786
:1069200010B588B004460121084600F087FF012118
:10693000480400F093FF072202212448FFF7C0FF1C
:10694000072203212148FFF7BBFF0C2006900220FD
:106950008DF81C008DF81D0000208DF81E00012010
:106960008DF81F0006A91948FFF762FF0294002066
:10697000ADF80C00ADF80E00ADF81000ADF8140045
:106980000C20ADF8120002A9114801F099FD262053
:106990008DF8040002208DF805008DF80600012016
:1069A0008DF8070001A800F03FFE0121084801F022
:1069B0001FFD012240F22551054801F05CFD4021F8
:1069C000034801F0FDFC08B010BD000000000240CB
:1069D000004400400148808880B27047C0390120DF
:1069E0002DE9F84F0746884693469A46DDF82890E9
:1069F0000097B3E099F8000080283DDA99F800602C
:106A00000D2E05D1009F08F110001FFA80F830E02C
:106A1000202E03DDA6F1200086B200E0002600242F
:106A200022E000251CE004EB06105049085C8021A0
:106A30002941084040B108EB040291B27A1990B2A2
:106A40005A4600F097F809E0D34507D008EB040256
:106A500091B27A1990B2524600F08CF8681CC5B217
:106A6000082DE0DB601CC4B2102CDADB07F1080053
:106A700087B209F1010971E0002668E006EB061013
:106A80003B4911F8100099F8001088425DD106EBDF
:106A90000610374901EB4000407899F80110884210
:106AA00053D100244FE0002520E006EB06103049CA
:106AB00001EB4000801C10F8141080202841014098
:106AC00041B108EB040291B27A1990B25A4600F033
:106AD00051F809E0D34507D008EB040291B27A19C6
:106AE00090B2524600F046F8681CC5B2082DDCDBB7
:106AF000002524E006EB06101D4901EB4000801C38
:106B0000012101EB4401405C80212941084048B14A
:106B100008EB040291B27A19083290B25A4600F09A
:106B200029F80AE0D34508D008EB040291B27A199B
:106B3000083290B2524600F01DF8681CC5B2082D0C
:106B4000D8DB601CC4B2102CADDB701C86B23A2EB0
:106B500094DB09F1020907F1100087B299F80000EF
:106B600000287FF447AFBDE8F88F0000E93D010839
:106B70005B4B01082DE9F04104460D461646AF1C5B
:106B8000BBB2E71CBAB26F1CB9B2A71CB8B200F016
:106B900047FB301200F06EFBF0B200F06BFBBDE87B
:106BA000F08100BFFEE7000010B500200F4908602B
:106BB0000F48006820F440400D490860084600680E
:106BC00040F48040086000200A49C1F89C0202207D
:106BD00004F07AFF012005490860022004F074FFE8
:106BE00000200449C1F8980210BD0000988240427C
:106BF000000402400080404210B506F0B9FB06F0E8
:106C0000A1FB0120024908600249C1F89C0210BDA5
:106C1000988240420080404210B500200F49086031
:106C20000F48006820F440400D490860084600689D
:106C300040F48040086001200A49C1F89C0202200B
:106C400004F042FF012005490860022004F03CFFE7
:106C500000200449C1F8980210BD0000988240420B
:106C6000000402400080404270B5054600241648EA
:106C7000006820F440401449086008460068086035
:106C8000002616E0002011490860022004F01CFFD5
:106C900001200F49C1F898026006040E0B487C38A9
:106CA000006808B1601CC4B2012004F00DFF701C24
:106CB000C6B2082EE6DB15B9FFF7AEFF01E0FFF71D
:106CC00073FF204670BD00000004024098824042DD
:106CD0000080404270B504461548006820F44040EA
:106CE000134908600846006840F4804008600020AE
:106CF00010490860002517E0E0090E49091D0860E9
:106D00006006040E022004F0DFFE01200A49C1F8EB
:106D10009802022004F0D8FE0020064908600220F4
:106D200004F0D2FE681CC5B2082DE5DB70BD000082
:106D300000040240988240420080404210B50F4853
:106D4000006820F440400D4908600846006840F49F
:106D50008040086001200A4908600A49C1F8980289
:106D6000042004F0B1FE002005490860042004F06E
:106D7000ABFE00200349C1F8980210BD0004024098
:106D80009C8240420080404210B50F48006820F4C9
:106D900040400D4908600846006840F480400860A3
:106DA00000200A4908600A49C1F89C02042004F046
:106DB0008BFE0120054908600549C1F89C020420AA
:106DC00004F082FE10BD00000004024098824042A0
:106DD0000080404210B500241348006820F4404071
:106DE0001149086008460068086001200F490860E2
:106DF00004F06AFE01200E49C1F8980204F064FE16
:106E000007E0601CC4B2FA2C03DDFFF7BDFF0120D0
:106E100010BD0648803800680028F2D10349091FD8
:106E2000086000BFF4E70000000402409C8240427A
:106E30000080404200B52DED068B83B0F0EE40AAF5
:106E4000B0EE608AF0EE418AB0EE619AF0EE429ABE
:106E5000B0EE62AA0020029020A00068019002A873
:106E6000B0EE6A0AFFF7BCFC042102A800F0C0FDE6
:106E700002A8B0EE480AFFF7B3FC042102A800F014
:106E8000B7FD02A8B0EE680AFFF7AAFC042102A829
:106E900000F0AEFD02A8B0EE490AFFF7A1FC042104
:106EA00002A800F0A5FD02A8B0EE690AFFF798FC61
:106EB000042102A800F09CFD02A8B0EE4A0AFFF7E8
:106EC0008FFC042102A800F093FD042101A800F02A
:106ED0008FFD03B0BDEC068B00BD00000000807F7D
:106EE0001CB50121062000F0A9FC4FF47040009071
:106EF00001208DF8040000208DF8060003208DF895
:106F0000050001208DF8070069460F48FFF790FC47
:106F1000C020009001208DF8040000208DF80600AC
:106F200003208DF8050001208DF807006946074809
:106F3000FFF77EFC4FF480410348FFF7E6FC802119
:106F40000248FFF7E2FC1CBD0004024000080240BA
:106F500010B52C2008490881002088718020088005
:106F6000A02048802A2048812B208881C0213620FB
:106F700000F0B0F910BD00001C37012010B5002052
:106F8000074908604FF4FA7004F07CFD01200549C0
:106F9000C1F8A0024FF4FA7004F074FD10BD0000B7
:106FA000A0024042000040421CB50121084600F00A
:106FB00045FC4FF48070009001208DF80400002003
:106FC0008DF8060003208DF8050001208DF80700DC
:106FD00069460448FFF72CFC4FF480710148FFF725
:106FE00092FC1CBD0000024070B50446A023812223
:106FF0000121022000F014F92C2000F053F90025A3
:107000000BE0002606E0201200F034F9E0B200F0B8
:1070100031F9761C802EF6D36D1CA02DF1D370BDF6
:1070200010B5FFF75DFF00F0E5F8112000F03AF928
:10703000782004F027FDB12000F034F9052000F09D
:1070400019F93C2000F016F93C2000F013F9B220A9
:1070500000F028F9052000F00DF93C2000F00AF9B5
:107060003C2000F007F9B32000F01CF9052000F0E7
:1070700001F93C2000F0FEF83C2000F0FBF8052070
:1070800000F0F8F83C2000F0F5F83C2000F0F2F8B1
:10709000B42000F007F9032000F0ECF8C02000F065
:1070A00001F9282000F0E6F8082000F0E3F80420B9
:1070B00000F0E0F8C12000F0F5F8C02000F0DAF8A8
:1070C000C22000F0EFF80D2000F0D4F8002000F00E
:1070D000D1F8C32000F0E6F88D2000F0CBF82A208C
:1070E00000F0C8F8C42000F0DDF88D2000F0C2F8F0
:1070F000EE2000F0BFF8C52000F0D4F81A2000F010
:10710000B9F8362000F0CEF8C02000F0B3F8E02047
:1071100000F0C8F8042000F0ADF8222000F0AAF832
:10712000072000F0A7F80A2000F0A4F82E2000F0B5
:10713000A1F8302000F09EF8252000F09BF82A20CE
:1071400000F098F8282000F095F8262000F092F83A
:107150002E2000F08FF83A2000F08CF8002000F08C
:1071600089F8012000F086F8032000F083F813204E
:1071700000F080F8E12000F095F8042000F07AF8A3
:10718000162000F077F8062000F074F80D2000F0CB
:1071900071F82D2000F06EF8262000F06BF8232007
:1071A00000F068F8272000F065F8272000F062F86A
:1071B000252000F05FF82D2000F05CF83B2000F067
:1071C00059F8002000F056F8012000F053F8042090
:1071D00000F050F8132000F04DF83A2000F062F86B
:1071E000052000F047F8292000F05CF8FFF7B0FE1A
:1071F00010BD000010B54FF480410848FFF783FB35
:107200004FF4967004F03EFC4FF480410348FFF7C2
:107210007CFB642004F036FC10BD0000000402403A
:107220002DE9F04104460D4616461F462A2000F07F
:1072300039F8002000F01EF8E0B200F01BF8002042
:1072400000F018F8F0B200F015F82B2000F02AF842
:10725000002000F00FF8E8B200F00CF8002000F079
:1072600009F8F8B200F006F82C2000F01BF8BDE891
:10727000F081000010B504464FF480510748FFF735
:1072800042FB40210648FFF740FB204600F08AFB06
:107290004FF480510148FFF738FB10BD0004024055
:1072A0000008024010B504464FF480510748FFF72C
:1072B0002AFB40210648FFF726FB204600F072FB20
:1072C0004FF480510148FFF720FB10BD000402403D
:1072D0000008024070B505460C462846FFF7E2FF5D
:1072E0002046FFF7C7FF70BD70B52DED048B84B04D
:1072F00004460D46164601AA02A903A800F030F87C
:10730000BDF9080000EE100AB8EEC00ADFED130A5E
:1073100020EE200AB0EE408ABDF90C0000EE100A03
:10732000B8EEC00ADFED0D0A20EE200AF0EE408A2A
:10733000BDF9040000EE100AB8EEC00ADFED070A3E
:1073400020EE200AB0EE409A84ED008AC5ED008A56
:1073500086ED009A04B0BDEC048B70BD35FA8E3C0E
:107360002DE9FC4104460D4616466B460622432194
:10737000682000F01DF80746BFB99DF801009DF890
:10738000001040EA012000B220809DF803009DF823
:10739000021040EA012000B228809DF805009DF807
:1073A000041040EA012000B230803846BDE8FC817C
:1073B0002DE9F04106460F4614461D46FFF7BEFC78
:1073C000002141EA4601C8B2FFF784FCFFF702FD45
:1073D00020B1FFF7D9FC0120BDE8F0813846FFF766
:1073E00079FCFFF7F7FCFFF7A9FC012101EB46014F
:1073F000C8B2FFF76FFCFFF7EDFC0DE0012C04D1E4
:107400000020FFF731FC287003E00120FFF72CFC7F
:107410002870601EC4B26D1C002CEFD1FFF7B4FCC5
:107420000020D9E72DE9F04105460E46174698465B
:10743000FFF784FC002141EA4501C8B2FFF74AFC8E
:10744000FFF7C8FC20B1FFF79FFC0120BDE8F081E9
:107450003046FFF73FFCFFF7BDFC00240CE018F8B6
:107460000400FFF737FCFFF7B5FC18B1FFF78CFC01
:107470000120EBE7601CC4B2BC42F0DBFFF784FCE8
:107480000020E3E700BFFEE710B52DED108BB0EE56
:10749000408AB0EE60FAF0EE41FAF0EE618A18EE42
:1074A000100AFEF773FC41EC1D0B9FED570B53ECDC
:1074B000102BFEF723FB41EC1B0B9FED550A38EE1A
:1074C000800A10EE101A0846FEF760FC41EC1C0B17
:1074D00053EC1B2BFEF76BFA41EC1A0BFEF79AFCF0
:1074E00009EE100A18EE100AFEF750FC41EC1D0BD5
:1074F0009FED450B53EC102BFEF700FB41EC1B0BF3
:107500009FED430A38EE800A10EE101A0846FEF787
:107510003DFC41EC1C0B53EC1B2BFEF7E9FA41EC54
:107520001A0BFEF777FC09EE900A18EE100AFEF728
:107530002DFC41EC1D0B9FED340B53EC102BFEF793
:10754000DDFA41EC1B0B9FED320A38EE800A10EE9B
:10755000101A0846FEF71AFC41EC1C0B53EC1B2BCF
:10756000FEF7C6FA41EC1A0BFEF754FC0EEE100AB9
:1075700018EE100AFEF70AFC41EC1D0B9FED220BE2
:1075800053EC102BFEF7BAFA41EC1B0B9FED200ACF
:1075900038EE800A10EE101A0846FEF7F7FB41ECB1
:1075A0001C0B53EC1B2BFEF702FA41EC1A0BFEF7F7
:1075B00031FC0EEE900ADFED172AB0EE682AF0EEED
:1075C000481A154890ED001A1448D0ED000A1448E6
:1075D00090ED000AFFF72EFCB0EE490A012007F0FB
:1075E000B5FCB0EE690A022007F0B0FCB0EE4E0A1E
:1075F000032007F0ABFCB0EE6E0A042007F0A6FCF7
:10760000BDEC108B10BD0000000000000000E03F4A
:107610000040034500000000180100201001002078
:10762000140100207047000070B5002100230F22D4
:10763000C4781CB3174C246804F4E064C4F5E06417
:10764000C4F30721C1F10404E3B20A4144789C4029
:10765000E1B28478144021430C07210E0E4C0578CA
:107660006155047804F01F050124AC4005786D11C4
:10767000AD0005F1E025C5F8004109E0047804F00B
:107680001F050124AC40054D0678761145F82640CB
:1076900070BD00000CED00E000E400E080E100E0DF
:1076A00002490143024A1160704700000000FA05D8
:1076B0000CED00E010B504463E4A3F493F4808F053
:1076C00097F83F48D0ED000A3C4890ED001A70EE64
:1076D000C10AB0EE600A3A4808F068FF3948D0EDB8
:1076E000000A354890ED001A70EEC10AB0EE600A4B
:1076F000344808F05BFF3448D0ED000A2D4890ED87
:10770000001A70EEC10AB0EE600A2F4808F04EFF72
:107710002E4A111F081FFFF7E7FD2948D0ED0E0A7A
:107720002A48083890ED001A70EE810AB0EE600A1F
:10773000274808F03BFF2348D0ED0E0A23480838BD
:1077400090ED011A70EEC10AB0EE600A214808F00F
:107750002DFF1D48D0ED0E0A1C48083890ED021A86
:1077600070EE810AB0EE600A1B4808F01FFFFFF7B9
:1077700031F91A4908800020194908601748008823
:1077800040F21451884207DCFFF73AF8FFF7F6FBA6
:107790000120134908600BE010480088A0F2145043
:1077A00000EE900AF8EEE00AB0EE600A00F0BAF9D6
:1077B00010BD00001801002014010020100100205D
:1077C0004C38012088380120C4380120BC39012000
:1077D000003901203C3901207839012020010020A6
:1077E000B402414210B51248008800F00800F0B120
:1077F0004FF6F7700E4908804FF2FF7008800D4871
:10780000006800F4807090B90948103800F01CFB43
:1078100009490880084600884988401A84B22046F1
:10782000FEF74CFF044800880349488000BF10BDA4
:1078300010080040100402403201002029B1064A1D
:1078400012680243044B1A6004E0034A1268824340
:10785000014B1A60704700003038024029B1064AD7
:1078600012680243044B1A6004E0034A1268824320
:10787000014B1A60704700004038024029B1064AA7
:1078800012680243044B1A6004E0034A1268824300
:10789000014B1A60704700004438024029B1064A83
:1078A00012680243044B1A6004E0034A12688243E0
:1078B000014B1A607047000024380240F0B50021E7
:1078C00000220024022500260223324F3F6807F0E1
:1078D0000C0121B1042905D0082937D105E02E4F2C
:1078E000076036E02D4F076033E02A4F3F1F3F68A7
:1078F000C7F38056274F3F1F3F6807F03F036EB125
:10790000264FB7FBF3F7DFF88CC0ACF1040CDCF8C2
:1079100000C0CCF3881C07FB0CF40CE01E4FB7FB37
:10792000F3F7DFF870C0ACF1040CDCF800C0CCF366
:10793000881C07FB0CF4174F3F1F3F68C7F3014734
:107940007F1C7D00B4FBF5F7076002E0124F076073
:1079500000BF00BF0F4F3F6807F0F0010909104F4B
:107960007A5C0768D74047600A4F3F6807F4E051E8
:10797000890A0B4F7A5C4768D7408760054F3F689C
:1079800007F46041490B064F7A5C4768D740C760EF
:10799000F0BD0000083802400024F40000127A0014
:1079A0001400002070B50446002508251BE004F0F3
:1079B000800028B14FF400410C48FEF7A6FF04E018
:1079C0004FF400410948FEF79EFF4FF4005107486D
:1079D000FEF799FF4FF400510448FEF796FF60064A
:1079E000040E681EC5B2002DE1DC70BD000402402B
:1079F00070B505460E46002404E0285D00F006F848
:107A0000601C84B2B442F8DB70BD000010B50446BF
:107A10002146054800F0C3FD00BF8021024800F068
:107A2000F3FC0028F9D010BD0010014080ED0B0AD6
:107A3000C0ED0C0A704700000CB5002001900090CA
:107A40003448006840F480303249086000BF314853
:107A5000006800F4003000900198401C01900098EC
:107A600018B90198B0F5A04FF1D12A48006800F488
:107A7000003010B10120009001E00020009000983B
:107A8000012846D123484030006840F08050214909
:107A9000403108602048006840F440401E490860BA
:107AA0001C48083000681B49083108600846006817
:107AB00040F4004008600846006840F4A0500860A8
:107AC0001648091F0860081F006840F08070091FF1
:107AD000086000BF0F48006800F000700028F9D06F
:107AE00040F205700E4908600A480830006820F02E
:107AF00003000849083108600846006840F00200A9
:107B0000086000BF03480830006800F00C00082837
:107B1000F8D10CBD00380240007000400854400706
:107B2000003C0240FCEEC00A10EE900A01490880B9
:107B30007047000022010020042808D14FF0E02106
:107B4000096941F004014FF0E022116107E04FF0B4
:107B5000E021096921F004014FF0E0221161704732
:107B600010B50AF0A1FF012801D00AF063FC10BD96
:107B700010B51548006840F47000134908601348B8
:107B8000006840F001001149086000200F490831E9
:107B900008600E4800680E4908400C4908600D480E
:107BA000091D0860081F006820F48020091F086074
:107BB000002006490C310860FFF73EFF4FF00060DF
:107BC00001498039086010BD88ED00E000380240AE
:107BD000FFFFF6FE10300024F0B50C4615460021DC
:107BE0000022068C4FF6FE773E400684018B028C05
:107BF0004FF60C7631407E1C06EA03162E433143C5
:107C00004FF6F576324044F0010632430183028498
:107C1000F0BDF0B50C461546002100220026078C69
:107C20004FF6EF7C07EA0C070784018B028C4FF6B6
:107C3000FF7707EA041640F6FF4739404FF6FF7713
:107C400007EA033739434FF6FF7707EA0527394339
:107C50004FF65F773A4046F010073A4301830284BB
:107C6000F0BDF0B50C461546002100220026078C19
:107C70004FF6FF6C07EA0C070784818B028C4FF6E6
:107C8000FF7707EA04264FF60C7739404FF6FF7767
:107C900007EA03172F4339434FF2FF573A4046F4A0
:107CA00080773A4381830284F0BDF0B50C461546D7
:107CB000002100220026078C4EF6FF7C07EA0C0705
:107CC0000784818B028C4FF6FF7707EA043640F673
:107CD000FF4739404FF6FF7707EA052739434FF64C
:107CE000FF7707EA0337394345F6FF773A4046F412
:107CF00080573A4381830284F0BD000030B58BB0D9
:107D000004460D4601210220FFF7A8FD01210320B2
:107D1000FFF794FD022206213A48FEF7D1FD022228
:107D200007213848FEF7CCFD022200213648FEF735
:107D3000C7FD022201213448FEF7C2FDC020099090
:107D400002208DF8280003208DF8290000208DF8EE
:107D50002A0001208DF82B0009A92A48FEF768FDAA
:107D60000320099002208DF8280003208DF82900B7
:107D700000208DF82A0001208DF82B0009A9224847
:107D8000FEF756FDA8B2ADF818000020ADF81A00B5
:107D90000794ADF8200006A91C4800F021FA6020E5
:107DA000ADF804000120ADF806000020ADF8100089
:107DB00001A9164800F094F801A9144800F0D8F879
:107DC00001A9124800F034F901A9104800F08AF91D
:107DD00008210E4800F0C2F808210C4800F01AF9FA
:107DE00008210A4800F074F90821084800F0B6F9A3
:107DF0000121064800F010F80121044800F018F8AD
:107E00000BB030BD000002400004024000040040FE
:107E100010B5FFF7E7FC10BD21B1028842F08002E7
:107E2000028004E002884FF67F731A400280704798
:107E300021B1028842F00102028004E002884FF67C
:107E4000FE731A40028070470146C86B704770B5D8
:107E500005460C46208850B92389A28861882846A7
:107E6000FFF7BAFEE188284600F08DF925E020886A
:107E700004280AD12389A28861882846FFF7C9FE11
:107E8000E188284600F088F917E0208808280AD100
:107E90002389A28861882846FFF7E3FEE188284607
:107EA00000F087F909E02389A28861882846FFF756
:107EB000FCFEE188284600F085F970BD00210180B4
:107EC0004180012181800021C180018170471AB168
:107ED00083890B43838102E083898B4383817047CD
:107EE00070B5002400220023058C4FF6FE76354045
:107EF0000584028C8388048B4FF68F752C40B51E49
:107F00002C400D882C43751E2A408D892A434D88AC
:107F10002A43104DA84202D00F4DA84213D14FF66C
:107F2000F7752A40CD892A434FF6FB752A408D8884
:107F30002A434FF6FF652B404FF6FF552B400D8A25
:107F40002B434D8A2B43838004838D6845630284D1
:107F500070BD000000000140000401400A460021FD
:107F6000018B4FF6F77319401143018370470000EE
:107F700070B5002400220023058C4FF6EF763540C3
:107F80000584028C8388048B48F6FF752C404FF6DD
:107F9000FF452C400D884FF6FF7606EA05252C4359
:107FA0004FF6DF752A408D8906EA05152A434D886C
:107FB00006EA05152A43154DA84202D0144DA842E1
:107FC0001DD14FF67F752A40CD894FF6FF7606EA20
:107FD00005152A434FF6BF752A408D8806EA051518
:107FE0002A434FF6FF352B404FF2FF752B400D8A89
:107FF00006EA85052B434D8A06EA85052B438380D7
:1080000004838D688563028470BD00000000014018
:10801000000401400A460021018B4FF2FF73194012
:108020004FF6FF7303EA02231943018370470000F0
:1080300070B5002400220023058C4FF6FF66354002
:108040000584028C8388848B4FF68F752C404FF605
:10805000FC752C400D882C434FF6FF552A408D8926
:108060004FF6FF7606EA05252A434D8806EA0525E0
:108070002A43154DA84202D0144DA8421DD14FF2FB
:10808000FF752A40CD894FF6FF7606EA05252A437B
:108090004FF6FF352A408D8806EA05252A434EF61D
:1080A000FF752B404DF6FF752B400D8A06EA05152E
:1080B0002B434D8A06EA05152B43838084838D6804
:1080C000C563028470BD000000000140000401404F
:1080D0000A460021818B4FF6F773194011438183C3
:1080E0007047000070B5002200230024058C4EF676
:1080F000FF7635400584038C8488828B48F6FF75B3
:108100002A404FF6FF452A400D884FF6FF7606EAD3
:1081100005252A434DF6FF752B408D8906EA053566
:108120002B434D8806EA05352B430A4DA84202D061
:10813000094DA84208D14BF6FF752C400D8A4FF629
:10814000FF7606EA85152C43848082838D6805645A
:10815000038470BD00000140000401400A46002174
:10816000818B4FF2FF7319404FF6FF7303EA02232E
:108170001943818370474163704781637047C163CE
:10818000704701647047028B4FF6F3731A40028305
:10819000028B0A4302837047028B4FF2FF331A406F
:1081A0000283028B4FF6FF7303EA01231A43028313
:1081B0007047828B4FF6F3731A408283828B0A4397
:1081C00082837047828B4FF2FF331A408283828B07
:1081D0004FF6FF7303EA01231A43828370470000BE
:1081E00000220288184B98420ED0184B98420BD0B0
:1081F000B0F1804F08D0164B984205D0154B9842ED
:1082000002D0154B984204D14FF68F731A404B8819
:108210001A43124B984207D0114B984204D04FF6A4
:10822000FF431A400B891A4302804B68C3620B88D4
:108230000385054B984202D0044B984201D18B7ABA
:10824000038601238382704700000140000401403F
:108250000004004000080040000C004000100040F6
:108260000014004010B540F225511F4800F0D9F825
:10827000002837D01C4800F08DF9C4B27B2C02D105
:1082800000201A490870194801780078401C174AE4
:108290001070174844547D2C0ED1002011460870F0
:1082A00000BF04E01249095C124A1154401CC8285E
:1082B000F8DB0120104908700C480078C8280CDB56
:1082C000002005E000210B4A1154094A1154401CBA
:1082D000C828F7DB00200549087040F22551024804
:1082E00000F077F810BD0000001001402E000020C3
:1082F00014020020DC0200202F00002010B540F204
:1083000025512A4800F08DF800284DD0274800F06C
:1083100041F9C4B226A000F0ADF9242C02D100200E
:1083200024490880234801880088401C214A108085
:1083300021484454007824282AD11F4840784728EF
:1083400026D11D488078502822D11B48C078522859
:108350001ED1194800794D281AD117484079432871
:1083600016D10A2C14D150211448FDF708FB1148EE
:10837000028811491148FDF7DBFA01200F4981F805
:10838000500000200B490880C8210B48FDF7F7FA80
:1083900008480088C82802DBC8200649088040F247
:1083A0002551024800F015F810BD000000440040BF
:1083B00031323300040100204C01002058370120E5
:1083C00001F40072B2F5007F00D100BFCA43028001
:1083D000704710B50022002340F66A14A14200D174
:1083E00000BF0A1201249440A3B2DC43048010BDF4
:1083F00021B1828942F40052828104E082894DF6E3
:10840000FF731A408281704702460020B1F5007F59
:1084100000D100BF13880B400BB1012000E0002009
:10842000704770B50246002400230025002040F666
:108430006A16B14200D100BFC1F3421501F01F031B
:10844000012606FA03F3012D02D19689334006E096
:10845000022D02D1168A334001E0968A33400C1275
:10846000012606FA04F41688344013B10CB1012039
:1084700000E0002070BDF0B5034600240026002572
:10848000002040F66A17B94200D100BF1846C1F378
:10849000421401F01F06012707FA06F5012C01D14D
:1084A0000C3004E0022C01D1103000E014301AB17D
:1084B00007682F43076002E00768AF430760F0BD1D
:1084C0002DE9FF4705460E460024A14600BFA04601
:1084D000B08900B100BF2C8A24F44054F0880443D2
:1084E0002C82AC8941F20C608443B0883189084306
:1084F000718908430443AC81AC8A24F44074B08988
:108500000443AC826846FFF7D9F92048854202D07F
:108510001F48854202D1DDF80C9001E0DDF808909B
:10852000A88900F4004040B109EBC90000EB091034
:1085300031684900B0FBF1F707E009EBC90000EB37
:10854000091031688900B0FBF1F76420B7FBF0F047
:1085500004012009642101FB1078A88900F400407F
:1085600040B1322000EBC800B0FBF1F000F0070092
:10857000044308E0322000EB08106421B0FBF1F066
:1085800000F00F0004432C81BDE8FF87001001407C
:108590000014014001468888C0F308007047C1F309
:1085A00008028280704700BFFEE70FB42DE9F04556
:1085B000C7B006468A46092E0ED2DFE806F0050649
:1085C0000708090A0B0D0C0000BF00BF00BF00BF69
:1085D00000BF00BF00BF05E0002047B0BDE8F005C8
:1085E0005DF814FB00BF51A8469006A8469A509922
:1085F00000F050F80446002C03DC00204690204692
:10860000EBE718216846FDF7BAF924208DF8000041
:1086100001208DF80100F0B28DF802000D208DF8D8
:1086200015000A208DF8160000251DE0601B122899
:1086300001DA601B00E0122000F0FF0812210DF1AA
:108640000300FDF79CF906A8411942461538FDF7CD
:108650006FF9002705E01DF80700494604F04EF8C1
:108660007F1C172FF7DB1235A542DFDB0020469079
:1086700000BFB2E70FB4054B10B503A9044A029836
:1086800002F01CFA10BC5DF814FB0000FDC60008E7
:108690002800002037B514460846064B6A46214696
:1086A00002F00CFA04466946002002F09EFD2046C6
:1086B0003EBD0000EBB1000803B4019841000098F2
:1086C00050EAC12018BF04204A0D18BF40F0010035
:1086D00040F2FF72B2EB515F08BF40F00200012888
:1086E00008BF052002B070474100080218BF0420EF
:1086F0000A0E18BF40F001004FF07F4232EA01013C
:1087000008BF40F00200012808BF052070470000A4
:1087100010B510EE104A4FF01A402DED028B00EB11
:108720004400B0F1C85F4AD84FF0FC40B0EB440FB2
:1087300022D2B0EEC00AF7EE000A30EEC00AF6EE22
:10874000000A20EE208A18EE100A09F057FA00EE0F
:10875000100A14F0004F1DBF9FED281ADFED280A04
:10876000B1EE400A9FED271A08BFF0EE410AF8EE7D
:10877000001A20EE210A05E020EE008A9FED221A61
:10878000DFED220ADFED221A9FED222A70EEC00AE9
:1087900020EE080A08EE212ADFED1F1A48EE021A21
:1087A0009FED1E2A08EE212ADFED1D1A48EE021A5F
:1087B000BDEC028B40EE610A30EE810A10BD4FF035
:1087C000CC40B0EB440F82BF9FED160ABDEC028B8C
:1087D00010BD4FF07F40B0EB440F05D2BDEC028BD3
:1087E000BDE8104001F0C8BF012002F0AFF8BDECB9
:1087F000028BBDE8104001F0C5BF000000004940F9
:1088000022AA7D3A000000000000C93F22AAFD39DB
:1088100024FE1C3DC78AD83C1E67383D1B93993DFA
:10882000AFAA2A3EDB0FC93F10EE100A10B510EEBA
:10883000901A4FF0684202EB40032DED028BB3F12A
:10884000654F3CBF02EB4102B2F1654F7CD200BFE5
:10885000C0F3C753C1F3C7529A1A1B2A09DD10F09F
:10886000004F14BF9FED6E0A9FED6E0ABDEC028BA8
:1088700010BD12F11A0F1BDA11F0004F09D010F0E1
:10888000004F0CBF9FED680A9FED680ABDEC028B9C
:1088900010BD80EE208A18EE100AFFF725FF04288D
:1088A00008BF01F077FFB0EE480ABDEC028B10BDA7
:1088B0004200B2EB410F37D910F0004F19BFDFED86
:1088C0005C1A9FED5C1ADFED5C1A9FED5C1AB0EE4E
:1088D000602A0A46F1EE400A80F00041B0EE420AFA
:1088E00010460A1A5200B2F1807F34D2484010F08C
:1088F000004FDFED532A9FED533A1DBFBEEE002A15
:1089000071EEE21A31EE431AB6EE002A04BF71EEA0
:10891000A21A31EE031AF0EE402A42EE602A40EE2F
:10892000020A82EEA02A18E011F0004F04BF9FED6A
:10893000461AF0EE411AD4D010F0004F1CBFDFED04
:10894000431A9FED431A00E026E004BFDFED411A11
:108950009FED411AC5E780EE202A22EE020ADFEDE4
:108960003F0ADFED3F2ABDEC028B40EE202ADFED0F
:108970003D0A40EE220ADFED3C2A40EE202ADFEDE0
:108980003B0A40EE220A22EE000A00EE201A31EEE7
:10899000020A30EE210A10BD4FF07F42B2EB400FC9
:1089A00028BFB2EB410F05D2BDEC028BBDE81040F1
:1089B00001F0E5BE40EA01035B0008BF41F0FF4162
:1089C0000BD0B2EB400F08BFB2EB410F08D120F043
:1089D000804000EE100A21F0804100EE901A37E747
:1089E000B2EB400F12BF5FEA410240F0FF4001F0DE
:1089F00000413FF42DAF4A0092EA40033FF528AF13
:108A0000002AACBF9FED1A1A9FED1A1A20EE010A38
:108A100060EE810A10EE100A10EE901A18E70000BE
:108A2000DB0FC9BFDB0FC93FDB0F4940DB0F49C07C
:108A30000000C9BF22AAFDB90000C93F22AAFD3922
:108A40000060ED3EC30ACE3700000000000049C0C0
:108A500022AA7DBA0000494022AA7D3A2DAD65BD0B
:108A60008FB8D53D0FB511BE61C84C3EA8AAAABEAD
:108A70000000804F0000802F10B52F499FED2C1B68
:108A80002DED020B84B0059820F000408842D8BF3D
:108A90009DED040B2DDD2949884209D1049840B988
:108AA0004FF0010001F052FF01F036FE06B010BD9C
:108AB00005DB9DED040B01F01BFE06B010BD684602
:108AC0009DED040B01F014FA10F0030004BF9DEDBE
:108AD000021B9DED000B0CD001280ED09DED021B5A
:108AE0009DED000B022817D0012001F051FD06B0CA
:108AF00010BD01F019FC06B010BD9DED021B9DEDEF
:108B0000000B012001F044FD51EC100B81F00041FD
:108B100006B041EC100B10BD01F006FC51EC100B3F
:108B200081F0004106B041EC100B10BD00000000C8
:108B30000000000000000000FB21E93F0000F07F82
:108B400010EE101A08B5444A6846B2EB410F28D916
:108B50004FF0E640B0EB410F94BF00204FF0FF30E4
:108B600000900098002861DB60EE000A10F0010F11
:108B700045D010F0020FDFED391A9FED391A00EEE3
:108B8000E11ADFED381A40EE811A21EEA01AF0EE5C
:108B9000400A40EE010A08BFF1EE600AB0EE600A3A
:108BA00008BD314B21F0004293423CD911F0004FF7
:108BB000DFED2E0A20EE201ADFED2D0A19BF31EE6F
:108BC000601A71EE200A31EE201A71EE600ABDEED5
:108BD000E01A11EE100A9FED271A00F0030000EED4
:108BE000C10A9FED251A009000EEC10A9FED231ADD
:108BF00000EEC10A9FED221A00EEC10AB1E79FED17
:108C0000211A9FED210A10F0020F00EE810A9FED5C
:108C10001F1A00EE801AB7EE000A00EE810A18BF94
:108C2000B1EE400A08BD01F0BDFD9AE710EE100A52
:108C30004000B0F17F4F3CBFB7EE000A08BD07D13E
:108C40004FF0010001F082FEBDE8084001F09ABD3E
:108C5000BDE8084001F090BDB61F927E336D4C39DF
:108C6000DA82083CA0AA2ABE490E494683F9223F6F
:108C70000000004B0000C93F00A0FD390020A233D6
:108C80001A61342CB93AB2BACA9F2A3DDDFFFFBE41
:108C90002DED020B019820F0004001909DED000B9E
:108CA00002B070470000000070B5D94B00242DEDD4
:108CB000020B2DED108BDDE91010984205DA20F043
:108CC00000429A4201D809D141B19DED100BBDEC93
:108CD000108B02B0BDE8704001F00ABDB0F5801FF6
:108CE00026DA11430BD0002813DA012001F02EFE02
:108CF000BDEC108B02B0BDE8704001F00DBD02204C
:108D000001F024FE01F0DCFC51EC100B81F000417D
:108D10009EE06FF035049FEDC00B53EC102B9DEDE2
:108D2000100B51EC100BFCF7E9FECDE910010846E1
:108D300004EB2051C0F31304B948A1F2FF312044E1
:108D400000F4801080F07F6282F04052224301EBF9
:108D500020559FEDB50B119253EC102B9DED100B90
:108D600051EC100BFCF7C4FE41EC180BA01CC0F337
:108D700013009FEDAFDB9FEDB0EBB14E7E440328B7
:108D80006CD296ED000B51EC180B53EC102BFDF749
:108D900011F81DD1002D01BF96ED000BBDEC108B1D
:108DA00002B070BD2846FCF7A0FF41EC180B53EC55
:108DB0001D2BFCF7A3FE41EC190B53EC1E2B51ECC1
:108DC000180BFCF79BFE53EC192BFCF7F0FD3FE072
:108DD0009FED9D0B51EC180B53EC102BFCF78EFE06
:108DE0009FED9B1B53EC112BFCF785FE41EC190BFF
:108DF00053EC182B51EC180BFCF780FE53EC192B9D
:108E0000FCF77CFE41EC190B002D04BF53EC192B31
:108E100051EC180B1AD02846FCF767FF41EC1A0BEF
:108E200053EC1D2BFCF76AFE53EC192BFCF763FE89
:108E300053EC182BFCF75CFE41EC180B53EC1E2B8B
:108E400051EC1A0BFCF75AFE53EC182BFCF750FEB2
:108E5000BDEC108B02B041EC100B70BD9FED7E0B92
:108E600051EC180B53EC102BFCF7A1FD41EC100B4F
:108E700051EC180B53EC102BFCF7B2FE41EC190B24
:108E80002846FCF732FF41EC1B0B53EC192B51EC3D
:108E9000190BFCF733FE41EC1A0B714853EC1A2BFB
:108EA000261851EC1A0BFCF729FE41EC1F0B6D48FC
:108EB000C4F1510404F5D724B0EE4F0AF0EE6F0A66
:108EC0000321784401F0E8FA53EC1F2B51EC100B0E
:108ED000FCF714FE41EC1C0B6348B0EE4F0AF0EEB9
:108EE0006F0A0421784401F0D7FA53EC1A2B51ECA5
:108EF000100BFCF703FE344353EC1C2BFCF757FD1F
:108F000041EC1C0B002C4CDD9FED510B51EC180B70
:108F100053EC102BFCF7F2FD53EC182BFCF7EEFD95
:108F200041EC1A0B55B353EC1D2B51EC1B0BFCF70A
:108F3000E5FD41EC1D0B53EC1C2B51EC1A0BFCF71F
:108F400036FD53EC192BFCF7D9FD53EC1D2BFCF728
:108F50002EFD53EC1A2BFCF7CEFD53EC182BFCF72F
:108F6000C7FD41EC180B53EC1E2B51EC1B0BFCF70F
:108F7000C5FD53EC182BFCF7BBFD69E753EC1C2B2C
:108F800051EC1A0BFCF713FD53EC192BFCF7B6FD53
:108F900053EC1A2BFCF7AFFD53EC182BFCF7ABFD91
:108FA00056E735B353EC1D2B51EC1B0BFCF7A6FD1C
:108FB00041EC1A0B53EC1C2B51EC180BFCF798FDF1
:108FC00053EC192BFCF79AFD53EC1A2BFCF790FD90
:108FD00053EC182BFCF78CFD41EC180B53EC1E2BBB
:108FE00051EC1B0BFCF78AFD53EC182BFCF780FDB2
:108FF0002EE753EC1C2B51EC180BFCF779FD53ECCE
:10900000192BFCF77BFD53EC182BFCF774FD1FE7C5
:109010000000F07F0000000000000000000050434E
:10902000645F090000000000000000000000F03F45
:10903000763C7935EF39EA3D0000E0FE422EE63F0E
:1090400068CC000000000000555555555555D53FDA
:10905000000000000000E03F0000000000000040B1
:1090600086EBF9FF32CA000028CA000000000000A9
:109070002DE9F04D2DED040B2DED0C8B96B0DDE9B7
:109080002350259CDDF888A025F0004624F00048F8
:10909000BAF1000F14BF0121002101EB4502FE4986
:1090A00053184A1093422AD3002814BF01230023E7
:1090B00003EB44030B44F9498B4220D358EA0001E7
:1090C0009FEDF78B6FD0DFF8E0B35D4503D1BAF1C8
:1090D000000F05D187E0BAF1000F08BF002100D0D2
:1090E000012101EB450111F5001F08D8002814BF2C
:1090F0000121002101EB440111F5001F0BD99DED69
:10910000241B9DED220B16B0BDEC0C8B04B0BDE80A
:10911000F04D01F0F7BA0027002DBCBFE3498845A8
:1091200021DAE3498845A8BF02271CDAC3451ADCC7
:10913000E04901EB2851142908DDC1F1340220FA7D
:1091400002F101FA02F282420DD108E058B9C1F1F0
:10915000140228FA02F101FA02F2424503D101F0A9
:109160000101C1F1020756EA0A011DD1002C1BDAE8
:10917000002D18BF022F01D0012F0AD0022001F0CC
:10918000E5FB16B0BDEC0C8B04B0BDE8F04D01F072
:1091900097BA022001F0DAFB01F092FA51EC100BC1
:1091A00081F0004183E01EE09FEDC39B9FEDC4ABC7
:1091B000002872D1BD4880452DD105F1804010F5C1
:1091C000801008BFBAF1000F0DD0B34515DC002C9C
:1091D000A1BF9DED240B16B0BDEC0C8B04B0A8BF55
:1091E000BDE8F08D12E0B0EE480AF0EE680A16B065
:1091F000BDEC0C8B04B0BDE8F08D002C06DA9DEDC3
:10920000240B51EC100B81F0004150E0AE48784443
:1092100090ED000BEBE7D8454FD1002C4ADA2EB188
:1092200086423BD1BAF1000F44D126E0BAF1000FDB
:1092300013D0022001F08AFB01F07EFA8DED020BC3
:109240009DED220B8DED000B10EE900A039961F35A
:109250001E0003909DED020BC9E78DED029B9DED75
:10926000220B19EE901A10EE900A8DED000B61F3AF
:109270001E0003909DED020BB9E78DED02AB9DED55
:10928000220B1AEE901A10EE900A8DED000B61F38E
:109290001E0003909DED020BA9E729E00ADA9DED7F
:1092A000220B51EC180B53EC102BFCF799FC41EC02
:1092B000100B9CE79DED220B99E7864218DAB4F17A
:1092C000804F0DD0A4F10050B0F1FF5010D1002D0F
:1092D0000EDB9DED220B51EC100B08F058FCE6E77D
:1092E0009DED220B53EC102B51EC100B00F0AEBC9B
:1092F0009DED220B51EC100B03F0F4F9BAF1000FC5
:10930000CDE90C0134D19FED720BDEB1A6F1E04046
:10931000B0F17F602CD1002D01DD002C0DDA002D85
:1093200001DD002C1FDB002D16DA002C14DB012FD1
:1093300008BF9FED690B3FF45AAFB0EE490AF0EE5B
:10934000690A54E7022F18BF002D0CD0012F0AD153
:10935000002DFFF64CAF06E0002DB8BF002C07DA59
:10936000012F3FF444AFB0EE4A0AF0EE6A0A3EE73E
:10937000012000EBE57A5AEA07000CD05848002596
:1093800080457CDD57495848884514DDB0420DDBE7
:10939000002C19DB2BE0012001F0D8FA16B0BDEC4F
:1093A0000C8B04B0BDE8F04D01F0B6B9B34502DC5A
:1093B000002C09DC1BE0864202DA002C17DA03E0FD
:1093C0005E4527DD002C12DD022001F0BFFA01F01E
:1093D000B3F910EE901A19EE900A8DED020B8DED97
:1093E000009B61F31E0003909DED020BFFE602203F
:1093F00001F0ACFA01F0B0F910EE901A18EE900AF4
:109400008DED020B8DED008B61F31E0003909DED41
:10941000020BECE69DED220B53EC182B51EC100BDC
:10942000FCF766FB9FED320BCDE90A0153EC102BE4
:109430009DED0A0B51EC100BFCF760FB9FED2E1B12
:1094400053EC112BFCF757FB9DED0A1B53EC112B32
:10945000FCF754FB9FED2A1B53EC112BFCF74BFB45
:109460009DED0A0B41EC190B53EC102B51EC100B3A
:10947000FCF744FB53EC192BFCF740FB00E07EE0CB
:109480009FED210B41EC1A0B53EC102B9DED0A0BB9
:1094900051EC100B3CE00000FFFF1F00FFFF0F002E
:1094A000000000000000F03F0000F03F0000F07FEF
:1094B0000000404301FCFFFF000000000000F07FBF
:1094C0000000000000000000D6C7000000000000FF
:1094D0000000000000000080000000000000F0FF1D
:1094E0000000E0410000F043FFFFEF3F00000000FC
:1094F000000000000000D03F555555555555D53F4B
:10950000000000000000E03F000000604715F73F4A
:10951000FCF7F4FA41EC190B9FEDFD0B51EC1A0B23
:1095200053EC102BFCF7EAFA41EC1A0B9FEDFA0B07
:1095300053EC102B9DED0A0B51EC100BFCF7DEFAEF
:1095400053EC1A2BFCF7D4FA41EC1A0B51EC190B23
:1095500053EC1A2BFCF72BFA0690CDE906519DED42
:10956000060B53EC192B51EC100BFCF7C1FA53EC22
:109570001A2BFCF7C0FA41EC100B00F09FB9002049
:10958000B6F5801F0EDA9FEDE60B53EC102B9DED28
:109590000C0B51EC100BFCF7B1FACDE90C016FF09C
:1095A00034000E4600EB2650A0F2FF38C6F313003D
:1095B000DD4940F07F6646F040568842D8BF00241F
:1095C00009DDDA498142C8BF012404DC0024A6F584
:1095D000801608F10108D648784400EBC4000D96C7
:1095E00090ED00BB9DED0C0B53EC1B2B51EC100BC5
:1095F000FCF77EFA9DED0C0B41EC1A0B53EC1B2B88
:1096000051EC100BFCF7D3F941EC100B51EC180B9B
:1096100053EC102BFCF7E4FA41EC1C0B51EC1A0B49
:1096200053EC1C2BFCF76AFA41EC190BC1488DED89
:10963000109B7844109590ED000B4FF0005040EADD
:10964000660000EB84408DED0A0B00F500200B90C6
:109650009DED0A0B53EC1B2B51EC100BFCF748FA59
:109660009DED0C1B53EC112BFCF745FA41EC100B54
:1096700053EC102B9DED100B51EC100BFCF73EFA48
:109680009DED0A0B41EC1B0B53EC102B9DED100BC9
:1096900051EC100BFCF732FA53EC1A2BFCF72BFAB7
:1096A00053EC1B2BFCF724FA53EC1C2BFCF726FA8B
:1096B00041EC1B0B53EC192B51EC190BFCF71EFA68
:1096C00041EC1A0B9C480621B0EE4A0AF0EE6A0AF9
:1096D000784400F0E1FEB0EE40CAF0EE60CA53EC10
:1096E0001A2B51EC1A0BFCF709FA53EC1C2BFCF764
:1096F00005FA9DED100B41EC1A0B53EC192B51ECB4
:10970000100BFCF754F953EC1B2BFCF7F7F953EC57
:109710001A2BFCF74CF99DED100B41EC1A0B53EC96
:10972000102B51EC100BFCF7E9F941EC1C0B9FEDF1
:1097300084DB53EC1D2BFCF73AF953EC1A2BFCF7A6
:1097400036F90A90CDE90A519DED0A0B53EC1D2B19
:1097500051EC100BFCF7CCF953EC1C2BFCF7C8F9BF
:1097600053EC1A2BFCF7C7F99DED0A0B41EC1C0BCF
:1097700053EC102B9DED100B51EC100BFCF7BEF9C8
:1097800041EC1A0B53EC192B51EC1C0BFCF7B6F9FE
:109790009DED0A0B41EC190B53EC102B51EC1B0BFC
:1097A000FCF7ACF953EC192BFCF701F941EC190B60
:1097B00051EC1A0B53EC192BFCF7F9F81090CDE98A
:1097C00010519DED100B53EC1A2B51EC100BFCF7C4
:1097D0008FF953EC192BFCF78EF941EC190B9FED27
:1097E0005A0B53EC102B9DED100B51EC100BFCF7AA
:1097F00085F941EC1A0B9FED560B51EC190B53EC0C
:10980000102BFCF77BF941EC190B9FED530B53EC3C
:10981000102B9DED100B51EC100BFCF76FF953EC76
:10982000192BFCF7C4F841EC100B4D48784400EBC1
:10983000C40090ED001B51EC100B53EC112BFCF706
:10984000B6F841EC190B4046FCF74FFACDE90A0196
:1098500053EC192B51EC1A0BFCF7A9F841EC100B47
:109860004048784400EBC40090ED00BB51EC100B75
:1098700053EC1B2BFCF79BF89DED0A1B53EC112BB3
:10988000FCF795F80690CDE906519DED0A0B53ECD7
:10989000102B9DED060B51EC100BFCF729F953EC46
:1098A0001B2BFCF725F953EC1A2BFCF721F953EC91
:1098B000192BFCF720F941EC100B00BF781EB0EE1D
:1098C00048AAF0EE68AA5AEA000008BF9FED268B6E
:1098D0009DED241B53EC102B8DED001B00959DED91
:1098E000240B51EC100BFCF709F99DED000B41EC3A
:1098F000190B53EC102B9DED240B51EC100BFCF7C6
:10990000F7F89DED061B53EC112BFCF7F7F82FE051
:10991000FE822B654715F73F44DF5DF80BAE543EE2
:1099200000000000000040438E9803007AB60B0050
:1099300054C30000B2C300008CC20000000000004D
:109940000000000000000840000000E009C7EE3FF2
:10995000FD033ADC09C7EE3FF5015B14E02F3EBE84
:1099600020C10000DAC00000000000000000F0BFCD
:1099700053EC192BFCF71BF89DED060B41EC190B72
:1099800053EC102B9DED000B51EC100BFCF7B6F8CF
:10999000CDE910019DED100B51EC190B53EC102B80
:1099A000FCF705F8CDE902010C46AB498C422FDBF0
:1099B000611A084318D19DED100B53EC102B9DED4F
:1099C000020B51EC100BFCF793F841EC1B0B9FEDD5
:1099D000A40B51EC190B53EC102BFBF7E8FF53ECE5
:1099E0001B2BFCF7FFF92DD2022000F0AFFF00F097
:1099F000A3FE10EE901A18EE900A8DED020B8DED7D
:109A0000008B61F31E0003909DED020BFFF7EFBB8F
:109A1000954A24F00041914214D3944921440843CB
:109A20007FF4E5AC9DED100B53EC102B9DED020B7C
:109A300051EC100BFCF75CF853EC192BFCF7D2F946
:109A40007FF6D5AC24F0004089498A4A002601EB14
:109A5000205182422BDA481C4FF4801121FA00F089
:109A60002044854AC0F30A517A44A1F2FF3192EDB5
:109A7000000B824A8DED0A0BCA4020EA0202C0F3B5
:109A8000130040F48010C1F1140120FA01F60B928A
:109A9000002CB8BF76429DED0A0B53EC102B9DEDC8
:109AA000100B51EC100BFCF723F8CDE910019DEDE4
:109AB000100B51EC190B53EC102BFBF778FF9FEDBB
:109AC000700B0A90CDE90A5153EC102B9DED0A0B57
:109AD00051EC100BFCF712F841EC1B0B9FED6A0BDD
:109AE00053EC102B9DED0A0B51EC100BFCF706F814
:109AF0009DED100B41EC1C0B53EC102B9DED0A0B54
:109B000051EC100BFBF7F4FF53EC192BFBF7F3FFB1
:109B10009FED5F1B53EC112BFBF7F0FF53EC1C2B5D
:109B2000FBF745FF41EC190B51EC1B0B53EC192BC8
:109B3000FBF73DFFCDE902019DED020B53EC1B2B22
:109B400051EC100BFBF7D4FF53EC192BFBF7D3FFB1
:109B50009DED020B41EC190B53EC102B51EC100B4B
:109B6000FBF7CCFFCDE90A014B489DED0A0B05211F
:109B7000784400F091FC9DED0A1B51EC100B53EC66
:109B8000112BFBF7BBFF9DED021B53EC112BFBF7D9
:109B9000B2FFCDE906019DED020B53EC192B51EC00
:109BA000100BFBF7ABFF53EC192BFBF700FF9FEDFE
:109BB0003C0B41EC190B53EC102B9DED060B51ECBB
:109BC000100BFBF795FF9DED060B41EC1B0B53ECC7
:109BD000102B9DED020B51EC100BFBF78FFF53EC9C
:109BE0001B2BFBF7FDFF53EC192BFBF781FF9DEDC2
:109BF000021B53EC112BFBF77BFF53EC1A2BFBF7EB
:109C00007AFFCDE9020101EB065001150029C8BF1A
:109C1000039015DC9DED020B324651EC100BFCF766
:109C200000FAFEF749FD042808BF00F095FD324612
:109C30009DED020B51EC100BFCF7F3F9CDE902019D
:109C40009DED020B51EC180B53EC102BFBF756FF5C
:109C5000FFF72DBB00000000000090400000000056
:109C6000FE822B654715973C00CC904000346F3F37
:109C700001FCFFFF0000E03F7CBF0000FFFF0F0082
:109C800000000000432EE63F396CA80C615C20BE4A
:109C9000EF39FAFE422EE63F1CBE00000000000035
:109CA000000000000000004000B510EE101A2DED7D
:109CB000028B81B0524A6846B2EB410F2ED94FF069
:109CC000E640B0EB410F94BF00204FF0FF30009012
:109CD0000098B0EE408A00286ADB10F0010F4BD0EC
:109CE00068EE080A9FED471A9FED470A00EE810AC9
:109CF0009FED461A10F0020F00EE801AB7EE000A30
:109D000000EE810A02BF01B0BDEC028B00BD00BFB6
:109D100001B0B1EE400ABDEC028B00BD3C4B21F01E
:109D20000042934241D911F0004FDFED3A0A20EE94
:109D3000201ADFED390A19BF31EE601A71EE200AE0
:109D400031EE201A71EE600ABDEEE01A11EE100A33
:109D50009FED321A00F0030000EEC10A9FED301AA9
:109D6000009000EEC10A9FED2F1A00EEC10A9FED90
:109D70002E1A00EEC10AABE728EE080A9FED2B1A57
:109D8000DFED2B0A10F0020F40EE410A9FED291A79
:109D900000EE201A61EE000AB0EE480A08EE200A32
:109DA000B6D101B0BDEC028B00BD00F0FBFC8FE72B
:109DB00018EE100A4000B0F17F4F0DD218EE100AD5
:109DC000FEF792FC042808BF00F0E4FCB0EE480A5D
:109DD00001B0BDEC028B00BD09D1012000F0B6FD41
:109DE00001B0BDEC028B5DF804EB00F0CBBC01B020
:109DF000B0EE480ABDEC028B5DF804EB00F0BCBC91
:109E0000B61F927EB93AB2BACA9F2A3DDDFFFFBEA5
:109E1000490E494683F9223F0000004B0000C93F2C
:109E200000A0FD390020A2331A61342C336D4C3967
:109E3000DA82083CA0AA2ABE00B52DED048BB0EE54
:109E4000409AF0EE609A83B051EC190BFCF700F9E0
:109E500041EC180B18EE100A18EE901A8DED008BDD
:109E6000002818BF0120084320F00040C0F17F60A7
:109E700000F1E040C00F14D019EE101A19EE900A4C
:109E80008DED009B002918BF0121084320F0004000
:109E9000C0F17F6000F1E040C00F04BF012000F07E
:109EA00055FDB0EE480A03B0F0EE680ABDEC048B35
:109EB00000BD10B52DED028BB1EEC08A18EE100A70
:109EC00020F00040C0F1FF40C00F0AD010EE100A91
:109ED00020F00040C0F1FF40C00F04BF012000F09F
:109EE00035FDB0EE480ABDEC028B10BD000000004D
:109EF0002DE9F14F04462DED020B2DED088B8AB0B4
:109F00009FEDE70B80ED020B139EE74826F000451E
:109F100085420ADC9DED120B002084ED000B0AB097
:109F2000BDEC088B03B0BDE8F08FE0489FEDE0ABDF
:109F30009FEDE1BBA84247DDE14F9FEDE39B9FED25
:109F4000E48B9DED120B53EC1A2B51EC100B002EF1
:109F50001CDDFBF7CDFD41EC100BBD4208D053ECEE
:109F60001B2B51EC100BFBF7C3FDC4E900010BE008
:109F700053EC192B51EC100BFBF7BAFD53EC182BDB
:109F8000FBF7B6FDC4E900010120C8E7FBF70FFDB0
:109F900041EC100BBD4208D053EC1B2B51EC100BC5
:109FA000FBF705FDC4E900010BE053EC192B51EC64
:109FB000100BFBF7FCFC53EC182BFBF7F8FCC4E987
:109FC00000014FF0FF30AAE7C348A84279DB9DEDBE
:109FD000120B51EC100B02F085FB41EC180B9FEDBE
:109FE000C00B53EC102BFBF789FD9FEDBF1B53EC0F
:109FF000112BFBF7DCFCFBF7AAFE0746FBF775FE0F
:10A0000041EC190B53EC1A2BFBF778FD53EC182B92
:10A01000FBF771FD41EC180B53EC1B2B51EC190BAA
:10A02000FBF76CFDDFF8C8A241EC100B4FEA1558A6
:10A030000125FA4453EC102B51EC180BFBF758FD9B
:10A04000032DC4E900013DD0C1F30A5005EB4511D1
:10A05000A8EB00001139814234DA0AEB051BB0EE9F
:10A0600048AA9BED000BF0EE68AA53EC102B51ECC4
:10A07000190BFBF743FD41EC1B0B51EC1A0B53EC96
:10A080001B2BFBF735FD41EC180B51EC1A0B53EC75
:10A09000182BFBF72DFD53EC1B2BFBF729FD9BED3C
:10A0A000020B41EC1A0B53EC102B51EC190BFBF784
:10A0B00025FD53EC1A2BFBF71BFD41EC100B6D1C1F
:10A0C000B8E70EE0002EA8BF3846BFF628AF94EDE3
:10A0D000000B51EC100B81F00041C4E90001784203
:10A0E0001DE7C6F3130040F4801EC6F30A50A0F229
:10A0F000F530471100F01F05C5F12000DDF848B02C
:10A1000008900020069007900520EC467949002D24
:10A1100007EB0002794408BF51F8221009D051F82A
:10A12000223001EB8201AB404A68089922FA01F122
:10A130001943A1FB0E26A1FB0B131A449A4234BF0C
:10A140000123002303EB06080CEB8003D3E901A6EF
:10A150000E448E4234BF0121002192448A4411B141
:10A16000924502D903E0924501D2012100E000218D
:10A17000C3E901A641444CF82010011EA0F10100E2
:10A18000C4DC029800F10050850F0298DDE90367F6
:10A190008000DDF81480FBF7A8FD41EC1A0B304677
:10A1A000FBF7D2FF9FED541B53EC112BFBF7A6FCE2
:10A1B00041EC1B0B3846FBF7C7FF9FED511B53ECDF
:10A1C000112BFBF79BFC41EC180B4046FBF7BCFF47
:10A1D0009FED4D1B53EC112BFBF790FC41EC190B41
:10A1E00051EC180B53EC192BFBF7E1FB53EC1B2B39
:10A1F000FBF7DDFB53EC1A2BFBF7D9FBCDE908018C
:10A20000002008909DED080B53EC1A2B51EC100B1D
:10A21000FBF76EFC53EC1B2BFBF76AFC53EC182B83
:10A22000FBF766FC53EC192BFBF765FC9FED381B25
:10A2300053EC112BFBF762FC9FED370B41EC180B35
:10A2400053EC102B9DED080B51EC100BFBF756FC5B
:10A2500053EC182BFBF7ABFB9FED310B41EC180BCC
:10A2600053EC102B9DED080B51EC100BFBF746FC4B
:10A2700053EC182BFBF79BFB41EC100B139810F0E1
:10A28000004F06D06D4251EC100B81F0004141ECC3
:10A29000100B284684ED000B41E600000000000092
:10A2A0000000000000000000FB21E93F7CD90240D3
:10A2B00000004054FB21F93F3163621A61B4D03D84
:10A2C000FB21F93F000000000000601A61B4D03D9E
:10A2D0007370032E8A19A33BFB2139410000000053
:10A2E00083C8C96D305FE43F000000000000E03F1C
:10A2F000BAB9000008B90000000000000000103EDC
:10A30000000000000000103C000000000000103AB7
:10A31000182D4454FB21F93D3326A611460B113C60
:10A3200000000054FB21F93D10B52DED040B2DED7F
:10A33000088B82B0B0EE419AF0EE619A0B9820F053
:10A3400000449FED4BABB4F1795F11DA9DED0A0B40
:10A3500051EC100BFBF7FBFC002801BFB0EE4A0AE2
:10A36000F0EE6A0A02B0BDEC088B04BF04B010BD69
:10A370009DED0A0B53EC102B51EC100BFBF7BEFBC1
:10A3800041EC180B3C480621B0EE480AF0EE680A92
:10A39000784400F081F853EC182B51EC100BFBF7CC
:10A3A000ADFB9DED0A0B41EC1B0B53EC192B51EC53
:10A3B000100BFBF7A3FB41EC190B53EC1B2B51ECDF
:10A3C000180BFBF79BFB53EC192BFBF791FB9FED55
:10A3D0002C0B41EC190B53EC102B51EC180BFBF729
:10A3E0008DFB41EC100B2848844210DA53EC192BFA
:10A3F00051EC100BFBF77CFB53EC1A2BFBF77BFBB0
:10A4000041EC100B02B0BDEC088B04B010BD1F482E
:10A41000A042BCBF9FED1E1B8DED001B06DBA4F50B
:10A4200000100190002000909DED001B51EC100BDE
:10A4300053EC112BFBF75CFB9DED000B41EC180B73
:10A4400053EC102B51EC1A0BFBF752FB41EC1A0B9F
:10A4500053EC192B51EC180BFBF74AFB53EC1A2B5E
:10A46000FBF749FB41EC100BCCE7000000000000BB
:10A47000000000000000F03F24B6000000000000D3
:10A48000000000000000E03F3333D33F0000E93F0D
:10A49000000000000000D23F70B504462DED028B95
:10A4A0004D1E00EBC500B0EE408AF0EE608A90EDE4
:10A4B000000B35F0060017D053EC182B51EC100BA5
:10A4C000FBF71CFB41EC100B6D1E04EBC50090ED7F
:10A4D000001B51EC100B53EC112BFBF768FA41EC0D
:10A4E000100B35F00600E7D1022D36D0042D1CD01C
:10A4F000062D1CBFBDEC028B70BD53EC182B51EC2C
:10A50000100BFBF7FBFA94ED0A1B53EC112BFBF736
:10A510004EFA53EC182BFBF7F1FA94ED081B53ECB1
:10A52000112BFBF744FA41EC100B53EC182B51ECB8
:10A53000100BFBF7E3FA94ED061B53EC112BFBF722
:10A5400036FA53EC182BFBF7D9FA94ED040B53ECC5
:10A55000102BFBF72CFA41EC100B53EC182B51ECA1
:10A56000100BFBF7CBFA94ED021B53EC112BFBF70E
:10A570001EFA53EC182BFBF7C1FA94ED001B53ECB9
:10A58000112BFBF714FABDEC028B41EC100B70BDE4
:10A5900031B504462DED040B2DED0A8BB0EE41BA1A
:10A5A000F0EE61BA0B989DED0A0B20F00040B0F17F
:10A5B000795F0DDA51EC100BFEF77EF8042808BF26
:10A5C00000F0CAF89DED0A0BBDEC0A8B05B030BD5A
:10A5D00053EC102B51EC100BFBF790FA41EC180BDD
:10A5E0009DED0A0B53EC182B51EC100BFBF786FA80
:10A5F00041EC190B2C48B0EE480AF0EE680A052130
:10A600007844FFF749FF9FED2ACBB0EE40AAF0EE69
:10A6100060AA9CB353EC1C2B51EC190BFBF76EFAA0
:10A6200041EC1C0B53EC1A2B51EC190BFBF766FA9F
:10A630009FED210B41EC190B53EC102B51EC1B0B34
:10A64000FBF75CFA53EC192BFBF752FA53EC182B7F
:10A65000FBF754FA53EC1B2BFBF74AFA53EC1C2B79
:10A66000FBF746FA9DED0A1B53EC112BFBF743FA5F
:10A67000BDEC0A8B05B041EC100B30BDFFE753EC8D
:10A680001A2B51EC180BFBF739FA53EC1C2BFBF788
:10A690008EF953EC192BFBF731FA9DED0A1B53ECA5
:10A6A000112BFBF784F9E3E7D4B4000000000000AD
:10A6B000495555555555C5BF000000000000E03F05
:10A6C0009FED070B10B553EC102B9FED070B51ECD2
:10A6D000100BFBF785FA41EC100B10BD00000000D9
:10A6E0000000000000000000000000000000F03F3B
:10A6F00010B553EC102B51EC100BFBF758F941EC53
:10A70000100B10BD10B553EC112B51EC100BFBF7D7
:10A710004EF941EC100B10BD9FED050B10B553EC3D
:10A72000102B51EC100BFBF75BFA41EC100B10BD3A
:10A7300000000000000000009FED050B10B553EC79
:10A74000102B51EC100BFBF7D9F941EC100B10BD9D
:10A7500000000000000000709FED050B10B553ECE9
:10A76000102B51EC100BFBF7C9F941EC100B10BD8D
:10A77000000000000000001030EE000A704730EECC
:10A78000200A7047DFED020A80EEA00A7047000041
:10A79000000000009FED020A20EE000A7047000052
:10A7A000000000102DE9F0014FF07F42B2EB410FA5
:10A7B0009FBF4FF0FF310160BDE8F00170474FF0DF
:10A7C000004242EA0123C1F3C752783A551112F010
:10A7D0001F0C434CCCF120067C44C1F3C752A2F1BC
:10A7E00078024FEA621204EB820254F8254008BF57
:10A7F000D2E9015612D0556804FA0CF425FA06F78E
:10A800003C43976805FA0CF527FA06F8D26807FA70
:10A810000CFCF24045EA08054CEA0206A4FB034C96
:10A82000A5FB0352A6FB03631D449D4234BF0126D2
:10A8300000261319334416B1934202D903E0934220
:10A8400001D2012200E00022624402F1200C9206B3
:10A85000DC0C42EA443200EE102A5B03DFED210AF1
:10A86000F8EEC01A00EE103A4FEA9C1C11F0004FAF
:10A87000B8EE400AC0F800C020EE201A00EE105AD0
:10A88000DFED190AB8EE400A20EE200A71EE810AC7
:10A8900070EE800A10EE902A02F500626FF30B0250
:10A8A00000EE902A70EEE11A31EEC11ADFED101AB7
:10A8B00030EE411A9FED0D0A20EE800A01EE210ACA
:10A8C0009FED0C1A00EE810A04BFBDE8F00170474D
:10A8D000CCF180510160BDE8F001B1EE400A704753
:10A8E000DCB20000000000360000802C22AAFD2906
:10A8F000DB0FC92F0000C92FFEB507460C461546D1
:10A900001E46234603A2002106208DE8E000FDF745
:10A910004CFEFEBD25737C25737C25642072657416
:10A9200075726E696E672025640A000002E008C82F
:10A93000121F08C1002AFAD170477047002001E0B9
:10A9400001C1121F002AFBD17047000001490860B5
:10A9500070470000480100202DE9FF5FDDE902207B
:10A96000010DDDF838B0024318D044F61050A1F2C2
:10A97000FF3141430D140F98012820D0A5EB0B00A7
:10A98000401C5FEA000A4FF00004474EDFF81C91BC
:10A99000A046504616D5CAF1000728E00F980124BA
:10A9A00043A2012808D0002100980F9BC0E9002194
:10A9B000C0E90243BDE8FF9F6FEA0B01F4E7CBF16A
:10A9C0000000DEE7074612E0F80707D022463346CC
:10A9D00040464946FBF792F8804689462246334670
:10A9E00010461946FBF78AF804460E467F10002FE2
:10A9F000EAD1DDE90201BAF1000F42464B4602DA24
:10AA0000FBF77CF801E0FBF7EBF804460E4600226A
:10AA1000284BFBF7E7F903D84FF0FF30014607E07A
:10AA20000022254B20463146FAF7C1FFFBF761FBB8
:10AA3000102409E0002C0ADB0A220023FBF71CFA91
:10AA4000019B30321A55641E50EA0102F2D1641C97
:10AA5000019AC4F1110314440F9A012A03D0012270
:10AA600008430DD10AE0084304D000204FF0110B39
:10AA70000F9080E7A3EB0B056D1E0DE05B4504DD39
:10AA80004FF0000205F1010504E003DA4FF0000287
:10AA9000A5F10105002AECD000980F99C0E9023118
:10AAA000C0E9004586E70000000024400000F03FB8
:10AAB000300000000000F0430000E03F2DE9FF4FB0
:10AAC00095B09B468946064600250FE2252877D19A
:10AAD00000242746F84A0121059400E0044316F8B3
:10AAE000013F203B01FA03F01042F7D130782A28C9
:10AAF00011D06FF02F033078A0F13002092A16D858
:10AB0000059A44F0020402EB820203EB4202104475
:10AB1000761C0590EFE759F8042B0592002A03DA1A
:10AB2000504244F40054059044F00204761C3078FE
:10AB30002E2816D116F8010F44F004042A280DD04F
:10AB40006FF02F023078A0F13003092B09D807EB02
:10AB5000870302EB4303C718761CF3E759F8047B1D
:10AB6000761C30786C280FD006DC4C2817D068286B
:10AB70000DD06A2814D104E0742810D07A280FD19F
:10AB80000DE044F400140AE044F4801401E044F4BD
:10AB900040147278824202D104F58014761C761C2F
:10ABA000307866280BD013DC582877D009DC0028D1
:10ABB00075D04528F6D04628F4D047281AD19DE113
:10ABC00018E0632835D0642879D0652812D195E142
:10ABD000702873D008DC6728F1D069286FD06E2800
:10ABE0000DD06F2806D1B5E073282CD0752875D00C
:10ABF000782874D05A46179990476D1C75E1C4F3B4
:10AC00000250022809D003280DD0D9F800100428DA
:10AC10000DD00D6009F1040967E1D9F80010EA17B9
:10AC2000C1E90052F6E7D9F800100D80F2E70D7087
:10AC3000F0E719F8041B8DF8001000208DF80100D2
:10AC4000EA46012003E059F804AB4FF0FF306107FA
:10AC50004FF0000102D40DE008F101018846B9422D
:10AC60000FDA8045F8DB1AF808100029F4D108E063
:10AC700008F1010188468142FADB1AF80810002920
:10AC8000F6D105985B46A0EB080721463846179A8F
:10AC900000F094FA284400EB080507E04DE029E1B4
:10ACA0000DE01AF8010B5A4617999047B8F10108C0
:10ACB000F7D25B4621463846179A13E142E00A2252
:10ACC0000092C4F302524FF0000A022A08D059F849
:10ACD00004CB032A4FEAEC710AD00DE029E02AE008
:10ACE00009F1070121F00702F2E802C1914609E0EB
:10ACF0000FFA8CFC4FEAEC71042A03D14FFA8CFC5A
:10AD00004FEAEC71002907DA0A460021DCF1000C59
:10AD100061EB02012D2202E0220504D52B228DF8E1
:10AD20000420012203E0E20701D02022F7E7904649
:10AD300059E00A2102E010220DE010214FF0000A34
:10AD400000910BE010224FF0000A44F004040827A1
:10AD5000009203E008224FF0000A0092C4F302526E
:10AD6000022A05D059F804CB0021032A08D009E0B3
:10AD700009F1070121F00702F2E802C1914605E05E
:10AD80001FFA8CFC042A01D10CF0FF0C4FF00008D4
:10AD9000220728D5702806D0009B83F0100353EAC1
:10ADA0000A0305D00EE040228DF80420012208E0BD
:10ADB0005CEA010206D030228DF804208DF80500EF
:10ADC00002229046009B83F0080353EA0A030AD14B
:10ADD0005CEA010201D1620705D530228DF804201A
:10ADE0004FF001087F1E582804D034A003900EA80D
:10ADF00002900DE036A0F9E753466046009AFBF753
:10AE00003BF884460398825C0298401E02900270D0
:10AE10005CEA0100F0D1029806A9081A00F1200AA4
:10AE2000600702D524F4803400E00127574502DD95
:10AE3000A7EB0A0000E0002000EB0A010090059853
:10AE40004144401A0590E00306D45B462146179A18
:10AE5000059800F0B3F90544002706E001A85A461A
:10AE6000C05D179990476D1C7F1C4745F6DBE003DA
:10AE70000CD55B462146179A059800F09FF90544CA
:10AE800004E030205A46179990476D1C0099481EDF
:10AE900000900029F5DC08E0029802995A460078F3
:10AEA000491C0291179990476D1CBAF10001AAF153
:10AEB000010AF1DC65E1000009280100303132337C
:10AEC00034353637383961626364656600000000E6
:10AED00030313233343536373839414243444546D0
:10AEE0000000000000F058F90544761C3078002876
:10AEF0007FF4ECAD19B02846BDE8F08F620700D4AE
:10AF0000062709F1070222F0070CFCE80223E146BC
:10AF100003F000485FEA080C02D00FF2702C0DE03D
:10AF20005FEA045C02D50FF2682C07E05FEAC47C9C
:10AF300002D00FF2602C01E0AFF2700C4FF0FF383E
:10AF400023F00043CDF850C065280CD006DC45281E
:10AF500009D046281DD047283DD13DE0662818D0AD
:10AF600067287ED138E00021112F01DB112000E09D
:10AF7000781CCDE9000106A90EA8FFF7EDFCDDE97C
:10AF80000F010E9A03910021009207F1010A04912A
:10AF90004DE04FF000400097CDE9011006A90EA842
:10AFA000FFF7DAFCDDE90F0203920E9B11990022F4
:10AFB000DDF80CA00093049211B9791C00EB010A92
:10AFC000B7EB0A0004D4C0F1FF3007F1010A049086
:10AFD000AAEB0700019044E0012F00DA01270021CD
:10AFE000112F01DD112000E03846CDE9000106A94E
:10AFF0000EA8FFF7B1FCDDE90F010E9A03910021C5
:10B0000004910092BA4621070CD40399514500DA05
:10B010008A46BAF1010F05DD009AAAF10101515CDF
:10B02000302908D0B84202DA10F1040F06DA012103
:10B03000CDE9011015E0AAF10101E9E7002805DCDE
:10B04000049901440491AAEB000102E0411C51451E
:10B0500000DD8A460499401A401C01904FF00040E0
:10B060000290200704D40198504501DBCDF80480FC
:10B0700000208DF84F0002980DF14F07B0F1004FFE
:10B0800025D02B200E9002984FF0020800280CDAF1
:10B09000404202902D200E9007E00A210298FAF714
:10B0A000D5FE3031029007F8011DB8F10001A8F17A
:10B0B0000108F2DC02980028EFD1791E0E98087082
:10B0C000307800F0200040F0450007F8020D12A88B
:10B0D000C01B00F107081498007800B1012000EBB4
:10B0E0000A01019801EBE07105984144401A401EA5
:10B0F0000590E00306D45B462146179A059800F0B8
:10B100005DF805441498007818B15A46179990478D
:10B110006D1CE00324D55B462146179A059800F084
:10B120004DF805441CE00498002807DBDDE9030125
:10B13000884203DD0098405C179901E017993020A0
:10B140005A469047049805F10105401C0490019867
:10B15000401E019004D12E205A46179990476D1C2D
:10B16000BAF10001AAF1010ADDDC05E017F8010BD4
:10B170005A46179990476D1CB8F10001A8F10108D3
:10B18000F4DC5B462146179A0598ABE62D000000DB
:10B190002B000000200000002DE9F04104460025AE
:10B1A0001E461746880404D405E039462020B047DF
:10B1B0006D1C641EF9D52846BDE8F0812DE9F041EB
:10B1C000044600251E469046C80301D5302700E0FE
:10B1D0002027880404D505E041463846B0476D1C59
:10B1E000641EF9D52846BDE8F0810A68531C0B603F
:10B1F000107070472DE9F0472DED0A8B8EB0064692
:10B200000F4615464FF00008C246F84949680878CD
:10B2100004AB03220D21FCF7CBF848B115B1F4A023
:10B22000FDF728FA07200EB0BDEC0A8BBDE8F087C9
:10B2300045B19DF812309DF811209DF81010F4A032
:10B24000FDF718FA00243BE004A8005D70B304A8E1
:10B25000005D401EF44931F8100000EE100AB8EE0F
:10B26000400A05A800EB840080ED000A05A800EB69
:10B27000840090ED000ADFEDED0A20EE200A05A81B
:10B2800000EB840080ED000A05A800EB8400D0EDFF
:10B29000000AE74890ED010AB8EE400A80EE801AF5
:10B2A00005A800EB840080ED001A08E09FEDE10A9C
:10B2B00005A800EB840080ED000A4FF0010A641C31
:10B2C000032CC1DBBAF1000F7DD115B1DAA0FDF777
:10B2D000D1F90024CDE057F8240056F82410401A84
:10B2E00000EE100AB8EEC00A0BA800EB840080ED57
:10B2F000000A002D4FD057F8240000EE100AB8EED7
:10B30000C00AF7EE000A80EE201A11EE109A4846A5
:10B31000FAF73CFD41EC1A0B56F8240000EE100A37
:10B32000B8EEC00AF7EE000A80EE201A11EE109A6D
:10B330004846FAF72BFD41EC1B0B0BA800EB8400F1
:10B3400090ED000AF7EE000A80EE201A11EE109A36
:10B350004846FAF71BFD41EC1C0B8DED02AB8DED61
:10B3600000BB53EC1C2BB9A0FDF784F905A800EB3A
:10B37000840090ED000AF7EE000A80EE201A11EE2C
:10B38000109A4846FAF702FD41EC1A0B53EC1A2BBF
:10B39000BBA0FDF76FF90BA800EB8400D0ED000A0D
:10B3A00005A800EB840090ED001A80EE810AF7EE0C
:10B3B000000A30EE600A08A800EB840080ED000A65
:10B3C00035B39B4800E058E090ED090AF7EE000A1B
:10B3D00080EE201A11EE109A4846FAF7D7FC41EC9D
:10B3E0001A0B08A800EB840090ED000AF7EE000AA3
:10B3F00080EE201A11EE109A4846FAF7C7FC41EC8D
:10B400001B0B8DED00AB53EC1B2BA2A0FDF732F90B
:10B41000874890ED090A10EE101A0846FAF7B6FCB4
:10B4200041EC1A0B08A800EB840090ED000A10EE26
:10B43000101A0846FAF7AAFC41EC1C0BB0EE4C0AB5
:10B44000F0EE6C0AFDF724FCB0EE40BAF0EE60BA04
:10B4500053EC1A2B51EC1B0BFAF7C4FC08D21DB1AC
:10B46000214694A0FDF706F90120A04040EA080813
:10B47000641C032CFFF62FAF9CE06D4890ED070A8B
:10B48000DFED6A0A20EE208A90ED080ADFED670AF8
:10B4900060EE208A15B38DA0FDF7ECF8B7EE000A38
:10B4A000C8EE000A10EE909A4846FAF76FFC41EC9D
:10B4B0001A0B53EC1A2B8AA0FDF7DCF8B7EE000A42
:10B4C000C8EE800A10EE909A4846FAF75FFC41EC0D
:10B4D0001A0B53EC1A2B86A0FDF7CCF8002467E07A
:10B4E00057F8240056F82410401A00EE100AB8EE5F
:10B4F000C00A0BA800EB840080ED000AD5B356F813
:10B50000240000EE100AB8EEC00AF7EE000A80EE42
:10B51000201A11EE109A4846FAF738FC41EC1A0B43
:10B5200057F8240000EE100AB8EEC00AF7EE000A41
:10B5300080EE201A11EE109A4846FAF727FC41ECEB
:10B540001B0B0BA800EB840090ED000AF7EE000A3D
:10B5500080EE201A11EE109A4846FAF717FC41ECDB
:10B560001C0B8DED02AB8DED00BB53EC1C2B64A0CE
:10B57000FDF780F80BA800EB840090ED000AB4EE14
:10B58000C80AF1EE10FA09D30BA800EB840090ED85
:10B59000000AB4EEE80AF1EE10FA08DD1DB121460A
:10B5A00061A0FDF767F80120A04040EA0808641C8C
:10B5B000032C95DBB8F1000F16D11D4890ED0A0A57
:10B5C000DFED1A0A20EE209A6DB1B7EE000AC9EE3F
:10B5D000000A10EE909A4846FAF7D8FB41EC1A0B95
:10B5E00053EC1A2BB6E0B8E0E4E00000A80000201D
:10B5F00052656164696E67204F54502052656769D7
:10B6000073746572204572726F722E0A000000001A
:10B61000416363656C204F54503A25642C202564A7
:10B620002C2025640A000000C42F01080000804778
:10B63000942F010800000000414343454C3A435217
:10B6400049544552494120410A0000004269617352
:10B650005F53686966743D25372E34662C20426935
:10B6600061735F5265673D25372E34662C20426931
:10B6700061735F485753543D25372E34660D0A00D9
:10B680004F54502076616C75653A2025372E34660C
:10B690000D0A0000726174696F3D25372E34662CE7
:10B6A000207468726573686F6C643D25372E34664C
:10B6B0000D0A0000414343454C204661696C20411E
:10B6C000786973203D2025640A000000414343450A
:10B6D0004C3A435249544552494120420D0A000018
:10B6E0004D696E204D473A2025372E34660D0A00ED
:10B6F0004D6178204D473A2025372E34660D0A00DB
:10B70000426961735F73686966743D25372E3466DC
:10B710002C2073743D25372E34662C207265673DCE
:10B7200025372E34660A0000416363656C2046416C
:10B73000494C20617869733A2564203C3D203232BF
:10B74000356D67206F72203E3D203637356D670AB4
:10B750000000000018A0FCF78DFF002428E019EE7F
:10B76000100AFAF713FB41EC1A0B56F82400FAF70B
:10B77000BCFA41EC1C0BB0EE4C0AF0EE6C0AFDF783
:10B7800087FAB0EE40BAF0EE60BA53EC1A2B51ECE7
:10B790001B0BFAF727FB0AD22DB156F824202146BD
:10B7A0000FA0FCF767FF0120A04040EA0808641CD6
:10B7B000032CD4DB404636E5416363656C3A435263
:10B7C00049544552494120433A2062696173206CD3
:10B7D000657373207468616E2025372E34660A0005
:10B7E0004641494C45443A20416363656C20617889
:10B7F00069733A2564203D20256C64203E20353055
:10B80000306D670A0000000010B52DED0A8BB0EE18
:10B81000408A9FED180AC8EE000A10EE904A2046B2
:10B82000FAF7B4FA41EC1C0B9FED131BB0EE4C0A77
:10B83000F0EE6C0AFDF71CFCB0EE40BAF0EE60BA18
:10B840009FED0F0B53EC102B51EC1B0BFAF753F938
:10B8500041EC1A0B9FED0C0B53EC102BFAF74EF941
:10B8600041EC190BFAF7D6FA00EE100ABDEC0A8B80
:10B8700010BD000080E6C547000000C0955BC83FD2
:10B88000000000000000F03F0000000040A5E5407F
:10B890007CB50A260725012004F036FB10208DF820
:10B8A00000004D4991F82A006B4601220A21FBF75E
:10B8B000B9FD08B107207CBD40208DF80000464945
:10B8C00091F82A006B4601220C21FBF7ABFD00B179
:10B8D00066E018208DF800003F4991F82A006B4679
:10B8E00001220A21FBF79EFD00B159E000BF0A20AA
:10B8F00000F0C8F8384991F82A006B46012202216D
:10B90000FBF756FD00B14BE09DF8000000F0010090
:10B9100000B104E03000A6F10101CEB2E7D100BFD2
:10B920009DF8000000F0010000B939E02A4991F8C3
:10B930002A006B4606220321FBF73AFD00B12FE0F7
:10B9400000259DF80100000200B29DF8001040EAB9
:10B950000104C82C02DC14F1C80F01DA45F001051E
:10B960009DF80300000200B29DF8021040EA0104B5
:10B97000C82C02DC14F1C80F01DA45F002059DF86D
:10B980000500000200B29DF8041040EA010414F51D
:10B99000487F02DC14F5486F01DA45F0040500BF6A
:10B9A00010208DF800000C4991F82A006B46012206
:10B9B0000C21FBF737FD10208DF80000064991F8A7
:10B9C0002A006B4601220A21FBF72CFD002004F01F
:10B9D0009BFA28466FE70000A80000202DE9F041FF
:10B9E0000446E07800F0C006E07800F03F0560789B
:10B9F00000F0010098B1EF102846E91705EB5171EE
:10BA0000C910A5EBC101491C01F0FF080B480068F3
:10BA100020B10A48414602683846904700BF607826
:10BA200000F0080030B10548406818B1B011034A71
:10BA3000516888470020BDE8F0810000D430012023
:10BA400070B504460420FCF777F80C4804702546CE
:10BA50004FF47A7045430120094908804FF0E020F7
:10BA6000006940F002004FF0E0210861084645619E
:10BA7000006940F00100086170BD00002400002052
:10BA80002600002070B5044607F00EF8012811D0FA
:10BA90000C480088844206DB0A48008894FBF0F5D5
:10BAA000284606F0B1FA0748008894FBF0F100FB45
:10BAB000114084B24FF47A7104FB01F000F004F8F5
:10BAC00070BD00002600002070B5034600224FF034
:10BAD000E02675690D4E367803FB06F44FF0E0263C
:10BAE000B16910E04FF0E026B06988420BD088427F
:10BAF00002D20E1A324402E02E1A0E44324401469B
:10BB0000A24200D300E0EDE700BF70BD240000209A
:10BB100038B5044664B120208DF8000028208DF847
:10BB2000010030208DF8020038208DF8030004E079
:10BB3000A32204216846F9F71BFF6A46042140F658
:10BB40009E2004F0C9FC03F06BFF38BD3EB50446EF
:10BB500002208DF80000CA208DF80100E3208DF846
:10BB6000020009208DF803006A460421682004F0D1
:10BB7000B3FCA3208DF8000004F0400048B1C020C1
:10BB80008DF80100C8208DF80200C2208DF8030056
:10BB900006E0A3208DF801008DF802008DF8030067
:10BBA00004F4C07048B1C4208DF80400CC208DF896
:10BBB0000500C6208DF8060006E0A3208DF80400DD
:10BBC0008DF805008DF80600A3208DF807008DF88C
:10BBD00008008DF809006A460A2140F6A72004F003
:10BBE0007BFC04F0030018B120208DF8000002E077
:10BBF000D8208DF800006A46012140F6B62004F0F6
:10BC00006BFC04F0200018B1012000F0ADF802E058
:10BC1000002000F0A9F804F4C07008B304F48070A8
:10BC200060B1B2208DF800008B208DF80100B620A5
:10BC30008DF802009B208DF803000BE0B0208DF8FA
:10BC4000000080208DF80100B4208DF802009020C3
:10BC50008DF803006A46042140F6A22004F03CFC63
:10BC600004F0010020B3F8208DF800006A4601219D
:10BC70004FF40B6004F030FCFA21072000F02CFC9C
:10BC8000072000F0F3FB012000F013FC642000F01B
:10BC900003FD4FF4FA7000F012FDC821304800F0A7
:10BCA000A3FB282000F0BCFB0A2000F0CCFB08E03E
:10BCB000D8208DF800006A4601214FF40B6004F093
:10BCC0000BFC04F0020018B1D9208DF8000002E04E
:10BCD000D8208DF800006A46012140F23D7004F042
:10BCE000FBFB04F0040018B1012000F069F802E049
:10BCF000002000F065F804F0100018B10120FFF7F3
:10BD000007FF02E00020FFF703FF44F00800154999
:10BD1000488103F085FE00201249887304F040003A
:10BD200018B10846807B801D887304F4C07020B170
:10BD30000C48807B801D0B49887304F0140020B1EF
:10BD40000848807B10300749887304F0030020B155
:10BD50000448807B001D0349887300203EBD00001D
:10BD600009E3CA02D43001203EB504466CB10EA1ED
:10BD7000D1E900208968CDE9002002916A460921B5
:10BD80004FF4976004F0A8FB3EBD0AA2D2E9001070
:10BD90009268CDE9010200916A4609214FF497604B
:10BDA00004F09AFBF0E70000B8AAB38DB4980D3503
:10BDB0005D000000B8AAAAAAB088C3C5C7000000E9
:10BDC00038B5044664B1C0208DF80000C2208DF85B
:10BDD0000100C4208DF80200C6208DF8030004E0A5
:10BDE0008B2204216846F9F7C3FD6A46042140F618
:10BDF000982004F071FB03F013FE38BD10B5C82382
:10BE00004FF48062024940F6F63003F007FC10BDA3
:10BE1000C43101082DE9F04F8DB00746884615461C
:10BE20009946DDE9166B0024002030806B49887B41
:10BE30005A4605A903F054FD18B1601E0DB0BDE8C7
:10BE4000F08F6648807A00F01400002867D09DF8D3
:10BE5000140000069DF8151040EA01409DF81610E8
:10BE600040EA01209DF81710084328609DF818004B
:10BE700000069DF8191040EA01409DF81A1040EAAA
:10BE800001209DF81B10084368609DF81C00000607
:10BE90009DF81D1040EA01409DF81E1040EA012067
:10BEA0009DF81F100843A8609DF8200000069DF82B
:10BEB000211040EA01409DF8221040EA01209DF83F
:10BEC00023100843E86004F11000C4B2286800148D
:10BED0000190686800140290A86800140390E86854
:10BEE0000014049001984043029901FB010003995A
:10BEF00001FB0100049901FB010ABAF1706F02DB3A
:10BF0000BAF1885F05DD03F08BFD00203080401E14
:10BF100094E7B6F9000040F48070308000BF2F48ED
:10BF2000807A00F0400020B305A9601C085C095D20
:10BF300040EA012000B2A8F8000005A9E01C095C55
:10BF400005AAA01C105C41EA002000B2A8F802007B
:10BF500005A9601D095C201D105C41EA002000B2AB
:10BF6000A8F80400A01DC4B2B6F9000040F0080013
:10BF700030801A48408900F4C07008B305A9601CDD
:10BF8000085C095D40EA012000B2388005A9E01C88
:10BF9000095C05AAA01C105C41EA002000B2788070
:10BFA00005A9601D095C201D105C41EA002000B25B
:10BFB000B880A01DC4B2B6F9000040F07000308017
:10BFC0000648807A00F0030018B105A90819FFF7A8
:10BFD00005FD484602F06EFF00202FE7D430012017
:10BFE00070B588B0064601A803F006F9BDF8040054
:10BFF0000021C90341EA5045C4034448007A00F0D7
:10C00000030056F8200005904048007A00F0040034
:10C0100010B10598404205903C48007AC0F3C10039
:10C0200056F8200006903948007A00F0200010B140
:10C030000698404206903548007AC0F3811056F8C1
:10C04000200007903148008900F4807010B10798F3
:10C05000404207900598C117A0FB042301FB04315F
:10C0600000FB0510810041EA927005900698C11707
:10C07000A0FB042301FB043100FB0510810041EA11
:10C08000927006900798C117A0FB042301FB0431AE
:10C0900000FB0510810041EA927007900598000EA0
:10C0A0008DF808000598000C8DF809000598000A25
:10C0B0008DF80A000598C0B28DF80B000698000EA6
:10C0C0008DF80C000698000C8DF80D000698000AFB
:10C0D0008DF80E000698C0B28DF80F000798000E7C
:10C0E0008DF810000798000C8DF811000798000AD1
:10C0F0008DF812000798C0B28DF8130002AA0C2127
:10C100004FF4257004F0E8F908B070BDD430012078
:10C1100030B585B0044616A207CA02AB07C3C82CC7
:10C1200003DD4FF0FF3005B030BDC82090FBF4F0C8
:10C13000401E85B2280A8DF80000E8B28DF8010093
:10C140006A46022140F2162004F0C6F910B14FF001
:10C15000FF30E8E702AA0C2140F6C12004F0BCF948
:10C1600010B14FF0FF30DEE7044884810020DAE7A9
:10C17000FEF2ABC4AAF1DFDFBBAFDFDFD4300120BA
:10C180001FB504464848007A00F0030054F8200028
:10C1900001904548007A00F0040010B10198404237
:10C1A00001904148007AC0F3C10054F82000029089
:10C1B0003D48007A00F0200010B102984042029001
:10C1C0003948007AC0F3811054F8200003903648B3
:10C1D000008900F4807010B1039840420390334905
:10C1E000019880FB0101800F40EA810001902F49F6
:10C1F000029880FB0110820042EA917002902B4964
:10C20000039880FB0110820042EA9170039001982C
:10C21000000E8DF800000198000C8DF801000198C7
:10C22000000A8DF802000198C0B28DF803006A463A
:10C2300004214FF4747004F04FF918B14FF0FF303F
:10C2400004B010BD0298000E8DF800000298000C9A
:10C250008DF801000298000A8DF802000298C0B221
:10C260008DF803006A4604214FF4757004F034F928
:10C2700010B14FF0FF30E3E70398000E8DF8000097
:10C280000398000C8DF801000398000A8DF8020055
:10C290000398C0B28DF803006A4604214FF476700B
:10C2A00004F01AF9CCE70000D430012009E3CA02F7
:10C2B00010B586B0044647A00068039046A0006809
:10C2C000029046A00068019045A00068009004F02C
:10C2D000030003A9085C8DF8140003A8C4F3C1018E
:10C2E000405C8DF8150003A8C4F38111405C8DF803
:10C2F000160004F0030002A9085C8DF8100002A8E3
:10C30000C4F3C101405C8DF8110002A8C4F381118F
:10C31000405C8DF8120005AA032140F2264004F08B
:10C32000DBF818B14FF0FF3006B010BD04AA0321AE
:10C3300040F22A4004F0D0F810B14FF0FF30F3E79C
:10C34000019805900098049004F0040058B19DF8FD
:10C35000140040F001008DF814009DF8100040F02A
:10C3600001008DF8100004F0200058B19DF8150070
:10C3700040F001008DF815009DF8110040F001001B
:10C380008DF8110004F4807058B19DF8160040F04B
:10C3900001008DF816009DF8120040F001008DF8A4
:10C3A000120005AA03214FF4886004F095F810B13B
:10C3B0004FF0FF30B8E704AA032140F2314004F007
:10C3C0008BF810B14FF0FF30AEE706480481002033
:10C3D000AAE700004CCD6C000CC92C003656760044
:10C3E00026466600D4300120F8B505460E464FF4C7
:10C3F0007A7095FBF0F000FB06F4200E8DF800003B
:10C40000200C8DF80100200A8DF80200E0B28DF8B2
:10C4100003006A4604214FF4AE7004F05DF8F8BDE5
:10C4200038B50446052094FBF0F084B220128DF854
:10C430000000E0B28DF801006A4602214FF4AD70B1
:10C4400004F04AF838BD38B50446052094FBF0F0F6
:10C4500084B220128DF80000E0B28DF801006A4627
:10C4600002214FF4AC7004F037F838BD38B50446FB
:10C470000020009004F0010020B19DF8000040F081
:10C480003000009004F0020020B19DF8000040F060
:10C490000C00009004F0040020B19DF8000040F072
:10C4A000030000906A4601214FF4A47004F014F8D0
:10C4B00038BD38B50446012C01DA012402E0042C11
:10C4C00000DD0424601EC0B200906A46012140F2E3
:10C4D0004F1004F001F838BDF0B52DED028B83B09C
:10C4E00006460F4606F0070010B1B7F5C86F05DD28
:10C4F0004FF0FF3003B0BDEC028BF0BD00EE107AC0
:10C50000B8EE400ADFED5B0A80EE208A01A802F057
:10C510004DFE9DF80400022806D0042817D00828F4
:10C5200028D010284CD138E09FED530A28EE000A9D
:10C53000BCEEC00A10EE100A84B29FED500A28EE3D
:10C54000000ABCEEC00A10EE100A85B23BE09FED77
:10C550004C0A28EE000ABCEEC00A10EE100A84B2A3
:10C560009FED480A28EE000ABCEEC00A10EE100A41
:10C5700085B228E09FED440A28EE000ABCEEC00A0E
:10C5800010EE100A84B29FED410A28EE000ABCEEBC
:10C59000C00A10EE100A85B215E09FED3D0A28EEA4
:10C5A000000ABCEEC00A10EE100A84B29FED390AF0
:10C5B00028EE000ABCEEC00A10EE100A85B202E0B6
:10C5C0004FF0FF3096E700BF20128DF80800E0B270
:10C5D0008DF8090028128DF80A00E8B28DF80B00DA
:10C5E00006F00100A0B102AA02214FF4EA7003F0A4
:10C5F00073FF10B14FF0FF307CE70DF10A0202210A
:10C600004FF4927003F068FF10B14FF0FF3071E704
:10C6100006F00200A0B102AA02214FF4EC7003F070
:10C620005BFF10B14FF0FF3064E70DF10A02022109
:10C630004FF4947003F050FF10B14FF0FF3059E702
:10C6400006F00400A0B102AA02214FF4EE7003F03C
:10C6500043FF10B14FF0FF304CE70DF10A02022109
:10C660004FF4967003F038FF10B14FF0FF3041E700
:10C6700000203FE70000484300008046000040469D
:10C68000000000460000C045000080450000404515
:10C69000000000450000C04438B50446052094FB66
:10C6A000F0F085B228128DF80000E8B28DF8010094
:10C6B0006A4602214FF4EF7003F00EFF38BD38B523
:10C6C0000446052094FBF0F085B228128DF8000096
:10C6D000E8B28DF801006A4602214FF4ED7003F0D4
:10C6E000FBFE38BD82B0CDE9000121F00040019091
:10C6F0009DED000B02B051EC100B704700BF054AD6
:10C70000128802F04002002AF9D0C2B2014B9A808E
:10C7100070470000001001402DE9F04F2DED068B11
:10C72000ADF5077D05460C4690469946002600204B
:10C73000049001208DF8180000208DF81900FE4AA1
:10C740001268517DFC4A5268107806AB0222FAF753
:10C7500069FE30B1701E0DF5077DBDEC068BBDE89E
:10C76000F08FC820FFF78EF900208DF81800F24AEC
:10C770001268517CF04A5268107806AB0122FAF731
:10C7800051FE10B14FF0FF30E5E7EB4A12685179E6
:10C79000E94A5268107806AB0122FAF743FE10B15D
:10C7A0004FF0FF30D7E7E44A1268517DE24A526801
:10C7B000107806AB0122FAF735FE10B14FF0FF30CA
:10C7C000C9E7DD4A1268917EDB4A5268107806ABF1
:10C7D0000122FAF727FE10B14FF0FF30BBE7D64A2F
:10C7E00012681179D44A5268107806AB0122FAF720
:10C7F00019FE10B14FF0FF30ADE70C208DF8180096
:10C80000CD4A12681179CC4A5268107806AB0122E1
:10C81000FAF708FE10B14FF0FF309CE70F20FFF74A
:10C8200031F9C548406B407A8DF81800C24A126849
:10C830009178C14A5268107806AB0122FAF7F2FDEE
:10C8400010B14FF0FF3086E7BB48406B007A8DF89F
:10C850001800B94A12685178B74A5268107806AB86
:10C860000122FAF7DFFD10B14FF0FF3073E7B8F1A6
:10C87000000F07D0B048406B807A40F0E0008DF8A0
:10C88000180004E0AC48406B807A8DF81800AA4A82
:10C8900012689179A84A5268107806AB0122FAF71B
:10C8A000C1FD10B14FF0FF3055E7B8F1000F07D0D0
:10C8B000A148406BC07A40F0E0008DF8180003E01A
:10C8C0009E48C07A8DF818009B4A1268D1799A4A1E
:10C8D0005268107806AB0122FAF7A4FD10B14FF0B0
:10C8E000FF3038E795498889FFF7CCF840208DF86C
:10C8F0001800914A126811798F4A5268107806AB75
:10C900000122FAF78FFD10B14FF0FF3023E77820B6
:10C910008DF81800884A12685179874A5268107851
:10C9200006AB0122FAF77EFD10B14FF0FF3012E79F
:10C930000020A86068602860A06060602060B9F195
:10C94000000F02D07EA0FBF795FEA2E07B49888D08
:10C95000FFF798F8784A1268117B774A5268107886
:10C9600006AB0222FAF724FD10B14FF0FF30F2E6D9
:10C970009DF819009DF8181040EA012005900C213F
:10C98000059890FBF1F000F0FF0A6C48807B801B5B
:10C99000504504DA6948807B801B00F0FF0A0AEBEF
:10C9A0004A0083000493049BDAB2634B1B68597BF3
:10C9B000614B5B68187806ABFAF7FAFC10B14FF0E0
:10C9C000FF30C8E60027BB4660E006A9781C085C7B
:10C9D000C95D40EA012000B2ADF8080006A9F81CC4
:10C9E000095C06AAB81C105C41EA002000B2ADF850
:10C9F0000A0006A9781D095C381D105C41EA002078
:10CA000000B2ADF80C00BDF90810206808442060A1
:10CA1000BDF90A10606808446060BDF90C10A06898
:10CA20000844A06006A9F81D095CB81D105C41EA25
:10CA3000002000B2ADF8000006A907F10900095C6A
:10CA4000401E105C41EA002000B2ADF8020006A9C9
:10CA500007F10B00095C401E105C41EA002000B2A7
:10CA6000ADF80400BDF90010286808442860BDF93D
:10CA70000210686808446860BDF90410A86808449A
:10CA8000A8600C370BF1010000F0FF0BD3459CDBD5
:10CA900056442A48807BB0423FF758AFB9F1000FA7
:10CAA00003D031462DA0FBF7E5FD00208DF81800DE
:10CAB000214A12685179204A5268107806AB012247
:10CAC000FAF7B0FC10B14FF0FF3044E61B48D0F845
:10CAD00000C02868C117090441EA10410204CDE9E9
:10CAE0000021624600230098F8F7D0FE3246F31783
:10CAF000CDE90201F8F7CAFE28601048D0F800C05E
:10CB00006868C117090441EA10420004CDE9000237
:10CB1000624600230199F8F7B9FE3246F317CDE9D2
:10CB20000201F8F7B3FE68600448D0F800C0A868B6
:10CB3000C11709041AE00000A8000020942F010882
:10CB40005374617274696E672042696173204C6F1F
:10CB50006F702052656164730A00000053616D704C
:10CB60006C65733A2025640A0000000041EA104118
:10CB70000204CDE90021624600230098F8F786FE02
:10CB80003246F317CDE90201F8F780FEA86062484B
:10CB9000D0F804C02068C117090441EA104102041A
:10CBA000CDE90021624600230098F8F76FFE324677
:10CBB000F317CDE90201F8F769FE20605648D0F876
:10CBC00004C06068C117090441EA10410204CDE9BC
:10CBD0000021624600230098F8F758FE3246F3170A
:10CBE000CDE90201F8F752FE60604B48D0F804C06E
:10CBF000A068C117090441EA10410204CDE90021EF
:10CC0000624600230098F8F741FE3246F317CDE95B
:10CC10000201F8F73BFEA060A068002804DDA068D0
:10CC2000A0F58030A06003E0A06800F58030A0602F
:10CC3000B9F1000F6DD094ED020AB8EEC00ADFED35
:10CC4000370A80EE201A8DED031A0398F9F79EF843
:10CC500041EC180B94ED010AB8EEC00ADFED2F0A83
:10CC600080EE201A8DED031A0398F9F78FF841EC46
:10CC7000190B94ED000AB8EEC00ADFED280A80EE29
:10CC8000201A8DED031A0398F9F780F841EC1A0B7E
:10CC90008DED028B8DED009B53EC1A2B414620A0AD
:10CCA000FBF7E8FC95ED020AB8EEC00ADFED1B0ABF
:10CCB00080EE201A8DED031A0398F9F767F841EC1E
:10CCC000180B95ED010AB8EEC00ADFED140A80EEEC
:10CCD000201A8DED031A0398F9F758F841EC190B57
:10CCE00095ED000AB8EEC00ADFED0C0A80EE201ABE
:10CCF0008DED031A0398F9F749F841EC1A0B8DED05
:10CD0000028B8DED009B53EC1A2B414611A0FBF7D3
:10CD1000B1FC00201FE50000942F010800008047AF
:10CD2000416363656C206F6666736574206461742B
:10CD3000612048575354206269743D25643A202588
:10CD4000372E34662025372E34662025372E34665C
:10CD50000D0A00004779726F206F66667365742054
:10CD6000646174612048575354206269743D25649E
:10CD70003A2025372E34662025372E346620253775
:10CD80002E34660D0A0000002DE9F0472DED088BCA
:10CD90008EB006460F4615464FF00008C246F949C8
:10CDA0004968087804AB03220021FAF701FB48B177
:10CDB00015B1F5A0FBF75EFC07200EB0BDEC088BAB
:10CDC000BDE8F08745B19DF812309DF811209DF81F
:10CDD0001010F5A0FBF74EFC00243BE004A8005D1A
:10CDE00070B304A8005D401EF54931F8100000EE54
:10CDF000100AB8EE400A05A800EB840080ED000A96
:10CE000005A800EB840090ED000ADFEDEE0A20EEAD
:10CE1000200A05A800EB840080ED000A05A800EBBD
:10CE20008400D0ED000AE84890ED000AB8EE400A10
:10CE300080EE801A05A800EB840080ED001A08E05F
:10CE40009FEDE20A05A800EB840080ED000A4FF098
:10CE5000010A641C032CC1DBBAF1000F7DD115B1AE
:10CE6000DBA0FBF707FC0024C9E057F8240056F8C4
:10CE70002410401A00EE100AB8EEC00A0BA800EB0E
:10CE8000840080ED000A002D4FD057F8240000EEFA
:10CE9000100AB8EEC00AF7EE000A80EE201A11EE72
:10CEA000109A4846F8F772FF41EC190B56F8240027
:10CEB00000EE100AB8EEC00AF7EE000A80EE201A63
:10CEC00011EE109A4846F8F761FF41EC1A0B0BA8D7
:10CED00000EB840090ED000AF7EE000A80EE201AC5
:10CEE00011EE109A4846F8F751FF41EC1B0B8DEDFF
:10CEF000029B8DED00AB53EC1B2BBAA0FBF7BAFBEA
:10CF000005A800EB840090ED000AF7EE000A80EE21
:10CF1000201A11EE109A4846F8F738FF41EC190B29
:10CF200053EC192BBCA0FBF7A5FB0BA800EB84006E
:10CF300090ED000A05A800EB8400D0ED000A80EE19
:10CF4000201A08A800EB840080ED001A35B39E4833
:10CF500090ED060AF7EE000A00E054E080EE201A99
:10CF600011EE109A4846F8F711FF41EC190B08A88A
:10CF700000EB840090ED000AF7EE000A80EE201A24
:10CF800011EE109A4846F8F701FF41EC1A0B8DEDAF
:10CF9000009B53EC1A2BA5A0FBF76CFB8A4890ED85
:10CFA000060A10EE101A0846F8F7F0FE41EC190BCD
:10CFB00008A800EB840090ED000A10EE101A084655
:10CFC000F8F7E4FE41EC1B0BB0EE4B0AF0EE6B0AF7
:10CFD000FBF75EFEB0EE40AAF0EE60AA53EC192B10
:10CFE00051EC1A0BF8F7E6FE08D21DB1214697A0C6
:10CFF000FBF740FB0120A04040EA0808641C032C1A
:10D00000FFF633AF7CE0704890ED050ADFED6D0A66
:10D0100020EE208A95B193A0FBF72CFBB7EE000A17
:10D02000C8EE000A10EE909A4846F8F7AFFE41ECC1
:10D03000190B53EC192B90A0FBF71CFB00245DE0AF
:10D0400057F8240056F82410401A00EE100AB8EEE3
:10D05000C00A0BA800EB840080ED000AD5B356F897
:10D06000240000EE100AB8EEC00AF7EE000A80EEC7
:10D07000201A11EE109A4846F8F788FE41EC190B79
:10D0800057F8240000EE100AB8EEC00AF7EE000AC6
:10D0900080EE201A11EE109A4846F8F777FE41EC20
:10D0A0001A0B0BA800EB840090ED000AF7EE000AC3
:10D0B00080EE201A11EE109A4846F8F767FE41EC10
:10D0C0001B0B8DED029B8DED00AB53EC1B2B6FA06A
:10D0D000FBF7D0FA0BA800EB840090ED000AB4EE49
:10D0E000C80AF1EE10FA08D21DB1214671A0FBF773
:10D0F000C1FA0120A04040EA0808641C032C9FDB11
:10D10000B8F1000F3CD1304890ED040ADFED2D0A54
:10D1100060EE208A7DB1B7EE000AC8EE800A10EEFC
:10D12000909A4846F8F732FE41EC190B53EC192B54
:10D130006AA0FBF79FFA0024ECE018EE900AF8F7DB
:10D1400025FE41EC190B56F82400F8F7CEFD41EC12
:10D150001B0BB0EE4B0AF0EE6B0AFBF799FDB0EE3D
:10D1600040AAF0EE60AA53EC192B51EC1A0BF8F719
:10D1700039FE06D21DB156F824202146C2E0C4E093
:10D18000CBE0C6E0A800002052656164696E6720AC
:10D190004F545020526567697374657220457272EE
:10D1A0006F722E0A000000004779726F204F5450B2
:10D1B0003A25642C2025642C2025640D0A000000EB
:10D1C000C42F010800008047942F010800000000D0
:10D1D0004759524F3A435249544552494120410A16
:10D1E00000000000426961735F53686966743D2501
:10D1F000372E34662C20426961735F5265673D2586
:10D20000372E34662C20426961735F485753543D72
:10D2100025372E34660D0A004F54502076616C7508
:10D22000653A2025372E34660D0A00007261746954
:10D230006F3D25372E34662C207468726573686FD5
:10D240006C643D25372E34660D0A00004779726FF5
:10D25000204661696C2041786973203D2025640A6D
:10D26000000000004759524F3A4352495445524931
:10D270004120420D0A0000004D6178204450533A8D
:10D280002025372E34660D0A0000000042696173C4
:10D290005F73686966743D25372E34662C2073747D
:10D2A0003D25372E34662C207265673D25372E3498
:10D2B000660A00004759524F204641494C20617888
:10D2C00069733A25642067726561746572207468B9
:10D2D000616E2036306470730A0000004779726F07
:10D2E0003A435249544552494120433A20626961C8
:10D2F00073206C657373207468616E2025372E343B
:10D30000660A000006A0FBF7B5F90120A04040EA3C
:10D310000808641C032CFFF610AF40464DE50000E2
:10D320004641494C45443A204779726F20617869FB
:10D33000733A2564203D20256C64203E2032306401
:10D3400070730A001CB58020009000208DF8040046
:10D3500001208DF8060003208DF8050000208DF8CF
:10D36000070069460148F9F763FA1CBD0004024052
:10D370001CB501210220FAF761FA4020009001203B
:10D380008DF8040000208DF8060003208DF80500BC
:10D3900001208DF8070069460148F9F749FA1CBDDC
:10D3A000000402403EB504460D46B4F90400C00333
:10D3B0000090B4F90600C0030190B4F90800C0035E
:10D3C0000290626A5100228890B204F10C036A460E
:10D3D00000F046F900982968A0EB610000900198E0
:10D3E0006968A0EB610001900298A968A0EB610058
:10D3F0000290626A5100228890B204F118036A46D2
:10D4000000F02EF9206B40F0200020633EBD0000AC
:10D4100070B504460D46164605F02000C0B92088B8
:10D4200001B21B48A0F84810A08801B21848A0F823
:10D430004A10208901B21648A0F84C10406F40F005
:10D4400080011348416713494430FFF7ABFF13E0F5
:10D450000F482168C16561680166A1684166406F37
:10D4600040F020010A48416705F00301816705F09B
:10D4700003010948C0F834110548406F40F4A07119
:10D4800003484167C16FC0F88010C667002070BDB7
:10D490004C320120203201200C310120FEB504461F
:10D4A0000D46164605F0200008BB204601F0ECFAB8
:10D4B000684600F0A5FA009801B22248A0F88C1046
:10D4C000019801B21F48A0F88E10029801B21D48C1
:10D4D000A0F890101C498830FFF764FF1948D0F875
:10D4E000B80040F080011748C0F8B8101AE015489D
:10D4F0002168C0F8A0106168C0F8A410A168C0F845
:10D50000A810D0F8B80040F020010E48C0F8B810BC
:10D5100005F00301C0F8BC1005F003010A48F43817
:10D52000C0F838110748D0F8C010C0F8C410C0F8CF
:10D53000C060D0F8B80040F4A0710248C0F8B8103C
:10D540000020FEBD4C3201200032012070B504469F
:10D550000D460A4821684160A1880181006B40F4B2
:10D56000E070064908630846806BC8630846856317
:10D570000349FFF717FF002070BD00004C32012067
:10D580000C32012002460948C0F8E420D0F8FC0023
:10D5900040F4E0730548C0F8FC30D0F80431C0F81E
:10D5A0000831C0F804110020704700004C320120FF
:10D5B000F0B52DED048B91B004460D4616460020C3
:10D5C0000D90A968606800F0ACFD07466968A06826
:10D5D00000F0A7FD381A0E902968A06800F0A1FDA0
:10D5E0000746A968206800F09CFD381A0F9069680A
:10D5F000206800F096FD07462968606800F091FDFC
:10D60000381A109009AA0DA9304600F0F5FD01A9BD
:10D61000304600F0CEFD05AA01A909A800F0ECFDF6
:10D62000079838B9069828B99FED0C0A11B0BDECDF
:10D63000048BF0BD069800F07DFDF0EE408A07985F
:10D6400000F078FDB0EE409AF0EE680AFBF7ECF8D7
:10D65000B1EE408AB0EE480AE8E7000000000000A2
:10D66000F0B504460F4615461E4604F0030155F872
:10D67000211004F0040212B14FF0FF3200E0012249
:10D6800001FB02F0394600F04CFD3060C4F3C101EB
:10D6900055F8211004F0200212B14FF0FF3200E0E3
:10D6A000012201FB02F0394600F03BFD7060C4F33B
:10D6B000811155F8211004F4807212B14FF0FF323D
:10D6C00000E0012201FB02F0394600F02AFDB060C3
:10D6D000F0BD000010B50446482221460F48F8F777
:10D6E00027F90E48F438D0F830010D4948630B484B
:10D6F000F438D0F834110A4881670848F438D0F873
:10D7000038110748C0F8BC10D0F8BC00032802D17B
:10D71000012001F077F9002010BD00000032012047
:10D720004C32012010B50446482203492046F8F740
:10D73000FFF8002010BD0000003201200021024847
:10D74000C0F89011704700004C32012010B500F075
:10D750004BFC04460CB1204610BD024801F04EF8C7
:10D76000FAE7000029ED000810B500F089FC044636
:10D770000CB1204610BD034801F040F80446204695
:10D78000F8E700007DED000870B50026002508E0F0
:10D79000074951F82500804704460CB106B92646D2
:10D7A0006D1C0348001F0068A842F1DC304670BDC4
:10D7B000343501202DE9F0410024244890F8300050
:10D7C00000F0400008B144F00204204890F87400D2
:10D7D00000F0400008B144F001041C4890F8B80083
:10D7E00000F0400008B144F00404184890F8FC0030
:10D7F00000F0400008B144F00804144890F82001FB
:10D8000000F0400008B144F010040027002513E0A8
:10D8100005EB45010E4800EB81008068204050B1C7
:10D8200005EB45020A4850F822100848884706468A
:10D830000EB107B937466D1C0548001F0068A842A5
:10D84000E6DC01F051F93846BDE8F0814C320120A8
:10D850001031012070B504464FF47A75384AA2F1B0
:10D860001401A1F1100000F00DFA35492439206BA4
:10D870004861606F8861B8200059C861208E00F44B
:10D88000807008B1E56A00267420005B00F48070A7
:10D8900020B1206FA84201DA256F0126B820005B75
:10D8A00000F4807030B1B4200059A84202DAB420EC
:10D8B000055902264FF49070005B00F4807040B16F
:10D8C0004FF496700059A84203DA4FF49670055948
:10D8D000032636B1012E0ED0022E16D0032E1FD0F5
:10D8E00000BF94F83000C0F3801015492439086255
:10D8F000A06B486221E094F87400C0F380101049D6
:10D9000024390862E06F486217E094F8B800C0F369
:10D9100080100B4924390862C020005948620CE08D
:10D920004FF49070005DC0F38010054924390862FF
:10D930004FF492700059486200BF00BF002070BDD4
:10D940000831012001460248C0F8801000207047CD
:10D95000A834012010B50146034C10341DCC81E8D9
:10D960001D00002010BD0000A83401200148006DFA
:10D9700070470000A83401200148806F7047000004
:10D980004C3201200248B0F87400C0F30020704708
:10D990004C32012030B530B1084BD3E917455B6EEE
:10D9A000C0E90045836012B1044BDB6F136021B105
:10D9B000024B93F878305BB20B7030BD4C320120D3
:10D9C00030B10449D1E91D23C96FC0E9002381604A
:10D9D000704700008C31012030B5044D40353CCDFE
:10D9E00080E83C00014A126A0A6030BDA834012078
:10D9F0000248B0F8B800C0F3002070474C32012054
:10DA00000146002005E0044A52F8202041F8202079
:10DA1000401C0328F7DB7047883301200148806FE2
:10DA200070470000A834012070B50446154AD1683B
:10DA3000506800F06DFB0546124A1168906800F0CE
:10DA400067FB281A20600F4AD168906800F060FBDD
:10DA500005460C4A1168506800F05AFB2844606083
:10DA6000084AD168D06800F053FB0546054A1168A2
:10DA7000106800F04DFB2844A0F18040A060002019
:10DA800070BD0000A8340120024B18330ECB80E893
:10DA90000E0070474C3201200148406B7047000077
:10DAA0004C32012010B530B1064AD2E90334526934
:10DAB000C0E90034826021B1024AF43AD2F80C2164
:10DAC0000A6010BD003201200649D1F81011012969
:10DAD00000D100E00021084600220249C1F81021CF
:10DAE000704700000C3101200248008EC0F3002076
:10DAF000704700004C32012010B503460020002280
:10DB000005E053F82240611301FB0100521C032A77
:10DB1000F7DB10BD0148406F70470000A8340120BA
:10DB200000201849B1F8741001F4807109B1154949
:10DB3000C86F1449098E01F4807129B11149896BAC
:10DB4000814201D90F49886B0E49B1F8B81001F430
:10DB5000807139B10B49D1F8C010814202D909490D
:10DB6000D1F8C0000749B1F8FC1001F4807139B157
:10DB70000449D1F80411814202D90249D1F80401C3
:10DB8000704700004C3201203EB50446C4B100226B
:10DB900011462046FFF7FEFE6846FFF745FF206866
:10DBA0000099A0EBA130206060680199A0EBA13042
:10DBB0006060A0680299A0EBA130A06000203EBD8B
:10DBC0000520FCE73EB50546CDB16846FFF7DCFF12
:10DBD000A8B900240FE05DF8240000EE100AB8EEAA
:10DBE000C00ADFED080A80EE201A05EB840080ED04
:10DBF000001A601CC4B2032CEDDB00203EBD0520E2
:10DC0000FCE7000000008047024B28330ECB80E881
:10DC10000E007047A83401200448D0F83C0108B138
:10DC2000002070470248D0F8BC00FAE70C31012010
:10DC30004C32012001460348806E0860014890F88C
:10DC400064007047A834012010B504460C4890F8D1
:10DC50007C0000F0030060B1094A02F1100101F1FB
:10DC6000300000F0C9FA0648C06F20F003000449F4
:10DC7000C867034B0FCB84E80F00002010BD0000E5
:10DC8000A834012070B506460C4615463046FFF70D
:10DC9000DBFFFFF745FF2860FFF7AAFE18B1FFF78B
:10DCA000BBFF20600FE0FFF71FFF18B1FFF7F4FE86
:10DCB000206008E0FFF766FE18B1FFF75DFE206008
:10DCC00001E00020206070BD2DE9F04F2DED048BA8
:10DCD00089B005460F4690468E4A1168106800F0DC
:10DCE00017FA06468B4A5168106800F011FA08903E
:10DCF000884A9168106800F00BFA8146854AD1681D
:10DD0000106800F005FA8246824A5168506800F0B7
:10DD1000FFF907907F4A9168506800F0F9F983464F
:10DD20007C4AD168506800F0F3F90690794A91680E
:10DD3000906800F0EDF90590764AD168906800F09F
:10DD4000E7F90490734AD168D06800F0E1F90390D4
:10DD5000ABEB0A0008EE100A05983044A0F18044AD
:10DD600000EE104AF8EEC00AB8EEC80AFAF75CFDF9
:10DD7000B1EE400ADFED680A20EE200ADFED670A07
:10DD800080EE201A8DED021A08990498084408EED6
:10DD9000900AF8EEC80A20EEA01A00EE904AF8EEBB
:10DDA000E01A00EE904AF8EEE00A01EEA01AB0EE9A
:10DDB000410AFCF77EF8B0EE409AF0EE490AB8EE60
:10DDC000E80AFAF731FDDFED540A20EE200ADFED14
:10DDD000530A80EE201A8DED001A03983044A0F10A
:10DDE0008044002C17DA9DED000AB5EEC00AF1EE72
:10DDF00010FA08DB9DED000ADFED470A30EEC00A9D
:10DE00008DED000A07E09DED000ADFED450A30EEDA
:10DE1000C00A8DED000A07983044A0F1804008EE5A
:10DE2000100A0BEB0A040698A0EB090008EE900A12
:10DE30000698A0EB090001EE100AB8EEC11AF0EE48
:10DE4000410A03983044A0F1804001EE100AB8EE78
:10DE5000C11AB0EE410AFAF7E7FCDFED2F0A20EE17
:10DE6000200A9FED2E1AC0EE010A9FED2E0A30EE19
:10DE7000C00A8DED010A9DED010ADFED2A0AB4EE1C
:10DE8000E00AF1EE10FA07DB9DED010ADFED220A50
:10DE900030EEC00A8DED010A9DED010ADFED220A88
:10DEA000B4EEE00AF1EE10FA07D29DED010ADFEDC3
:10DEB0001C0A30EEC00A8DED010A9DED000ADFED6F
:10DEC0001B0A20EE200ABDEEC00A85ED000A9DED7A
:10DED000010ADFED160A20EE200ABDEEC00A85ED2C
:10DEE000010A9DED020ADFED110A20EE200ABDEEC7
:10DEF000C00A85ED020A0748007C40B23870054828
:10DF0000406AC8F800000348006A09B0BDEC048B01
:10DF1000BDE8F08FE430012000003443DB0F4940BE
:10DF2000000034C30000B4420000B4C200008047C7
:10DF3000FEB504460D4616461748007940B22870D3
:10DF40001548806830606846FFF76EFD00988013C2
:10DF500000EE100AB8EEC00ADFED100A20EE200A2B
:10DF600084ED000A0198801300EE100AB8EEC00A92
:10DF7000DFED0A0A20EE200A84ED010A02988013E0
:10DF800000EE100AB8EEC00ADFED040A20EE200A07
:10DF900084ED020A0120FEBDE43301200AE81C39A9
:10DFA0000148006F70470000A834012010B54FF4FD
:10DFB000A0710948F7F7E3FC4FF4CC710748F7F775
:10DFC000DEFC00F031FC4DF2930348220449054881
:10DFD00000F0CCFB10BD00000C3101204C320120C0
:10DFE00025D70008D5D6000810B528210248F7F734
:10DFF000C6FC002010BD0000E430012010B500F088
:10E0000067F800F05BF860B100BF00F057F8044615
:10E010002223154A15A1FCF76FFC00BF00F04EF853
:10E0200010BDFFF7C3FF60B100BFFFF7BFFF04469D
:10E0300025230D4A0DA1FCF75FFC00BFFFF7B6FFDB
:10E04000EEE7FFF791FB60B100BFFFF78DFB0446E1
:10E050002723054A05A1FCF74FFC00BFFFF784FB0F
:10E06000DEE70020DCE70000CE3D01082E2E5C44F8
:10E070004D505C6D6C6C6974655C6D706C2E6300EA
:10E0800010B588210B48F7F77AFC4FF0804009491A
:10E090004863014607488163C1630846054908642F
:10E0A000086108609FED040A084680ED210A0020FF
:10E0B00010BD0000A8340120DB0F494010B55421E9
:10E0C0000248F7F75CFC002010BD0000303501204D
:10E0D00010B54FF4CC710348F7F751FC0C200149FF
:10E0E000486010BD8435012070B50546284600F013
:10E0F000C7FB0446E81C00F0C3FB44EAC00084B23E
:10E10000A81D00F0BDFB44EA801084B2204670BD1B
:10E11000F0B5024682FB01352C465D0F45EAC4008E
:10E12000F0BDF0B5024682FB01352C469D0F45EA55
:10E130008400F0BD00EE100AF8EEC00A9FED021A4E
:10E1400080EE810A704700000000804E10B5036821
:10E150000C682344136043684C682344536083680D
:10E160008C6823449360C368CC682344D36010BD9B
:10E1700090ED000AD1ED000A30EE200A82ED000A8F
:10E1800090ED010AD1ED010A30EE200A82ED010A7C
:10E1900090ED020AD1ED020A30EE200A82ED020A69
:10E1A00090ED030AD1ED030A30EE200A82ED030A56
:10E1B000704702680A60426852424A60826852426E
:10E1C0008A60C2685242CA60704790ED000A81EDD1
:10E1D000000A90ED010AB1EE400A81ED010A90EDCE
:10E1E000020AB1EE400A81ED020A90ED030AB1EE97
:10E1F000400A81ED030A7047F0B504460D46164605
:10E2000029682068FFF78DFF074669686068FFF797
:10E2100088FF3F1AA968A068FFF783FF3F1AE968E3
:10E22000E068FFF77EFF381A306069682068FFF702
:10E2300078FF074629686068FFF773FF0744E968BD
:10E24000A068FFF76EFF0744A968E068FFF769FF61
:10E25000381A7060A9682068FFF763FF0746E9680D
:10E260006068FFF75EFF3F1A2968A068FFF759FF53
:10E2700007446968E068FFF754FF3844B060E96814
:10E280002068FFF74EFF0746A9686068FFF749FF5F
:10E2900007446968A068FFF744FF3F1A2968E068EF
:10E2A000FFF73FFF3844F060F0BD90ED000AD1ED7C
:10E2B000000A20EE200AD0ED010A91ED011A00EECD
:10E2C000C10AD0ED020A91ED021A00EEC10AD0EDAA
:10E2D000030A91ED031A00EEC10A82ED000A90EDE7
:10E2E000000AD1ED010A20EE200AD0ED010A91EDDD
:10E2F000001A00EE810AD0ED020A91ED031A00EE39
:10E30000810AD0ED030A91ED021A00EEC10A82EDF6
:10E31000010A90ED000AD1ED020A20EE200AD0EDAC
:10E32000010A91ED031A00EEC10AD0ED020A91ED47
:10E33000001A00EE810AD0ED030A91ED011A00EEF9
:10E34000810A82ED020A90ED000AD1ED030A20EE67
:10E35000200AD0ED010A91ED021A00EE810AD0EDFB
:10E36000020A91ED011A00EEC10AD0ED030A91ED07
:10E37000001A00EE810A82ED030A704710B52DEDF8
:10E38000028B0446D4ED000A60EEA00A94ED011A57
:10E39000D4ED011A41EE210A94ED021AD4ED021ACD
:10E3A00041EE210A94ED031AD4ED031A41EE210A3D
:10E3B000B0EE600AFBF77DFDB0EE408AB5EEC08A94
:10E3C000F1EE10FA18D094ED000AC0EE080AC4ED80
:10E3D000000A94ED010AC0EE080AC4ED010A94EDAA
:10E3E000020AC0EE080AC4ED020A94ED030AC0EE68
:10E3F000080AC4ED030A0FE0B7EE000A84ED000A34
:10E400009FED070A84ED010A9FED050A84ED020ADB
:10E410009FED030A84ED030ABDEC028B10BD0000E2
:10E42000000000009FED4B1AB0EE410A9FED491A23
:10E43000F0EE410A90ED001A21EE011AD0ED011A1A
:10E4400090ED012A01EE821AD0ED021A90ED022A17
:10E4500001EE821AD0ED031A90ED032A01EE821A22
:10E46000B0EE410AB0EE001AB4EEC10AF1EE10FAB5
:10E4700046D2B6EE001A20EE011AF0EE410A60EE26
:10E48000801AB7EE081A01EEC01A21EE001AB0EE9B
:10E49000410A60EE801AB7EE081A01EEC01A21EEAA
:10E4A000001AB0EE410A60EE801AB7EE081A01EECB
:10E4B000C01A21EE001AB0EE410A60EE801AB7EEE3
:10E4C000081A01EEC01A21EE001AB0EE410A90EDD2
:10E4D000001A21EE001A80ED001A90ED011A21EECB
:10E4E000001A80ED011A90ED021A21EE001A80ED5B
:10E4F000021A90ED031A21EE001A80ED031A0FE0C4
:10E50000B7EE001A80ED001A9FED121A80ED011A85
:10E510009FED101A80ED021A9FED0E1A80ED031A7E
:10E5200090ED001A21EE011AD0ED011A90ED012AAA
:10E5300001EE821AD0ED021A90ED022A01EE821A43
:10E54000D0ED031A90ED032A01EE821AB0EE410AD3
:10E55000704700000000000070B590B006460C4601
:10E56000154600200490D4E901022168CDE9060295
:10E5700005910CAA04A93046FFF73EFE08A93046D3
:10E58000FFF717FE6A4608A90CA8FFF735FE01A899
:10E5900007C885E8070010B070BD70B504460D4689
:10E5A00061680846FFF7B4FD064621680846FFF794
:10E5B000AFFD3044A0F180402860D4E90101FFF7AD
:10E5C000A7FD06462168E068FFF7A2FD301A6860E3
:10E5D000E1686068FFF79CFD06462168A068FFF7C8
:10E5E00097FD3044A860D4E90101FFF791FD06468C
:10E5F0002168E068FFF78CFD3044E860A1680846B8
:10E60000FFF786FD064621680846FFF781FD304486
:10E61000A0F180402861D4E90201FFF779FD0646A8
:10E62000D4E90010FFF774FD301A6861E168606892
:10E63000FFF76EFD06462168A068FFF769FD301AF6
:10E64000A861D4E90201FFF763FD0646D4E9001092
:10E65000FFF75EFD3044E861E1680846FFF758FDCA
:10E66000064621680846FFF753FD3044A0F180407C
:10E67000286270BD2DE9F04707460E4690464FF0E0
:10E680000009002412E004EB4401354850F8210051
:10E69000B84207D004EB4401314800EB81004068E8
:10E6A000B04202D10520BDE8F087641C2C48001F51
:10E6B0000068A042E7DC2A48001F0068132845DCF8
:10E6C00000242748001F006838B300E0641C244879
:10E6D000001F0068A04207DD04EB4401204800EB66
:10E6E00081004068B042F1DB1D48001F0068A04275
:10E6F00013D01B48001F05680DE005EB45011848C5
:10E7000000EB8101681E00EB4002154800EB82031C
:10E710000DCB0DC16D1EA542EFDC04EB440110488A
:10E7200040F8217004EB440100EB8100466004EBEB
:10E7300044010B4800EB8100C0F808800848001F26
:10E740000068401C0649091F086006E0054A06A14A
:10E750000620F9F72AFF4FF006094846A3E7000014
:10E76000103101200C5B01084D504C0070B504467F
:10E770000D4600210AE001EB41061F4800EB860030
:10E780008068984201D1052070BD491C1A48A838FC
:10E7900000688842EFDC1848A8380068142801DBBC
:10E7A0000520F1E71448A838006800EB400612483D
:10E7B00000EB860083601048A838006800EB400634
:10E7C0000D4840F82620A8380668083040F8264052
:10E7D00008380668583040F826505838466802F124
:10E7E0000C003044044EA83E706030460068401C67
:10E7F00030600020C8E700002C360120014609489F
:10E800000068142801DB0520704706480268001DD7
:10E8100040F82210001F0068401C024A10600020CF
:10E82000F2E700003035012010B5002407E09FED2D
:10E83000120A124800EB840080ED000A641C092CC7
:10E84000F5DB24210D482438F7F799F800240EE071
:10E85000B7EE000A094800EB041080ED000A4FF003
:10E860008041A2000548243840F82210641C032C83
:10E87000EEDBFEF763FF10BD00000000B83301209F
:10E88000014691F90020002A01DD00201EE091F9E7
:10E890000020002A01DA042018E091F90120002A62
:10E8A00001DD012012E091F90120002A01DA0520A2
:10E8B0000CE091F90220002A01DD022006E091F926
:10E8C0000220002A01DA062000E00720704700003D
:10E8D00010B50446054884670548C0F83441002255
:10E8E0001021084600F0EAF910BD00004C3201206A
:10E8F0000C3101200149486570470000A83401200F
:10E9000070B504460E461546C4B105F0010018B1B5
:10E9100010482168C0F8141105F0020018B10D4824
:10E920006168C0F8181105F0040018B10948A16821
:10E93000C0F81C1108490948FEF734FD074844385F
:10E9400086670448C0F8346100221021084600F0B0
:10E95000B5F970BD0C310120203201209032012028
:10E9600010B503460C4622461946024802F0BEFC8A
:10E9700010BD0000903201200849C8664FF47A713A
:10E9800090FBF1F205490A67D1F8841029B90449CE
:10E9900091FBF0F20149C1F8842070474C3201200C
:10E9A00040420F0070B504460D460C2221460E4829
:10E9B000F6F7F0FF48B10C48743894E80E00743054
:10E9C0000EC009490948FEF7EDFC08488838C0F830
:10E9D000BC500548F438C0F83851002208210846D8
:10E9E00000F06CF970BD000000320120D43201202B
:10E9F00010B5034990E81C0058311CC110BD00003F
:10EA0000A83401200149086770470000A83401209C
:10EA100070B5074AD26F42F00102054BDA671A4619
:10EA200090E87800403278C2503A116270BD000020
:10EA3000A83401200149C1F83C0170470C31012084
:10EA400010B503460C4622461946024802F04EFC19
:10EA500010BD0000D43201200949C1F8B0004FF4C4
:10EA60007A7190FBF1F20649C1F8B420D1F8C810D0
:10EA700029B9044991FBF0F20149C1F8C820704757
:10EA80004C32012040420F0070B50546002405E0DD
:10EA900055F824100F4840F82410641C032CF7DBB1
:10EAA0000D48D0F89001012807D10A4A0C322946B6
:10EAB00002F10C0000F0FFF90AE0002406E055F82E
:10EAC000241004480C3040F82410641C032CF6DB9E
:10EAD00070BD00007C3301204C3201200149886761
:10EAE00070470000A83401200020464991F83010FA
:10EAF00001F0400139B14349096B41F01001414A2D
:10EB000011631146886B3F4991F8741001F0400180
:10EB100069B13C49496F41F010023A494A67C96FEF
:10EB2000814201D2014601E03649C96F08463549A4
:10EB300091F8B81001F0400189B13249D1F8B8100C
:10EB400041F010022F49C1F8B820D1F8C01081421D
:10EB500001D2014602E02B49D1F8C01008462949EC
:10EB600091F8FC1001F0400189B12649D1F8FC1060
:10EB700041F010022349C1F8FC20D1F80411814270
:10EB800001D2014602E01F49D1F8041108461D498F
:10EB900091F8201101F0400189B11A49D1F82011F2
:10EBA00041F010021749C1F82021D1F82411814207
:10EBB00001D2014602E01349D1F824110846114957
:10EBC000096B21F040010F4A11631146496F21F092
:10EBD00040020C494A67D1F8B81021F040020949B7
:10EBE000C1F8B820D1F8FC1021F040020549C1F865
:10EBF000FC20D1F8201121F040020249C1F8202167
:10EC0000704700004C32012070B504460D467CB1BF
:10EC10000C2221461648F6F7BDFE48B114480C38C0
:10EC200094E80E000C300EC011491248FEF7BAFBF2
:10EC3000104845631048C0F830510E48D0F8E40041
:10EC400030B10C48D0F8E4100B48C0F80C1104E0C7
:10EC50004FF4D8110848C0F80C11002204210846CE
:10EC600000F02CF801210448C0F8101170BD00001C
:10EC70000C3201204C3201200C31012010B503462A
:10EC80000C4622461946024802F030FB10BD000037
:10EC90004C320120074988624FF47A7190FBF1F100
:10ECA000044AD1621146096C19B9034991FBF0F18C
:10ECB000116470474C32012040420F0010B542B938
:10ECC000044B1B688B43034C236023461B680343A0
:10ECD000236010BDF400002070B50446114890F880
:10ECE0006400A0420BD1022C05D10E48806E401C5E
:10ECF0000C49886602E000200A49886670BD002041
:10ED000008498866084680F86440012C01D1012535
:10ED100000E00225002203212846FFF7CFFF00BFB5
:10ED2000ECE70000A834012010B507224FF4617110
:10ED30000148FFF79FFC10BD55D8000810B5FEF73D
:10ED400023FD60B100BFFEF71FFD04464223054AC4
:10ED500005A1FBF7D1FD00BFFEF716FD10BD002099
:10ED6000FCE70000DB3D01082E2E5C444D505C6D3D
:10ED70006C6C6974655C6D706C2E630010B5072255
:10ED80004FF448710248FFF775FC002010BD0000E9
:10ED900045D9000870B5074AD26F42F00202054B10
:10EDA000DA671A4690E87800103278C2203A516249
:10EDB00070BD0000A834012070B50346002224E095
:10EDC00002EB4204144850F8240098421CD1511C14
:10EDD0000CE0481E00EB40040F4800EB840401EBFC
:10EDE000410500EB850661CE61C4491C0A48001F3D
:10EDF00000688842EDDC0848001F0068401E064C91
:10EE0000241F2060002070BD521C0348001F0068B2
:10EE10009042D5DC0020F6E71031012070B50546A0
:10EE2000002422E0144850F82400A8421CD11248C3
:10EE3000001F0068401EA0420DD00F4B1B1F1B6817
:10EE40001B1B5B1E9A000C4B661C03EB860103EB3D
:10EE50008400F6F76DFD0848001F0068401E064953
:10EE6000091F0860002070BD641C0348001F006873
:10EE7000A042D7DC0520F6E7343501201CB5F7F7B2
:10EE8000ADFA0020012103464FF47A72CDE900105B
:10EE900003A1074803F0D8FD03F096F900201CBD3C
:10EEA00073746162696C697A65725461736B000096
:10EEB0003D1C010870472DE9F04306460F46904679
:10EEC000002413E04FF0000900250AE057F8251050
:10EED00005EB4502224456F82200FFF722F981444F
:10EEE0006D1C032DF2DB48F82490641C032CE9DB35
:10EEF000BDE8F08310B5142149F63F40F8F7FEFE57
:10EF00004FF42F610F48F9F736F94FF42F610D4890
:10EF1000F9F733F94FF42F610A48F9F730F94FF454
:10EF20002F610848F9F72DF903E04FF47A70FCF7E8
:10EF3000A9FD054801680068401E034A10600029C9
:10EF4000F3D110BD000400400001002070B52DED8C
:10EF5000028B0546B0EE408A9FED1B0AB4EEC08AD4
:10EF6000F1EE10FA02DD4FF47A640AE0B5EEC08AE1
:10EF7000F1EE10FA01D2002403E0BCEEC80A10EE54
:10EF8000104A012D05D104F57A611048F9F7F3F81C
:10EF900016E0022D05D104F57A610C48F9F7EDF879
:10EFA0000EE0032D05D104F57A610848F9F7E7F87A
:10EFB00006E0042D04D104F57A610448F9F7E1F87C
:10EFC000BDEC028B70BD000000007A4500040040DB
:10EFD00070B50446002624F00104184890F8240077
:10EFE00008B1002070BD1548807A10B94FF0FF308D
:10EFF000F8E71248057C807A2040104908740846DA
:10F00000007CA04202D04FF0FF3600E0002614B989
:10F010000A48007D18B1012002F020F902E000202A
:10F0200002F01CF93CB100F0FBFC20B10348057470
:10F030004FF0FF30D6E73046D4E70000A8000020AC
:10F0400030B585B00024F7F7D7FD04A800F050FADA
:10F05000002879D1FEF7D2FFC4B214B1012005B067
:10F0600030BDF5F7CFFDF4F7CBFBF4F757F8F4F725
:10F070000CFEF3F7E7FAF5F7EFF8FEF767FBFFF79B
:10F080005DFEC4B20CB10120E9E7792001F070F90E
:10F09000C4B20CB10220E2E77820FFF799FFC4B2B6
:10F0A0000CB10320DBE7642001F008F9C4B20CB115
:10F0B0000420D4E70A2000F0CDFFC4B20CB1052033
:10F0C000CDE702A800F0B6F901A800F039F903A8CD
:10F0D00000F06CF8684600F0B9F8BDF808002F4958
:10F0E00091FBF0F52846FFF7D5FDBDF808002B4948
:10F0F00091FBF0F52846FFF73FFC2948FFF7ACFCF1
:10F100002848FEF7F1FF0546BDF80400C103284674
:10F11000FFF7B4FD2348FEF7E7FF05469DF80C0016
:10F12000C1032846FFF71CFC1F48FEF7DDFF05461C
:10F13000BDF80000C1032846FFF782FCFCF75EFE25
:10F14000C4B214B106208AE725E01648FEF7CCFFCA
:10F150000546FDF7ADF8C4B20CB107207FE740F2D9
:10F160007310FCF7F3FCC4B20CB1082077E76420FD
:10F17000FCF7CEFFC4B20CB1092070E702F020F812
:10F1800004460CB10A206AE7012000F093FFC4B2E4
:10F190000CB10B2063E7002061E7000040420F0044
:10F1A000A0860100E0000020E9000020014611488F
:10F1B000407A30B1012807D0022808D003280CD1AA
:10F1C00008E0022008700BE00420087008E0082026
:10F1D000087005E01020087002E04FF0FF30704723
:10F1E00000BF0448C07C18B108784006000E0870C3
:10F1F0000020F4E7A800002001461348407A30B10F
:10F20000012808D002280AD0032810D10BE04FF4BF
:10F21000804008800EE04FF4005008800AE04FF470
:10F220008050088006E04FF40060088002E04FF054
:10F23000FF30704700BF0448C07C10B10888401000
:10F2400008800020F5E70000A800002001460348E0
:10F25000406880890880002070470000A8000020D6
:10F260003EB504460D463148807A00F0010010B9E1
:10F270004FF0FF303EBD2D4A126892F828102B4AFD
:10F28000526810786B460822F8F792F810B14FF0E8
:10F29000FF30EFE79DF8000000F0010020B19DF87D
:10F2A000000000F0020010B16FF00100E2E79DF8ED
:10F2B000070000F0800010B16FF00200DAE79DF85F
:10F2C00001009DF8021040EA012000B220809DF864
:10F2D00003009DF8041040EA012000B260809DF810
:10F2E00005009DF8061040EA012000B2A0802188A8
:10F2F0000E48808D11FB00F0001200B22080618862
:10F300000A48C08D11FB00F0001200B26080A18895
:10F310000648008E11FB00F0001200B2A08015B16B
:10F320002846FFF7C7FD0020A4E70000A800002042
:10F3300001460248007C087000207047A8000020A9
:10F3400001460F48007A30B1012807D0022809D0C1
:10F3500003280FD10AE0FA2008800EE04FF4FA707B
:10F3600008800AE04FF47A70088006E04FF4FA60F3
:10F37000088002E00020088000BF00BF0020704726
:10F38000A800002001461248007A30B1012809D0B7
:10F3900002280CD0032814D10EE09FED0E0A81ED57
:10F3A000000A11E09FED0C0A81ED000A0CE09FEDD0
:10F3B0000B0A81ED000A07E09FED090A81ED000AC2
:10F3C00002E04FF0FF30704700BF0020FBE7000075
:10F3D000A8000020000003430000834233330342AF
:10F3E0003333834101461248C07A082817D2DFE838
:10F3F00000F01704070A0D101318BC20088013E052
:10F400006220088010E02A2008800DE01420088087
:10F410000AE00A20088007E00520088004E000BF19
:10F4200000BF0020088000BF00BF00207047000020
:10F43000A80000200146064890F8240010B14FF0C3
:10F44000FF3070470248C08908800020F9E70000BB
:10F45000A8000020F8B506460C462248807A10B96C
:10F460004FF0FF30F8BD1F4A1268117C1D4A5268E8
:10F4700010786B460222F7F79BFF10B14FF0FF3078
:10F48000F0E79DF801009DF8001040EA012005B268
:10F4900014B12046FFF70EFD12484068B0F908008D
:10F4A00000EE100AF8EEC00A00EE105AB8EEC00ADC
:10F4B00070EE600A0B484068C08800EE100AB8EE93
:10F4C000400A80EE801A9FED080A31EE000ADFED57
:10F4D000070A20EE200ABDEEC00A86ED000A0020D1
:10F4E000C0E70000A800002000000C420000804798
:10F4F0001CB5044680208DF80000474A1268517DF3
:10F50000454A526810786B460122F7F78BFF10B11D
:10F510004FF0FF301CBD6420FCF7B4FA00208DF8DA
:10F5200000003D4A1268517D3B4A526810786B4694
:10F530000122F7F777FF10B14FF0FF30EAE7002123
:10F540003548C17448208DF80000334A1268117A9A
:10F55000314A526810786B460122F7F763FF10B109
:10F560004FF0FF30D6E7FF212B488172FF202A4958
:10F570000872FF2128484172C1724FF6FF71C181A4
:10F58000FF21017481744FF6FF7101850121017320
:10F5900080F82210002180F8231041750175163083
:10F5A000016041608160163880F8241080F82510D1
:10F5B000C1844FF4FA6000F0C5FD10B14FF0FF3088
:10F5C000A8E7022000F05EFC10B14FF0FF30A1E789
:10F5D0002A2000F031FE10B14FF0FF309AE73220C0
:10F5E00000F06CFE10B14FF0FF3093E70020FFF702
:10F5F000EFFC10B14FF0FF308CE701F07BFE0A20EA
:10F6000000F028FD10B14FF0FF3083E7002000F03C
:10F61000AFFE00207EE70000A80000202DE9F043A7
:10F6200085B005460E4690469946294890F8250033
:10F6300020B14FF0FF3005B0BDE8F08316B94FF0B0
:10F64000FF30F8E7002423E0281B102801DD1020FC
:10F6500000E0281B87B232193946204600F03CFFF3
:10F6600010B14FF0FF30E6E701AA3946204600F01E
:10F6700097F910B14FF0FF30DDE730193A4601A994
:10F68000F6F788F910B16FF00100D4E7E01984B201
:10F69000AC42D9DB4FEA28208DF8000008F0FF00CB
:10F6A0008DF801000A4A1268517F094A52681078A1
:10F6B0006B460222F7F7B6FE10B14FF0FF30BAE703
:10F6C0000121034880F82510A0F826900020B2E719
:10F6D000A800002038B50446282C02DD4FF0FF308A
:10F6E00038BDDCB9002000F071FD00208DF800006D
:10F6F00007208DF801003D4A1268517D3B4A52684F
:10F7000010786B460222F7F78DFE10B14FF0FF30F4
:10F71000E6E70021354801750020E1E7012000F00F
:10F7200055FD012C03D102208DF8000033E0022C9E
:10F7300003D103208DF800002DE0052C03DC04200C
:10F740008DF8000027E00A2C03DC05208DF800006E
:10F7500021E0142C03DC06208DF800001BE0282C8F
:10F7600003DC07208DF8000015E0502C03DC082096
:10F770008DF800000FE0A02C03DC09208DF80000BC
:10F7800009E0B4F5A07F03DC0A208DF8000002E058
:10F790000B208DF80000154A1268517A134A5268FE
:10F7A00010786B460122F7F73DFE10B14FF0FF30A5
:10F7B00096E720208DF800000C4A1268517D0B4A14
:10F7C000526810786B460122F7F72CFE10B14FF00B
:10F7D000FF3085E70821054881720021017301216E
:10F7E00001750020FFF7F4FB002079E7A800002056
:10F7F00070B5A2B004460D46164618A819A921AB4B
:10F800000EAACDE900101CA91EA8FCF703FB10B13D
:10F81000012022B070BDBDF8640000F0700058B146
:10F820001EA82199FDF792FE21A90DA8FFF712FE4F
:10F8300021990D98FDF7A6FEBDF8640000F00800C0
:10F8400068B1BDF970001290BDF972001390BDF956
:10F8500074001490002112A8219AFDF7D9FD21A966
:10F860001AA8FFF7FDFC68B9BDF968001590BDF94D
:10F870006A001690BDF96C001790002115A8219A16
:10F88000FDF70CFEFDF796FF20AA03A904A8FEF7DA
:10F890001BFA9DED040AB8EEC00ADFED100A80EEF7
:10F8A000201A85ED001A9DED050AB8EEC00ADFEDBD
:10F8B0000B0A80EE201AB1EE410A84ED000A069888
:10F8C000404200EE100AB8EEC00ADFED040A80EEF6
:10F8D000201A86ED001A00209BE7000000008047F8
:10F8E000F8B504460F4616462C4890F8240010B987
:10F8F0004FF0FF30F8BD2948807A10B94FF0FF3043
:10F90000F8E7264A1268117B244A526810786B4641
:10F910000222F7F74DFD10B14FF0FF30EAE79DF8F6
:10F9200001009DF8001040EA0125A54203DA0020FD
:10F930003070401EDEE7194840684088B5EB600F24
:10F9400017DD164A1268D17C144A526810786B464B
:10F950000122F7F72DFD10B14FF0FF30CAE79DF8F7
:10F96000000000F0100020B100F05AF86FF0010024
:10F97000C0E7E2B2094B1B68597B084B5B681878FB
:10F980003B46F7F715FD10B14FF0FF30B2E795FB9E
:10F99000F4F0401E30700020ACE70000A80000200A
:10F9A000F8B504460D46164616B94FF0FF30F8BDBF
:10F9B0001A48807A10B94FF0FF30F8E720128DF81E
:10F9C0000000E0B28DF801009DF8010028441349C1
:10F9D00049684989884202DD4FF0FF30E7E70F4A66
:10F9E0001268D17E0D4A526810786B460222F7F7F2
:10F9F00019FD10B14FF0FF30D9E7EAB2074B1B6891
:10FA0000197E064B5B6818783346F7F7D1FC10B1C6
:10FA10004FF0FF30CBE70020C9E70000A80000202E
:10FA200008B57048807A10B94FF0FF3008BD00204B
:10FA300000906C4A1268517C6A4A526810786B4692
:10FA40000122F7F7EFFC10B14FF0FF30EEE7654A07
:10FA500012685179634A526810786B460122F7F7B1
:10FA6000E1FC10B14FF0FF30E0E75E4A1268117917
:10FA70005C4A526810786B460122F7F7D3FC10B14C
:10FA80004FF0FF30D2E7574890F82400002853D0B9
:10FA90000C200090534A12681179524A526810782B
:10FAA0006B460122F7F7BEFC10B14FF0FF30BDE707
:10FAB0003220FBF7E7FFC02000904A48807A00F030
:10FAC000010020B19DF8000040F020000090454A60
:10FAD00012681179434A526810786B460122F7F791
:10FAE000A1FC10B14FF0FF30A0E73E48407C10B1C0
:10FAF0000220009001E0002000903A4A1268517CF8
:10FB0000384A526810786B460122F7F78BFC10B127
:10FB10004FF0FF308AE700200090324A1268517996
:10FB2000304A526810786B460122F7F77BFC0028B8
:10FB300055D04FF0FF3079E704200090294A126831
:10FB40001179284A526810786B460122F7F76AFC4F
:10FB500010B14FF0FF3069E72248807C20B921487E
:10FB6000807A00F0010010B94020009001E0602090
:10FB700000901C4A126811791A4A526810786B4634
:10FB80000122F7F74FFC10B14FF0FF304EE7322063
:10FB9000FBF778FF1348407C10B10120009001E092
:10FBA000002000900F4A1268517C0E4A526810786B
:10FBB0006B460122F7F736FC10B14FF0FF3035E706
:10FBC000084A12685179074A52681078054B103379
:10FBD0000122F7F727FC10B14FF0FF3026E7002095
:10FBE00024E70000A80000202DE9F74F8EB08B46D7
:10FBF000144602200D9014B15BA0F8F73BFD61485C
:10FC000090F8240028B1002000F054FA4FF0010AC7
:10FC100001E04FF0000A03A8FFF792FB06A8FFF7E8
:10FC2000C5FA01A8FFF7DEFB02A8FFF703FC554861
:10FC3000807A049005A8FFF77BFB14B152A0F8F777
:10FC400019FD002508E02346002259460E98FCF7CE
:10FC500063FD00B902E06D1C022DF4DB00BF022D34
:10FC600005D114B14DA0F8F705FD002648E014B108
:10FC700056A0F8F7FFFC002508E02346012207A95B
:10FC80000AA8FCF749FD00B902E06D1C022DF4DB67
:10FC900000BF022D05D114B152A0F8F7EBFC0026ED
:10FCA0002EE0224607A95846FBF7A4FAC7B21CB1BA
:10FCB000394659A0F8F7DEFC22460AA90E98FDF74E
:10FCC00063F800F0FF081CB141465BA0F8F7D2FCD6
:10FCD0000026B8F1000F01D146F001060FB946F039
:10FCE0000206FBF7D5FD00F0FF091CB1494659A0FB
:10FCF000F8F7C0FCB9F1000F01D146F0040600BFCF
:10FD000014B15CA0F8F7B6FCFF201E490872FF2171
:10FD10001C484172C1724FF6FF71C181FF2181728F
:10FD2000017401210173BDF80C0000F00BFA9DF87D
:10FD3000180000F0A7F8BDF8040000F07DFABDF847
:10FD4000080000F0BBFA049800F012FB9DF81400C4
:10FD5000FFF73EF9BAF1000F02D0012000F0AAF936
:10FD6000304611B0BDE8F08F5374617274696E67EC
:10FD7000204D5055363530302048575354210D0A08
:10FD800000000000A8000020526574726965766961
:10FD90006E67204269617365730D0A005265747263
:10FDA000696576696E672042696173657320457283
:10FDB000726F72202D20706F737369626C652049B9
:10FDC0003243206572726F720A00000052657472CD
:10FDD000696576696E672053542042696173657363
:10FDE0000A00000052657472696576696E67205377
:10FDF0005420426961736573204572726F72202DC1
:10FE000020706F737369626C65204932432065729C
:10FE1000726F720A00000000416363656C205365D5
:10FE20006C66205465737420526573756C74733AF4
:10FE30002025640A000000004779726F2053656C2A
:10FE400066205465737420526573756C74733A2020
:10FE500025640A00436F6D706173732053656C668F
:10FE6000205465737420526573756C74733A202541
:10FE7000640A000045786974696E672048575354D6
:10FE80000A00000038B504461E48807A10B94FF0C9
:10FE9000FF3038BD022C06D0042C07D0082C08D027
:10FEA000102C0CD108E0002000900BE008200090FE
:10FEB00008E01020009005E01820009002E04FF0CC
:10FEC000FF30E6E700BF0F48407A9DF80010B0EB26
:10FED000E10F01D10020DCE70A4A1268D179094A12
:10FEE000526810786B460122F7F79CFA10B14FF078
:10FEF000FF30CEE79DF80000C1100248417200209B
:10FF0000C7E70000A800002038B504465048807CB0
:10FF1000A04201D1002038BD002C46D04C4A1268C6
:10FF200011794B4A526810786B460122F7F740FA74
:10FF300010B14FF0FF30EEE79DF8000020F02000F8
:10FF40000090434A12681179414A526810786B4612
:10FF50000122F7F767FA10B14FF0FF30DBE703201B
:10FF6000FBF790FD02200090394890F8220020B164
:10FF70009DF8000040F080000090354890F8230084
:10FF800020B19DF8000040F030000090304A126827
:10FF9000D17D2F4A526810786B460122F7F742FA5A
:10FFA000002851D04FF0FF30B5E7294A1268117987
:10FFB000274A526810786B460122F7F7F9F910B119
:10FFC0004FF0FF30A7E72248807A00F0010028B107
:10FFD0009DF8000040F02000009004E09DF8000033
:10FFE00020F0200000901A4A12681179184A5268CD
:10FFF00010786B460122F7F715FA10B14FF0FF3079
:020000040801F1
:1000000089E70320FBF73EFD114890F8220010B16C
:100010008020009001E0002000900D4890F823001F
:1000200020B19DF8000040F030000090084A1268AE
:10003000D17D074A526810786B460122F7F7F2F932
:1000400010B14FF0FF3066E701488474002062E78A
:10005000A800002038B504462CB11548C089A0423C
:1000600001DB642C02DD4FF0FF3038BD1048C08941
:1000700090FBF4F0401EC0B200900D4A126892F856
:1000800024100B4A526810786B460122F7F7CAF920
:1000900010B14FF0FF30E8E70548C1899DF8000036
:1000A000401C91FBF0F081B2014801850020DCE7A3
:1000B000A800002038B50446214890F82400A0424A
:1000C00001D1002038BD24B31D4890F8250010B997
:1000D0004FF0FF30F6E7002001F0C0F80020FFF7F6
:1000E00013FF1749C88C00F0E9F80020009014496C
:1000F000496808786B4601222321F7F793F901211B
:100100000F4880F82410012001F0A8F8FFF788FCC0
:1001100013E0002001F0A2F80948007C0090084993
:10012000496808786B4601222321F7F77BF9002103
:10013000034880F82410FFF773FC0020C2E700009A
:10014000A800002038B504461F48807A10B94FF047
:10015000FF3038BDFA2C09D0B4F5FA7F09D0B4F5D8
:100160007A7F09D0B4F5FA6F0CD108E00020009036
:100170000BE00820009008E01020009005E0182017
:10018000009002E04FF0FF30E3E700BF0E48007A36
:100190009DF80010B0EBE10F01D10020D9E70A4A29
:1001A00012689179084A526810786B460122F7F775
:1001B00039F910B14FF0FF30CBE79DF80000C010C7
:1001C000014908720020C4E7A800002038B50446A1
:1001D000184890F82300A04201D1002038BD14B186
:1001E0003020009001E0002000901248807C20B177
:1001F0009DF8000040F0020000900E4890F82200A8
:1002000020B19DF8000040F080000090094A12687B
:10021000D17D084A526810786B460122F7F702F93F
:1002200010B14FF0FF30D9E7024880F8234000209A
:10023000D4E70000A800002038B504461E48807AA4
:1002400010B94FF0FF3038BDBC2C02DB012000900C
:1002500015E0622C02DB0220009010E02A2C02DB69
:10026000032000900BE0142C02DB0420009006E039
:100270000A2C02DB0520009001E0062000900E48C9
:10028000C07A9DF80010884201D10020DBE70A4ABD
:1002900012689178084A526810786B460122F7F785
:1002A000C1F810B14FF0FF30CDE79DF800100248C3
:1002B000C1720020C7E70000A800002038B504463E
:1002C0002A48807A10B94FF0FF3038BD274890F89F
:1002D000240010B14FF0FF30F7E72448007D50B103
:1002E00034B1282C04DC2046FFF7F4F90020ECE7B9
:1002F0000020FFF7EFF9042C01DA042404E0B4F540
:100300007A7F01DD4FF47A744FF47A7090FBF4F049
:10031000401EC0B20090154A12685178134A5268C4
:1003200010786B460122F7F77DF810B14FF0FF30DF
:10033000CBE79DF80000401C4FF47A7191FBF0F080
:1003400081B20A48C1810146098D642902DA014659
:10035000098D00E064210846FFF77CFE0349C98946
:100360004810FFF769FF0020AFE70000A800002059
:100370001CB5044604F0700010B10120019005E0A6
:1003800014B10020019001E040200190514A126810
:10039000517D504A5268107801AB0122F7F742F8BC
:1003A00020B100214B488172481E1CBD9DF80400FD
:1003B00020F04001474801730020019004F0400004
:1003C00020B99DF8040040F00400019004F02000E2
:1003D00020B99DF8040040F00200019004F01000E4
:1003E00020B99DF8040040F00100019004F00800DD
:1003F00020B99DF8040040F038000190354A126899
:10040000917D344A5268107801AB0122F7F70AF85F
:1004100020B100212F488172481EC6E724B1082C64
:1004200002D00020FFF7D2FE2A4A12681179294A29
:10043000526810786B460122F6F7BAFF10B14FF000
:10044000FF30B2E704F0010038B1112001909DF8AF
:10045000000040F02000009006E0102001909DF880
:10046000000020F0200000901A4890F8240028B1E5
:100470009DF8000040F08000009004E09DF800002E
:1004800020F080000090134A126892F82610114A5A
:100490005268107801AB0122F6F7C4FF10B14FF09B
:1004A000FF3082E70B4A126811790A4A52681078C5
:1004B0006B460122F6F7B6FF10B14FF0FF3074E73C
:1004C00004488472002101753220FBF7DBFA00201A
:1004D0006BE70000A8000020F8B504460D4616465C
:1004E00016B94FF0FF30F8BD1A48807A10B94FF0B6
:1004F000FF30F8E720128DF80000E0B28DF801001F
:100500009DF801002844134949684989884202DD61
:100510004FF0FF30E7E70F4A1268D17E0D4A52686C
:1005200010786B460222F6F77DFF10B14FF0FF30D6
:10053000D9E7EAB2074B1B68197E064B5B6818784F
:100540003346F6F76FFF10B14FF0FF30CBE70020D6
:10055000C9E70000A8000020DFED112AC0ED012A44
:10056000DFED0F2AC0ED022ADFED0D2AC0ED032AD0
:10057000DFED0B2AC0ED042A80ED000A80ED051A9C
:10058000C0ED061A80ED072ADFED062AC0ED0B2A22
:10059000DFED052AC0ED0C2AC0ED0D0A7047000002
:1005A00000000000000048420000FA43F0EE400A5C
:1005B000C0ED010A90ED031AD0ED011A90ED0D2A5D
:1005C00001EE821A80ED031A90ED031AD0ED0B1A9A
:1005D000B4EEE11AF1EE10FA04DD90ED0B1A80EDA5
:1005E000031A10E090ED031AD0ED0B1AF1EE611A28
:1005F000B4EEE11AF1EE10FA05D290ED0B1AB1EE5D
:10060000411A80ED031A90ED011AD0ED021A31EE75
:10061000611AD0ED0D1A81EE212A80ED042A90EDA9
:10062000051AD0ED011A21EE211A80ED081A90ED7D
:10063000061AD0ED031A21EE211A80ED091A90ED69
:10064000071AD0ED041A21EE211A80ED0A1A90ED56
:10065000081AD0ED091A31EE211AD0ED0A1A31EE3E
:10066000210A90ED0C1AB5EEC01AF1EE10FA1AD06C
:1006700090ED0C1AB4EEC01AF1EE10FA04D290ED1F
:100680000C1AB0EE410A0EE090ED0C1AB1EE411AD0
:10069000B4EEC01AF1EE10FA05DD90ED0C1AB1EED1
:1006A000411AB0EE410A90ED011A80ED021A80ED78
:1006B0000E0A70472DE9F04105460E461C480768B2
:1006C0001C480068001D01F03BFB50B91948006848
:1006D00090F82C100120884017490968814316487A
:1006E0000160681C38B936B112480168091D134809
:1006F00001F064FB1AE07C190E4800684460BC42BB
:1007000007D20C480168091D0D48006801F03CFB48
:100710000CE008480168091D0A48006801F034FB34
:1007200009480068844201D207480460BDE8F081AE
:1007300068000020540000206C0000209830012048
:100740005C000020580000208400002010B5044602
:1007500001F040FB24480068401C234908602348FE
:10076000006840B9214804600846006801280DD19E
:1007700000F0DEF90AE01E48006838B91B4800683E
:10078000C06AE16A884201D81848046019480068C4
:10079000401C1849086008460068206494F82C1032
:1007A0000120884014490968084313490860E16A38
:1007B00001EB8101114A02EB8100211D01F0FEFADB
:1007C00001F032FB0A48006868B108480068C06A56
:1007D000E16A884207D24FF0805009490860BFF3B0
:1007E0004F8FBFF36F8F10BD6400002054000020B6
:1007F00070000020800000206C000020E42F012009
:1008000004ED00E010B501F0E5FA10480068D0B939
:100810000F4801F0A9FA0F4801F0A6FA0C480E495A
:1008200008600C480D49086000220C210A2001F0E4
:100830001BFE064908600846006820B108A103486D
:10084000006801F0A5FB01F0EFFA10BD9800002050
:10085000AC300120C0300120900000209400002026
:10086000546D72510000000070B523E001F0F6FCF9
:100870001348006808B9012000E00020054602F096
:100880007DFABDB901F0A6FA0D48C068C468201D04
:1008900001F056FA0B480068401E0A4908600A48F1
:1008A0000068401E0849086001F0BEFA204600F0CA
:1008B00060F800BF044800680028D7D170BD000070
:1008C00084300120640000206000002070B50446E0
:1008D0000D46206C70B1216CE0680844E0606168EE
:1008E000E068884201D32068E0602846226CE16815
:1008F000F5F71EF870BD2DE9F04104460F46154688
:100900004FF00008A66B206C40B9206860BB60689F
:1009100002F084F980460020606025E07DB9394608
:10092000226CA068F5F704F8216CA0680844A06068
:10093000D4E90110884217D32068A06014E039463A
:10094000226CE068F4F7F4FF216CE068401AE06084
:100950002168E068884203D2216C6068401AE06038
:10096000022D01D106B1761E701CA0634046BDE881
:10097000F08110B50446206B01F074FA204601F0B6
:1009800071FA10BD0146084A126812680AB90122BC
:1009900000E000220A600A6822B9034A1268D2689D
:1009A000106800E0002070479000002030B54FF440
:1009B0009633174800F007042CB1C01D20F0070043
:1009C000134C041B1B1B0246124C22600024114DC9
:1009D0006C60D018083820F007000F4C206000240D
:1009E0000D4D2D686C600C4D2D682C601146441A1D
:1009F0004C60094C24680C60084D4C682C60084D14
:100A00004C682C604FF00044064D2C6030BD000057
:100A1000A40300203C000020440000204C000020E3
:100A2000480000205000002000BFFFF71DFF0648CF
:100A300000680128F9D94FF0805004490860BFF3DD
:100A40004F8FBFF36F8FF0E7E42F012004ED00E03C
:100A50002DE9F04106460D4617469846069C0DB90D
:100A6000246000E02760E66325640121204601F050
:100A700009FE84F84C80BDE8F0812DE9F05F8246E4
:100A80000F4690469B460A9E0C9C4FEA8801A52281
:100A9000206BF4F76DFFA8F10100216B01EB8009D9
:100AA00029F0070909F0070008B9012000E000203B
:100AB00050B900BF502080F31188BFF34F8FBFF3B0
:100AC0006F8F00BF00BFFEE7002507E0795D04F1EE
:100AD00034004155785D00B902E06D1C0A2DF5D354
:100AE00000BF00213D200155052E00D30426E662FB
:100AF000A6640020E064201D01F043F904F1180011
:100B000001F03FF92461C6F10500A0616462002094
:100B1000206584F854005A465146484600F03AFB96
:100B200020600B9808B10B980460BDE8F09F0000AE
:100B300010B5002407E004EB84010F4A02EB8100AA
:100B400001F012F9641C052CF5D30C4801F00CF9E6
:100B50000B4801F009F90B4801F006F90A4801F0C9
:100B600003F90A4801F000F90448094908600448FB
:100B70000849086010BD0000E42F01204830012022
:100B80005C30012070300120843001209830012039
:100B9000580000205C00002010B50146164800E017
:100BA000006803688B42FBD30246436813448B42C0
:100BB00004D143684C682344436001460A464B68AD
:100BC00013440468A34211D10C4C03682468A34267
:100BD00008D04B680468646823444B6003681B6852
:100BE0000B6005E0054B1B680B6001E003680B60C0
:100BF000884200D0016010BD3C000020440000206D
:100C00002DE9F04104460D4616461F464FF00008F8
:100C100065602461B5420CD8F01BA169884202D3FB
:100C20004FF0010811E0211D0948006801F0ACF8FF
:100C30000BE0BE4204D2BD4202D34FF0010804E0F3
:100C4000211D0448006801F09FF84046BDE8F0818E
:100C5000940000209000002070B5054601F0BAF81D
:100C6000A86B08B9012400E0002401F0DDF820465B
:100C700070BD70B5054601F0ADF8A86BE96B884210
:100C800001D1012400E0002401F0CEF8204670BD1F
:100C9000F8B505460F4616480068C068C468201DB0
:100CA00001F04EF8E06901281DD1A06941192B46D9
:100CB0003A462046FFF7A4FFA8B1002003462A4683
:100CC00001460090204602F007F9064656B900BFDB
:100CD000502080F31188BFF34F8FBFF36F8F00BF99
:100CE00000BFFEE700BF2046616A8847F8BD0000EC
:100CF0009000002070B586B06AE00398002867DB9A
:100D0000059C606908B9012000E0002010B9201D91
:100D100001F016F802A800F0BDF8054603980A286D
:100D200054D2DFE800F009050731334F06083234AA
:100D300000BF00BF00BF00BF0498A269811803462E
:100D40002A462046FFF75CFFE8B12046616A8847E3
:100D5000E069012817D1002000900498A169421889
:100D600000231946204602F0B7F8064656B900BFE0
:100D7000502080F31188BFF34F8FBFF36F8F00BFF8
:100D800000BFFEE700BF22E000BF20E000BF0498E4
:100D9000A061A06908B1012000E0002050B900BFA7
:100DA000502080F31188BFF34F8FBFF36F8F00BFC8
:100DB00000BFFEE7A06941192B462A462046FFF7EF
:100DC0001FFF04E0204601F04DF800E000BF00BF27
:100DD00000231A4603A90448006801F071FB0028AB
:100DE0008BD106B070BD000098000020F8B5054614
:100DF0000C4601F033FA684600F04CF806460098BD
:100E000020BB44B9B54206D801F0B8FF31462846A8
:100E1000FFF73EFF1CE03CB10E480068006808B9CF
:100E2000012000E000200446A91B22460A48006871
:100E300001F0C4F801F0A2FF50B94FF0805007490B
:100E40000860BFF34F8FBFF36F8F01E001F096FF93
:100E5000F8BD0000940000209800002004ED00E0A0
:100E60000A490968096809B9012100E0002121B196
:100E70004FF0FF31064A116006E004490968C9686D
:100E8000C868034A4168116070470000580000209C
:100E90008400002070B5044601F016FE05460748A0
:100EA0000068854204D200F00BF80120206001E0C8
:100EB0000020206001480560284670BDA000002089
:100EC0002DE9F84332E024480068C06805682248EC
:100ED0000068C068C468201D00F032FF2046616AC7
:100EE0008847E069012821D1A0694619AE4207D997
:100EF00066602461211D1848006800F045FF15E078
:100F0000002003462A4601460090204601F0E4FFF7
:100F1000074657B900BF502080F31188BFF34F8FA9
:100F2000BFF36F8F00BF00BFFEE700BF0A48006835
:100F3000006808B9012000E000200028C3D006485E
:100F4000D0F8008005480068034908600348C0F8ED
:100F50000080BDE8F883000090000020940000208D
:100F60000E480068401C08B9012000E0002050B97C
:100F700000BF502080F31188BFF34F8FBFF36F8FF6
:100F800000BF00BFFEE700BF502080F31188BFF311
:100F90004F8FBFF36F8F00BF00BFFEE73000002010
:100FA00008B500BF6846FFF7EDFC044620460099EF
:100FB000FFF71CFFFFF79EFEF4E770B5044600F054
:100FC00009FF94F9455010E0606A08B9012000E07B
:100FD000002038B904F1240001F084FE18B101F0BA
:100FE00041F800E003E0681E45B2002DECDC00BFD4
:100FF000FF2084F8450000F017FF00F0EBFE94F9A5
:10100000445010E0206908B9012000E0002048B9F0
:1010100004F1100001F066FE08B101F023F8681E2B
:1010200045B200E001E0002DECDC00BFFF2084F8B9
:10103000440000F0F9FE70BD2DE9F04104464FF088
:10104000000801F00BF94648006808B9FFF7AEFC4C
:1010500044480068204000286BD1D4B1083404F023
:101060000700B0B104F00700C0F10800044404F028
:10107000070008B9012000E0002050B900BF50204F
:1010800080F31188BFF34F8FBFF36F8F00BF00BF96
:10109000FEE7002C4DD034480068844249D8334ED6
:1010A0003046056801E02E462D686868A04202D2ED
:1010B00028680028F7D12A480068854239D030686E
:1010C00000F10808286830606868001B102819D9EA
:1010D0002F1907F0070008B9012000E0002050B9DF
:1010E00000BF502080F31188BFF34F8FBFF36F8F85
:1010F00000BF00BFFEE76868001B78606C60384680
:10110000FFF74AFD184968680968081A1649086017
:101110000846006816490968884203D212480068E8
:10112000134908600F49686809680843686000202F
:10113000286001F023FE08F0070008B9012000E054
:10114000002050B900BF502080F31188BFF34F8FAB
:10115000BFF36F8F00BF00BFFEE74046BDE8F081E0
:101160004400002050000020480000203C000020E7
:101170004C0000200648006830B10549096801F1BB
:101180004C00C96C491C01600148006870470000B0
:1011900054000020001F4FF080730360001F21F0F7
:1011A00001030360001F054B036014380260001F39
:1011B0006FF002030360203870470000610F0108E0
:1011C00010B588B0002202A905A8FEF70DFD04465F
:1011D000072C41D16846FEF7D5F89DED050AB8EE1B
:1011E000C00ADDED000A20EE200ABDEEC00A8DED3A
:1011F000050A9DED060AB8EEC00ADDED000A20EEF4
:10120000200ABDEEC00A8DED060A9DED070AB8EE74
:10121000C00ADDED000A20EE200ABDEEC00A8DED09
:10122000070A05A8FAF7ACFF01A8FDF7E5FFBDF82E
:101230000410029848430290BDF8041003984843F4
:101240000390BDF8041004984843049002A8FAF7EC
:10125000C7FE002008B010BD0120FBE738B50446EA
:10126000214890F82400C0B114B10220009001E0A0
:10127000002000901C4A1268517C1B4A526810786A
:101280006B460122F6F7CEF810B14FF0FF3038BDB3
:101290009DF800101448417423E01348807A10B977
:1012A0004FF0FF30F3E724B10F48407C08B1002035
:1012B000EDE714B10120009001E0002000900A4AFF
:1012C0001268517C084A526810786B460122F6F782
:1012D000A9F810B14FF0FF30D9E79DF8001002488F
:1012E00041740020D3E70000A800002042620160A2
:1012F0007047000038B50120FEF706FE0C240EE012
:101300006B46012200212046F6F752F8054625B922
:101310009DF80000482800D103E0601CC4B20F2CE7
:10132000EEDD00BF0F2C05DD81A0F7F7A3F94FF02C
:10133000FF3038BD834880F82A4010208DF8000027
:10134000804991F82A006B4601220A21F6F76AF8D3
:1013500010B14FF0FF30ECE70120FAF793FB1F20AC
:101360008DF80000774991F82A006B4601220A2186
:10137000F6F758F810B14FF0FF30DAE70120FAF72E
:1013800081FB704991F82A006B4603221021F6F781
:101390000FF810B14FF0FF30CBE79DF80000803020
:1013A000684988859DF8011080316648C1859DF89F
:1013B00002108031018610208DF80000614991F8FB
:1013C0002A006B4601220A21F6F72CF810B14FF0E3
:1013D000FF30AEE70120FAF755FB0020FEF794FD41
:1013E00040208DF80000574A1268917E554A526895
:1013F00010786B460122F6F715F810B14FF0FF3068
:1014000097E7504890F82A0040F080008DF80000DF
:101410004C4A1268917F4B4A526810786B46012201
:10142000F6F700F810B14FF0FF3082E702208DF898
:101430000000444A1268D17F424A526810786B46D5
:101440000122F5F7EFFF10B14FF0FF3071E7882070
:101450008DF800003B4A126892F82010394A526811
:1014600010786B460122F5F7DDFF10B14FF0FF3029
:101470005FE7344890F82A008DF80000314A12687E
:1014800092F821102F4A526810786B460122F5F726
:10149000C9FF10B14FF0FF304BE70A208DF8000074
:1014A000284A126892F82210264A526810786B4631
:1014B0000122F5F7B7FF10B14FF0FF3039E7812077
:1014C0008DF800001F4A126892F823101D4A5268D6
:1014D00010786B460122F5F7A5FF10B14FF0FF30F1
:1014E00027E711208DF80000164A126892F826109E
:1014F000144A526810786B460122F5F793FF10B139
:101500004FF0FF3015E703208DF800000D4A1268F8
:1015100092F827100B4A526810786B460122F5F7B3
:1015200081FF10B14FF0FF3003E7002001E700001A
:10153000436F6D70617373206E6F7420666F756E8C
:10154000642E0A00A800002070B51021762000F05B
:10155000D9FA04461121762000F0D4FA054620017C
:1015600040EA15106F49096808806E4800680088D5
:1015700000F4006030B16B480068B0F9000040F43E
:10158000704003E067480068B0F9000000B26549A8
:10159000096808801121762000F0B4FA044612216F
:1015A000762000F0AFFA054604F00F0045EA00206F
:1015B0005C49096848805B480068408800F4006026
:1015C00030B158480068B0F9020040F4704003E0C0
:1015D00054480068B0F9020000B2524909684880D6
:1015E0001321762000F08EFA04461421762000F0B4
:1015F00089FA06461521762000F084FA0546200374
:1016000040EA061040EA2510464909684860454806
:101610000068406800F4002028B142480068406833
:101620004149084302E03F48006840683D49096875
:1016300048601521762000F065FA044616217620D0
:1016400000F060FA06461721762000F05BFA0546A6
:10165000200440EA0620284332490968886031485E
:101660000068806800F4002028B12E480068806877
:101670002D49084302E02B48006880682949096821
:1016800088601821762000F03DFA04461921762062
:1016900000F038FA054645EA042000B221490968FD
:1016A00088811A21762000F02DFA04461B2176202D
:1016B00000F028FA054645EA042000B219490968F5
:1016C000C8811C21762000F01DFA04461D217620D9
:1016D00000F018FA054645EA042000B211490968ED
:1016E00008821E21762000F00DFA04461F21762084
:1016F00000F008FA054645EA042000B209490968E5
:1017000048822021762000F0FDF904462121762030
:1017100000F0F8F9054645EA042000B201490968DD
:10172000888270BDF80000200000F0FF3548006896
:10173000D0ED082AB8EEE23A32480068D0ED0A2A25
:10174000F8EEE22AC3EE223AB0EE631A2D480068A2
:10175000D0ED072AB8EEE23A2A480068D0ED092A0F
:10176000F8EEE22AC3EE223AF0EE630A254800685A
:10177000B0F9100002EE900AF8EEE22A2148006863
:10178000B0F9140003EE100AB8EEC33A40EE832A13
:101790001C48006890ED023AB8EEC33A00EEA23A57
:1017A000F0EE431A17480068B0F90E0002EE900AF6
:1017B000F8EEE22A13480068B0F9120003EE100AAE
:1017C000B8EEC33A40EE832A21EE203A62EE832A35
:1017D000B0EE622A0B480068D0ED012AF8EEE22A4A
:1017E00040EEA12A07480068B0F90C0003EE100A89
:1017F000B8EEC33A41EE032A72EE822AB0EE620AD4
:1018000070470000F800002070B5F5F797FAEC205B
:10181000F5F760FAF5F7DEFA0020F5F75BFAF5F771
:10182000D9FAF5F78BFAED20F5F754FAF5F7D2FA75
:101830000120F5F719FA04460120F5F715FA0546D7
:101840000020F5F711FA0646F5F79EFA200440EA63
:10185000052030430A490968C86109480068C06921
:1018600000F4000028B106480068C06940F07F40DD
:1018700002E003480068C06901490968C86170BD99
:10188000F800002070B5F5F759FAEC20F5F722FAC8
:10189000F5F7A0FA0320F5F71DFAF5F79BFAF5F72F
:1018A0004DFAED20F5F716FAF5F794FA0120F5F761
:1018B000DBF904460120F5F7D7F905460020F5F7D6
:1018C000D3F90646F5F760FA200440EA05203043D4
:1018D0000A490968086209480068006A00F40000C3
:1018E00028B106480068006A40F07F4002E00348E3
:1018F0000068006A01490968086270BDF8000020AC
:1019000070B52DED028B9FED260AB0EE408A0024C3
:1019100024482549086000200968C86122490968EF
:10192000086234202049096808760D21762000F0ED
:10193000E9F8054629461DA0F6F79CFEFFF704FED0
:1019400004228021002000F03BF808222021012001
:1019500000F036F8012000F0F8F800BF13E0FFF7C0
:1019600091FFFFF751FFFFF7E1FEF0EE408AF9F734
:101970004BFF114880ED000A90ED000A38EE000A96
:10198000B0EE408A641CB4F5967FE8DB9FED0B0A4D
:10199000C8EE000A0848C0ED000ABDEC028B70BD1D
:1019A000000000002C370120F800002049443A30A4
:1019B000782558090A000000FC000020000096432A
:1019C0002DE9F04106460F4615460024A046102F8B
:1019D00019D008DC012F23D0022F0BD0042F0CD0FC
:1019E000082F1CD10CE0202F10D0402F11D0802FB9
:1019F00015D111E044F0200413E044F0400410E05D
:101A000044F060040DE044F080040AE044F0A004D7
:101A100007E044F0C00404E044F0E00401E000BF4B
:101A200000BF00BF102D1FD008DC012D31D0022DCA
:101A30000BD0042D0ED0082D2AD110E0202D18D067
:101A4000402D1BD0802D23D11DE044F001044FF424
:101A5000C01821E044F002044FF460181CE044F088
:101A600003044FF4F00817E04FF4783844F004040E
:101A700012E04FF4FC2844F005040DE04FF47E28FA
:101A800044F0060408E04FF4FF1844F0070403E0B4
:101A900000BF4FF4002800BF00BFAEB9184800686F
:101AA000C0F8248022460621762000F057F8082D41
:101AB0000ADD0921762000F025F8044644F00402EE
:101AC0000921762000F04AF8012E16D10C48006852
:101AD000C0F8288044F080020721762000F03EF80C
:101AE000082D0ADD0921762000F00CF8044644F0A8
:101AF00008020921762000F031F8BDE8F0810000ED
:101B0000F800002070B504460D460026F5F716F9DA
:101B10006106080EF5F7DEF8F5F75CF92846F5F7EB
:101B2000D9F8F5F757F9F5F709F9012101EB440167
:101B3000C8B2F5F7CFF8F5F74DF90020F5F794F8AE
:101B40000646F5F721F9304670BD10B50446201D54
:101B5000C2B20821762000F001F810BD70B504462D
:101B60000D461646F5F7EAF86106080EF5F7B2F8E5
:101B7000F5F730F92846F5F7ADF8F5F72BF93046CB
:101B8000F5F7A8F8F5F726F9F5F7FEF870BD00B5FA
:101B90002DED048B83B041EC190BF4F759FA41ECAD
:101BA000180B18EE100A18EE901A8DED008B002815
:101BB00018BF0120084320F00040C0F17F6000F111
:101BC000E040C00F14D019EE101A19EE900A8DEDF6
:101BD000009B002918BF0121084320F00040C0F1FC
:101BE0007F6000F1E040C00F04BF0120F8F7AEFEB7
:101BF00051EC180B03B0BDEC048B00BD10B500EE2A
