Component: ARM Compiler 5.05 update 1 (build 106) Tool: armlink [4d0efa]

==============================================================================

Section Cross References

    main.o(i.main) refers to init_config.o(i.AllInit) for AllInit
    main.o(i.main) refers to tasks.o(i.xTaskCreate) for xTaskCreate
    main.o(i.main) refers to tasks.o(i.vTaskStartScheduler) for vTaskStartScheduler
    main.o(i.main) refers to pid.o(i.stabilizerTask) for stabilizerTask
    system_stm32f4xx.o(i.SystemCoreClockUpdate) refers to system_stm32f4xx.o(.data) for SystemCoreClock
    system_stm32f4xx.o(i.SystemInit) refers to system_stm32f4xx.o(i.SetSysClock) for SetSysClock
    init_config.o(i.AllInit) refers to misc.o(i.NVIC_PriorityGroupConfig) for NVIC_PriorityGroupConfig
    init_config.o(i.AllInit) refers to adc.o(i.Adc_Init) for Adc_Init
    init_config.o(i.AllInit) refers to delay.o(i.delay_init) for delay_init
    init_config.o(i.AllInit) refers to gps.o(i.GPS_USART_init) for GPS_USART_init
    init_config.o(i.AllInit) refers to beep.o(i.BEEP_Init) for BEEP_Init
    init_config.o(i.AllInit) refers to led.o(i.LED_Init) for LED_Init
    init_config.o(i.AllInit) refers to usart.o(i.uart_init) for uart_init
    init_config.o(i.AllInit) refers to lcd_driver.o(i.Lcd_Init) for Lcd_Init
    init_config.o(i.AllInit) refers to lcd_driver.o(i.Lcd_Clear) for Lcd_Clear
    init_config.o(i.AllInit) refers to gui.o(i.Gui_DrawFont_GBK16) for Gui_DrawFont_GBK16
    init_config.o(i.AllInit) refers to pwm.o(i.motor_init) for motor_init
    init_config.o(i.AllInit) refers to printfa.o(i.__0printf) for __2printf
==============================================================================

Removing Unused input sections from the image.

    Removing main.o(.rev16_text), (4 bytes).
    Removing main.o(.revsh_text), (4 bytes).
    Removing main.o(.rrx_text), (6 bytes).
    Removing main.o(.data), (4 bytes).
    Removing stm32f4xx_it.o(.rev16_text), (4 bytes).
    Removing stm32f4xx_it.o(.revsh_text), (4 bytes).
    Removing stm32f4xx_it.o(.rrx_text), (6 bytes).
    Removing system_stm32f4xx.o(.rev16_text), (4 bytes).
    Removing system_stm32f4xx.o(.revsh_text), (4 bytes).
    Removing system_stm32f4xx.o(.rrx_text), (6 bytes).
    Removing system_stm32f4xx.o(i.SystemCoreClockUpdate), (192 bytes).
    Removing init_config.o(.rev16_text), (4 bytes).
    Removing init_config.o(.revsh_text), (4 bytes).
    Removing init_config.o(.rrx_text), (6 bytes).
    Removing init_config.o(.constdata), (81920 bytes).
    Removing startup_stm32f40_41xxx.o(HEAP), (4096 bytes).
    Removing misc.o(.rev16_text), (4 bytes).
    Removing misc.o(.revsh_text), (4 bytes).
==============================================================================

Image Symbol Table

    Local Symbols

    Symbol Name                              Value     Ov Type        Size  Object(Section)

    ../clib/../cmprslib/zerorunl2.c          0x00000000   Number         0  __dczerorl2.o ABSOLUTE
    ../clib/microlib/ctype/ctype.c           0x00000000   Number         0  isspace_c.o ABSOLUTE
    ../clib/microlib/ctype/ctype.c           0x00000000   Number         0  ctype_c.o ABSOLUTE
    ../clib/microlib/ctype/tolower.c         0x00000000   Number         0  tolower.o ABSOLUTE
    ../clib/microlib/division.c              0x00000000   Number         0  uldiv.o ABSOLUTE
    ../clib/microlib/division.c              0x00000000   Number         0  ldiv.o ABSOLUTE
    ../clib/microlib/division.c              0x00000000   Number         0  uidiv.o ABSOLUTE
    ../clib/microlib/errno.c                 0x00000000   Number         0  errno.o ABSOLUTE
    ../clib/microlib/init/entry.s            0x00000000   Number         0  entry8b.o ABSOLUTE
    ../clib/microlib/init/entry.s            0x00000000   Number         0  entry10a.o ABSOLUTE
    ../clib/microlib/init/entry.s            0x00000000   Number         0  entry8a.o ABSOLUTE
    ../clib/microlib/init/entry.s            0x00000000   Number         0  entry10b.o ABSOLUTE
    ../clib/microlib/init/entry.s            0x00000000   Number         0  entry2.o ABSOLUTE
    ../clib/microlib/init/entry.s            0x00000000   Number         0  entry11a.o ABSOLUTE
    ../clib/microlib/init/entry.s            0x00000000   Number         0  entry9b.o ABSOLUTE
    ../clib/microlib/init/entry.s            0x00000000   Number         0  entry5.o ABSOLUTE
    ../clib/microlib/init/entry.s            0x00000000   Number         0  entry7a.o ABSOLUTE
    ../clib/microlib/init/entry.s            0x00000000   Number         0  entry.o ABSOLUTE
    ../clib/microlib/init/entry.s            0x00000000   Number         0  entry11b.o ABSOLUTE
    ../clib/microlib/init/entry.s            0x00000000   Number         0  entry9a.o ABSOLUTE
    ../clib/microlib/init/entry.s            0x00000000   Number         0  entry7b.o ABSOLUTE
    ../clib/microlib/longlong.c              0x00000000   Number         0  llsshr.o ABSOLUTE
    ../clib/microlib/longlong.c              0x00000000   Number         0  llushr.o ABSOLUTE
    ../clib/microlib/longlong.c              0x00000000   Number         0  llshl.o ABSOLUTE
    ../clib/microlib/malloc/malloc.c         0x00000000   Number         0  mallocra.o ABSOLUTE
    ../clib/microlib/malloc/malloc.c         0x00000000   Number         0  malloca.o ABSOLUTE
    ../clib/microlib/malloc/malloc.c         0x00000000   Number         0  mallocr.o ABSOLUTE
    ../clib/microlib/malloc/malloc.c         0x00000000   Number         0  malloc.o ABSOLUTE
    ../clib/microlib/malloc/mvars.c          0x00000000   Number         0  mvars.o ABSOLUTE
    ../clib/microlib/printf/printf.c         0x00000000   Number         0  printf3.o ABSOLUTE
    ../clib/microlib/printf/printf.c         0x00000000   Number         0  printfb.o ABSOLUTE
    ../clib/microlib/printf/printf.c         0x00000000   Number         0  printfa.o ABSOLUTE
    ../clib/microlib/printf/printf.c         0x00000000   Number         0  printf4.o ABSOLUTE
    ../clib/microlib/printf/printf.c         0x00000000   Number         0  printf5.o ABSOLUTE
    ../clib/microlib/printf/printf.c         0x00000000   Number         0  printf6.o ABSOLUTE
    ../clib/microlib/printf/printf.c         0x00000000   Number         0  printf8.o ABSOLUTE
    ../clib/microlib/printf/printf.c         0x00000000   Number         0  printf7.o ABSOLUTE
    ../clib/microlib/printf/printf.c         0x00000000   Number         0  printf2.o ABSOLUTE
    ../clib/microlib/printf/printf.c         0x00000000   Number         0  printf1.o ABSOLUTE
    ../clib/microlib/printf/printf.c         0x00000000   Number         0  printf0.o ABSOLUTE
    ../clib/microlib/printf/stubs.s          0x00000000   Number         0  stubs.o ABSOLUTE
    ../clib/microlib/string/memcmp.c         0x00000000   Number         0  memcmp.o ABSOLUTE
    ../clib/microlib/string/memcpy.c         0x00000000   Number         0  memcpya.o ABSOLUTE
    ../clib/microlib/string/memcpy.c         0x00000000   Number         0  memcpyb.o ABSOLUTE
    ../clib/microlib/string/memcpy.c         0x00000000   Number         0  memmoveb.o ABSOLUTE
    ../clib/microlib/string/memcpy.c         0x00000000   Number         0  memmovea.o ABSOLUTE
    ../clib/microlib/string/memset.c         0x00000000   Number         0  memseta.o ABSOLUTE
    ../clib/microlib/string/strcmp.c         0x00000000   Number         0  strcmp.o ABSOLUTE
    ../clib/microlib/string/strcpy.c         0x00000000   Number         0  strcpy.o ABSOLUTE
    ../clib/microlib/string/strlen.c         0x00000000   Number         0  strlen.o ABSOLUTE
    ../clib/microlib/string/strncmp.c        0x00000000   Number         0  strncmp.o ABSOLUTE
    ../clib/microlib/string/strstr.c         0x00000000   Number         0  strstr.o ABSOLUTE
    ../clib/microlib/stubs.s                 0x00000000   Number         0  iusefp.o ABSOLUTE
    ../clib/microlib/stubs.s                 0x00000000   Number         0  useno.o ABSOLUTE
    ../clib/scanf.c                          0x00000000   Number         0  __0sscanf.o ABSOLUTE
    ../clib/scanf.c                          0x00000000   Number         0  scanf_fp.o ABSOLUTE
    ../clib/scanf.c                          0x00000000   Number         0  _scanf.o ABSOLUTE
    ../clib/scanf.c                          0x00000000   Number         0  strtod.o ABSOLUTE
    ../clib/scanf.c                          0x00000000   Number         0  _sgetc.o ABSOLUTE
    ../clib/scanf.c                          0x00000000   Number         0  scanf_char.o ABSOLUTE
    ../fplib/microlib/d2f.c                  0x00000000   Number         0  d2f.o ABSOLUTE
    ../fplib/microlib/f2d.c                  0x00000000   Number         0  f2d.o ABSOLUTE
    ../fplib/microlib/fpadd.c                0x00000000   Number         0  dadd.o ABSOLUTE
    ../fplib/microlib/fpdiv.c                0x00000000   Number         0  ddiv.o ABSOLUTE
    ../fplib/microlib/fpepilogue.c           0x00000000   Number         0  depilogue.o ABSOLUTE
    ../fplib/microlib/fpepilogue.c           0x00000000   Number         0  fepilogue.o ABSOLUTE
    ../fplib/microlib/fpfix.c                0x00000000   Number         0  ffixl.o ABSOLUTE
    ../fplib/microlib/fpfix.c                0x00000000   Number         0  dfixi.o ABSOLUTE
    ../fplib/microlib/fpfix.c                0x00000000   Number         0  dfixul.o ABSOLUTE
    ../fplib/microlib/fpflt.c                0x00000000   Number         0  ffltl.o ABSOLUTE
    ../fplib/microlib/fpflt.c                0x00000000   Number         0  dflti.o ABSOLUTE
    ../fplib/microlib/fpflt.c                0x00000000   Number         0  dfltul.o ABSOLUTE
    ../fplib/microlib/fpflt.c                0x00000000   Number         0  dfltui.o ABSOLUTE
    ../fplib/microlib/fpmul.c                0x00000000   Number         0  dmul.o ABSOLUTE
    ../fplib/microlib/fpneg.c                0x00000000   Number         0  dneg.o ABSOLUTE
    ../fplib/microlib/fpscalb.c              0x00000000   Number         0  dscalb.o ABSOLUTE
    ../fplib/microlib/fpsqrt.c               0x00000000   Number         0  dsqrt.o ABSOLUTE
    ../mathlib/acos.c                        0x00000000   Number         0  acos_x.o ABSOLUTE
    ../mathlib/acos.c                        0x00000000   Number         0  acos.o ABSOLUTE
    ../mathlib/acosf.c                       0x00000000   Number         0  acosf.o ABSOLUTE
    ../mathlib/acosf.c                       0x00000000   Number         0  acosf_x.o ABSOLUTE
    ../mathlib/asin.c                        0x00000000   Number         0  asin.o ABSOLUTE
    ../mathlib/asin.c                        0x00000000   Number         0  asin_x.o ABSOLUTE
    ../mathlib/asinf.c                       0x00000000   Number         0  asinf_x.o ABSOLUTE
    ../mathlib/asinf.c                       0x00000000   Number         0  asinf.o ABSOLUTE
    ../mathlib/atan.c                        0x00000000   Number         0  atan_x.o ABSOLUTE
    ../mathlib/atan.c                        0x00000000   Number         0  atan.o ABSOLUTE
    ../mathlib/atan2.c                       0x00000000   Number         0  atan2.o ABSOLUTE
    ../mathlib/atan2.c                       0x00000000   Number         0  atan2_x.o ABSOLUTE
    ../mathlib/atan2f.c                      0x00000000   Number         0  atan2f.o ABSOLUTE
    ../mathlib/atan2f.c                      0x00000000   Number         0  atan2f_x.o ABSOLUTE
    ../mathlib/ceil.c                        0x00000000   Number         0  ceil.o ABSOLUTE
    ../mathlib/cos.c                         0x00000000   Number         0  cos_x.o ABSOLUTE
    ../mathlib/cos.c                         0x00000000   Number         0  cos.o ABSOLUTE
    ../mathlib/cos_i.c                       0x00000000   Number         0  cos_i.o ABSOLUTE
    ../mathlib/cosf.c                        0x00000000   Number         0  cosf_x.o ABSOLUTE
    ../mathlib/cosf.c                        0x00000000   Number         0  cosf.o ABSOLUTE
    ../mathlib/dunder.c                      0x00000000   Number         0  dunder.o ABSOLUTE
    ../mathlib/fabs.c                        0x00000000   Number         0  fabs.o ABSOLUTE
    ../mathlib/floor.c                       0x00000000   Number         0  floor.o ABSOLUTE
    ../mathlib/fpclassify.c                  0x00000000   Number         0  fpclassify.o ABSOLUTE
    ../mathlib/fpclassifyf.c                 0x00000000   Number         0  fpclassifyf.o ABSOLUTE
    ../mathlib/funder.c                      0x00000000   Number         0  funder.o ABSOLUTE
    ../mathlib/log.c                         0x00000000   Number         0  log.o ABSOLUTE
    ../mathlib/log.c                         0x00000000   Number         0  log_x.o ABSOLUTE
    ../mathlib/poly.c                        0x00000000   Number         0  poly.o ABSOLUTE
    ../mathlib/pow.c                         0x00000000   Number         0  pow.o ABSOLUTE
    ../mathlib/pow.c                         0x00000000   Number         0  pow_x.o ABSOLUTE
    ../mathlib/qnan.c                        0x00000000   Number         0  qnan.o ABSOLUTE
    ../mathlib/rred.c                        0x00000000   Number         0  rred.o ABSOLUTE
    ../mathlib/rredf.c                       0x00000000   Number         0  rredf.o ABSOLUTE
    ../mathlib/sin.c                         0x00000000   Number         0  sin.o ABSOLUTE
    ../mathlib/sin.c                         0x00000000   Number         0  sin_x.o ABSOLUTE
    ../mathlib/sin_i.c                       0x00000000   Number         0  sin_i_x.o ABSOLUTE
    ../mathlib/sin_i.c                       0x00000000   Number         0  sin_i.o ABSOLUTE
    ../mathlib/sinf.c                        0x00000000   Number         0  sinf_x.o ABSOLUTE
    ../mathlib/sinf.c                        0x00000000   Number         0  sinf.o ABSOLUTE
    ../mathlib/sqrt.c                        0x00000000   Number         0  sqrt.o ABSOLUTE
    ../mathlib/sqrt.c                        0x00000000   Number         0  sqrt_x.o ABSOLUTE
    ../mathlib/sqrtf.c                       0x00000000   Number         0  sqrtf.o ABSOLUTE
    ../mathlib/sqrtf.c                       0x00000000   Number         0  sqrtf_x.o ABSOLUTE
    ../mathlib/strtod.c                      0x00000000   Number         0  strtod.o ABSOLUTE
    ../mathlib/tan.c                         0x00000000   Number         0  tan.o ABSOLUTE
    ../mathlib/tan.c                         0x00000000   Number         0  tan_x.o ABSOLUTE
    ../mathlib/tan_i.c                       0x00000000   Number         0  tan_i_x.o ABSOLUTE
    ../mathlib/tan_i.c                       0x00000000   Number         0  tan_i.o ABSOLUTE
    ..\CORE\startup_stm32f40_41xxx.s         0x00000000   Number         0  startup_stm32f40_41xxx.o ABSOLUTE
    ..\DMP\driver\eMPL\inv_mpu.c             0x00000000   Number         0  inv_mpu.o ABSOLUTE
    ..\DMP\driver\eMPL\inv_mpu_dmp_motion_driver.c 0x00000000   Number         0  inv_mpu_dmp_motion_driver.o ABSOLUTE
    ..\DMP\driver\stm32L\log_stm32.c         0x00000000   Number         0  log_stm32.o ABSOLUTE
    ..\DMP\eMPL-hal\eMPL_outputs.c           0x00000000   Number         0  empl_outputs.o ABSOLUTE
    ..\DMP\mllite\data_builder.c             0x00000000   Number         0  data_builder.o ABSOLUTE
    ..\DMP\mllite\hal_outputs.c              0x00000000   Number         0  hal_outputs.o ABSOLUTE
    ..\DMP\mllite\message_layer.c            0x00000000   Number         0  message_layer.o ABSOLUTE
    ..\DMP\mllite\ml_math_func.c             0x00000000   Number         0  ml_math_func.o ABSOLUTE
    ..\DMP\mllite\mlmath.c                   0x00000000   Number         0  mlmath.o ABSOLUTE
    ..\DMP\mllite\mpl.c                      0x00000000   Number         0  mpl.o ABSOLUTE
    ..\DMP\mllite\results_holder.c           0x00000000   Number         0  results_holder.o ABSOLUTE
    ..\DMP\mllite\start_manager.c            0x00000000   Number         0  start_manager.o ABSOLUTE
    ..\DMP\mllite\storage_manager.c          0x00000000   Number         0  storage_manager.o ABSOLUTE
    ..\FWLIB\src\misc.c                      0x00000000   Number         0  misc.o ABSOLUTE
    ..\FWLIB\src\stm32f4xx_adc.c             0x00000000   Number         0  stm32f4xx_adc.o ABSOLUTE
    ..\FWLIB\src\stm32f4xx_can.c             0x00000000   Number         0  stm32f4xx_can.o ABSOLUTE
    ..\FWLIB\src\stm32f4xx_crc.c             0x00000000   Number         0  stm32f4xx_crc.o ABSOLUTE
    ..\FWLIB\src\stm32f4xx_cryp.c            0x00000000   Number         0  stm32f4xx_cryp.o ABSOLUTE
    ..\FWLIB\src\stm32f4xx_cryp_aes.c        0x00000000   Number         0  stm32f4xx_cryp_aes.o ABSOLUTE
    ..\FWLIB\src\stm32f4xx_cryp_des.c        0x00000000   Number         0  stm32f4xx_cryp_des.o ABSOLUTE
    ..\FWLIB\src\stm32f4xx_cryp_tdes.c       0x00000000   Number         0  stm32f4xx_cryp_tdes.o ABSOLUTE
    ..\FWLIB\src\stm32f4xx_dac.c             0x00000000   Number         0  stm32f4xx_dac.o ABSOLUTE
    ..\FWLIB\src\stm32f4xx_dbgmcu.c          0x00000000   Number         0  stm32f4xx_dbgmcu.o ABSOLUTE
    ..\FWLIB\src\stm32f4xx_dcmi.c            0x00000000   Number         0  stm32f4xx_dcmi.o ABSOLUTE
    ..\FWLIB\src\stm32f4xx_dma.c             0x00000000   Number         0  stm32f4xx_dma.o ABSOLUTE
    ..\FWLIB\src\stm32f4xx_dma2d.c           0x00000000   Number         0  stm32f4xx_dma2d.o ABSOLUTE
    ..\FWLIB\src\stm32f4xx_exti.c            0x00000000   Number         0  stm32f4xx_exti.o ABSOLUTE
    ..\FWLIB\src\stm32f4xx_flash.c           0x00000000   Number         0  stm32f4xx_flash.o ABSOLUTE
    ..\FWLIB\src\stm32f4xx_flash_ramfunc.c   0x00000000   Number         0  stm32f4xx_flash_ramfunc.o ABSOLUTE
    ..\FWLIB\src\stm32f4xx_fsmc.c            0x00000000   Number         0  stm32f4xx_fsmc.o ABSOLUTE
    ..\FWLIB\src\stm32f4xx_gpio.c            0x00000000   Number         0  stm32f4xx_gpio.o ABSOLUTE
    ..\FWLIB\src\stm32f4xx_hash.c            0x00000000   Number         0  stm32f4xx_hash.o ABSOLUTE
    ..\FWLIB\src\stm32f4xx_hash_md5.c        0x00000000   Number         0  stm32f4xx_hash_md5.o ABSOLUTE
    ..\FWLIB\src\stm32f4xx_hash_sha1.c       0x00000000   Number         0  stm32f4xx_hash_sha1.o ABSOLUTE
    ..\FWLIB\src\stm32f4xx_i2c.c             0x00000000   Number         0  stm32f4xx_i2c.o ABSOLUTE
    ..\FWLIB\src\stm32f4xx_iwdg.c            0x00000000   Number         0  stm32f4xx_iwdg.o ABSOLUTE
    ..\FWLIB\src\stm32f4xx_ltdc.c            0x00000000   Number         0  stm32f4xx_ltdc.o ABSOLUTE
    ..\FWLIB\src\stm32f4xx_pwr.c             0x00000000   Number         0  stm32f4xx_pwr.o ABSOLUTE
    ..\FWLIB\src\stm32f4xx_rcc.c             0x00000000   Number         0  stm32f4xx_rcc.o ABSOLUTE
    ..\FWLIB\src\stm32f4xx_rng.c             0x00000000   Number         0  stm32f4xx_rng.o ABSOLUTE
    ..\FWLIB\src\stm32f4xx_rtc.c             0x00000000   Number         0  stm32f4xx_rtc.o ABSOLUTE
    ..\FWLIB\src\stm32f4xx_sai.c             0x00000000   Number         0  stm32f4xx_sai.o ABSOLUTE
    ..\FWLIB\src\stm32f4xx_sdio.c            0x00000000   Number         0  stm32f4xx_sdio.o ABSOLUTE
    ..\FWLIB\src\stm32f4xx_spi.c             0x00000000   Number         0  stm32f4xx_spi.o ABSOLUTE
    ..\FWLIB\src\stm32f4xx_syscfg.c          0x00000000   Number         0  stm32f4xx_syscfg.o ABSOLUTE
    ..\FWLIB\src\stm32f4xx_tim.c             0x00000000   Number         0  stm32f4xx_tim.o ABSOLUTE
    ..\FWLIB\src\stm32f4xx_usart.c           0x00000000   Number         0  stm32f4xx_usart.o ABSOLUTE
    ..\FWLIB\src\stm32f4xx_wwdg.c            0x00000000   Number         0  stm32f4xx_wwdg.o ABSOLUTE
    ..\FreeRTOS\port\MemMang\heap_4.c        0x00000000   Number         0  heap_4.o ABSOLUTE
    ..\FreeRTOS\port\RVDS\ARM_CM4F\port.c    0x00000000   Number         0  port.o ABSOLUTE
    ..\FreeRTOS\src\croutine.c               0x00000000   Number         0  croutine.o ABSOLUTE
    ..\FreeRTOS\src\event_groups.c           0x00000000   Number         0  event_groups.o ABSOLUTE
    ..\FreeRTOS\src\list.c                   0x00000000   Number         0  list.o ABSOLUTE
    ..\FreeRTOS\src\queue.c                  0x00000000   Number         0  queue.o ABSOLUTE
    ..\FreeRTOS\src\tasks.c                  0x00000000   Number         0  tasks.o ABSOLUTE
    ..\FreeRTOS\src\timers.c                 0x00000000   Number         0  timers.o ABSOLUTE
    ..\HARDWARE\1.8TFT\GUI.c                 0x00000000   Number         0  gui.o ABSOLUTE
    ..\HARDWARE\1.8TFT\Lcd_Driver.c          0x00000000   Number         0  lcd_driver.o ABSOLUTE
    ..\HARDWARE\ADC\adc.c                    0x00000000   Number         0  adc.o ABSOLUTE
    ..\HARDWARE\BEEP\beep.c                  0x00000000   Number         0  beep.o ABSOLUTE
    ..\HARDWARE\Communication\bluetooth.c    0x00000000   Number         0  bluetooth.o ABSOLUTE
    ..\HARDWARE\Communication\cJSON.c        0x00000000   Number         0  cjson.o ABSOLUTE
    ..\HARDWARE\Communication\communication.c 0x00000000   Number         0  communication.o ABSOLUTE
    ..\HARDWARE\Control\fly.c                0x00000000   Number         0  fly.o ABSOLUTE
    ..\HARDWARE\LED\led.c                    0x00000000   Number         0  led.o ABSOLUTE
    ..\HARDWARE\MPU9250\mpu9250.c            0x00000000   Number         0  mpu9250.o ABSOLUTE
    ..\HARDWARE\Motor\pwm.c                  0x00000000   Number         0  pwm.o ABSOLUTE
    ..\HARDWARE\Myiic\myiic.c                0x00000000   Number         0  myiic.o ABSOLUTE
    ..\HARDWARE\PID\pid.c                    0x00000000   Number         0  pid.o ABSOLUTE
    ..\HARDWARE\Remote_Control\remote.c      0x00000000   Number         0  remote.o ABSOLUTE
    ..\HARDWARE\SPL06-001\SPL06_01.c         0x00000000   Number         0  spl06_01.o ABSOLUTE
    ..\HARDWARE\gps\gps.c                    0x00000000   Number         0  gps.o ABSOLUTE
    ..\SYSTEM\delay\delay.c                  0x00000000   Number         0  delay.o ABSOLUTE
    ..\SYSTEM\sys\sys.c                      0x00000000   Number         0  sys.o ABSOLUTE
    ..\SYSTEM\usart\usart.c                  0x00000000   Number         0  usart.o ABSOLUTE
    ..\\DMP\\driver\\eMPL\\inv_mpu.c         0x00000000   Number         0  inv_mpu.o ABSOLUTE
    ..\\DMP\\driver\\eMPL\\inv_mpu_dmp_motion_driver.c 0x00000000   Number         0  inv_mpu_dmp_motion_driver.o ABSOLUTE
    ..\\DMP\\driver\\stm32L\\log_stm32.c     0x00000000   Number         0  log_stm32.o ABSOLUTE
    ..\\FWLIB\\src\\misc.c                   0x00000000   Number         0  misc.o ABSOLUTE
    ..\\FWLIB\\src\\stm32f4xx_adc.c          0x00000000   Number         0  stm32f4xx_adc.o ABSOLUTE
    ..\\FWLIB\\src\\stm32f4xx_can.c          0x00000000   Number         0  stm32f4xx_can.o ABSOLUTE
    ..\\FWLIB\\src\\stm32f4xx_crc.c          0x00000000   Number         0  stm32f4xx_crc.o ABSOLUTE
    ..\\FWLIB\\src\\stm32f4xx_cryp.c         0x00000000   Number         0  stm32f4xx_cryp.o ABSOLUTE
    ..\\FWLIB\\src\\stm32f4xx_cryp_aes.c     0x00000000   Number         0  stm32f4xx_cryp_aes.o ABSOLUTE
    ..\\FWLIB\\src\\stm32f4xx_cryp_des.c     0x00000000   Number         0  stm32f4xx_cryp_des.o ABSOLUTE
    ..\\FWLIB\\src\\stm32f4xx_cryp_tdes.c    0x00000000   Number         0  stm32f4xx_cryp_tdes.o ABSOLUTE
    ..\\FWLIB\\src\\stm32f4xx_dac.c          0x00000000   Number         0  stm32f4xx_dac.o ABSOLUTE
    ..\\FWLIB\\src\\stm32f4xx_dbgmcu.c       0x00000000   Number         0  stm32f4xx_dbgmcu.o ABSOLUTE
    ..\\FWLIB\\src\\stm32f4xx_dcmi.c         0x00000000   Number         0  stm32f4xx_dcmi.o ABSOLUTE
    ..\\FWLIB\\src\\stm32f4xx_dma.c          0x00000000   Number         0  stm32f4xx_dma.o ABSOLUTE
    ..\\FWLIB\\src\\stm32f4xx_dma2d.c        0x00000000   Number         0  stm32f4xx_dma2d.o ABSOLUTE
    ..\\FWLIB\\src\\stm32f4xx_exti.c         0x00000000   Number         0  stm32f4xx_exti.o ABSOLUTE
    ..\\FWLIB\\src\\stm32f4xx_flash.c        0x00000000   Number         0  stm32f4xx_flash.o ABSOLUTE
    ..\\FWLIB\\src\\stm32f4xx_flash_ramfunc.c 0x00000000   Number         0  stm32f4xx_flash_ramfunc.o ABSOLUTE
    ..\\FWLIB\\src\\stm32f4xx_fsmc.c         0x00000000   Number         0  stm32f4xx_fsmc.o ABSOLUTE
    ..\\FWLIB\\src\\stm32f4xx_gpio.c         0x00000000   Number         0  stm32f4xx_gpio.o ABSOLUTE
    ..\\FWLIB\\src\\stm32f4xx_hash.c         0x00000000   Number         0  stm32f4xx_hash.o ABSOLUTE
    ..\\FWLIB\\src\\stm32f4xx_hash_md5.c     0x00000000   Number         0  stm32f4xx_hash_md5.o ABSOLUTE
    ..\\FWLIB\\src\\stm32f4xx_hash_sha1.c    0x00000000   Number         0  stm32f4xx_hash_sha1.o ABSOLUTE
    ..\\FWLIB\\src\\stm32f4xx_i2c.c          0x00000000   Number         0  stm32f4xx_i2c.o ABSOLUTE
    ..\\FWLIB\\src\\stm32f4xx_iwdg.c         0x00000000   Number         0  stm32f4xx_iwdg.o ABSOLUTE
    ..\\FWLIB\\src\\stm32f4xx_ltdc.c         0x00000000   Number         0  stm32f4xx_ltdc.o ABSOLUTE
    ..\\FWLIB\\src\\stm32f4xx_pwr.c          0x00000000   Number         0  stm32f4xx_pwr.o ABSOLUTE
    ..\\FWLIB\\src\\stm32f4xx_rcc.c          0x00000000   Number         0  stm32f4xx_rcc.o ABSOLUTE
    ..\\FWLIB\\src\\stm32f4xx_rng.c          0x00000000   Number         0  stm32f4xx_rng.o ABSOLUTE
    ..\\FWLIB\\src\\stm32f4xx_rtc.c          0x00000000   Number         0  stm32f4xx_rtc.o ABSOLUTE
    ..\\FWLIB\\src\\stm32f4xx_sai.c          0x00000000   Number         0  stm32f4xx_sai.o ABSOLUTE
    ..\\FWLIB\\src\\stm32f4xx_sdio.c         0x00000000   Number         0  stm32f4xx_sdio.o ABSOLUTE
    ..\\FWLIB\\src\\stm32f4xx_spi.c          0x00000000   Number         0  stm32f4xx_spi.o ABSOLUTE
    ..\\FWLIB\\src\\stm32f4xx_syscfg.c       0x00000000   Number         0  stm32f4xx_syscfg.o ABSOLUTE
    ..\\FWLIB\\src\\stm32f4xx_tim.c          0x00000000   Number         0  stm32f4xx_tim.o ABSOLUTE
    ..\\FWLIB\\src\\stm32f4xx_usart.c        0x00000000   Number         0  stm32f4xx_usart.o ABSOLUTE
    ..\\FWLIB\\src\\stm32f4xx_wwdg.c         0x00000000   Number         0  stm32f4xx_wwdg.o ABSOLUTE
    ..\\FreeRTOS\\port\\MemMang\\heap_4.c    0x00000000   Number         0  heap_4.o ABSOLUTE
    ..\\FreeRTOS\\port\\RVDS\\ARM_CM4F\\port.c 0x00000000   Number         0  port.o ABSOLUTE
    ..\\FreeRTOS\\src\\croutine.c            0x00000000   Number         0  croutine.o ABSOLUTE
    ..\\FreeRTOS\\src\\event_groups.c        0x00000000   Number         0  event_groups.o ABSOLUTE
    ..\\FreeRTOS\\src\\list.c                0x00000000   Number         0  list.o ABSOLUTE
    ..\\FreeRTOS\\src\\queue.c               0x00000000   Number         0  queue.o ABSOLUTE
    ..\\FreeRTOS\\src\\tasks.c               0x00000000   Number         0  tasks.o ABSOLUTE
    ..\\FreeRTOS\\src\\timers.c              0x00000000   Number         0  timers.o ABSOLUTE
    ..\\HARDWARE\\1.8TFT\\GUI.c              0x00000000   Number         0  gui.o ABSOLUTE
    ..\\HARDWARE\\1.8TFT\\Lcd_Driver.c       0x00000000   Number         0  lcd_driver.o ABSOLUTE
    ..\\HARDWARE\\ADC\\adc.c                 0x00000000   Number         0  adc.o ABSOLUTE
    ..\\HARDWARE\\BEEP\\beep.c               0x00000000   Number         0  beep.o ABSOLUTE
    ..\\HARDWARE\\Communication\\bluetooth.c 0x00000000   Number         0  bluetooth.o ABSOLUTE
    ..\\HARDWARE\\Communication\\communication.c 0x00000000   Number         0  communication.o ABSOLUTE
    ..\\HARDWARE\\Control\\fly.c             0x00000000   Number         0  fly.o ABSOLUTE
    ..\\HARDWARE\\LED\\led.c                 0x00000000   Number         0  led.o ABSOLUTE
    ..\\HARDWARE\\MPU9250\\mpu9250.c         0x00000000   Number         0  mpu9250.o ABSOLUTE
    ..\\HARDWARE\\Motor\\pwm.c               0x00000000   Number         0  pwm.o ABSOLUTE
    ..\\HARDWARE\\Myiic\\myiic.c             0x00000000   Number         0  myiic.o ABSOLUTE
    ..\\HARDWARE\\PID\\pid.c                 0x00000000   Number         0  pid.o ABSOLUTE
    ..\\HARDWARE\\Remote_Control\\remote.c   0x00000000   Number         0  remote.o ABSOLUTE
    ..\\HARDWARE\\SPL06-001\\SPL06_01.c      0x00000000   Number         0  spl06_01.o ABSOLUTE
    ..\\HARDWARE\\gps\\gps.c                 0x00000000   Number         0  gps.o ABSOLUTE
    ..\\SYSTEM\\delay\\delay.c               0x00000000   Number         0  delay.o ABSOLUTE
    ..\\SYSTEM\\sys\\sys.c                   0x00000000   Number         0  sys.o ABSOLUTE
    ..\\SYSTEM\\usart\\usart.c               0x00000000   Number         0  usart.o ABSOLUTE
    AllConfig\\init_config.c                 0x00000000   Number         0  init_config.o ABSOLUTE
    AllConfig\init_config.c                  0x00000000   Number         0  init_config.o ABSOLUTE
    MPL_LIB\mpl\accel_auto_cal.c             0x00000000   Number         0  accel_auto_cal.o ABSOLUTE
    MPL_LIB\mpl\compass_vec_cal.c            0x00000000   Number         0  compass_vec_cal.o ABSOLUTE
    MPL_LIB\mpl\fast_no_motion.c             0x00000000   Number         0  fast_no_motion.o ABSOLUTE
    MPL_LIB\mpl\fusion_9axis.c               0x00000000   Number         0  fusion_9axis.o ABSOLUTE
    MPL_LIB\mpl\gyro_tc.c                    0x00000000   Number         0  gyro_tc.o ABSOLUTE
    MPL_LIB\mpl\mag_disturb.c                0x00000000   Number         0  mag_disturb.o ABSOLUTE
    MPL_LIB\mpl\quaternion_supervisor.c      0x00000000   Number         0  quaternion_supervisor.o ABSOLUTE
    cdcmple.s                                0x00000000   Number         0  cdcmple.o ABSOLUTE
    cdrcmple.s                               0x00000000   Number         0  cdrcmple.o ABSOLUTE
    dc.s                                     0x00000000   Number         0  dc.o ABSOLUTE
    handlers.s                               0x00000000   Number         0  handlers.o ABSOLUTE
    init.s                                   0x00000000   Number         0  init.o ABSOLUTE
    main.c                                   0x00000000   Number         0  main.o ABSOLUTE
    main.c                                   0x00000000   Number         0  main.o ABSOLUTE
    stm32f4xx_it.c                           0x00000000   Number         0  stm32f4xx_it.o ABSOLUTE
    stm32f4xx_it.c                           0x00000000   Number         0  stm32f4xx_it.o ABSOLUTE
    system_stm32f4xx.c                       0x00000000   Number         0  system_stm32f4xx.o ABSOLUTE
    system_stm32f4xx.c                       0x00000000   Number         0  system_stm32f4xx.o ABSOLUTE
    RESET                                    0x08000000   Section      392  startup_stm32f40_41xxx.o(RESET)
    .ARM.Collect$$$$00000000                 0x08000188   Section        0  entry.o(.ARM.Collect$$$$00000000)
    .ARM.Collect$$$$00000001                 0x08000188   Section        4  entry2.o(.ARM.Collect$$$$00000001)
    .ARM.Collect$$$$00000004                 0x0800018c   Section        4  entry5.o(.ARM.Collect$$$$00000004)
    .ARM.Collect$$$$00000008                 0x08000190   Section        0  entry7b.o(.ARM.Collect$$$$00000008)
    .ARM.Collect$$$$0000000A                 0x08000190   Section        0  entry8b.o(.ARM.Collect$$$$0000000A)
    .ARM.Collect$$$$0000000B                 0x08000190   Section        8  entry9a.o(.ARM.Collect$$$$0000000B)
    .ARM.Collect$$$$0000000D                 0x08000198   Section        0  entry10a.o(.ARM.Collect$$$$0000000D)
    .ARM.Collect$$$$0000000F                 0x08000198   Section        0  entry11a.o(.ARM.Collect$$$$0000000F)
    .ARM.Collect$$$$00002712                 0x08000198   Section        4  entry2.o(.ARM.Collect$$$$00002712)
    __lit__00000000                          0x08000198   Data           4  entry2.o(.ARM.Collect$$$$00002712)
    .emb_text                                0x0800019c   Section      182  port.o(.emb_text)
    $v0                                      0x0800019c   Number         0  port.o(.emb_text)
    .text                                    0x08000254   Section       36  startup_stm32f40_41xxx.o(.text)
    $v0                                      0x08000254   Number         0  startup_stm32f40_41xxx.o(.text)
    .text                                    0x08000278   Section        0  compass_vec_cal.o(.text)
    inv_check_peaks                          0x08000281   Thumb Code   486  compass_vec_cal.o(.text)
    inv_ignore_compass_data                  0x08001aaf   Thumb Code   252  compass_vec_cal.o(.text)
    inv_bias_stability                       0x08001bab   Thumb Code   368  compass_vec_cal.o(.text)
    inv_set_peaks                            0x08002673   Thumb Code    86  compass_vec_cal.o(.text)
    inv_init_sensitivity_const               0x080026c9   Thumb Code    94  compass_vec_cal.o(.text)
    .text                                    0x08002768   Section        0  fast_no_motion.o(.text)
    inv_reset_packet                         0x08003151   Thumb Code    30  fast_no_motion.o(.text)
    .text                                    0x08003180   Section        0  fusion_9axis.o(.text)
    inv_find_synchronized_compass_angle      0x08003181   Thumb Code   172  fusion_9axis.o(.text)
    .text                                    0x08003830   Section        0  gyro_tc.o(.text)
    inv_gtc_load                             0x08003831   Thumb Code    38  gyro_tc.o(.text)
    inv_gtc_store                            0x08003857   Thumb Code    32  gyro_tc.o(.text)
    inv_gtc_compute_slope                    0x08003877   Thumb Code   478  gyro_tc.o(.text)
    inv_gtc_add_data                         0x08003a55   Thumb Code   204  gyro_tc.o(.text)
    inv_gtc_data_cb                          0x08003b21   Thumb Code   144  gyro_tc.o(.text)
    .text                                    0x08003cf4   Section        0  mag_disturb.o(.text)
    .text                                    0x080042b4   Section        0  quaternion_supervisor.o(.text)
    accel_fusion                             0x080042b5   Thumb Code   458  quaternion_supervisor.o(.text)
    inv_compute_quat_from_accel              0x0800447f   Thumb Code   300  quaternion_supervisor.o(.text)
    inv_normalize_quat                       0x080045ab   Thumb Code   194  quaternion_supervisor.o(.text)
    inv_process_dmp_quaternion               0x080047c9   Thumb Code   438  quaternion_supervisor.o(.text)
    inv_generate_quaternion                  0x08004b77   Thumb Code    68  quaternion_supervisor.o(.text)
    .text                                    0x08004c48   Section        0  accel_auto_cal.o(.text)
    inv_check_push                           0x08004ceb   Thumb Code   352  accel_auto_cal.o(.text)
    inv_check_coverage_set_bias              0x08004e4b   Thumb Code   318  accel_auto_cal.o(.text)
    inv_combine_data_calculate_bias          0x08004f89   Thumb Code   268  accel_auto_cal.o(.text)
    set_sample_rate                          0x0800541b   Thumb Code    82  accel_auto_cal.o(.text)
    .text                                    0x0800588c   Section        0  ldiv.o(.text)
    .text                                    0x080058ee   Section        0  llshl.o(.text)
    .text                                    0x0800590c   Section        0  llsshr.o(.text)
    .text                                    0x08005930   Section        0  memmovea.o(.text)
    .text                                    0x08005970   Section        0  memseta.o(.text)
    .text                                    0x08005994   Section        0  memcmp.o(.text)
    .text                                    0x080059ae   Section        0  dadd.o(.text)
    .text                                    0x08005afc   Section        0  dmul.o(.text)
    .text                                    0x08005be0   Section        0  ddiv.o(.text)
    .text                                    0x08005cbe   Section        0  ffltl.o(.text)
    .text                                    0x08005cea   Section        0  dflti.o(.text)
    .text                                    0x08005d0c   Section        0  ffixl.o(.text)
    .text                                    0x08005d4e   Section        0  dfixi.o(.text)
    .text                                    0x08005d8c   Section        0  f2d.o(.text)
    .text                                    0x08005db4   Section       48  cdcmple.o(.text)
    .text                                    0x08005de4   Section       48  cdrcmple.o(.text)
    .text                                    0x08005e14   Section        0  d2f.o(.text)
    .text                                    0x08005e4c   Section        0  uidiv.o(.text)
    .text                                    0x08005e78   Section        0  uldiv.o(.text)
    .text                                    0x08005eda   Section        0  llushr.o(.text)
    .text                                    0x08005efa   Section        0  fepilogue.o(.text)
    .text                                    0x08005efa   Section        0  iusefp.o(.text)
    .text                                    0x08005f68   Section        0  depilogue.o(.text)
    .text                                    0x08006022   Section        0  dscalb.o(.text)
    .text                                    0x08006050   Section        0  dsqrt.o(.text)
    .text                                    0x080060f2   Section        0  dfixul.o(.text)
    .text                                    0x08006124   Section       36  init.o(.text)
    .text                                    0x08006148   Section        0  dfltui.o(.text)
    .text                                    0x08006162   Section        0  __dczerorl2.o(.text)
    i.ADC_Cmd                                0x080061b8   Section        0  stm32f4xx_adc.o(i.ADC_Cmd)
    i.ADC_CommonInit                         0x080061d0   Section        0  stm32f4xx_adc.o(i.ADC_CommonInit)
    i.ADC_Init                               0x08006200   Section        0  stm32f4xx_adc.o(i.ADC_Init)
    i.ADC_RegularChannelConfig               0x08006254   Section        0  stm32f4xx_adc.o(i.ADC_RegularChannelConfig)
    i.ADC_TempSensorVrefintCmd               0x0800630c   Section        0  stm32f4xx_adc.o(i.ADC_TempSensorVrefintCmd)
    i.Adc_Init                               0x08006338   Section        0  adc.o(i.Adc_Init)
    i.AllInit                                0x080063dc   Section        0  init_config.o(i.AllInit)
    i.BEEP_Init                              0x08006494   Section        0  beep.o(i.BEEP_Init)
    i.BusFault_Handler                       0x080064e8   Section        0  stm32f4xx_it.o(i.BusFault_Handler)
    i.ControlPIDInit                         0x080064ec   Section        0  pid.o(i.ControlPIDInit)
    i.DebugMon_Handler                       0x080066b8   Section        0  stm32f4xx_it.o(i.DebugMon_Handler)
    i.DrvPpmGetOneCh                         0x080066bc   Section        0  communication.o(i.DrvPpmGetOneCh)
    i.DrvRcPpmInit                           0x08006724   Section        0  communication.o(i.DrvRcPpmInit)
    i.Float_to_Byte                          0x080067e0   Section        0  communication.o(i.Float_to_Byte)
    i.FlyStop                                0x08006800   Section        0  fly.o(i.FlyStop)
    i.GPIO_Init                              0x08006830   Section        0  stm32f4xx_gpio.o(i.GPIO_Init)
    i.GPIO_PinAFConfig                       0x080068c0   Section        0  stm32f4xx_gpio.o(i.GPIO_PinAFConfig)
    i.GPIO_ResetBits                         0x08006906   Section        0  stm32f4xx_gpio.o(i.GPIO_ResetBits)
    i.GPIO_SetBits                           0x0800690a   Section        0  stm32f4xx_gpio.o(i.GPIO_SetBits)
    i.GPIO_StructInit                        0x0800690e   Section        0  stm32f4xx_gpio.o(i.GPIO_StructInit)
    i.GPS_USART_init                         0x08006920   Section        0  gps.o(i.GPS_USART_init)
    i.GetPpmThrust                           0x080069d4   Section        0  communication.o(i.GetPpmThrust)
    i.Gui_DrawFont_GBK16                     0x080069e0   Section        0  gui.o(i.Gui_DrawFont_GBK16)
    i.Gui_DrawPoint                          0x08006b74   Section        0  lcd_driver.o(i.Gui_DrawPoint)
    i.HardFault_Handler                      0x08006ba2   Section        0  stm32f4xx_it.o(i.HardFault_Handler)
    i.IIC_Ack                                0x08006ba8   Section        0  myiic.o(i.IIC_Ack)
    i.IIC_Init                               0x08006bf8   Section        0  myiic.o(i.IIC_Init)
    i.IIC_NAck                               0x08006c18   Section        0  myiic.o(i.IIC_NAck)
    i.IIC_Read_Byte                          0x08006c68   Section        0  myiic.o(i.IIC_Read_Byte)
    i.IIC_Send_Byte                          0x08006cd4   Section        0  myiic.o(i.IIC_Send_Byte)
    i.IIC_Start                              0x08006d3c   Section        0  myiic.o(i.IIC_Start)
    i.IIC_Stop                               0x08006d88   Section        0  myiic.o(i.IIC_Stop)
    i.IIC_Wait_Ack                           0x08006dd4   Section        0  myiic.o(i.IIC_Wait_Ack)
    i.JustFloat_send                         0x08006e34   Section        0  communication.o(i.JustFloat_send)
    i.LCD_GPIO_Init                          0x08006ee0   Section        0  lcd_driver.o(i.LCD_GPIO_Init)
    i.LCD_SetParam                           0x08006f50   Section        0  lcd_driver.o(i.LCD_SetParam)
    i.LED_Blink                              0x08006f7c   Section        0  led.o(i.LED_Blink)
    i.LED_Init                               0x08006fa8   Section        0  led.o(i.LED_Init)
    i.Lcd_Clear                              0x08006fe8   Section        0  lcd_driver.o(i.Lcd_Clear)
    i.Lcd_Init                               0x08007020   Section        0  lcd_driver.o(i.Lcd_Init)
    i.Lcd_Reset                              0x080071f4   Section        0  lcd_driver.o(i.Lcd_Reset)
    i.Lcd_SetRegion                          0x08007220   Section        0  lcd_driver.o(i.Lcd_SetRegion)
    i.Lcd_WriteData                          0x08007274   Section        0  lcd_driver.o(i.Lcd_WriteData)
    i.Lcd_WriteIndex                         0x080072a4   Section        0  lcd_driver.o(i.Lcd_WriteIndex)
    i.Lcd_WriteReg                           0x080072d4   Section        0  lcd_driver.o(i.Lcd_WriteReg)
    i.MPU_Get_Gyrofloat                      0x080072e8   Section        0  mpu9250.o(i.MPU_Get_Gyrofloat)
    i.MPU_Get_Gyroscope                      0x08007360   Section        0  mpu9250.o(i.MPU_Get_Gyroscope)
    i.MPU_Read_Len                           0x080073b0   Section        0  mpu9250.o(i.MPU_Read_Len)
    i.MPU_Write_Len                          0x08007424   Section        0  mpu9250.o(i.MPU_Write_Len)
    i.MemManage_Handler                      0x08007484   Section        0  stm32f4xx_it.o(i.MemManage_Handler)
    i.MotorControl                           0x08007488   Section        0  pid.o(i.MotorControl)
    i.NMI_Handler                            0x08007624   Section        0  stm32f4xx_it.o(i.NMI_Handler)
    i.NVIC_Init                              0x08007628   Section        0  misc.o(i.NVIC_Init)
    i.NVIC_PriorityGroupConfig               0x080076a0   Section        0  misc.o(i.NVIC_PriorityGroupConfig)
    i.PID_Runing                             0x080076b4   Section        0  pid.o(i.PID_Runing)
    i.PPM_IRQH                               0x080077e4   Section        0  communication.o(i.PPM_IRQH)
    i.RCC_AHB1PeriphClockCmd                 0x0800783c   Section        0  stm32f4xx_rcc.o(i.RCC_AHB1PeriphClockCmd)
    i.RCC_APB1PeriphClockCmd                 0x0800785c   Section        0  stm32f4xx_rcc.o(i.RCC_APB1PeriphClockCmd)
    i.RCC_APB2PeriphClockCmd                 0x0800787c   Section        0  stm32f4xx_rcc.o(i.RCC_APB2PeriphClockCmd)
    i.RCC_APB2PeriphResetCmd                 0x0800789c   Section        0  stm32f4xx_rcc.o(i.RCC_APB2PeriphResetCmd)
    i.RCC_GetClocksFreq                      0x080078bc   Section        0  stm32f4xx_rcc.o(i.RCC_GetClocksFreq)
    i.SPI_WriteData                          0x080079a4   Section        0  lcd_driver.o(i.SPI_WriteData)
    i.Serial_SendArray                       0x080079f0   Section        0  communication.o(i.Serial_SendArray)
    i.Serial_SendByte                        0x08007a0c   Section        0  communication.o(i.Serial_SendByte)
    i.SetLimit                               0x08007a2c   Section        0  pid.o(i.SetLimit)
    i.SetSysClock                            0x08007a38   Section        0  system_stm32f4xx.o(i.SetSysClock)
    SetSysClock                              0x08007a39   Thumb Code   220  system_stm32f4xx.o(i.SetSysClock)
    i.SetThrust                              0x08007b24   Section        0  pid.o(i.SetThrust)
    i.SysTick_CLKSourceConfig                0x08007b38   Section        0  misc.o(i.SysTick_CLKSourceConfig)
    i.SysTick_Handler                        0x08007b60   Section        0  delay.o(i.SysTick_Handler)
    i.SystemInit                             0x08007b70   Section        0  system_stm32f4xx.o(i.SystemInit)
    i.TI1_Config                             0x08007bd8   Section        0  stm32f4xx_tim.o(i.TI1_Config)
    TI1_Config                               0x08007bd9   Thumb Code    58  stm32f4xx_tim.o(i.TI1_Config)
    i.TI2_Config                             0x08007c12   Section        0  stm32f4xx_tim.o(i.TI2_Config)
    TI2_Config                               0x08007c13   Thumb Code    80  stm32f4xx_tim.o(i.TI2_Config)
    i.TI3_Config                             0x08007c62   Section        0  stm32f4xx_tim.o(i.TI3_Config)
    TI3_Config                               0x08007c63   Thumb Code    72  stm32f4xx_tim.o(i.TI3_Config)
    i.TI4_Config                             0x08007caa   Section        0  stm32f4xx_tim.o(i.TI4_Config)
    TI4_Config                               0x08007cab   Thumb Code    80  stm32f4xx_tim.o(i.TI4_Config)
    i.TIM3_PWM_Init                          0x08007cfc   Section        0  pwm.o(i.TIM3_PWM_Init)
    i.TIM4_IRQHandler                        0x08007e10   Section        0  communication.o(i.TIM4_IRQHandler)
    i.TIM_ARRPreloadConfig                   0x08007e18   Section        0  stm32f4xx_tim.o(i.TIM_ARRPreloadConfig)
    i.TIM_Cmd                                0x08007e30   Section        0  stm32f4xx_tim.o(i.TIM_Cmd)
    i.TIM_GetCapture3                        0x08007e48   Section        0  stm32f4xx_tim.o(i.TIM_GetCapture3)
    i.TIM_ICInit                             0x08007e4e   Section        0  stm32f4xx_tim.o(i.TIM_ICInit)
    i.TIM_ICStructInit                       0x08007ebc   Section        0  stm32f4xx_tim.o(i.TIM_ICStructInit)
    i.TIM_ITConfig                           0x08007ece   Section        0  stm32f4xx_tim.o(i.TIM_ITConfig)
    i.TIM_OC1Init                            0x08007ee0   Section        0  stm32f4xx_tim.o(i.TIM_OC1Init)
    i.TIM_OC1PreloadConfig                   0x08007f5c   Section        0  stm32f4xx_tim.o(i.TIM_OC1PreloadConfig)
    i.TIM_OC2Init                            0x08007f70   Section        0  stm32f4xx_tim.o(i.TIM_OC2Init)
    i.TIM_OC2PreloadConfig                   0x08008014   Section        0  stm32f4xx_tim.o(i.TIM_OC2PreloadConfig)
    i.TIM_OC3Init                            0x08008030   Section        0  stm32f4xx_tim.o(i.TIM_OC3Init)
    i.TIM_OC3PreloadConfig                   0x080080d0   Section        0  stm32f4xx_tim.o(i.TIM_OC3PreloadConfig)
    i.TIM_OC4Init                            0x080080e4   Section        0  stm32f4xx_tim.o(i.TIM_OC4Init)
    i.TIM_OC4PreloadConfig                   0x0800815c   Section        0  stm32f4xx_tim.o(i.TIM_OC4PreloadConfig)
    i.TIM_SetCompare1                        0x08008176   Section        0  stm32f4xx_tim.o(i.TIM_SetCompare1)
    i.TIM_SetCompare2                        0x0800817a   Section        0  stm32f4xx_tim.o(i.TIM_SetCompare2)
    i.TIM_SetCompare3                        0x0800817e   Section        0  stm32f4xx_tim.o(i.TIM_SetCompare3)
    i.TIM_SetCompare4                        0x08008182   Section        0  stm32f4xx_tim.o(i.TIM_SetCompare4)
    i.TIM_SetIC1Prescaler                    0x08008186   Section        0  stm32f4xx_tim.o(i.TIM_SetIC1Prescaler)
    i.TIM_SetIC2Prescaler                    0x08008198   Section        0  stm32f4xx_tim.o(i.TIM_SetIC2Prescaler)
    i.TIM_SetIC3Prescaler                    0x080081b2   Section        0  stm32f4xx_tim.o(i.TIM_SetIC3Prescaler)
    i.TIM_SetIC4Prescaler                    0x080081c4   Section        0  stm32f4xx_tim.o(i.TIM_SetIC4Prescaler)
    i.TIM_TimeBaseInit                       0x080081e0   Section        0  stm32f4xx_tim.o(i.TIM_TimeBaseInit)
    i.USART1_IRQHandler                      0x08008264   Section        0  usart.o(i.USART1_IRQHandler)
    i.USART2_IRQHandler                      0x080082fc   Section        0  gps.o(i.USART2_IRQHandler)
    i.USART_ClearFlag                        0x080083c0   Section        0  stm32f4xx_usart.o(i.USART_ClearFlag)
    i.USART_ClearITPendingBit                0x080083d2   Section        0  stm32f4xx_usart.o(i.USART_ClearITPendingBit)
    i.USART_Cmd                              0x080083f0   Section        0  stm32f4xx_usart.o(i.USART_Cmd)
    i.USART_GetFlagStatus                    0x08008408   Section        0  stm32f4xx_usart.o(i.USART_GetFlagStatus)
    i.USART_GetITStatus                      0x08008422   Section        0  stm32f4xx_usart.o(i.USART_GetITStatus)
    i.USART_ITConfig                         0x08008476   Section        0  stm32f4xx_usart.o(i.USART_ITConfig)
    i.USART_Init                             0x080084c0   Section        0  stm32f4xx_usart.o(i.USART_Init)
    i.USART_ReceiveData                      0x08008594   Section        0  stm32f4xx_usart.o(i.USART_ReceiveData)
    i.USART_SendData                         0x0800859e   Section        0  stm32f4xx_usart.o(i.USART_SendData)
    i.UsageFault_Handler                     0x080085a6   Section        0  stm32f4xx_it.o(i.UsageFault_Handler)
    i._MLPrintLog                            0x080085aa   Section        0  log_stm32.o(i._MLPrintLog)
    i.__0printf                              0x08008674   Section        0  printfa.o(i.__0printf)
    i.__0vsprintf                            0x08008694   Section        0  printfa.o(i.__0vsprintf)
    i.__ARM_fpclassify                       0x080086b8   Section        0  fpclassify.o(i.__ARM_fpclassify)
    i.__ARM_fpclassifyf                      0x080086e8   Section        0  fpclassifyf.o(i.__ARM_fpclassifyf)
    i.__hardfp_acosf                         0x08008710   Section        0  acosf.o(i.__hardfp_acosf)
    i.__hardfp_atan2f                        0x08008828   Section        0  atan2f.o(i.__hardfp_atan2f)
    i.__hardfp_cos                           0x08008a78   Section        0  cos.o(i.__hardfp_cos)
    i.__hardfp_cosf                          0x08008b40   Section        0  cosf.o(i.__hardfp_cosf)
    i.__hardfp_fabs                          0x08008c90   Section        0  fabs.o(i.__hardfp_fabs)
    i.__hardfp_log                           0x08008ca8   Section        0  log.o(i.__hardfp_log)
    i.__hardfp_pow                           0x08009070   Section        0  pow.o(i.__hardfp_pow)
    i.__hardfp_sinf                          0x08009ca8   Section        0  sinf.o(i.__hardfp_sinf)
    i.__hardfp_sqrt                          0x08009e38   Section        0  sqrt.o(i.__hardfp_sqrt)
    i.__hardfp_sqrtf                         0x08009eb2   Section        0  sqrtf.o(i.__hardfp_sqrtf)
    i.__ieee754_rem_pio2                     0x08009ef0   Section        0  rred.o(i.__ieee754_rem_pio2)
    i.__kernel_cos                           0x0800a328   Section        0  cos_i.o(i.__kernel_cos)
    i.__kernel_poly                          0x0800a498   Section        0  poly.o(i.__kernel_poly)
    i.__kernel_sin                           0x0800a590   Section        0  sin_i.o(i.__kernel_sin)
    i.__mathlib_dbl_divzero                  0x0800a6c0   Section        0  dunder.o(i.__mathlib_dbl_divzero)
    i.__mathlib_dbl_infnan                   0x0800a6f0   Section        0  dunder.o(i.__mathlib_dbl_infnan)
    i.__mathlib_dbl_infnan2                  0x0800a704   Section        0  dunder.o(i.__mathlib_dbl_infnan2)
    i.__mathlib_dbl_invalid                  0x0800a718   Section        0  dunder.o(i.__mathlib_dbl_invalid)
    i.__mathlib_dbl_overflow                 0x0800a738   Section        0  dunder.o(i.__mathlib_dbl_overflow)
    i.__mathlib_dbl_underflow                0x0800a758   Section        0  dunder.o(i.__mathlib_dbl_underflow)
    i.__mathlib_flt_infnan                   0x0800a778   Section        0  funder.o(i.__mathlib_flt_infnan)
    i.__mathlib_flt_infnan2                  0x0800a77e   Section        0  funder.o(i.__mathlib_flt_infnan2)
    i.__mathlib_flt_invalid                  0x0800a784   Section        0  funder.o(i.__mathlib_flt_invalid)
    i.__mathlib_flt_underflow                0x0800a794   Section        0  funder.o(i.__mathlib_flt_underflow)
    i.__mathlib_rredf2                       0x0800a7a4   Section        0  rredf.o(i.__mathlib_rredf2)
    i.__print_result_location                0x0800a8f8   Section        0  mpl.o(i.__print_result_location)
    __print_result_location                  0x0800a8f9   Thumb Code    28  mpl.o(i.__print_result_location)
    i.__scatterload_copy                     0x0800a92c   Section       14  handlers.o(i.__scatterload_copy)
    i.__scatterload_null                     0x0800a93a   Section        2  handlers.o(i.__scatterload_null)
    i.__scatterload_zeroinit                 0x0800a93c   Section       14  handlers.o(i.__scatterload_zeroinit)
    i.__set_errno                            0x0800a94c   Section        0  errno.o(i.__set_errno)
    i._fp_digits                             0x0800a958   Section        0  printfa.o(i._fp_digits)
    _fp_digits                               0x0800a959   Thumb Code   334  printfa.o(i._fp_digits)
    i._printf_core                           0x0800aabc   Section        0  printfa.o(i._printf_core)
    _printf_core                             0x0800aabd   Thumb Code  1744  printfa.o(i._printf_core)
    i._printf_post_padding                   0x0800b198   Section        0  printfa.o(i._printf_post_padding)
    _printf_post_padding                     0x0800b199   Thumb Code    36  printfa.o(i._printf_post_padding)
    i._printf_pre_padding                    0x0800b1bc   Section        0  printfa.o(i._printf_pre_padding)
    _printf_pre_padding                      0x0800b1bd   Thumb Code    46  printfa.o(i._printf_pre_padding)
    i._sputc                                 0x0800b1ea   Section        0  printfa.o(i._sputc)
    _sputc                                   0x0800b1eb   Thumb Code    10  printfa.o(i._sputc)
    i.accel_6500_self_test                   0x0800b1f4   Section        0  inv_mpu.o(i.accel_6500_self_test)
    accel_6500_self_test                     0x0800b1f5   Thumb Code  1476  inv_mpu.o(i.accel_6500_self_test)
    i.altitude11                             0x0800b808   Section        0  spl06_01.o(i.altitude11)
    altitude11                               0x0800b809   Thumb Code   106  spl06_01.o(i.altitude11)
    i.compass_self_test                      0x0800b890   Section        0  inv_mpu.o(i.compass_self_test)
    compass_self_test                        0x0800b891   Thumb Code   326  inv_mpu.o(i.compass_self_test)
    i.decode_gesture                         0x0800b9dc   Section        0  inv_mpu_dmp_motion_driver.o(i.decode_gesture)
    decode_gesture                           0x0800b9dd   Thumb Code    94  inv_mpu_dmp_motion_driver.o(i.decode_gesture)
    i.delay_init                             0x0800ba40   Section        0  delay.o(i.delay_init)
    i.delay_ms                               0x0800ba84   Section        0  delay.o(i.delay_ms)
    i.delay_us                               0x0800bac8   Section        0  delay.o(i.delay_us)
    i.dmp_enable_6x_lp_quat                  0x0800bb10   Section        0  inv_mpu_dmp_motion_driver.o(i.dmp_enable_6x_lp_quat)
    i.dmp_enable_feature                     0x0800bb4c   Section        0  inv_mpu_dmp_motion_driver.o(i.dmp_enable_feature)
    i.dmp_enable_gyro_cal                    0x0800bd68   Section        0  inv_mpu_dmp_motion_driver.o(i.dmp_enable_gyro_cal)
    i.dmp_enable_lp_quat                     0x0800bdc0   Section        0  inv_mpu_dmp_motion_driver.o(i.dmp_enable_lp_quat)
    i.dmp_load_motion_driver_firmware        0x0800bdfc   Section        0  inv_mpu_dmp_motion_driver.o(i.dmp_load_motion_driver_firmware)
    i.dmp_read_fifo                          0x0800be14   Section        0  inv_mpu_dmp_motion_driver.o(i.dmp_read_fifo)
    i.dmp_set_accel_bias                     0x0800bfe0   Section        0  inv_mpu_dmp_motion_driver.o(i.dmp_set_accel_bias)
    i.dmp_set_fifo_rate                      0x0800c110   Section        0  inv_mpu_dmp_motion_driver.o(i.dmp_set_fifo_rate)
    i.dmp_set_gyro_bias                      0x0800c180   Section        0  inv_mpu_dmp_motion_driver.o(i.dmp_set_gyro_bias)
    i.dmp_set_orientation                    0x0800c2b0   Section        0  inv_mpu_dmp_motion_driver.o(i.dmp_set_orientation)
    i.dmp_set_shake_reject_thresh            0x0800c3e8   Section        0  inv_mpu_dmp_motion_driver.o(i.dmp_set_shake_reject_thresh)
    i.dmp_set_shake_reject_time              0x0800c420   Section        0  inv_mpu_dmp_motion_driver.o(i.dmp_set_shake_reject_time)
    i.dmp_set_shake_reject_timeout           0x0800c446   Section        0  inv_mpu_dmp_motion_driver.o(i.dmp_set_shake_reject_timeout)
    i.dmp_set_tap_axes                       0x0800c46c   Section        0  inv_mpu_dmp_motion_driver.o(i.dmp_set_tap_axes)
    i.dmp_set_tap_count                      0x0800c4b2   Section        0  inv_mpu_dmp_motion_driver.o(i.dmp_set_tap_count)
    i.dmp_set_tap_thresh                     0x0800c4d8   Section        0  inv_mpu_dmp_motion_driver.o(i.dmp_set_tap_thresh)
    i.dmp_set_tap_time                       0x0800c698   Section        0  inv_mpu_dmp_motion_driver.o(i.dmp_set_tap_time)
    i.dmp_set_tap_time_multi                 0x0800c6be   Section        0  inv_mpu_dmp_motion_driver.o(i.dmp_set_tap_time_multi)
    i.fabs                                   0x0800c6e4   Section        0  fabs.o(i.fabs)
    i.fputc                                  0x0800c6fc   Section        0  usart.o(i.fputc)
    i.get_st_6500_biases                     0x0800c718   Section        0  inv_mpu.o(i.get_st_6500_biases)
    get_st_6500_biases                       0x0800c719   Thumb Code  1534  inv_mpu.o(i.get_st_6500_biases)
    i.gyro_6500_self_test                    0x0800cd88   Section        0  inv_mpu.o(i.gyro_6500_self_test)
    gyro_6500_self_test                      0x0800cd89   Thumb Code  1430  inv_mpu.o(i.gyro_6500_self_test)
    i.iic_gpio_deinit                        0x0800d344   Section        0  myiic.o(i.iic_gpio_deinit)
    iic_gpio_deinit                          0x0800d345   Thumb Code    40  myiic.o(i.iic_gpio_deinit)
    i.iic_gpio_init                          0x0800d370   Section        0  myiic.o(i.iic_gpio_init)
    iic_gpio_init                            0x0800d371   Thumb Code    48  myiic.o(i.iic_gpio_init)
    i.inv_apply_calibration                  0x0800d3a4   Section        0  data_builder.o(i.inv_apply_calibration)
    i.inv_build_accel                        0x0800d410   Section        0  data_builder.o(i.inv_build_accel)
    i.inv_build_compass                      0x0800d49c   Section        0  data_builder.o(i.inv_build_compass)
    i.inv_build_gyro                         0x0800d54c   Section        0  data_builder.o(i.inv_build_gyro)
    i.inv_build_temp                         0x0800d584   Section        0  data_builder.o(i.inv_build_temp)
    i.inv_compass_angle                      0x0800d5b0   Section        0  ml_math_func.o(i.inv_compass_angle)
    i.inv_convert_to_body_with_scale         0x0800d660   Section        0  ml_math_func.o(i.inv_convert_to_body_with_scale)
    i.inv_db_load_func                       0x0800d6d4   Section        0  data_builder.o(i.inv_db_load_func)
    inv_db_load_func                         0x0800d6d5   Thumb Code    70  data_builder.o(i.inv_db_load_func)
    i.inv_db_save_func                       0x0800d724   Section        0  data_builder.o(i.inv_db_save_func)
    inv_db_save_func                         0x0800d725   Thumb Code    18  data_builder.o(i.inv_db_save_func)
    i.inv_disable_compass_soft_iron_matrix   0x0800d73c   Section        0  data_builder.o(i.inv_disable_compass_soft_iron_matrix)
    i.inv_enable_eMPL_outputs                0x0800d74c   Section        0  empl_outputs.o(i.inv_enable_eMPL_outputs)
    i.inv_enable_results_holder              0x0800d768   Section        0  results_holder.o(i.inv_enable_results_holder)
    i.inv_execute_mpl_start_notification     0x0800d788   Section        0  start_manager.o(i.inv_execute_mpl_start_notification)
    i.inv_execute_on_data                    0x0800d7b4   Section        0  data_builder.o(i.inv_execute_on_data)
    i.inv_generate_eMPL_outputs              0x0800d854   Section        0  empl_outputs.o(i.inv_generate_eMPL_outputs)
    inv_generate_eMPL_outputs                0x0800d855   Thumb Code   236  empl_outputs.o(i.inv_generate_eMPL_outputs)
    i.inv_generate_results                   0x0800d944   Section        0  results_holder.o(i.inv_generate_results)
    i.inv_get_6axis_quaternion               0x0800d954   Section        0  results_holder.o(i.inv_get_6axis_quaternion)
    i.inv_get_acc_state                      0x0800d96c   Section        0  results_holder.o(i.inv_get_acc_state)
    i.inv_get_accel_accuracy                 0x0800d978   Section        0  data_builder.o(i.inv_get_accel_accuracy)
    i.inv_get_accel_on                       0x0800d984   Section        0  data_builder.o(i.inv_get_accel_on)
    i.inv_get_accel_set                      0x0800d994   Section        0  data_builder.o(i.inv_get_accel_set)
    i.inv_get_compass_bias                   0x0800d9c0   Section        0  data_builder.o(i.inv_get_compass_bias)
    i.inv_get_compass_correction             0x0800d9d8   Section        0  results_holder.o(i.inv_get_compass_correction)
    i.inv_get_compass_on                     0x0800d9f0   Section        0  data_builder.o(i.inv_get_compass_on)
    i.inv_get_compass_soft_iron_output_data  0x0800da00   Section        0  data_builder.o(i.inv_get_compass_soft_iron_output_data)
    i.inv_get_compass_state                  0x0800da1c   Section        0  results_holder.o(i.inv_get_compass_state)
    i.inv_get_gravity                        0x0800da28   Section        0  results_holder.o(i.inv_get_gravity)
    i.inv_get_gyro                           0x0800da88   Section        0  data_builder.o(i.inv_get_gyro)
    i.inv_get_gyro_accuracy                  0x0800da98   Section        0  data_builder.o(i.inv_get_gyro_accuracy)
    i.inv_get_gyro_bias                      0x0800daa4   Section        0  data_builder.o(i.inv_get_gyro_bias)
    i.inv_get_gyro_bias_tc_set               0x0800dac8   Section        0  data_builder.o(i.inv_get_gyro_bias_tc_set)
    i.inv_get_gyro_on                        0x0800dae8   Section        0  data_builder.o(i.inv_get_gyro_on)
    i.inv_get_gyro_sum_of_sqr                0x0800daf8   Section        0  ml_math_func.o(i.inv_get_gyro_sum_of_sqr)
    i.inv_get_large_mag_field                0x0800db14   Section        0  results_holder.o(i.inv_get_large_mag_field)
    i.inv_get_last_timestamp                 0x0800db20   Section        0  data_builder.o(i.inv_get_last_timestamp)
    i.inv_get_linear_accel                   0x0800db88   Section        0  results_holder.o(i.inv_get_linear_accel)
    i.inv_get_linear_accel_float             0x0800dbc4   Section        0  results_holder.o(i.inv_get_linear_accel_float)
    i.inv_get_local_field                    0x0800dc08   Section        0  results_holder.o(i.inv_get_local_field)
    i.inv_get_mag_accuracy                   0x0800dc18   Section        0  data_builder.o(i.inv_get_mag_accuracy)
    i.inv_get_motion_state                   0x0800dc34   Section        0  results_holder.o(i.inv_get_motion_state)
    i.inv_get_quaternion                     0x0800dc48   Section        0  results_holder.o(i.inv_get_quaternion)
    i.inv_get_quaternion_set                 0x0800dc84   Section        0  results_holder.o(i.inv_get_quaternion_set)
    i.inv_get_sensor_type_euler              0x0800dcc8   Section        0  empl_outputs.o(i.inv_get_sensor_type_euler)
    i.inv_get_sensor_type_gravity            0x0800df30   Section        0  hal_outputs.o(i.inv_get_sensor_type_gravity)
    i.inv_got_compass_bias                   0x0800dfa0   Section        0  results_holder.o(i.inv_got_compass_bias)
    i.inv_init_data_builder                  0x0800dfac   Section        0  data_builder.o(i.inv_init_data_builder)
    i.inv_init_eMPL_outputs                  0x0800dfe8   Section        0  empl_outputs.o(i.inv_init_eMPL_outputs)
    inv_init_eMPL_outputs                    0x0800dfe9   Thumb Code    14  empl_outputs.o(i.inv_init_eMPL_outputs)
    i.inv_init_mpl                           0x0800dffc   Section        0  mpl.o(i.inv_init_mpl)
    i.inv_init_results_holder                0x0800e080   Section        0  results_holder.o(i.inv_init_results_holder)
    i.inv_init_start_manager                 0x0800e0bc   Section        0  start_manager.o(i.inv_init_start_manager)
    i.inv_init_storage_manager               0x0800e0d0   Section        0  storage_manager.o(i.inv_init_storage_manager)
    i.inv_orientation_matrix_to_scalar       0x0800e0e8   Section        0  ml_math_func.o(i.inv_orientation_matrix_to_scalar)
    i.inv_q29_mult                           0x0800e110   Section        0  ml_math_func.o(i.inv_q29_mult)
    i.inv_q30_mult                           0x0800e122   Section        0  ml_math_func.o(i.inv_q30_mult)
    i.inv_q30_to_float                       0x0800e134   Section        0  ml_math_func.o(i.inv_q30_to_float)
    inv_q30_to_float                         0x0800e135   Thumb Code    18  ml_math_func.o(i.inv_q30_to_float)
    i.inv_q_add                              0x0800e14c   Section        0  ml_math_func.o(i.inv_q_add)
    i.inv_q_addf                             0x0800e170   Section        0  ml_math_func.o(i.inv_q_addf)
    i.inv_q_invert                           0x0800e1b2   Section        0  ml_math_func.o(i.inv_q_invert)
    i.inv_q_invertf                          0x0800e1ca   Section        0  ml_math_func.o(i.inv_q_invertf)
    i.inv_q_mult                             0x0800e1f8   Section        0  ml_math_func.o(i.inv_q_mult)
    i.inv_q_multf                            0x0800e2aa   Section        0  ml_math_func.o(i.inv_q_multf)
    i.inv_q_norm4                            0x0800e37c   Section        0  ml_math_func.o(i.inv_q_norm4)
    i.inv_q_normalizef                       0x0800e424   Section        0  ml_math_func.o(i.inv_q_normalizef)
    i.inv_q_rotate                           0x0800e558   Section        0  ml_math_func.o(i.inv_q_rotate)
    i.inv_quaternion_to_rotation             0x0800e59a   Section        0  ml_math_func.o(i.inv_quaternion_to_rotation)
    i.inv_register_data_cb                   0x0800e674   Section        0  data_builder.o(i.inv_register_data_cb)
    i.inv_register_load_store                0x0800e76c   Section        0  storage_manager.o(i.inv_register_load_store)
    i.inv_register_mpl_start_notification    0x0800e7fc   Section        0  start_manager.o(i.inv_register_mpl_start_notification)
    i.inv_reset_compass_soft_iron_matrix     0x0800e828   Section        0  data_builder.o(i.inv_reset_compass_soft_iron_matrix)
    i.inv_row_2_scale                        0x0800e880   Section        0  ml_math_func.o(i.inv_row_2_scale)
    inv_row_2_scale                          0x0800e881   Thumb Code    78  ml_math_func.o(i.inv_row_2_scale)
    i.inv_set_accel_accuracy                 0x0800e8d0   Section        0  data_builder.o(i.inv_set_accel_accuracy)
    i.inv_set_accel_bias_found               0x0800e8f4   Section        0  results_holder.o(i.inv_set_accel_bias_found)
    i.inv_set_accel_bias_mask                0x0800e900   Section        0  data_builder.o(i.inv_set_accel_bias_mask)
    i.inv_set_accel_orientation_and_scale    0x0800e960   Section        0  data_builder.o(i.inv_set_accel_orientation_and_scale)
    i.inv_set_accel_sample_rate              0x0800e978   Section        0  data_builder.o(i.inv_set_accel_sample_rate)
    i.inv_set_compass_bias                   0x0800e9a4   Section        0  data_builder.o(i.inv_set_compass_bias)
    i.inv_set_compass_bias_error             0x0800e9f0   Section        0  results_holder.o(i.inv_set_compass_bias_error)
    i.inv_set_compass_bias_found             0x0800ea04   Section        0  results_holder.o(i.inv_set_compass_bias_found)
    i.inv_set_compass_correction             0x0800ea10   Section        0  results_holder.o(i.inv_set_compass_correction)
    i.inv_set_compass_disturbance            0x0800ea34   Section        0  data_builder.o(i.inv_set_compass_disturbance)
    i.inv_set_compass_orientation_and_scale  0x0800ea40   Section        0  data_builder.o(i.inv_set_compass_orientation_and_scale)
    i.inv_set_compass_sample_rate            0x0800ea58   Section        0  data_builder.o(i.inv_set_compass_sample_rate)
    i.inv_set_compass_soft_iron_input_data   0x0800ea88   Section        0  data_builder.o(i.inv_set_compass_soft_iron_input_data)
    i.inv_set_compass_state                  0x0800eadc   Section        0  results_holder.o(i.inv_set_compass_state)
    i.inv_set_contiguous                     0x0800eae8   Section        0  data_builder.o(i.inv_set_contiguous)
    inv_set_contiguous                       0x0800eae9   Thumb Code   282  data_builder.o(i.inv_set_contiguous)
    i.inv_set_gyro_bias                      0x0800ec08   Section        0  data_builder.o(i.inv_set_gyro_bias)
    i.inv_set_gyro_orientation_and_scale     0x0800ec7c   Section        0  data_builder.o(i.inv_set_gyro_orientation_and_scale)
    i.inv_set_gyro_sample_rate               0x0800ec94   Section        0  data_builder.o(i.inv_set_gyro_sample_rate)
    i.inv_set_message                        0x0800ecbc   Section        0  message_layer.o(i.inv_set_message)
    i.inv_set_motion_state                   0x0800ecd8   Section        0  results_holder.o(i.inv_set_motion_state)
    i.inv_start_eMPL_outputs                 0x0800ed28   Section        0  empl_outputs.o(i.inv_start_eMPL_outputs)
    inv_start_eMPL_outputs                   0x0800ed29   Thumb Code    16  empl_outputs.o(i.inv_start_eMPL_outputs)
    i.inv_start_mpl                          0x0800ed3c   Section        0  mpl.o(i.inv_start_mpl)
    i.inv_start_results_holder               0x0800ed7c   Section        0  results_holder.o(i.inv_start_results_holder)
    i.inv_store_gaming_quaternion            0x0800ed94   Section        0  results_holder.o(i.inv_store_gaming_quaternion)
    i.inv_unregister_data_cb                 0x0800edb8   Section        0  data_builder.o(i.inv_unregister_data_cb)
    i.inv_unregister_mpl_start_notification  0x0800ee1c   Section        0  start_manager.o(i.inv_unregister_mpl_start_notification)
    i.main                                   0x0800ee7c   Section        0  main.o(i.main)
    i.mget_ms                                0x0800eeb4   Section        0  inv_mpu.o(i.mget_ms)
    i.mlMatrixVectorMult                     0x0800eeb6   Section        0  ml_math_func.o(i.mlMatrixVectorMult)
    i.motor_init                             0x0800eef4   Section        0  pwm.o(i.motor_init)
    i.motor_speed                            0x0800ef4c   Section        0  pwm.o(i.motor_speed)
    i.mpu_configure_fifo                     0x0800efd0   Section        0  inv_mpu.o(i.mpu_configure_fifo)
    i.mpu_dmp_init                           0x0800f040   Section        0  inv_mpu.o(i.mpu_dmp_init)
    i.mpu_get_accel_fsr                      0x0800f1ac   Section        0  inv_mpu.o(i.mpu_get_accel_fsr)
    i.mpu_get_accel_sens                     0x0800f1f8   Section        0  inv_mpu.o(i.mpu_get_accel_sens)
    i.mpu_get_compass_fsr                    0x0800f24c   Section        0  inv_mpu.o(i.mpu_get_compass_fsr)
    i.mpu_get_compass_reg                    0x0800f260   Section        0  inv_mpu.o(i.mpu_get_compass_reg)
    i.mpu_get_fifo_config                    0x0800f330   Section        0  inv_mpu.o(i.mpu_get_fifo_config)
    i.mpu_get_gyro_fsr                       0x0800f340   Section        0  inv_mpu.o(i.mpu_get_gyro_fsr)
    i.mpu_get_gyro_sens                      0x0800f384   Section        0  inv_mpu.o(i.mpu_get_gyro_sens)
    i.mpu_get_lpf                            0x0800f3e4   Section        0  inv_mpu.o(i.mpu_get_lpf)
    i.mpu_get_sample_rate                    0x0800f434   Section        0  inv_mpu.o(i.mpu_get_sample_rate)
    i.mpu_get_temperature                    0x0800f454   Section        0  inv_mpu.o(i.mpu_get_temperature)
    i.mpu_init                               0x0800f4f0   Section        0  inv_mpu.o(i.mpu_init)
    i.mpu_load_firmware                      0x0800f61c   Section        0  inv_mpu.o(i.mpu_load_firmware)
    i.mpu_lp_accel_mode                      0x0800f6d4   Section        0  inv_mpu.o(i.mpu_lp_accel_mode)
    i.mpu_mpl_get_data                       0x0800f7f0   Section        0  inv_mpu.o(i.mpu_mpl_get_data)
    i.mpu_read_fifo_stream                   0x0800f8e0   Section        0  inv_mpu.o(i.mpu_read_fifo_stream)
    i.mpu_read_mem                           0x0800f9a0   Section        0  inv_mpu.o(i.mpu_read_mem)
    i.mpu_reset_fifo                         0x0800fa20   Section        0  inv_mpu.o(i.mpu_reset_fifo)
    i.mpu_run_6500_self_test                 0x0800fbe8   Section        0  inv_mpu.o(i.mpu_run_6500_self_test)
    i.mpu_set_accel_fsr                      0x0800fe84   Section        0  inv_mpu.o(i.mpu_set_accel_fsr)
    i.mpu_set_bypass                         0x0800ff08   Section        0  inv_mpu.o(i.mpu_set_bypass)
    i.mpu_set_compass_sample_rate            0x08010054   Section        0  inv_mpu.o(i.mpu_set_compass_sample_rate)
    i.mpu_set_dmp_state                      0x080100b4   Section        0  inv_mpu.o(i.mpu_set_dmp_state)
    i.mpu_set_gyro_fsr                       0x08010144   Section        0  inv_mpu.o(i.mpu_set_gyro_fsr)
    i.mpu_set_int_latched                    0x080101cc   Section        0  inv_mpu.o(i.mpu_set_int_latched)
    i.mpu_set_lpf                            0x08010238   Section        0  inv_mpu.o(i.mpu_set_lpf)
    i.mpu_set_sample_rate                    0x080102bc   Section        0  inv_mpu.o(i.mpu_set_sample_rate)
    i.mpu_set_sensors                        0x08010370   Section        0  inv_mpu.o(i.mpu_set_sensors)
    i.mpu_write_mem                          0x080104d8   Section        0  inv_mpu.o(i.mpu_write_mem)
    i.pidInit                                0x08010558   Section        0  pid.o(i.pidInit)
    i.pidUpdate                              0x080105ac   Section        0  pid.o(i.pidUpdate)
    i.prvAddCurrentTaskToDelayedList         0x080106b4   Section        0  tasks.o(i.prvAddCurrentTaskToDelayedList)
    prvAddCurrentTaskToDelayedList           0x080106b5   Thumb Code   124  tasks.o(i.prvAddCurrentTaskToDelayedList)
    i.prvAddNewTaskToReadyList               0x0801074c   Section        0  tasks.o(i.prvAddNewTaskToReadyList)
    prvAddNewTaskToReadyList                 0x0801074d   Thumb Code   156  tasks.o(i.prvAddNewTaskToReadyList)
    i.prvCheckForValidListAndQueue           0x08010804   Section        0  timers.o(i.prvCheckForValidListAndQueue)
    prvCheckForValidListAndQueue             0x08010805   Thumb Code    72  timers.o(i.prvCheckForValidListAndQueue)
    i.prvCheckTasksWaitingTermination        0x08010868   Section        0  tasks.o(i.prvCheckTasksWaitingTermination)
    prvCheckTasksWaitingTermination          0x08010869   Thumb Code    86  tasks.o(i.prvCheckTasksWaitingTermination)
    i.prvCopyDataFromQueue                   0x080108cc   Section        0  queue.o(i.prvCopyDataFromQueue)
    prvCopyDataFromQueue                     0x080108cd   Thumb Code    42  queue.o(i.prvCopyDataFromQueue)
    i.prvCopyDataToQueue                     0x080108f6   Section        0  queue.o(i.prvCopyDataToQueue)
    prvCopyDataToQueue                       0x080108f7   Thumb Code   124  queue.o(i.prvCopyDataToQueue)
    i.prvDeleteTCB                           0x08010972   Section        0  tasks.o(i.prvDeleteTCB)
    prvDeleteTCB                             0x08010973   Thumb Code    18  tasks.o(i.prvDeleteTCB)
    i.prvGetNextExpireTime                   0x08010984   Section        0  timers.o(i.prvGetNextExpireTime)
    prvGetNextExpireTime                     0x08010985   Thumb Code    36  timers.o(i.prvGetNextExpireTime)
    i.prvHeapInit                            0x080109ac   Section        0  heap_4.o(i.prvHeapInit)
    prvHeapInit                              0x080109ad   Thumb Code    98  heap_4.o(i.prvHeapInit)
    i.prvIdleTask                            0x08010a28   Section        0  tasks.o(i.prvIdleTask)
    prvIdleTask                              0x08010a29   Thumb Code    32  tasks.o(i.prvIdleTask)
    i.prvInitialiseNewQueue                  0x08010a50   Section        0  queue.o(i.prvInitialiseNewQueue)
    prvInitialiseNewQueue                    0x08010a51   Thumb Code    42  queue.o(i.prvInitialiseNewQueue)
    i.prvInitialiseNewTask                   0x08010a7a   Section        0  tasks.o(i.prvInitialiseNewTask)
    prvInitialiseNewTask                     0x08010a7b   Thumb Code   180  tasks.o(i.prvInitialiseNewTask)
    i.prvInitialiseTaskLists                 0x08010b30   Section        0  tasks.o(i.prvInitialiseTaskLists)
    prvInitialiseTaskLists                   0x08010b31   Thumb Code    70  tasks.o(i.prvInitialiseTaskLists)
    i.prvInsertBlockIntoFreeList             0x08010b98   Section        0  heap_4.o(i.prvInsertBlockIntoFreeList)
    prvInsertBlockIntoFreeList               0x08010b99   Thumb Code    96  heap_4.o(i.prvInsertBlockIntoFreeList)
    i.prvInsertTimerInActiveList             0x08010c00   Section        0  timers.o(i.prvInsertTimerInActiveList)
    prvInsertTimerInActiveList               0x08010c01   Thumb Code    80  timers.o(i.prvInsertTimerInActiveList)
    i.prvIsQueueEmpty                        0x08010c58   Section        0  queue.o(i.prvIsQueueEmpty)
    prvIsQueueEmpty                          0x08010c59   Thumb Code    26  queue.o(i.prvIsQueueEmpty)
    i.prvIsQueueFull                         0x08010c72   Section        0  queue.o(i.prvIsQueueFull)
    prvIsQueueFull                           0x08010c73   Thumb Code    30  queue.o(i.prvIsQueueFull)
    i.prvProcessExpiredTimer                 0x08010c90   Section        0  timers.o(i.prvProcessExpiredTimer)
    prvProcessExpiredTimer                   0x08010c91   Thumb Code    94  timers.o(i.prvProcessExpiredTimer)
    i.prvProcessReceivedCommands             0x08010cf4   Section        0  timers.o(i.prvProcessReceivedCommands)
    prvProcessReceivedCommands               0x08010cf5   Thumb Code   242  timers.o(i.prvProcessReceivedCommands)
    i.prvProcessTimerOrBlockTask             0x08010dec   Section        0  timers.o(i.prvProcessTimerOrBlockTask)
    prvProcessTimerOrBlockTask               0x08010ded   Thumb Code   102  timers.o(i.prvProcessTimerOrBlockTask)
    i.prvResetNextTaskUnblockTime            0x08010e60   Section        0  tasks.o(i.prvResetNextTaskUnblockTime)
    prvResetNextTaskUnblockTime              0x08010e61   Thumb Code    42  tasks.o(i.prvResetNextTaskUnblockTime)
    i.prvSampleTimeNow                       0x08010e94   Section        0  timers.o(i.prvSampleTimeNow)
    prvSampleTimeNow                         0x08010e95   Thumb Code    40  timers.o(i.prvSampleTimeNow)
    i.prvSwitchTimerLists                    0x08010ec0   Section        0  timers.o(i.prvSwitchTimerLists)
    prvSwitchTimerLists                      0x08010ec1   Thumb Code   150  timers.o(i.prvSwitchTimerLists)
    i.prvTaskExitError                       0x08010f60   Section        0  port.o(i.prvTaskExitError)
    prvTaskExitError                         0x08010f61   Thumb Code    60  port.o(i.prvTaskExitError)
    i.prvTimerTask                           0x08010fa0   Section        0  timers.o(i.prvTimerTask)
    prvTimerTask                             0x08010fa1   Thumb Code    26  timers.o(i.prvTimerTask)
    i.prvUnlockQueue                         0x08010fba   Section        0  queue.o(i.prvUnlockQueue)
    prvUnlockQueue                           0x08010fbb   Thumb Code   126  queue.o(i.prvUnlockQueue)
    i.pvPortMalloc                           0x08011038   Section        0  heap_4.o(i.pvPortMalloc)
    i.pvTaskIncrementMutexHeldCount          0x08011174   Section        0  tasks.o(i.pvTaskIncrementMutexHeldCount)
    i.pxPortInitialiseStack                  0x08011194   Section        0  port.o(i.pxPortInitialiseStack)
    i.run_self_test                          0x080111c0   Section        0  inv_mpu.o(i.run_self_test)
    i.set_int_enable                         0x0801125c   Section        0  inv_mpu.o(i.set_int_enable)
    set_int_enable                           0x0801125d   Thumb Code   138  inv_mpu.o(i.set_int_enable)
    i.set_sensor_orientation_and_scale       0x080112ec   Section        0  data_builder.o(i.set_sensor_orientation_and_scale)
    i.setup_compass                          0x080112f4   Section        0  inv_mpu.o(i.setup_compass)
    setup_compass                            0x080112f5   Thumb Code   570  inv_mpu.o(i.setup_compass)
    i.spl0601_get_calib_param                0x08011548   Section        0  spl06_01.o(i.spl0601_get_calib_param)
    i.spl0601_get_pressure                   0x0801172c   Section        0  spl06_01.o(i.spl0601_get_pressure)
    i.spl0601_get_raw_pressure               0x08011808   Section        0  spl06_01.o(i.spl0601_get_raw_pressure)
    i.spl0601_get_raw_temp                   0x08011884   Section        0  spl06_01.o(i.spl0601_get_raw_temp)
    i.spl0601_init                           0x08011900   Section        0  spl06_01.o(i.spl0601_init)
    i.spl0601_rateset                        0x080119c0   Section        0  spl06_01.o(i.spl0601_rateset)
    i.spl0601_read                           0x08011b04   Section        0  spl06_01.o(i.spl0601_read)
    i.spl0601_start_continuous               0x08011b4a   Section        0  spl06_01.o(i.spl0601_start_continuous)
    i.spl0601_write                          0x08011b5c   Section        0  spl06_01.o(i.spl0601_write)
    i.sqrt                                   0x08011b8e   Section        0  sqrt.o(i.sqrt)
    i.sqrtf                                  0x08011bfc   Section        0  sqrtf.o(i.sqrtf)
    i.stabilizerTask                         0x08011c3c   Section        0  pid.o(i.stabilizerTask)
    i.uart_init                              0x08011c8c   Section        0  usart.o(i.uart_init)
    i.uxListRemove                           0x08011d40   Section        0  list.o(i.uxListRemove)
    i.vListInitialise                        0x08011d68   Section        0  list.o(i.vListInitialise)
    i.vListInitialiseItem                    0x08011d82   Section        0  list.o(i.vListInitialiseItem)
    i.vListInsert                            0x08011d88   Section        0  list.o(i.vListInsert)
    i.vListInsertEnd                         0x08011dbc   Section        0  list.o(i.vListInsertEnd)
    i.vPortEnterCritical                     0x08011dd4   Section        0  port.o(i.vPortEnterCritical)
    i.vPortExitCritical                      0x08011e28   Section        0  port.o(i.vPortExitCritical)
    i.vPortFree                              0x08011e64   Section        0  heap_4.o(i.vPortFree)
    i.vPortSetupTimerInterrupt               0x08011ef8   Section        0  port.o(i.vPortSetupTimerInterrupt)
    i.vPortValidateInterruptPriority         0x08011f18   Section        0  port.o(i.vPortValidateInterruptPriority)
    i.vQueueAddToRegistry                    0x08011f90   Section        0  queue.o(i.vQueueAddToRegistry)
    i.vQueueWaitForMessageRestricted         0x08011fbc   Section        0  queue.o(i.vQueueWaitForMessageRestricted)
    i.vTaskDelay                             0x08012008   Section        0  tasks.o(i.vTaskDelay)
    i.vTaskMissedYield                       0x08012064   Section        0  tasks.o(i.vTaskMissedYield)
    i.vTaskPlaceOnEventList                  0x08012070   Section        0  tasks.o(i.vTaskPlaceOnEventList)
    i.vTaskPlaceOnEventListRestricted        0x080120a8   Section        0  tasks.o(i.vTaskPlaceOnEventListRestricted)
    i.vTaskPriorityInherit                   0x080120e8   Section        0  tasks.o(i.vTaskPriorityInherit)
    i.vTaskSetTimeOutState                   0x08012198   Section        0  tasks.o(i.vTaskSetTimeOutState)
    i.vTaskStartScheduler                    0x080121c8   Section        0  tasks.o(i.vTaskStartScheduler)
    i.vTaskSuspendAll                        0x0801225c   Section        0  tasks.o(i.vTaskSuspendAll)
    i.vTaskSwitchContext                     0x0801226c   Section        0  tasks.o(i.vTaskSwitchContext)
    i.xPortStartScheduler                    0x080122f8   Section        0  port.o(i.xPortStartScheduler)
    i.xPortSysTickHandler                    0x08012434   Section        0  port.o(i.xPortSysTickHandler)
    i.xQueueGenericCreate                    0x08012468   Section        0  queue.o(i.xQueueGenericCreate)
    i.xQueueGenericReceive                   0x080124c0   Section        0  queue.o(i.xQueueGenericReceive)
    i.xQueueGenericReset                     0x08012684   Section        0  queue.o(i.xQueueGenericReset)
    i.xQueueGenericSend                      0x0801271c   Section        0  queue.o(i.xQueueGenericSend)
    i.xQueueGenericSendFromISR               0x080128c4   Section        0  queue.o(i.xQueueGenericSendFromISR)
    i.xTaskCheckForTimeOut                   0x080129bc   Section        0  tasks.o(i.xTaskCheckForTimeOut)
    i.xTaskCreate                            0x08012a48   Section        0  tasks.o(i.xTaskCreate)
    i.xTaskGetSchedulerState                 0x08012aa8   Section        0  tasks.o(i.xTaskGetSchedulerState)
    i.xTaskGetTickCount                      0x08012ac8   Section        0  tasks.o(i.xTaskGetTickCount)
    i.xTaskIncrementTick                     0x08012ad4   Section        0  tasks.o(i.xTaskIncrementTick)
    i.xTaskPriorityDisinherit                0x08012c1c   Section        0  tasks.o(i.xTaskPriorityDisinherit)
    i.xTaskRemoveFromEventList               0x08012ce4   Section        0  tasks.o(i.xTaskRemoveFromEventList)
    i.xTaskResumeAll                         0x08012d7c   Section        0  tasks.o(i.xTaskResumeAll)
    i.xTimerCreateTimerTask                  0x08012e80   Section        0  timers.o(i.xTimerCreateTimerTask)
    i.xTimerGenericCommand                   0x08012ed8   Section        0  timers.o(i.xTimerGenericCommand)
    .constdata                               0x08012f5c   Section      616  inv_mpu.o(.constdata)
    mpu_6500_st_tb                           0x08012fc4   Data         512  inv_mpu.o(.constdata)
    .constdata                               0x080131c4   Section     3062  inv_mpu_dmp_motion_driver.o(.constdata)
    dmp_memory                               0x080131c4   Data        3062  inv_mpu_dmp_motion_driver.o(.constdata)
    .constdata                               0x08013dba   Section       47  mpl.o(.constdata)
    __func__                                 0x08013dce   Data          13  mpl.o(.constdata)
    __func__                                 0x08013ddb   Data          14  mpl.o(.constdata)
    .constdata                               0x08013de9   Section     6922  gui.o(.constdata)
    .constdata                               0x080158f8   Section       56  log.o(.constdata)
    Lg2                                      0x080158f8   Data          24  log.o(.constdata)
    Lg                                       0x08015910   Data          32  log.o(.constdata)
    .constdata                               0x08015930   Section      136  pow.o(.constdata)
    bp                                       0x08015930   Data          16  pow.o(.constdata)
    dp_h                                     0x08015940   Data          16  pow.o(.constdata)
    dp_l                                     0x08015950   Data          16  pow.o(.constdata)
    L                                        0x08015960   Data          48  pow.o(.constdata)
    P                                        0x08015990   Data          40  pow.o(.constdata)
    .constdata                               0x080159b8   Section       48  cos_i.o(.constdata)
    C                                        0x080159b8   Data          48  cos_i.o(.constdata)
    .constdata                               0x080159e8   Section        8  qnan.o(.constdata)
    .constdata                               0x080159f0   Section      200  rred.o(.constdata)
    pio2s                                    0x080159f0   Data          48  rred.o(.constdata)
    twooverpi                                0x08015a20   Data         152  rred.o(.constdata)
    .constdata                               0x08015ab8   Section       32  rredf.o(.constdata)
    twooverpi                                0x08015ab8   Data          32  rredf.o(.constdata)
    .constdata                               0x08015ad8   Section       40  sin_i.o(.constdata)
    S                                        0x08015ad8   Data          40  sin_i.o(.constdata)
    .conststring                             0x08015b00   Section        9  inv_mpu.o(.conststring)
    .conststring                             0x08015b0c   Section       68  data_builder.o(.conststring)
    .data                                    0x20000000   Section       20  system_stm32f4xx.o(.data)
    .data                                    0x20000014   Section       16  stm32f4xx_rcc.o(.data)
    APBAHBPrescTable                         0x20000014   Data          16  stm32f4xx_rcc.o(.data)
    .data                                    0x20000024   Section        4  delay.o(.data)
    fac_us                                   0x20000024   Data           1  delay.o(.data)
    fac_ms                                   0x20000026   Data           2  delay.o(.data)
    .data                                    0x20000028   Section        8  usart.o(.data)
    .data                                    0x20000030   Section       12  port.o(.data)
    uxCriticalNesting                        0x20000030   Data           4  port.o(.data)
    ucMaxSysCallPriority                     0x20000034   Data           1  port.o(.data)
    ulMaxPRIGROUPValue                       0x20000038   Data           4  port.o(.data)
    .data                                    0x2000003c   Section       24  heap_4.o(.data)
    xStart                                   0x2000003c   Data           8  heap_4.o(.data)
    pxEnd                                    0x20000044   Data           4  heap_4.o(.data)
    xFreeBytesRemaining                      0x20000048   Data           4  heap_4.o(.data)
    xMinimumEverFreeBytesRemaining           0x2000004c   Data           4  heap_4.o(.data)
    xBlockAllocatedBit                       0x20000050   Data           4  heap_4.o(.data)
    .data                                    0x20000054   Section       60  tasks.o(.data)
    pxDelayedTaskList                        0x20000058   Data           4  tasks.o(.data)
    pxOverflowDelayedTaskList                0x2000005c   Data           4  tasks.o(.data)
    uxDeletedTasksWaitingCleanUp             0x20000060   Data           4  tasks.o(.data)
    uxCurrentNumberOfTasks                   0x20000064   Data           4  tasks.o(.data)
    xTickCount                               0x20000068   Data           4  tasks.o(.data)
    uxTopReadyPriority                       0x2000006c   Data           4  tasks.o(.data)
    xSchedulerRunning                        0x20000070   Data           4  tasks.o(.data)
    uxPendedTicks                            0x20000074   Data           4  tasks.o(.data)
    xYieldPending                            0x20000078   Data           4  tasks.o(.data)
    xNumOfOverflows                          0x2000007c   Data           4  tasks.o(.data)
    uxTaskNumber                             0x20000080   Data           4  tasks.o(.data)
    xNextTaskUnblockTime                     0x20000084   Data           4  tasks.o(.data)
    xIdleTaskHandle                          0x20000088   Data           4  tasks.o(.data)
    uxSchedulerSuspended                     0x2000008c   Data           4  tasks.o(.data)
    .data                                    0x20000090   Section       20  timers.o(.data)
    pxCurrentTimerList                       0x20000090   Data           4  timers.o(.data)
    pxOverflowTimerList                      0x20000094   Data           4  timers.o(.data)
    xTimerQueue                              0x20000098   Data           4  timers.o(.data)
    xTimerTaskHandle                         0x2000009c   Data           4  timers.o(.data)
    xLastTime                                0x200000a0   Data           4  timers.o(.data)
    .data                                    0x200000a4   Section       78  inv_mpu.o(.data)
    st                                       0x200000a8   Data          56  inv_mpu.o(.data)
    gyro_orientation                         0x200000e0   Data           9  inv_mpu.o(.data)
    comp_orientation                         0x200000e9   Data           9  inv_mpu.o(.data)
    .data                                    0x200000f4   Section        4  message_layer.o(.data)
    mh                                       0x200000f4   Data           4  message_layer.o(.data)
    .data                                    0x200000f8   Section        8  spl06_01.o(.data)
    p_spl0601                                0x200000f8   Data           4  spl06_01.o(.data)
    thrust0                                  0x200000fc   Data           4  spl06_01.o(.data)
    .data                                    0x20000100   Section        4  pwm.o(.data)
    i                                        0x20000100   Data           4  pwm.o(.data)
    .data                                    0x20000104   Section        2  gps.o(.data)
    .data                                    0x20000108   Section       38  pid.o(.data)
    pitch                                    0x20000110   Data           4  pid.o(.data)
    roll                                     0x20000114   Data           4  pid.o(.data)
    yaw                                      0x20000118   Data           4  pid.o(.data)
    Altitude                                 0x2000011c   Data           4  pid.o(.data)
    thrust0                                  0x20000120   Data           2  pid.o(.data)
    thrust1                                  0x20000122   Data           2  pid.o(.data)
    Height_V                                 0x20000124   Data           4  pid.o(.data)
    lastHeight                               0x20000128   Data           4  pid.o(.data)
    cnt                                      0x2000012c   Data           2  pid.o(.data)
    .data                                    0x2000012e   Section        8  communication.o(.data)
    ch_sta                                   0x20000131   Data           1  communication.o(.data)
    temp_cnt                                 0x20000132   Data           4  communication.o(.data)
    .data                                    0x20000138   Section       16  compass_vec_cal.o(.data)
    r1                                       0x20000138   Data           4  compass_vec_cal.o(.data)
    r2                                       0x2000013c   Data           4  compass_vec_cal.o(.data)
    r3                                       0x20000140   Data           4  compass_vec_cal.o(.data)
    r4                                       0x20000144   Data           4  compass_vec_cal.o(.data)
    .data                                    0x20000148   Section        4  errno.o(.data)
    _errno                                   0x20000148   Data           4  errno.o(.data)
    .bss                                     0x2000014c   Section      600  usart.o(.bss)
    .bss                                     0x200003a4   Section    76800  heap_4.o(.bss)
    ucHeap                                   0x200003a4   Data       76800  heap_4.o(.bss)
    .bss                                     0x20012fa4   Section       64  queue.o(.bss)
    .bss                                     0x20012fe4   Section      200  tasks.o(.bss)
    pxReadyTasksLists                        0x20012fe4   Data         100  tasks.o(.bss)
    xDelayedTaskList1                        0x20013048   Data          20  tasks.o(.bss)
    xDelayedTaskList2                        0x2001305c   Data          20  tasks.o(.bss)
    xPendingReadyList                        0x20013070   Data          20  tasks.o(.bss)
    xTasksWaitingTermination                 0x20013084   Data          20  tasks.o(.bss)
    xSuspendedTaskList                       0x20013098   Data          20  tasks.o(.bss)
    .bss                                     0x200130ac   Section       40  timers.o(.bss)
    xActiveTimerList1                        0x200130ac   Data          20  timers.o(.bss)
    xActiveTimerList2                        0x200130c0   Data          20  timers.o(.bss)
    .bss                                     0x200130d4   Section       16  inv_mpu_dmp_motion_driver.o(.bss)
    dmp                                      0x200130d4   Data          16  inv_mpu_dmp_motion_driver.o(.bss)
    .bss                                     0x200130e4   Section       40  empl_outputs.o(.bss)
    eMPL_out                                 0x200130e4   Data          40  empl_outputs.o(.bss)
    .bss                                     0x2001310c   Section      728  data_builder.o(.bss)
    inv_data_builder                         0x2001310c   Data         320  data_builder.o(.bss)
    sensors                                  0x2001324c   Data         408  data_builder.o(.bss)
    .bss                                     0x200133e4   Section      196  hal_outputs.o(.bss)
    hal_out                                  0x200133e4   Data         196  hal_outputs.o(.bss)
    .bss                                     0x200134a8   Section      136  results_holder.o(.bss)
    rh                                       0x200134a8   Data         136  results_holder.o(.bss)
    .bss                                     0x20013530   Section       84  start_manager.o(.bss)
    inv_start_cb                             0x20013530   Data          84  start_manager.o(.bss)
    .bss                                     0x20013584   Section      408  storage_manager.o(.bss)
    ds                                       0x20013584   Data         408  storage_manager.o(.bss)
    .bss                                     0x2001371c   Section       14  lcd_driver.o(.bss)
    .bss                                     0x2001372c   Section       44  spl06_01.o(.bss)
    spl0601                                  0x2001372c   Data          44  spl06_01.o(.bss)
    .bss                                     0x20013758   Section      121  gps.o(.bss)
    .bss                                     0x200137d4   Section      492  pid.o(.bss)
    gyro                                     0x200139b4   Data          12  pid.o(.bss)
    .bss                                     0x200139c0   Section       18  communication.o(.bss)
    .bss                                     0x200139d8   Section     1120  compass_vec_cal.o(.bss)
    .bss                                     0x20013e38   Section      672  fast_no_motion.o(.bss)
    fnm_user                                 0x20014098   Data          64  fast_no_motion.o(.bss)
    .bss                                     0x200140d8   Section      312  fusion_9axis.o(.bss)
    .bss                                     0x20014210   Section      452  gyro_tc.o(.bss)
    inv_gtc                                  0x20014210   Data         452  gyro_tc.o(.bss)
    .bss                                     0x200143d4   Section      184  mag_disturb.o(.bss)
    .bss                                     0x2001448c   Section      108  quaternion_supervisor.o(.bss)
    inv_quat_data                            0x2001448c   Data         108  quaternion_supervisor.o(.bss)
    .bss                                     0x200144f8   Section     1208  accel_auto_cal.o(.bss)
    auto_cal                                 0x200144f8   Data        1208  accel_auto_cal.o(.bss)
    STACK                                    0x200149b0   Section    16384  startup_stm32f40_41xxx.o(STACK)

    Global Symbols

    Symbol Name                              Value     Ov Type        Size  Object(Section)

    BuildAttributes$$THM_ISAv4$E$P$D$K$B$S$7EM$VFPi3$EXTD16$VFPS$VFMA$PE$A:L22UL41UL21$X:L11$S22US41US21$IEEE1$IW$USESV6$~STKCKD$USESV7$~SHL$OTIME$ROPI$IEEEX$EBA8$MICROLIB$REQ8$PRES8$EABIv2 0x00000000   Number         0  anon$$obj.o ABSOLUTE
    __ARM_use_no_argv                        0x00000000   Number         0  main.o ABSOLUTE
    __use_no_errno                           0x00000000   Number         0  useno.o ABSOLUTE
    __use_no_exception_handling              0x00000000   Number         0  useno.o ABSOLUTE
    __use_no_fp                              0x00000000   Number         0  useno.o ABSOLUTE
    __use_no_heap                            0x00000000   Number         0  useno.o ABSOLUTE
    __use_no_heap_region                     0x00000000   Number         0  useno.o ABSOLUTE
    __use_no_semihosting                     0x00000000   Number         0  useno.o ABSOLUTE
    __use_no_semihosting_swi                 0x00000000   Number         0  useno.o ABSOLUTE
    __use_no_signal_handling                 0x00000000   Number         0  useno.o ABSOLUTE
    _printf_a                                0x00000000   Number         0  stubs.o ABSOLUTE
    _printf_c                                0x00000000   Number         0  stubs.o ABSOLUTE
    _printf_charcount                        0x00000000   Number         0  stubs.o ABSOLUTE
    _printf_d                                0x00000000   Number         0  stubs.o ABSOLUTE
    _printf_e                                0x00000000   Number         0  stubs.o ABSOLUTE
    _printf_f                                0x00000000   Number         0  stubs.o ABSOLUTE
    _printf_flags                            0x00000000   Number         0  stubs.o ABSOLUTE
    _printf_fp_dec                           0x00000000   Number         0  stubs.o ABSOLUTE
    _printf_fp_hex                           0x00000000   Number         0  stubs.o ABSOLUTE
    _printf_g                                0x00000000   Number         0  stubs.o ABSOLUTE
    _printf_i                                0x00000000   Number         0  stubs.o ABSOLUTE
    _printf_int_dec                          0x00000000   Number         0  stubs.o ABSOLUTE
    _printf_l                                0x00000000   Number         0  stubs.o ABSOLUTE
    _printf_lc                               0x00000000   Number         0  stubs.o ABSOLUTE
    _printf_ll                               0x00000000   Number         0  stubs.o ABSOLUTE
    _printf_lld                              0x00000000   Number         0  stubs.o ABSOLUTE
    _printf_lli                              0x00000000   Number         0  stubs.o ABSOLUTE
    _printf_llo                              0x00000000   Number         0  stubs.o ABSOLUTE
    _printf_llu                              0x00000000   Number         0  stubs.o ABSOLUTE
    _printf_llx                              0x00000000   Number         0  stubs.o ABSOLUTE
    _printf_longlong_dec                     0x00000000   Number         0  stubs.o ABSOLUTE
    _printf_longlong_hex                     0x00000000   Number         0  stubs.o ABSOLUTE
    _printf_longlong_oct                     0x00000000   Number         0  stubs.o ABSOLUTE
    _printf_ls                               0x00000000   Number         0  stubs.o ABSOLUTE
    _printf_mbtowc                           0x00000000   Number         0  stubs.o ABSOLUTE
    _printf_n                                0x00000000   Number         0  stubs.o ABSOLUTE
    _printf_o                                0x00000000   Number         0  stubs.o ABSOLUTE
    _printf_p                                0x00000000   Number         0  stubs.o ABSOLUTE
    _printf_percent                          0x00000000   Number         0  stubs.o ABSOLUTE
    _printf_pre_padding                      0x00000000   Number         0  stubs.o ABSOLUTE
    _printf_return_value                     0x00000000   Number         0  stubs.o ABSOLUTE
    _printf_s                                0x00000000   Number         0  stubs.o ABSOLUTE
    _printf_sizespec                         0x00000000   Number         0  stubs.o ABSOLUTE
    _printf_str                              0x00000000   Number         0  stubs.o ABSOLUTE
    _printf_truncate_signed                  0x00000000   Number         0  stubs.o ABSOLUTE
    _printf_truncate_unsigned                0x00000000   Number         0  stubs.o ABSOLUTE
    _printf_u                                0x00000000   Number         0  stubs.o ABSOLUTE
    _printf_wc                               0x00000000   Number         0  stubs.o ABSOLUTE
    _printf_wctomb                           0x00000000   Number         0  stubs.o ABSOLUTE
    _printf_widthprec                        0x00000000   Number         0  stubs.o ABSOLUTE
    _printf_x                                0x00000000   Number         0  stubs.o ABSOLUTE
    __cpp_initialize__aeabi_                  - Undefined Weak Reference
    __cxa_finalize                            - Undefined Weak Reference
    _clock_init                               - Undefined Weak Reference
    _microlib_exit                            - Undefined Weak Reference
    _scanf_int                                - Undefined Weak Reference
    _scanf_longlong                           - Undefined Weak Reference
    _scanf_string                             - Undefined Weak Reference
    __Vectors_Size                           0x00000188   Number         0  startup_stm32f40_41xxx.o ABSOLUTE
    __Vectors                                0x08000000   Data           4  startup_stm32f40_41xxx.o(RESET)
    __Vectors_End                            0x08000188   Data           0  startup_stm32f40_41xxx.o(RESET)
    __main                                   0x08000189   Thumb Code     0  entry.o(.ARM.Collect$$$$00000000)
    _main_stk                                0x08000189   Thumb Code     0  entry2.o(.ARM.Collect$$$$00000001)
    _main_scatterload                        0x0800018d   Thumb Code     0  entry5.o(.ARM.Collect$$$$00000004)
    __main_after_scatterload                 0x08000191   Thumb Code     0  entry5.o(.ARM.Collect$$$$00000004)
    _main_clock                              0x08000191   Thumb Code     0  entry7b.o(.ARM.Collect$$$$00000008)
    _main_cpp_init                           0x08000191   Thumb Code     0  entry8b.o(.ARM.Collect$$$$0000000A)
    _main_init                               0x08000191   Thumb Code     0  entry9a.o(.ARM.Collect$$$$0000000B)
    __rt_final_cpp                           0x08000199   Thumb Code     0  entry10a.o(.ARM.Collect$$$$0000000D)
    __rt_final_exit                          0x08000199   Thumb Code     0  entry11a.o(.ARM.Collect$$$$0000000F)
    SVC_Handler                              0x0800019d   Thumb Code    28  port.o(.emb_text)
    __asm___6_port_c_39a90d8d__prvStartFirstTask 0x080001bd   Thumb Code    28  port.o(.emb_text)
    __asm___6_port_c_39a90d8d__prvEnableVFP  0x080001dd   Thumb Code    16  port.o(.emb_text)
    PendSV_Handler                           0x080001f1   Thumb Code    88  port.o(.emb_text)
    vPortGetIPSR                             0x0800024d   Thumb Code     6  port.o(.emb_text)
    Reset_Handler                            0x08000255   Thumb Code     8  startup_stm32f40_41xxx.o(.text)
    ADC_IRQHandler                           0x0800026f   Thumb Code     0  startup_stm32f40_41xxx.o(.text)
    CAN1_RX0_IRQHandler                      0x0800026f   Thumb Code     0  startup_stm32f40_41xxx.o(.text)
    CAN1_RX1_IRQHandler                      0x0800026f   Thumb Code     0  startup_stm32f40_41xxx.o(.text)
    CAN1_SCE_IRQHandler                      0x0800026f   Thumb Code     0  startup_stm32f40_41xxx.o(.text)
    CAN1_TX_IRQHandler                       0x0800026f   Thumb Code     0  startup_stm32f40_41xxx.o(.text)
    CAN2_RX0_IRQHandler                      0x0800026f   Thumb Code     0  startup_stm32f40_41xxx.o(.text)
    CAN2_RX1_IRQHandler                      0x0800026f   Thumb Code     0  startup_stm32f40_41xxx.o(.text)
    CAN2_SCE_IRQHandler                      0x0800026f   Thumb Code     0  startup_stm32f40_41xxx.o(.text)
    CAN2_TX_IRQHandler                       0x0800026f   Thumb Code     0  startup_stm32f40_41xxx.o(.text)
    CRYP_IRQHandler                          0x0800026f   Thumb Code     0  startup_stm32f40_41xxx.o(.text)
    DCMI_IRQHandler                          0x0800026f   Thumb Code     0  startup_stm32f40_41xxx.o(.text)
    DMA1_Stream0_IRQHandler                  0x0800026f   Thumb Code     0  startup_stm32f40_41xxx.o(.text)
    DMA1_Stream1_IRQHandler                  0x0800026f   Thumb Code     0  startup_stm32f40_41xxx.o(.text)
    DMA1_Stream2_IRQHandler                  0x0800026f   Thumb Code     0  startup_stm32f40_41xxx.o(.text)
    DMA1_Stream3_IRQHandler                  0x0800026f   Thumb Code     0  startup_stm32f40_41xxx.o(.text)
    DMA1_Stream4_IRQHandler                  0x0800026f   Thumb Code     0  startup_stm32f40_41xxx.o(.text)
    DMA1_Stream5_IRQHandler                  0x0800026f   Thumb Code     0  startup_stm32f40_41xxx.o(.text)
    DMA1_Stream6_IRQHandler                  0x0800026f   Thumb Code     0  startup_stm32f40_41xxx.o(.text)
    DMA1_Stream7_IRQHandler                  0x0800026f   Thumb Code     0  startup_stm32f40_41xxx.o(.text)
    DMA2_Stream0_IRQHandler                  0x0800026f   Thumb Code     0  startup_stm32f40_41xxx.o(.text)
    DMA2_Stream1_IRQHandler                  0x0800026f   Thumb Code     0  startup_stm32f40_41xxx.o(.text)
    DMA2_Stream2_IRQHandler                  0x0800026f   Thumb Code     0  startup_stm32f40_41xxx.o(.text)
    DMA2_Stream3_IRQHandler                  0x0800026f   Thumb Code     0  startup_stm32f40_41xxx.o(.text)
    DMA2_Stream4_IRQHandler                  0x0800026f   Thumb Code     0  startup_stm32f40_41xxx.o(.text)
    DMA2_Stream5_IRQHandler                  0x0800026f   Thumb Code     0  startup_stm32f40_41xxx.o(.text)
    DMA2_Stream6_IRQHandler                  0x0800026f   Thumb Code     0  startup_stm32f40_41xxx.o(.text)
    DMA2_Stream7_IRQHandler                  0x0800026f   Thumb Code     0  startup_stm32f40_41xxx.o(.text)
    ETH_IRQHandler                           0x0800026f   Thumb Code     0  startup_stm32f40_41xxx.o(.text)
    ETH_WKUP_IRQHandler                      0x0800026f   Thumb Code     0  startup_stm32f40_41xxx.o(.text)
    EXTI0_IRQHandler                         0x0800026f   Thumb Code     0  startup_stm32f40_41xxx.o(.text)
    EXTI15_10_IRQHandler                     0x0800026f   Thumb Code     0  startup_stm32f40_41xxx.o(.text)
    EXTI1_IRQHandler                         0x0800026f   Thumb Code     0  startup_stm32f40_41xxx.o(.text)
    EXTI2_IRQHandler                         0x0800026f   Thumb Code     0  startup_stm32f40_41xxx.o(.text)
    EXTI3_IRQHandler                         0x0800026f   Thumb Code     0  startup_stm32f40_41xxx.o(.text)
    EXTI4_IRQHandler                         0x0800026f   Thumb Code     0  startup_stm32f40_41xxx.o(.text)
    EXTI9_5_IRQHandler                       0x0800026f   Thumb Code     0  startup_stm32f40_41xxx.o(.text)
    FLASH_IRQHandler                         0x0800026f   Thumb Code     0  startup_stm32f40_41xxx.o(.text)
    FPU_IRQHandler                           0x0800026f   Thumb Code     0  startup_stm32f40_41xxx.o(.text)
    FSMC_IRQHandler                          0x0800026f   Thumb Code     0  startup_stm32f40_41xxx.o(.text)
    HASH_RNG_IRQHandler                      0x0800026f   Thumb Code     0  startup_stm32f40_41xxx.o(.text)
    I2C1_ER_IRQHandler                       0x0800026f   Thumb Code     0  startup_stm32f40_41xxx.o(.text)
    I2C1_EV_IRQHandler                       0x0800026f   Thumb Code     0  startup_stm32f40_41xxx.o(.text)
    I2C2_ER_IRQHandler                       0x0800026f   Thumb Code     0  startup_stm32f40_41xxx.o(.text)
    I2C2_EV_IRQHandler                       0x0800026f   Thumb Code     0  startup_stm32f40_41xxx.o(.text)
    I2C3_ER_IRQHandler                       0x0800026f   Thumb Code     0  startup_stm32f40_41xxx.o(.text)
    I2C3_EV_IRQHandler                       0x0800026f   Thumb Code     0  startup_stm32f40_41xxx.o(.text)
    OTG_FS_IRQHandler                        0x0800026f   Thumb Code     0  startup_stm32f40_41xxx.o(.text)
    OTG_FS_WKUP_IRQHandler                   0x0800026f   Thumb Code     0  startup_stm32f40_41xxx.o(.text)
    OTG_HS_EP1_IN_IRQHandler                 0x0800026f   Thumb Code     0  startup_stm32f40_41xxx.o(.text)
    OTG_HS_EP1_OUT_IRQHandler                0x0800026f   Thumb Code     0  startup_stm32f40_41xxx.o(.text)
    OTG_HS_IRQHandler                        0x0800026f   Thumb Code     0  startup_stm32f40_41xxx.o(.text)
    OTG_HS_WKUP_IRQHandler                   0x0800026f   Thumb Code     0  startup_stm32f40_41xxx.o(.text)
    PVD_IRQHandler                           0x0800026f   Thumb Code     0  startup_stm32f40_41xxx.o(.text)
    RCC_IRQHandler                           0x0800026f   Thumb Code     0  startup_stm32f40_41xxx.o(.text)
    RTC_Alarm_IRQHandler                     0x0800026f   Thumb Code     0  startup_stm32f40_41xxx.o(.text)
    RTC_WKUP_IRQHandler                      0x0800026f   Thumb Code     0  startup_stm32f40_41xxx.o(.text)
    SDIO_IRQHandler                          0x0800026f   Thumb Code     0  startup_stm32f40_41xxx.o(.text)
    SPI1_IRQHandler                          0x0800026f   Thumb Code     0  startup_stm32f40_41xxx.o(.text)
    SPI2_IRQHandler                          0x0800026f   Thumb Code     0  startup_stm32f40_41xxx.o(.text)
    SPI3_IRQHandler                          0x0800026f   Thumb Code     0  startup_stm32f40_41xxx.o(.text)
    TAMP_STAMP_IRQHandler                    0x0800026f   Thumb Code     0  startup_stm32f40_41xxx.o(.text)
    TIM1_BRK_TIM9_IRQHandler                 0x0800026f   Thumb Code     0  startup_stm32f40_41xxx.o(.text)
    TIM1_CC_IRQHandler                       0x0800026f   Thumb Code     0  startup_stm32f40_41xxx.o(.text)
    TIM1_TRG_COM_TIM11_IRQHandler            0x0800026f   Thumb Code     0  startup_stm32f40_41xxx.o(.text)
    TIM1_UP_TIM10_IRQHandler                 0x0800026f   Thumb Code     0  startup_stm32f40_41xxx.o(.text)
    TIM2_IRQHandler                          0x0800026f   Thumb Code     0  startup_stm32f40_41xxx.o(.text)
    TIM3_IRQHandler                          0x0800026f   Thumb Code     0  startup_stm32f40_41xxx.o(.text)
    TIM5_IRQHandler                          0x0800026f   Thumb Code     0  startup_stm32f40_41xxx.o(.text)
    TIM6_DAC_IRQHandler                      0x0800026f   Thumb Code     0  startup_stm32f40_41xxx.o(.text)
    TIM7_IRQHandler                          0x0800026f   Thumb Code     0  startup_stm32f40_41xxx.o(.text)
    TIM8_BRK_TIM12_IRQHandler                0x0800026f   Thumb Code     0  startup_stm32f40_41xxx.o(.text)
    TIM8_CC_IRQHandler                       0x0800026f   Thumb Code     0  startup_stm32f40_41xxx.o(.text)
    TIM8_TRG_COM_TIM14_IRQHandler            0x0800026f   Thumb Code     0  startup_stm32f40_41xxx.o(.text)
    TIM8_UP_TIM13_IRQHandler                 0x0800026f   Thumb Code     0  startup_stm32f40_41xxx.o(.text)
    UART4_IRQHandler                         0x0800026f   Thumb Code     0  startup_stm32f40_41xxx.o(.text)
    UART5_IRQHandler                         0x0800026f   Thumb Code     0  startup_stm32f40_41xxx.o(.text)
    USART3_IRQHandler                        0x0800026f   Thumb Code     0  startup_stm32f40_41xxx.o(.text)
    USART6_IRQHandler                        0x0800026f   Thumb Code     0  startup_stm32f40_41xxx.o(.text)
    WWDG_IRQHandler                          0x0800026f   Thumb Code     0  startup_stm32f40_41xxx.o(.text)
    inv_vector_compass_cal_sensitivity       0x08000279   Thumb Code     8  compass_vec_cal.o(.text)
    inv_cheap_rand                           0x08000467   Thumb Code    42  compass_vec_cal.o(.text)
    inv_cheap_gaussian                       0x08000491   Thumb Code   134  compass_vec_cal.o(.text)
    inv_combine_compass_data                 0x08000517   Thumb Code   416  compass_vec_cal.o(.text)
    inv_set_terms                            0x080006b7   Thumb Code   932  compass_vec_cal.o(.text)
    inv_compute_bias                         0x08000a5b   Thumb Code  2142  compass_vec_cal.o(.text)
    inv_center_sum                           0x080012b9   Thumb Code  1784  compass_vec_cal.o(.text)
    inv_get_current_calibrated_compass       0x080019b1   Thumb Code    82  compass_vec_cal.o(.text)
    inv_add_compass_block_data               0x08001a03   Thumb Code   172  compass_vec_cal.o(.text)
    inv_check_sim                            0x08001d1b   Thumb Code   400  compass_vec_cal.o(.text)
    inv_reset_data_collection                0x08001eab   Thumb Code    50  compass_vec_cal.o(.text)
    inv_process_compass_only_cal             0x08001edd   Thumb Code  1720  compass_vec_cal.o(.text)
    inv_generate_vector_compass_cal          0x08002595   Thumb Code    62  compass_vec_cal.o(.text)
    inv_start_vector_compass_cal             0x080025d3   Thumb Code    14  compass_vec_cal.o(.text)
    inv_stop_vector_compass_cal              0x080025e1   Thumb Code     8  compass_vec_cal.o(.text)
    inv_init_vector_compass_cal              0x080025e9   Thumb Code    92  compass_vec_cal.o(.text)
    inv_enable_vector_compass_cal            0x08002645   Thumb Code    24  compass_vec_cal.o(.text)
    inv_disable_vector_compass_cal           0x0800265d   Thumb Code    22  compass_vec_cal.o(.text)
    inv_init_maxmin                          0x08002769   Thumb Code    78  fast_no_motion.o(.text)
    inv_fast_nomot_parameter                 0x080027b7   Thumb Code   332  fast_no_motion.o(.text)
    inv_fast_nomot_parameter_3rd             0x08002903   Thumb Code   190  fast_no_motion.o(.text)
    inv_fast_nomot_set_gyro_bias             0x080029c1   Thumb Code   232  fast_no_motion.o(.text)
    inv_set_fast_nomot_compass_threshold     0x08002aa9   Thumb Code     8  fast_no_motion.o(.text)
    int_set_fast_nomot_gyro_threshold        0x08002ab1   Thumb Code     8  fast_no_motion.o(.text)
    inv_set_fast_nomot_accel_threshold       0x08002ab9   Thumb Code     8  fast_no_motion.o(.text)
    inv_get_fast_nomot_compass_param         0x08002ac1   Thumb Code    18  fast_no_motion.o(.text)
    inv_get_fast_nomot_accel_param           0x08002ad3   Thumb Code    18  fast_no_motion.o(.text)
    inv_fast_nomot_store_data                0x08002ae5   Thumb Code   140  fast_no_motion.o(.text)
    inv_fast_nomot_store_data_compass        0x08002b71   Thumb Code    74  fast_no_motion.o(.text)
    inv_fast_nomot_reset_data_compass        0x08002bbb   Thumb Code    36  fast_no_motion.o(.text)
    inv_fast_nomot_get_time_elaps            0x08002bdf   Thumb Code     8  fast_no_motion.o(.text)
    inv_fast_nomot_parameter_compass         0x08002be7   Thumb Code    22  fast_no_motion.o(.text)
    inv_get_right_shift_by_rounding          0x08002bfd   Thumb Code    76  fast_no_motion.o(.text)
    inv_reset_min_max_gyro_accel_statistics  0x08002c49   Thumb Code    38  fast_no_motion.o(.text)
    inv_record_max_moment_in_no_motion_gyro  0x08002c6f   Thumb Code    32  fast_no_motion.o(.text)
    inv_record_max_moment_in_no_motion_accel 0x08002c8f   Thumb Code    32  fast_no_motion.o(.text)
    inv_record_min_moment_in_motion_gyro     0x08002caf   Thumb Code    34  fast_no_motion.o(.text)
    inv_record_min_moment_in_motion_accel    0x08002cd1   Thumb Code    34  fast_no_motion.o(.text)
    inv_detect_motion_by_gyro_accel          0x08002cf3   Thumb Code   214  fast_no_motion.o(.text)
    inv_sensor_data_preprocess               0x08002dc9   Thumb Code   132  fast_no_motion.o(.text)
    inv_generate_fast_nomot                  0x08002e4d   Thumb Code   504  fast_no_motion.o(.text)
    inv_set_default_number_of_samples        0x08003045   Thumb Code    62  fast_no_motion.o(.text)
    inv_init_fast_nomot                      0x08003083   Thumb Code    78  fast_no_motion.o(.text)
    inv_start_fast_nomot                     0x080030d1   Thumb Code    56  fast_no_motion.o(.text)
    inv_stop_fast_nomot                      0x08003109   Thumb Code    20  fast_no_motion.o(.text)
    inv_enable_fast_nomot                    0x0800311d   Thumb Code    24  fast_no_motion.o(.text)
    inv_disable_fast_nomot                   0x08003135   Thumb Code    18  fast_no_motion.o(.text)
    inv_get_fnm_gyro_no_motion_param         0x08003147   Thumb Code     8  fast_no_motion.o(.text)
    inv_fnm_debug_print                      0x0800314f   Thumb Code     2  fast_no_motion.o(.text)
    inv_filter_correction_angle              0x0800322d   Thumb Code   374  fusion_9axis.o(.text)
    inv_perform_9x_fusion                    0x080033a3   Thumb Code   894  fusion_9axis.o(.text)
    inv_process_9x_sensor_fusion_cb          0x08003721   Thumb Code   120  fusion_9axis.o(.text)
    inv_init_9x_fusion                       0x08003799   Thumb Code    52  fusion_9axis.o(.text)
    inv_9x_fusion_set_mag_fb                 0x080037cd   Thumb Code    10  fusion_9axis.o(.text)
    inv_9x_fusion_enable_jitter_reduction    0x080037d7   Thumb Code    10  fusion_9axis.o(.text)
    inv_9x_fusion_use_timestamps             0x080037e1   Thumb Code    10  fusion_9axis.o(.text)
    inv_start_9x_sensor_fusion               0x080037eb   Thumb Code    14  fusion_9axis.o(.text)
    inv_stop_9x_sensor_fusion                0x080037f9   Thumb Code     8  fusion_9axis.o(.text)
    inv_enable_9x_sensor_fusion              0x08003801   Thumb Code    30  fusion_9axis.o(.text)
    inv_disable_9x_sensor_fusion             0x0800381f   Thumb Code     8  fusion_9axis.o(.text)
    inv_init_gyro_ts                         0x08003bb1   Thumb Code    46  gyro_tc.o(.text)
    inv_set_gtc_max_temp                     0x08003bdf   Thumb Code    10  gyro_tc.o(.text)
    inv_set_gtc_min_temp                     0x08003be9   Thumb Code    10  gyro_tc.o(.text)
    inv_set_gtc_min_diff                     0x08003bf3   Thumb Code    10  gyro_tc.o(.text)
    inv_get_gyro_ts                          0x08003bfd   Thumb Code    44  gyro_tc.o(.text)
    inv_set_gyro_ts                          0x08003c29   Thumb Code     4  gyro_tc.o(.text)
    inv_set_gtc_order                        0x08003c2d   Thumb Code    16  gyro_tc.o(.text)
    inv_print_gtc_data                       0x08003c3d   Thumb Code    62  gyro_tc.o(.text)
    inv_start_gyro_tc                        0x08003c7b   Thumb Code    10  gyro_tc.o(.text)
    inv_stop_gyro_tc                         0x08003c85   Thumb Code     6  gyro_tc.o(.text)
    inv_enable_gyro_tc                       0x08003c8b   Thumb Code    48  gyro_tc.o(.text)
    inv_disable_gyro_tc                      0x08003cbb   Thumb Code    40  gyro_tc.o(.text)
    inv_set_magnetic_disturbance             0x08003cf5   Thumb Code    16  mag_disturb.o(.text)
    inv_init_magnetic_disturbance            0x08003d05   Thumb Code    68  mag_disturb.o(.text)
    MagDisturbSetDisturbance                 0x08003d49   Thumb Code   108  mag_disturb.o(.text)
    MagDisturbCheckSettling                  0x08003db5   Thumb Code    68  mag_disturb.o(.text)
    ComputeAngleVelocity                     0x08003df9   Thumb Code    94  mag_disturb.o(.text)
    inv_disable_dip_tracking                 0x08003e57   Thumb Code    10  mag_disturb.o(.text)
    Mag3ofNormalizedLong                     0x08003e61   Thumb Code    60  mag_disturb.o(.text)
    inv_track_dip_angle                      0x08003e9d   Thumb Code   126  mag_disturb.o(.text)
    inv_check_magnetic_disturbance           0x08003f1b   Thumb Code   758  mag_disturb.o(.text)
    inv_magnetic_disturbance_process         0x08004211   Thumb Code    50  mag_disturb.o(.text)
    inv_start_magnetic_disturbance           0x08004243   Thumb Code    14  mag_disturb.o(.text)
    inv_stop_magnetic_disturbance            0x08004251   Thumb Code     8  mag_disturb.o(.text)
    inv_enable_magnetic_disturbance          0x08004259   Thumb Code    40  mag_disturb.o(.text)
    inv_disable_magnetic_disturbance         0x08004281   Thumb Code    22  mag_disturb.o(.text)
    inv_enable_dip_tracking                  0x08004297   Thumb Code    14  mag_disturb.o(.text)
    inv_get_magnetic_disturbance_state       0x080042a5   Thumb Code     8  mag_disturb.o(.text)
    inv_generate_gyro_quaternion             0x0800466d   Thumb Code   348  quaternion_supervisor.o(.text)
    inv_set_quaternion                       0x0800497f   Thumb Code    36  quaternion_supervisor.o(.text)
    inv_generate_accel_gyro_quaternion       0x080049a3   Thumb Code   468  quaternion_supervisor.o(.text)
    inv_stop_quaternion                      0x08004bbb   Thumb Code     6  quaternion_supervisor.o(.text)
    inv_init_quaternion                      0x08004bc1   Thumb Code    34  quaternion_supervisor.o(.text)
    inv_start_quaternion                     0x08004be3   Thumb Code    34  quaternion_supervisor.o(.text)
    inv_enable_quaternion                    0x08004c05   Thumb Code    24  quaternion_supervisor.o(.text)
    inv_disable_quaternion                   0x08004c1d   Thumb Code    20  quaternion_supervisor.o(.text)
    inv_init_accel_maxmin                    0x08004c49   Thumb Code    34  accel_auto_cal.o(.text)
    inv_record_good_accel_maxmin             0x08004c6b   Thumb Code    58  accel_auto_cal.o(.text)
    inv_get_current_calibrated_accel         0x08004ca5   Thumb Code    70  accel_auto_cal.o(.text)
    inv_sort_order_4_T                       0x08005095   Thumb Code   134  accel_auto_cal.o(.text)
    inv_init_check_sample_balance            0x0800511b   Thumb Code    36  accel_auto_cal.o(.text)
    inv_init_check_sample_balance_parameter  0x0800513f   Thumb Code    28  accel_auto_cal.o(.text)
    inv_add_accel_block_data                 0x0800515b   Thumb Code   180  accel_auto_cal.o(.text)
    inv_add_vector_block_data                0x0800520f   Thumb Code   152  accel_auto_cal.o(.text)
    inv_check_sample_balance                 0x080052a7   Thumb Code   372  accel_auto_cal.o(.text)
    inv_auto_calibrate                       0x0800546d   Thumb Code   828  accel_auto_cal.o(.text)
    inv_init_in_use_auto_calibration         0x080057a9   Thumb Code    92  accel_auto_cal.o(.text)
    inv_start_in_use_auto_calibration        0x08005805   Thumb Code    14  accel_auto_cal.o(.text)
    inv_stop_in_use_auto_calibration         0x08005813   Thumb Code     8  accel_auto_cal.o(.text)
    inv_enable_in_use_auto_calibration       0x0800581b   Thumb Code    24  accel_auto_cal.o(.text)
    inv_disable_in_use_auto_calibration      0x08005833   Thumb Code    22  accel_auto_cal.o(.text)
    inv_get_accel_bias_stage                 0x08005849   Thumb Code     6  accel_auto_cal.o(.text)
    __aeabi_ldivmod                          0x0800588d   Thumb Code    98  ldiv.o(.text)
    __aeabi_llsl                             0x080058ef   Thumb Code    30  llshl.o(.text)
    _ll_shift_l                              0x080058ef   Thumb Code     0  llshl.o(.text)
    __aeabi_lasr                             0x0800590d   Thumb Code    36  llsshr.o(.text)
    _ll_sshift_r                             0x0800590d   Thumb Code     0  llsshr.o(.text)
    ___aeabi_memcpy8$move                    0x08005931   Thumb Code     0  memmovea.o(.text)
    __aeabi_memcpy                           0x08005931   Thumb Code    64  memmovea.o(.text)
    __aeabi_memcpy4                          0x08005931   Thumb Code     0  memmovea.o(.text)
    __aeabi_memmove                          0x08005931   Thumb Code     0  memmovea.o(.text)
    __aeabi_memmove4                         0x08005931   Thumb Code     0  memmovea.o(.text)
    __aeabi_memmove8                         0x08005931   Thumb Code     0  memmovea.o(.text)
    __aeabi_memset                           0x08005971   Thumb Code    14  memseta.o(.text)
    __aeabi_memset4                          0x08005971   Thumb Code     0  memseta.o(.text)
    __aeabi_memset8                          0x08005971   Thumb Code     0  memseta.o(.text)
    __aeabi_memclr                           0x0800597f   Thumb Code     4  memseta.o(.text)
    __aeabi_memclr4                          0x0800597f   Thumb Code     0  memseta.o(.text)
    __aeabi_memclr8                          0x0800597f   Thumb Code     0  memseta.o(.text)
    _memset$wrapper                          0x08005983   Thumb Code    18  memseta.o(.text)
    memcmp                                   0x08005995   Thumb Code    26  memcmp.o(.text)
    __aeabi_dadd                             0x080059af   Thumb Code   322  dadd.o(.text)
    __aeabi_dsub                             0x08005af1   Thumb Code     6  dadd.o(.text)
    __aeabi_drsub                            0x08005af7   Thumb Code     6  dadd.o(.text)
    __aeabi_dmul                             0x08005afd   Thumb Code   228  dmul.o(.text)
    __aeabi_ddiv                             0x08005be1   Thumb Code   222  ddiv.o(.text)
    __aeabi_l2f                              0x08005cbf   Thumb Code    44  ffltl.o(.text)
    __aeabi_i2d                              0x08005ceb   Thumb Code    34  dflti.o(.text)
    __aeabi_f2lz                             0x08005d0d   Thumb Code    66  ffixl.o(.text)
    __aeabi_d2iz                             0x08005d4f   Thumb Code    62  dfixi.o(.text)
    __aeabi_f2d                              0x08005d8d   Thumb Code    38  f2d.o(.text)
    __aeabi_cdcmpeq                          0x08005db5   Thumb Code     0  cdcmple.o(.text)
    __aeabi_cdcmple                          0x08005db5   Thumb Code    48  cdcmple.o(.text)
    __aeabi_cdrcmple                         0x08005de5   Thumb Code    48  cdrcmple.o(.text)
    __aeabi_d2f                              0x08005e15   Thumb Code    56  d2f.o(.text)
    __aeabi_uidiv                            0x08005e4d   Thumb Code     0  uidiv.o(.text)
    __aeabi_uidivmod                         0x08005e4d   Thumb Code    44  uidiv.o(.text)
    __aeabi_uldivmod                         0x08005e79   Thumb Code    98  uldiv.o(.text)
    __aeabi_llsr                             0x08005edb   Thumb Code    32  llushr.o(.text)
    _ll_ushift_r                             0x08005edb   Thumb Code     0  llushr.o(.text)
    __I$use$fp                               0x08005efb   Thumb Code     0  iusefp.o(.text)
    _float_round                             0x08005efb   Thumb Code    18  fepilogue.o(.text)
    _float_epilogue                          0x08005f0d   Thumb Code    92  fepilogue.o(.text)
    _double_round                            0x08005f69   Thumb Code    30  depilogue.o(.text)
    _double_epilogue                         0x08005f87   Thumb Code   156  depilogue.o(.text)
    __ARM_scalbn                             0x08006023   Thumb Code    46  dscalb.o(.text)
    scalbn                                   0x08006023   Thumb Code     0  dscalb.o(.text)
    _dsqrt                                   0x08006051   Thumb Code   162  dsqrt.o(.text)
    __aeabi_d2ulz                            0x080060f3   Thumb Code    48  dfixul.o(.text)
    __scatterload                            0x08006125   Thumb Code    28  init.o(.text)
    __scatterload_rt2                        0x08006125   Thumb Code     0  init.o(.text)
    __aeabi_ui2d                             0x08006149   Thumb Code    26  dfltui.o(.text)
    __decompress                             0x08006163   Thumb Code     0  __dczerorl2.o(.text)
    __decompress1                            0x08006163   Thumb Code    86  __dczerorl2.o(.text)
    ADC_Cmd                                  0x080061b9   Thumb Code    22  stm32f4xx_adc.o(i.ADC_Cmd)
    ADC_CommonInit                           0x080061d1   Thumb Code    34  stm32f4xx_adc.o(i.ADC_CommonInit)
    ADC_Init                                 0x08006201   Thumb Code    74  stm32f4xx_adc.o(i.ADC_Init)
    ADC_RegularChannelConfig                 0x08006255   Thumb Code   184  stm32f4xx_adc.o(i.ADC_RegularChannelConfig)
    ADC_TempSensorVrefintCmd                 0x0800630d   Thumb Code    34  stm32f4xx_adc.o(i.ADC_TempSensorVrefintCmd)
    Adc_Init                                 0x08006339   Thumb Code   154  adc.o(i.Adc_Init)
    AllInit                                  0x080063dd   Thumb Code   128  init_config.o(i.AllInit)
    BEEP_Init                                0x08006495   Thumb Code    78  beep.o(i.BEEP_Init)
    BusFault_Handler                         0x080064e9   Thumb Code     4  stm32f4xx_it.o(i.BusFault_Handler)
    ControlPIDInit                           0x080064ed   Thumb Code   324  pid.o(i.ControlPIDInit)
    DebugMon_Handler                         0x080066b9   Thumb Code     2  stm32f4xx_it.o(i.DebugMon_Handler)
    DrvPpmGetOneCh                           0x080066bd   Thumb Code    86  communication.o(i.DrvPpmGetOneCh)
    DrvRcPpmInit                             0x08006725   Thumb Code   178  communication.o(i.DrvRcPpmInit)
    Float_to_Byte                            0x080067e1   Thumb Code    30  communication.o(i.Float_to_Byte)
    FlyStop                                  0x08006801   Thumb Code    44  fly.o(i.FlyStop)
    GPIO_Init                                0x08006831   Thumb Code   144  stm32f4xx_gpio.o(i.GPIO_Init)
    GPIO_PinAFConfig                         0x080068c1   Thumb Code    70  stm32f4xx_gpio.o(i.GPIO_PinAFConfig)
    GPIO_ResetBits                           0x08006907   Thumb Code     4  stm32f4xx_gpio.o(i.GPIO_ResetBits)
    GPIO_SetBits                             0x0800690b   Thumb Code     4  stm32f4xx_gpio.o(i.GPIO_SetBits)
    GPIO_StructInit                          0x0800690f   Thumb Code    18  stm32f4xx_gpio.o(i.GPIO_StructInit)
    GPS_USART_init                           0x08006921   Thumb Code   170  gps.o(i.GPS_USART_init)
    GetPpmThrust                             0x080069d5   Thumb Code     8  communication.o(i.GetPpmThrust)
    Gui_DrawFont_GBK16                       0x080069e1   Thumb Code   394  gui.o(i.Gui_DrawFont_GBK16)
    Gui_DrawPoint                            0x08006b75   Thumb Code    46  lcd_driver.o(i.Gui_DrawPoint)
    HardFault_Handler                        0x08006ba3   Thumb Code     4  stm32f4xx_it.o(i.HardFault_Handler)
    IIC_Ack                                  0x08006ba9   Thumb Code    66  myiic.o(i.IIC_Ack)
    IIC_Init                                 0x08006bf9   Thumb Code    24  myiic.o(i.IIC_Init)
    IIC_NAck                                 0x08006c19   Thumb Code    66  myiic.o(i.IIC_NAck)
    IIC_Read_Byte                            0x08006c69   Thumb Code    94  myiic.o(i.IIC_Read_Byte)
    IIC_Send_Byte                            0x08006cd5   Thumb Code    90  myiic.o(i.IIC_Send_Byte)
    IIC_Start                                0x08006d3d   Thumb Code    64  myiic.o(i.IIC_Start)
    IIC_Stop                                 0x08006d89   Thumb Code    62  myiic.o(i.IIC_Stop)
    IIC_Wait_Ack                             0x08006dd5   Thumb Code    82  myiic.o(i.IIC_Wait_Ack)
    JustFloat_send                           0x08006e35   Thumb Code   166  communication.o(i.JustFloat_send)
    LCD_GPIO_Init                            0x08006ee1   Thumb Code   104  lcd_driver.o(i.LCD_GPIO_Init)
    LCD_SetParam                             0x08006f51   Thumb Code    38  lcd_driver.o(i.LCD_SetParam)
    LED_Blink                                0x08006f7d   Thumb Code    34  led.o(i.LED_Blink)
    LED_Init                                 0x08006fa9   Thumb Code    60  led.o(i.LED_Init)
    Lcd_Clear                                0x08006fe9   Thumb Code    56  lcd_driver.o(i.Lcd_Clear)
    Lcd_Init                                 0x08007021   Thumb Code   466  lcd_driver.o(i.Lcd_Init)
    Lcd_Reset                                0x080071f5   Thumb Code    38  lcd_driver.o(i.Lcd_Reset)
    Lcd_SetRegion                            0x08007221   Thumb Code    82  lcd_driver.o(i.Lcd_SetRegion)
    Lcd_WriteData                            0x08007275   Thumb Code    40  lcd_driver.o(i.Lcd_WriteData)
    Lcd_WriteIndex                           0x080072a5   Thumb Code    40  lcd_driver.o(i.Lcd_WriteIndex)
    Lcd_WriteReg                             0x080072d5   Thumb Code    20  lcd_driver.o(i.Lcd_WriteReg)
    MPU_Get_Gyrofloat                        0x080072e9   Thumb Code   116  mpu9250.o(i.MPU_Get_Gyrofloat)
    MPU_Get_Gyroscope                        0x08007361   Thumb Code    80  mpu9250.o(i.MPU_Get_Gyroscope)
    MPU_Read_Len                             0x080073b1   Thumb Code   116  mpu9250.o(i.MPU_Read_Len)
    MPU_Write_Len                            0x08007425   Thumb Code    96  mpu9250.o(i.MPU_Write_Len)
    MemManage_Handler                        0x08007485   Thumb Code     4  stm32f4xx_it.o(i.MemManage_Handler)
    MotorControl                             0x08007489   Thumb Code   382  pid.o(i.MotorControl)
    NMI_Handler                              0x08007625   Thumb Code     2  stm32f4xx_it.o(i.NMI_Handler)
    NVIC_Init                                0x08007629   Thumb Code   106  misc.o(i.NVIC_Init)
    NVIC_PriorityGroupConfig                 0x080076a1   Thumb Code    10  misc.o(i.NVIC_PriorityGroupConfig)
    PID_Runing                               0x080076b5   Thumb Code   254  pid.o(i.PID_Runing)
    PPM_IRQH                                 0x080077e5   Thumb Code    76  communication.o(i.PPM_IRQH)
    RCC_AHB1PeriphClockCmd                   0x0800783d   Thumb Code    26  stm32f4xx_rcc.o(i.RCC_AHB1PeriphClockCmd)
    RCC_APB1PeriphClockCmd                   0x0800785d   Thumb Code    26  stm32f4xx_rcc.o(i.RCC_APB1PeriphClockCmd)
    RCC_APB2PeriphClockCmd                   0x0800787d   Thumb Code    26  stm32f4xx_rcc.o(i.RCC_APB2PeriphClockCmd)
    RCC_APB2PeriphResetCmd                   0x0800789d   Thumb Code    26  stm32f4xx_rcc.o(i.RCC_APB2PeriphResetCmd)
    RCC_GetClocksFreq                        0x080078bd   Thumb Code   214  stm32f4xx_rcc.o(i.RCC_GetClocksFreq)
    SPI_WriteData                            0x080079a5   Thumb Code    72  lcd_driver.o(i.SPI_WriteData)
    Serial_SendArray                         0x080079f1   Thumb Code    26  communication.o(i.Serial_SendArray)
    Serial_SendByte                          0x08007a0d   Thumb Code    28  communication.o(i.Serial_SendByte)
    SetLimit                                 0x08007a2d   Thumb Code    10  pid.o(i.SetLimit)
    SetThrust                                0x08007b25   Thumb Code    14  pid.o(i.SetThrust)
    SysTick_CLKSourceConfig                  0x08007b39   Thumb Code    40  misc.o(i.SysTick_CLKSourceConfig)
    SysTick_Handler                          0x08007b61   Thumb Code    16  delay.o(i.SysTick_Handler)
    SystemInit                               0x08007b71   Thumb Code    88  system_stm32f4xx.o(i.SystemInit)
    TIM3_PWM_Init                            0x08007cfd   Thumb Code   264  pwm.o(i.TIM3_PWM_Init)
    TIM4_IRQHandler                          0x08007e11   Thumb Code     8  communication.o(i.TIM4_IRQHandler)
    TIM_ARRPreloadConfig                     0x08007e19   Thumb Code    24  stm32f4xx_tim.o(i.TIM_ARRPreloadConfig)
    TIM_Cmd                                  0x08007e31   Thumb Code    24  stm32f4xx_tim.o(i.TIM_Cmd)
    TIM_GetCapture3                          0x08007e49   Thumb Code     6  stm32f4xx_tim.o(i.TIM_GetCapture3)
    TIM_ICInit                               0x08007e4f   Thumb Code   110  stm32f4xx_tim.o(i.TIM_ICInit)
    TIM_ICStructInit                         0x08007ebd   Thumb Code    18  stm32f4xx_tim.o(i.TIM_ICStructInit)
    TIM_ITConfig                             0x08007ecf   Thumb Code    18  stm32f4xx_tim.o(i.TIM_ITConfig)
    TIM_OC1Init                              0x08007ee1   Thumb Code   114  stm32f4xx_tim.o(i.TIM_OC1Init)
    TIM_OC1PreloadConfig                     0x08007f5d   Thumb Code    18  stm32f4xx_tim.o(i.TIM_OC1PreloadConfig)
    TIM_OC2Init                              0x08007f71   Thumb Code   154  stm32f4xx_tim.o(i.TIM_OC2Init)
    TIM_OC2PreloadConfig                     0x08008015   Thumb Code    26  stm32f4xx_tim.o(i.TIM_OC2PreloadConfig)
    TIM_OC3Init                              0x08008031   Thumb Code   150  stm32f4xx_tim.o(i.TIM_OC3Init)
    TIM_OC3PreloadConfig                     0x080080d1   Thumb Code    18  stm32f4xx_tim.o(i.TIM_OC3PreloadConfig)
    TIM_OC4Init                              0x080080e5   Thumb Code   112  stm32f4xx_tim.o(i.TIM_OC4Init)
    TIM_OC4PreloadConfig                     0x0800815d   Thumb Code    26  stm32f4xx_tim.o(i.TIM_OC4PreloadConfig)
    TIM_SetCompare1                          0x08008177   Thumb Code     4  stm32f4xx_tim.o(i.TIM_SetCompare1)
    TIM_SetCompare2                          0x0800817b   Thumb Code     4  stm32f4xx_tim.o(i.TIM_SetCompare2)
    TIM_SetCompare3                          0x0800817f   Thumb Code     4  stm32f4xx_tim.o(i.TIM_SetCompare3)
    TIM_SetCompare4                          0x08008183   Thumb Code     4  stm32f4xx_tim.o(i.TIM_SetCompare4)
    TIM_SetIC1Prescaler                      0x08008187   Thumb Code    18  stm32f4xx_tim.o(i.TIM_SetIC1Prescaler)
    TIM_SetIC2Prescaler                      0x08008199   Thumb Code    26  stm32f4xx_tim.o(i.TIM_SetIC2Prescaler)
    TIM_SetIC3Prescaler                      0x080081b3   Thumb Code    18  stm32f4xx_tim.o(i.TIM_SetIC3Prescaler)
    TIM_SetIC4Prescaler                      0x080081c5   Thumb Code    26  stm32f4xx_tim.o(i.TIM_SetIC4Prescaler)
    TIM_TimeBaseInit                         0x080081e1   Thumb Code   104  stm32f4xx_tim.o(i.TIM_TimeBaseInit)
    USART1_IRQHandler                        0x08008265   Thumb Code   130  usart.o(i.USART1_IRQHandler)
    USART2_IRQHandler                        0x080082fd   Thumb Code   174  gps.o(i.USART2_IRQHandler)
    USART_ClearFlag                          0x080083c1   Thumb Code    18  stm32f4xx_usart.o(i.USART_ClearFlag)
    USART_ClearITPendingBit                  0x080083d3   Thumb Code    30  stm32f4xx_usart.o(i.USART_ClearITPendingBit)
    USART_Cmd                                0x080083f1   Thumb Code    24  stm32f4xx_usart.o(i.USART_Cmd)
    USART_GetFlagStatus                      0x08008409   Thumb Code    26  stm32f4xx_usart.o(i.USART_GetFlagStatus)
    USART_GetITStatus                        0x08008423   Thumb Code    84  stm32f4xx_usart.o(i.USART_GetITStatus)
    USART_ITConfig                           0x08008477   Thumb Code    74  stm32f4xx_usart.o(i.USART_ITConfig)
    USART_Init                               0x080084c1   Thumb Code   204  stm32f4xx_usart.o(i.USART_Init)
    USART_ReceiveData                        0x08008595   Thumb Code    10  stm32f4xx_usart.o(i.USART_ReceiveData)
    USART_SendData                           0x0800859f   Thumb Code     8  stm32f4xx_usart.o(i.USART_SendData)
    UsageFault_Handler                       0x080085a7   Thumb Code     4  stm32f4xx_it.o(i.UsageFault_Handler)
    _MLPrintLog                              0x080085ab   Thumb Code   202  log_stm32.o(i._MLPrintLog)
    __0printf                                0x08008675   Thumb Code    22  printfa.o(i.__0printf)
    __1printf                                0x08008675   Thumb Code     0  printfa.o(i.__0printf)
    __2printf                                0x08008675   Thumb Code     0  printfa.o(i.__0printf)
    __c89printf                              0x08008675   Thumb Code     0  printfa.o(i.__0printf)
    printf                                   0x08008675   Thumb Code     0  printfa.o(i.__0printf)
    __0vsprintf                              0x08008695   Thumb Code    30  printfa.o(i.__0vsprintf)
    __1vsprintf                              0x08008695   Thumb Code     0  printfa.o(i.__0vsprintf)
    __2vsprintf                              0x08008695   Thumb Code     0  printfa.o(i.__0vsprintf)
    __c89vsprintf                            0x08008695   Thumb Code     0  printfa.o(i.__0vsprintf)
    vsprintf                                 0x08008695   Thumb Code     0  printfa.o(i.__0vsprintf)
    __ARM_fpclassify                         0x080086b9   Thumb Code    48  fpclassify.o(i.__ARM_fpclassify)
    __ARM_fpclassifyf                        0x080086e9   Thumb Code    38  fpclassifyf.o(i.__ARM_fpclassifyf)
    __hardfp_acosf                           0x08008711   Thumb Code   234  acosf.o(i.__hardfp_acosf)
    __hardfp_atan2f                          0x08008829   Thumb Code   502  atan2f.o(i.__hardfp_atan2f)
    __hardfp_cos                             0x08008a79   Thumb Code   180  cos.o(i.__hardfp_cos)
    __hardfp_cosf                            0x08008b41   Thumb Code   280  cosf.o(i.__hardfp_cosf)
    __hardfp_fabs                            0x08008c91   Thumb Code    20  fabs.o(i.__hardfp_fabs)
    __hardfp_log                             0x08008ca9   Thumb Code   872  log.o(i.__hardfp_log)
    __hardfp_pow                             0x08009071   Thumb Code  3044  pow.o(i.__hardfp_pow)
    __hardfp_sinf                            0x08009ca9   Thumb Code   344  sinf.o(i.__hardfp_sinf)
    __hardfp_sqrt                            0x08009e39   Thumb Code   122  sqrt.o(i.__hardfp_sqrt)
    __hardfp_sqrtf                           0x08009eb3   Thumb Code    58  sqrtf.o(i.__hardfp_sqrtf)
    __ieee754_rem_pio2                       0x08009ef1   Thumb Code   938  rred.o(i.__ieee754_rem_pio2)
    __kernel_cos                             0x0800a329   Thumb Code   322  cos_i.o(i.__kernel_cos)
    __kernel_poly                            0x0800a499   Thumb Code   248  poly.o(i.__kernel_poly)
    __kernel_sin                             0x0800a591   Thumb Code   280  sin_i.o(i.__kernel_sin)
    __mathlib_dbl_divzero                    0x0800a6c1   Thumb Code    28  dunder.o(i.__mathlib_dbl_divzero)
    __mathlib_dbl_infnan                     0x0800a6f1   Thumb Code    20  dunder.o(i.__mathlib_dbl_infnan)
    __mathlib_dbl_infnan2                    0x0800a705   Thumb Code    20  dunder.o(i.__mathlib_dbl_infnan2)
    __mathlib_dbl_invalid                    0x0800a719   Thumb Code    24  dunder.o(i.__mathlib_dbl_invalid)
    __mathlib_dbl_overflow                   0x0800a739   Thumb Code    24  dunder.o(i.__mathlib_dbl_overflow)
    __mathlib_dbl_underflow                  0x0800a759   Thumb Code    24  dunder.o(i.__mathlib_dbl_underflow)
    __mathlib_flt_infnan                     0x0800a779   Thumb Code     6  funder.o(i.__mathlib_flt_infnan)
    __mathlib_flt_infnan2                    0x0800a77f   Thumb Code     6  funder.o(i.__mathlib_flt_infnan2)
    __mathlib_flt_invalid                    0x0800a785   Thumb Code    10  funder.o(i.__mathlib_flt_invalid)
    __mathlib_flt_underflow                  0x0800a795   Thumb Code    10  funder.o(i.__mathlib_flt_underflow)
    __mathlib_rredf2                         0x0800a7a5   Thumb Code   316  rredf.o(i.__mathlib_rredf2)
    __scatterload_copy                       0x0800a92d   Thumb Code    14  handlers.o(i.__scatterload_copy)
    __scatterload_null                       0x0800a93b   Thumb Code     2  handlers.o(i.__scatterload_null)
    __scatterload_zeroinit                   0x0800a93d   Thumb Code    14  handlers.o(i.__scatterload_zeroinit)
    __set_errno                              0x0800a94d   Thumb Code     6  errno.o(i.__set_errno)
    delay_init                               0x0800ba41   Thumb Code    58  delay.o(i.delay_init)
    delay_ms                                 0x0800ba85   Thumb Code    62  delay.o(i.delay_ms)
    delay_us                                 0x0800bac9   Thumb Code    68  delay.o(i.delay_us)
    dmp_enable_6x_lp_quat                    0x0800bb11   Thumb Code    60  inv_mpu_dmp_motion_driver.o(i.dmp_enable_6x_lp_quat)
    dmp_enable_feature                       0x0800bb4d   Thumb Code   530  inv_mpu_dmp_motion_driver.o(i.dmp_enable_feature)
    dmp_enable_gyro_cal                      0x0800bd69   Thumb Code    62  inv_mpu_dmp_motion_driver.o(i.dmp_enable_gyro_cal)
    dmp_enable_lp_quat                       0x0800bdc1   Thumb Code    60  inv_mpu_dmp_motion_driver.o(i.dmp_enable_lp_quat)
    dmp_load_motion_driver_firmware          0x0800bdfd   Thumb Code    20  inv_mpu_dmp_motion_driver.o(i.dmp_load_motion_driver_firmware)
    dmp_read_fifo                            0x0800be15   Thumb Code   456  inv_mpu_dmp_motion_driver.o(i.dmp_read_fifo)
    dmp_set_accel_bias                       0x0800bfe1   Thumb Code   300  inv_mpu_dmp_motion_driver.o(i.dmp_set_accel_bias)
    dmp_set_fifo_rate                        0x0800c111   Thumb Code    96  inv_mpu_dmp_motion_driver.o(i.dmp_set_fifo_rate)
    dmp_set_gyro_bias                        0x0800c181   Thumb Code   294  inv_mpu_dmp_motion_driver.o(i.dmp_set_gyro_bias)
    dmp_set_orientation                      0x0800c2b1   Thumb Code   290  inv_mpu_dmp_motion_driver.o(i.dmp_set_orientation)
    dmp_set_shake_reject_thresh              0x0800c3e9   Thumb Code    56  inv_mpu_dmp_motion_driver.o(i.dmp_set_shake_reject_thresh)
    dmp_set_shake_reject_time                0x0800c421   Thumb Code    38  inv_mpu_dmp_motion_driver.o(i.dmp_set_shake_reject_time)
    dmp_set_shake_reject_timeout             0x0800c447   Thumb Code    38  inv_mpu_dmp_motion_driver.o(i.dmp_set_shake_reject_timeout)
    dmp_set_tap_axes                         0x0800c46d   Thumb Code    70  inv_mpu_dmp_motion_driver.o(i.dmp_set_tap_axes)
    dmp_set_tap_count                        0x0800c4b3   Thumb Code    38  inv_mpu_dmp_motion_driver.o(i.dmp_set_tap_count)
    dmp_set_tap_thresh                       0x0800c4d9   Thumb Code   412  inv_mpu_dmp_motion_driver.o(i.dmp_set_tap_thresh)
    dmp_set_tap_time                         0x0800c699   Thumb Code    38  inv_mpu_dmp_motion_driver.o(i.dmp_set_tap_time)
    dmp_set_tap_time_multi                   0x0800c6bf   Thumb Code    38  inv_mpu_dmp_motion_driver.o(i.dmp_set_tap_time_multi)
    fabs                                     0x0800c6e5   Thumb Code    24  fabs.o(i.fabs)
    fputc                                    0x0800c6fd   Thumb Code    22  usart.o(i.fputc)
    inv_apply_calibration                    0x0800d3a5   Thumb Code   106  data_builder.o(i.inv_apply_calibration)
    inv_build_accel                          0x0800d411   Thumb Code   128  data_builder.o(i.inv_build_accel)
    inv_build_compass                        0x0800d49d   Thumb Code   168  data_builder.o(i.inv_build_compass)
    inv_build_gyro                           0x0800d54d   Thumb Code    46  data_builder.o(i.inv_build_gyro)
    inv_build_temp                           0x0800d585   Thumb Code    38  data_builder.o(i.inv_build_temp)
    inv_compass_angle                        0x0800d5b1   Thumb Code   170  ml_math_func.o(i.inv_compass_angle)
    inv_convert_to_body_with_scale           0x0800d661   Thumb Code   114  ml_math_func.o(i.inv_convert_to_body_with_scale)
    inv_disable_compass_soft_iron_matrix     0x0800d73d   Thumb Code    10  data_builder.o(i.inv_disable_compass_soft_iron_matrix)
    inv_enable_eMPL_outputs                  0x0800d74d   Thumb Code    22  empl_outputs.o(i.inv_enable_eMPL_outputs)
    inv_enable_results_holder                0x0800d769   Thumb Code    26  results_holder.o(i.inv_enable_results_holder)
    inv_execute_mpl_start_notification       0x0800d789   Thumb Code    40  start_manager.o(i.inv_execute_mpl_start_notification)
    inv_execute_on_data                      0x0800d7b5   Thumb Code   152  data_builder.o(i.inv_execute_on_data)
    inv_generate_results                     0x0800d945   Thumb Code    12  results_holder.o(i.inv_generate_results)
    inv_get_6axis_quaternion                 0x0800d955   Thumb Code    18  results_holder.o(i.inv_get_6axis_quaternion)
    inv_get_acc_state                        0x0800d96d   Thumb Code     6  results_holder.o(i.inv_get_acc_state)
    inv_get_accel_accuracy                   0x0800d979   Thumb Code     6  data_builder.o(i.inv_get_accel_accuracy)
    inv_get_accel_on                         0x0800d985   Thumb Code    12  data_builder.o(i.inv_get_accel_on)
    inv_get_accel_set                        0x0800d995   Thumb Code    40  data_builder.o(i.inv_get_accel_set)
    inv_get_compass_bias                     0x0800d9c1   Thumb Code    18  data_builder.o(i.inv_get_compass_bias)
    inv_get_compass_correction               0x0800d9d9   Thumb Code    20  results_holder.o(i.inv_get_compass_correction)
    inv_get_compass_on                       0x0800d9f1   Thumb Code    12  data_builder.o(i.inv_get_compass_on)
    inv_get_compass_soft_iron_output_data    0x0800da01   Thumb Code    24  data_builder.o(i.inv_get_compass_soft_iron_output_data)
    inv_get_compass_state                    0x0800da1d   Thumb Code     6  results_holder.o(i.inv_get_compass_state)
    inv_get_gravity                          0x0800da29   Thumb Code    90  results_holder.o(i.inv_get_gravity)
    inv_get_gyro                             0x0800da89   Thumb Code    12  data_builder.o(i.inv_get_gyro)
    inv_get_gyro_accuracy                    0x0800da99   Thumb Code     6  data_builder.o(i.inv_get_gyro_accuracy)
    inv_get_gyro_bias                        0x0800daa5   Thumb Code    32  data_builder.o(i.inv_get_gyro_bias)
    inv_get_gyro_bias_tc_set                 0x0800dac9   Thumb Code    26  data_builder.o(i.inv_get_gyro_bias_tc_set)
    inv_get_gyro_on                          0x0800dae9   Thumb Code    10  data_builder.o(i.inv_get_gyro_on)
    inv_get_gyro_sum_of_sqr                  0x0800daf9   Thumb Code    28  ml_math_func.o(i.inv_get_gyro_sum_of_sqr)
    inv_get_large_mag_field                  0x0800db15   Thumb Code     6  results_holder.o(i.inv_get_large_mag_field)
    inv_get_last_timestamp                   0x0800db21   Thumb Code    98  data_builder.o(i.inv_get_last_timestamp)
    inv_get_linear_accel                     0x0800db89   Thumb Code    60  results_holder.o(i.inv_get_linear_accel)
    inv_get_linear_accel_float               0x0800dbc5   Thumb Code    62  results_holder.o(i.inv_get_linear_accel_float)
    inv_get_local_field                      0x0800dc09   Thumb Code    12  results_holder.o(i.inv_get_local_field)
    inv_get_mag_accuracy                     0x0800dc19   Thumb Code    20  data_builder.o(i.inv_get_mag_accuracy)
    inv_get_motion_state                     0x0800dc35   Thumb Code    16  results_holder.o(i.inv_get_motion_state)
    inv_get_quaternion                       0x0800dc49   Thumb Code    54  results_holder.o(i.inv_get_quaternion)
    inv_get_quaternion_set                   0x0800dc85   Thumb Code    68  results_holder.o(i.inv_get_quaternion_set)
    inv_get_sensor_type_euler                0x0800dcc9   Thumb Code   588  empl_outputs.o(i.inv_get_sensor_type_euler)
    inv_get_sensor_type_gravity              0x0800df31   Thumb Code   104  hal_outputs.o(i.inv_get_sensor_type_gravity)
    inv_got_compass_bias                     0x0800dfa1   Thumb Code     6  results_holder.o(i.inv_got_compass_bias)
    inv_init_data_builder                    0x0800dfad   Thumb Code    42  data_builder.o(i.inv_init_data_builder)
    inv_init_mpl                             0x0800dffd   Thumb Code   106  mpl.o(i.inv_init_mpl)
    inv_init_results_holder                  0x0800e081   Thumb Code    50  results_holder.o(i.inv_init_results_holder)
    inv_init_start_manager                   0x0800e0bd   Thumb Code    14  start_manager.o(i.inv_init_start_manager)
    inv_init_storage_manager                 0x0800e0d1   Thumb Code    20  storage_manager.o(i.inv_init_storage_manager)
    inv_orientation_matrix_to_scalar         0x0800e0e9   Thumb Code    40  ml_math_func.o(i.inv_orientation_matrix_to_scalar)
    inv_q29_mult                             0x0800e111   Thumb Code    18  ml_math_func.o(i.inv_q29_mult)
    inv_q30_mult                             0x0800e123   Thumb Code    18  ml_math_func.o(i.inv_q30_mult)
    inv_q_add                                0x0800e14d   Thumb Code    36  ml_math_func.o(i.inv_q_add)
    inv_q_addf                               0x0800e171   Thumb Code    66  ml_math_func.o(i.inv_q_addf)
    inv_q_invert                             0x0800e1b3   Thumb Code    24  ml_math_func.o(i.inv_q_invert)
    inv_q_invertf                            0x0800e1cb   Thumb Code    46  ml_math_func.o(i.inv_q_invertf)
    inv_q_mult                               0x0800e1f9   Thumb Code   178  ml_math_func.o(i.inv_q_mult)
    inv_q_multf                              0x0800e2ab   Thumb Code   210  ml_math_func.o(i.inv_q_multf)
    inv_q_norm4                              0x0800e37d   Thumb Code   162  ml_math_func.o(i.inv_q_norm4)
    inv_q_normalizef                         0x0800e425   Thumb Code   302  ml_math_func.o(i.inv_q_normalizef)
    inv_q_rotate                             0x0800e559   Thumb Code    66  ml_math_func.o(i.inv_q_rotate)
    inv_quaternion_to_rotation               0x0800e59b   Thumb Code   218  ml_math_func.o(i.inv_quaternion_to_rotation)
    inv_register_data_cb                     0x0800e675   Thumb Code   234  data_builder.o(i.inv_register_data_cb)
    inv_register_load_store                  0x0800e76d   Thumb Code   138  storage_manager.o(i.inv_register_load_store)
    inv_register_mpl_start_notification      0x0800e7fd   Thumb Code    38  start_manager.o(i.inv_register_mpl_start_notification)
    inv_reset_compass_soft_iron_matrix       0x0800e829   Thumb Code    80  data_builder.o(i.inv_reset_compass_soft_iron_matrix)
    inv_set_accel_accuracy                   0x0800e8d1   Thumb Code    26  data_builder.o(i.inv_set_accel_accuracy)
    inv_set_accel_bias_found                 0x0800e8f5   Thumb Code     6  results_holder.o(i.inv_set_accel_bias_found)
    inv_set_accel_bias_mask                  0x0800e901   Thumb Code    84  data_builder.o(i.inv_set_accel_bias_mask)
    inv_set_accel_orientation_and_scale      0x0800e961   Thumb Code    18  data_builder.o(i.inv_set_accel_orientation_and_scale)
    inv_set_accel_sample_rate                0x0800e979   Thumb Code    36  data_builder.o(i.inv_set_accel_sample_rate)
    inv_set_compass_bias                     0x0800e9a5   Thumb Code    66  data_builder.o(i.inv_set_compass_bias)
    inv_set_compass_bias_error               0x0800e9f1   Thumb Code    14  results_holder.o(i.inv_set_compass_bias_error)
    inv_set_compass_bias_found               0x0800ea05   Thumb Code     6  results_holder.o(i.inv_set_compass_bias_found)
    inv_set_compass_correction               0x0800ea11   Thumb Code    30  results_holder.o(i.inv_set_compass_correction)
    inv_set_compass_disturbance              0x0800ea35   Thumb Code     8  data_builder.o(i.inv_set_compass_disturbance)
    inv_set_compass_orientation_and_scale    0x0800ea41   Thumb Code    18  data_builder.o(i.inv_set_compass_orientation_and_scale)
    inv_set_compass_sample_rate              0x0800ea59   Thumb Code    40  data_builder.o(i.inv_set_compass_sample_rate)
    inv_set_compass_soft_iron_input_data     0x0800ea89   Thumb Code    74  data_builder.o(i.inv_set_compass_soft_iron_input_data)
    inv_set_compass_state                    0x0800eadd   Thumb Code     6  results_holder.o(i.inv_set_compass_state)
    inv_set_gyro_bias                        0x0800ec09   Thumb Code   102  data_builder.o(i.inv_set_gyro_bias)
    inv_set_gyro_orientation_and_scale       0x0800ec7d   Thumb Code    18  data_builder.o(i.inv_set_gyro_orientation_and_scale)
    inv_set_gyro_sample_rate                 0x0800ec95   Thumb Code    32  data_builder.o(i.inv_set_gyro_sample_rate)
    inv_set_message                          0x0800ecbd   Thumb Code    24  message_layer.o(i.inv_set_message)
    inv_set_motion_state                     0x0800ecd9   Thumb Code    74  results_holder.o(i.inv_set_motion_state)
    inv_start_mpl                            0x0800ed3d   Thumb Code    38  mpl.o(i.inv_start_mpl)
    inv_start_results_holder                 0x0800ed7d   Thumb Code    18  results_holder.o(i.inv_start_results_holder)
    inv_store_gaming_quaternion              0x0800ed95   Thumb Code    30  results_holder.o(i.inv_store_gaming_quaternion)
    inv_unregister_data_cb                   0x0800edb9   Thumb Code    96  data_builder.o(i.inv_unregister_data_cb)
    inv_unregister_mpl_start_notification    0x0800ee1d   Thumb Code    92  start_manager.o(i.inv_unregister_mpl_start_notification)
    main                                     0x0800ee7d   Thumb Code    36  main.o(i.main)
    mget_ms                                  0x0800eeb5   Thumb Code     2  inv_mpu.o(i.mget_ms)
    mlMatrixVectorMult                       0x0800eeb7   Thumb Code    62  ml_math_func.o(i.mlMatrixVectorMult)
    motor_init                               0x0800eef5   Thumb Code    80  pwm.o(i.motor_init)
    motor_speed                              0x0800ef4d   Thumb Code   122  pwm.o(i.motor_speed)
    mpu_configure_fifo                       0x0800efd1   Thumb Code   106  inv_mpu.o(i.mpu_configure_fifo)
    mpu_dmp_init                             0x0800f041   Thumb Code   346  inv_mpu.o(i.mpu_dmp_init)
    mpu_get_accel_fsr                        0x0800f1ad   Thumb Code    72  inv_mpu.o(i.mpu_get_accel_fsr)
    mpu_get_accel_sens                       0x0800f1f9   Thumb Code    78  inv_mpu.o(i.mpu_get_accel_sens)
    mpu_get_compass_fsr                      0x0800f24d   Thumb Code    14  inv_mpu.o(i.mpu_get_compass_fsr)
    mpu_get_compass_reg                      0x0800f261   Thumb Code   202  inv_mpu.o(i.mpu_get_compass_reg)
    mpu_get_fifo_config                      0x0800f331   Thumb Code    12  inv_mpu.o(i.mpu_get_fifo_config)
    mpu_get_gyro_fsr                         0x0800f341   Thumb Code    64  inv_mpu.o(i.mpu_get_gyro_fsr)
    mpu_get_gyro_sens                        0x0800f385   Thumb Code    74  inv_mpu.o(i.mpu_get_gyro_sens)
    mpu_get_lpf                              0x0800f3e5   Thumb Code    74  inv_mpu.o(i.mpu_get_lpf)
    mpu_get_sample_rate                      0x0800f435   Thumb Code    26  inv_mpu.o(i.mpu_get_sample_rate)
    mpu_get_temperature                      0x0800f455   Thumb Code   142  inv_mpu.o(i.mpu_get_temperature)
    mpu_init                                 0x0800f4f1   Thumb Code   294  inv_mpu.o(i.mpu_init)
    mpu_load_firmware                        0x0800f61d   Thumb Code   180  inv_mpu.o(i.mpu_load_firmware)
    mpu_lp_accel_mode                        0x0800f6d5   Thumb Code   280  inv_mpu.o(i.mpu_lp_accel_mode)
    mpu_mpl_get_data                         0x0800f7f1   Thumb Code   234  inv_mpu.o(i.mpu_mpl_get_data)
    mpu_read_fifo_stream                     0x0800f8e1   Thumb Code   186  inv_mpu.o(i.mpu_read_fifo_stream)
    mpu_read_mem                             0x0800f9a1   Thumb Code   122  inv_mpu.o(i.mpu_read_mem)
    mpu_reset_fifo                           0x0800fa21   Thumb Code   450  inv_mpu.o(i.mpu_reset_fifo)
    mpu_run_6500_self_test                   0x0800fbe9   Thumb Code   384  inv_mpu.o(i.mpu_run_6500_self_test)
    mpu_set_accel_fsr                        0x0800fe85   Thumb Code   126  inv_mpu.o(i.mpu_set_accel_fsr)
    mpu_set_bypass                           0x0800ff09   Thumb Code   328  inv_mpu.o(i.mpu_set_bypass)
    mpu_set_compass_sample_rate              0x08010055   Thumb Code    92  inv_mpu.o(i.mpu_set_compass_sample_rate)
    mpu_set_dmp_state                        0x080100b5   Thumb Code   138  inv_mpu.o(i.mpu_set_dmp_state)
    mpu_set_gyro_fsr                         0x08010145   Thumb Code   132  inv_mpu.o(i.mpu_set_gyro_fsr)
    mpu_set_int_latched                      0x080101cd   Thumb Code   102  inv_mpu.o(i.mpu_set_int_latched)
    mpu_set_lpf                              0x08010239   Thumb Code   126  inv_mpu.o(i.mpu_set_lpf)
    mpu_set_sample_rate                      0x080102bd   Thumb Code   174  inv_mpu.o(i.mpu_set_sample_rate)
    mpu_set_sensors                          0x08010371   Thumb Code   354  inv_mpu.o(i.mpu_set_sensors)
    mpu_write_mem                            0x080104d9   Thumb Code   122  inv_mpu.o(i.mpu_write_mem)
    pidInit                                  0x08010559   Thumb Code    70  pid.o(i.pidInit)
    pidUpdate                                0x080105ad   Thumb Code   264  pid.o(i.pidUpdate)
    pvPortMalloc                             0x08011039   Thumb Code   296  heap_4.o(i.pvPortMalloc)
    pvTaskIncrementMutexHeldCount            0x08011175   Thumb Code    26  tasks.o(i.pvTaskIncrementMutexHeldCount)
    pxPortInitialiseStack                    0x08011195   Thumb Code    38  port.o(i.pxPortInitialiseStack)
    run_self_test                            0x080111c1   Thumb Code   156  inv_mpu.o(i.run_self_test)
    set_sensor_orientation_and_scale         0x080112ed   Thumb Code     6  data_builder.o(i.set_sensor_orientation_and_scale)
    spl0601_get_calib_param                  0x08011549   Thumb Code   476  spl06_01.o(i.spl0601_get_calib_param)
    spl0601_get_pressure                     0x0801172d   Thumb Code   214  spl06_01.o(i.spl0601_get_pressure)
    spl0601_get_raw_pressure                 0x08011809   Thumb Code   120  spl06_01.o(i.spl0601_get_raw_pressure)
    spl0601_get_raw_temp                     0x08011885   Thumb Code   120  spl06_01.o(i.spl0601_get_raw_temp)
    spl0601_init                             0x08011901   Thumb Code   160  spl06_01.o(i.spl0601_init)
    spl0601_rateset                          0x080119c1   Thumb Code   318  spl06_01.o(i.spl0601_rateset)
    spl0601_read                             0x08011b05   Thumb Code    70  spl06_01.o(i.spl0601_read)
    spl0601_start_continuous                 0x08011b4b   Thumb Code    18  spl06_01.o(i.spl0601_start_continuous)
    spl0601_write                            0x08011b5d   Thumb Code    50  spl06_01.o(i.spl0601_write)
    sqrt                                     0x08011b8f   Thumb Code   110  sqrt.o(i.sqrt)
    sqrtf                                    0x08011bfd   Thumb Code    62  sqrtf.o(i.sqrtf)
    stabilizerTask                           0x08011c3d   Thumb Code    62  pid.o(i.stabilizerTask)
    uart_init                                0x08011c8d   Thumb Code   172  usart.o(i.uart_init)
    uxListRemove                             0x08011d41   Thumb Code    40  list.o(i.uxListRemove)
    vListInitialise                          0x08011d69   Thumb Code    26  list.o(i.vListInitialise)
    vListInitialiseItem                      0x08011d83   Thumb Code     6  list.o(i.vListInitialiseItem)
    vListInsert                              0x08011d89   Thumb Code    52  list.o(i.vListInsert)
    vListInsertEnd                           0x08011dbd   Thumb Code    24  list.o(i.vListInsertEnd)
    vPortEnterCritical                       0x08011dd5   Thumb Code    76  port.o(i.vPortEnterCritical)
    vPortExitCritical                        0x08011e29   Thumb Code    56  port.o(i.vPortExitCritical)
    vPortFree                                0x08011e65   Thumb Code   140  heap_4.o(i.vPortFree)
    vPortSetupTimerInterrupt                 0x08011ef9   Thumb Code    26  port.o(i.vPortSetupTimerInterrupt)
    vPortValidateInterruptPriority           0x08011f19   Thumb Code   106  port.o(i.vPortValidateInterruptPriority)
    vQueueAddToRegistry                      0x08011f91   Thumb Code    38  queue.o(i.vQueueAddToRegistry)
    vQueueWaitForMessageRestricted           0x08011fbd   Thumb Code    74  queue.o(i.vQueueWaitForMessageRestricted)
    vTaskDelay                               0x08012009   Thumb Code    82  tasks.o(i.vTaskDelay)
    vTaskMissedYield                         0x08012065   Thumb Code     8  tasks.o(i.vTaskMissedYield)
    vTaskPlaceOnEventList                    0x08012071   Thumb Code    52  tasks.o(i.vTaskPlaceOnEventList)
    vTaskPlaceOnEventListRestricted          0x080120a9   Thumb Code    60  tasks.o(i.vTaskPlaceOnEventListRestricted)
    vTaskPriorityInherit                     0x080120e9   Thumb Code   164  tasks.o(i.vTaskPriorityInherit)
    vTaskSetTimeOutState                     0x08012199   Thumb Code    38  tasks.o(i.vTaskSetTimeOutState)
    vTaskStartScheduler                      0x080121c9   Thumb Code   118  tasks.o(i.vTaskStartScheduler)
    vTaskSuspendAll                          0x0801225d   Thumb Code    12  tasks.o(i.vTaskSuspendAll)
    vTaskSwitchContext                       0x0801226d   Thumb Code   118  tasks.o(i.vTaskSwitchContext)
    xPortStartScheduler                      0x080122f9   Thumb Code   288  port.o(i.xPortStartScheduler)
    xPortSysTickHandler                      0x08012435   Thumb Code    46  port.o(i.xPortSysTickHandler)
    xQueueGenericCreate                      0x08012469   Thumb Code    88  queue.o(i.xQueueGenericCreate)
    xQueueGenericReceive                     0x080124c1   Thumb Code   446  queue.o(i.xQueueGenericReceive)
    xQueueGenericReset                       0x08012685   Thumb Code   146  queue.o(i.xQueueGenericReset)
    xQueueGenericSend                        0x0801271d   Thumb Code   420  queue.o(i.xQueueGenericSend)
    xQueueGenericSendFromISR                 0x080128c5   Thumb Code   248  queue.o(i.xQueueGenericSendFromISR)
    xTaskCheckForTimeOut                     0x080129bd   Thumb Code   132  tasks.o(i.xTaskCheckForTimeOut)
    xTaskCreate                              0x08012a49   Thumb Code    96  tasks.o(i.xTaskCreate)
    xTaskGetSchedulerState                   0x08012aa9   Thumb Code    24  tasks.o(i.xTaskGetSchedulerState)
    xTaskGetTickCount                        0x08012ac9   Thumb Code     6  tasks.o(i.xTaskGetTickCount)
    xTaskIncrementTick                       0x08012ad5   Thumb Code   282  tasks.o(i.xTaskIncrementTick)
    xTaskPriorityDisinherit                  0x08012c1d   Thumb Code   188  tasks.o(i.xTaskPriorityDisinherit)
    xTaskRemoveFromEventList                 0x08012ce5   Thumb Code   128  tasks.o(i.xTaskRemoveFromEventList)
    xTaskResumeAll                           0x08012d7d   Thumb Code   224  tasks.o(i.xTaskResumeAll)
    xTimerCreateTimerTask                    0x08012e81   Thumb Code    66  timers.o(i.xTimerCreateTimerTask)
    xTimerGenericCommand                     0x08012ed9   Thumb Code   126  timers.o(i.xTimerGenericCommand)
    reg                                      0x08012f5c   Data          42  inv_mpu.o(.constdata)
    hw                                       0x08012f86   Data          14  inv_mpu.o(.constdata)
    test                                     0x08012f94   Data          48  inv_mpu.o(.constdata)
    ml_ver                                   0x08013dba   Data          20  mpl.o(.constdata)
    asc16                                    0x08013de9   Data        1521  gui.o(.constdata)
    sz32                                     0x080143da   Data        1921  gui.o(.constdata)
    hz16                                     0x08014b5b   Data        2074  gui.o(.constdata)
    hz24                                     0x08015375   Data        1406  gui.o(.constdata)
    __mathlib_zero                           0x080159e8   Data           8  qnan.o(.constdata)
    Region$$Table$$Base                      0x08015b50   Number         0  anon$$obj.o(Region$$Table)
    Region$$Table$$Limit                     0x08015b70   Number         0  anon$$obj.o(Region$$Table)
    SystemCoreClock                          0x20000000   Data           4  system_stm32f4xx.o(.data)
    AHBPrescTable                            0x20000004   Data          16  system_stm32f4xx.o(.data)
    __stdout                                 0x20000028   Data           4  usart.o(.data)
    USART_RX_STA                             0x2000002c   Data           2  usart.o(.data)
    point2                                   0x2000002e   Data           1  usart.o(.data)
    JSONisOKFlag                             0x2000002f   Data           1  usart.o(.data)
    pxCurrentTCB                             0x20000054   Data           4  tasks.o(.data)
    mpl_key                                  0x200000a4   Data           4  inv_mpu.o(.data)
    point1                                   0x20000104   Data           2  gps.o(.data)
    acc                                      0x20000108   Data           6  pid.o(.data)
    signal_cnt_tmp                           0x2000012e   Data           2  communication.o(.data)
    rc_in_mode_tmp                           0x20000130   Data           1  communication.o(.data)
    USART_RX_BUF                             0x2000014c   Data         200  usart.o(.bss)
    USART_RX_BUF_JSON                        0x20000214   Data         200  usart.o(.bss)
    JSON_USER                                0x200002dc   Data         200  usart.o(.bss)
    xQueueRegistry                           0x20012fa4   Data          64  queue.o(.bss)
    lcddev                                   0x2001371c   Data          14  lcd_driver.o(.bss)
    Save_Data                                0x20013758   Data         121  gps.o(.bss)
    High_PID                                 0x200137d4   Data          60  pid.o(.bss)
    V_PID                                    0x20013810   Data          60  pid.o(.bss)
    Pitch_PID                                0x2001384c   Data          60  pid.o(.bss)
    Roll_PID                                 0x20013888   Data          60  pid.o(.bss)
    Yaw_PID                                  0x200138c4   Data          60  pid.o(.bss)
    X_PID                                    0x20013900   Data          60  pid.o(.bss)
    Y_PID                                    0x2001393c   Data          60  pid.o(.bss)
    Z_PID                                    0x20013978   Data          60  pid.o(.bss)
    ppm_ch                                   0x200139c0   Data          18  communication.o(.bss)
    cb                                       0x200139d8   Data         232  compass_vec_cal.o(.bss)
    cb_test                                  0x20013ac0   Data         232  compass_vec_cal.o(.bss)
    cb_sim                                   0x20013ba8   Data         232  compass_vec_cal.o(.bss)
    vc                                       0x20013c90   Data         424  compass_vec_cal.o(.bss)
    fnm                                      0x20013e38   Data         608  fast_no_motion.o(.bss)
    s9axis                                   0x200140d8   Data         312  fusion_9axis.o(.bss)
    mag_disturb                              0x200143d4   Data         184  mag_disturb.o(.bss)
    __initial_sp                             0x200189b0   Data           0  startup_stm32f40_41xxx.o(STACK)



==============================================================================

Memory Map of the image

  Image Entry point : 0x08000189

  Load Region LR_IROM1 (Base: 0x08000000, Size: 0x00015cbc, Max: 0x00100000, ABSOLUTE, COMPRESSED[0x00015bb8])

    Execution Region ER_IROM1 (Base: 0x08000000, Size: 0x00015b70, Max: 0x00100000, ABSOLUTE)

    Base Addr    Size         Type   Attr      Idx    E Section Name        Object

    0x08000000   0x00000188   Data   RO          404    RESET               startup_stm32f40_41xxx.o
    0x08000188   0x00000000   Code   RO        10753  * .ARM.Collect$$$$00000000  mc_w.l(entry.o)
    0x08000188   0x00000004   Code   RO        11161    .ARM.Collect$$$$00000001  mc_w.l(entry2.o)
    0x0800018c   0x00000004   Code   RO        11164    .ARM.Collect$$$$00000004  mc_w.l(entry5.o)
    0x08000190   0x00000000   Code   RO        11166    .ARM.Collect$$$$00000008  mc_w.l(entry7b.o)
    0x08000190   0x00000000   Code   RO        11168    .ARM.Collect$$$$0000000A  mc_w.l(entry8b.o)
    0x08000190   0x00000008   Code   RO        11169    .ARM.Collect$$$$0000000B  mc_w.l(entry9a.o)
    0x08000198   0x00000000   Code   RO        11171    .ARM.Collect$$$$0000000D  mc_w.l(entry10a.o)
    0x08000198   0x00000000   Code   RO        11173    .ARM.Collect$$$$0000000F  mc_w.l(entry11a.o)
    0x08000198   0x00000004   Code   RO        11162    .ARM.Collect$$$$00002712  mc_w.l(entry2.o)
    0x0800019c   0x000000b6   Code   RO         5419    .emb_text           port.o
    0x08000252   0x00000002   PAD
    0x08000254   0x00000024   Code   RO          405    .text               startup_stm32f40_41xxx.o
    0x08000278   0x000024f0   Code   RO        10295    .text               libmpllib.lib(compass_vec_cal.o)
    0x08002768   0x00000a18   Code   RO        10385    .text               libmpllib.lib(fast_no_motion.o)
    0x08003180   0x000006b0   Code   RO        10418    .text               libmpllib.lib(fusion_9axis.o)
    0x08003830   0x000004c4   Code   RO        10440    .text               libmpllib.lib(gyro_tc.o)
    0x08003cf4   0x000005c0   Code   RO        10458    .text               libmpllib.lib(mag_disturb.o)
    0x080042b4   0x00000994   Code   RO        10480    .text               libmpllib.lib(quaternion_supervisor.o)
    0x08004c48   0x00000c44   Code   RO        10498    .text               libmpllib.lib(accel_auto_cal.o)
    0x0800588c   0x00000062   Code   RO        10756    .text               mc_w.l(ldiv.o)
    0x080058ee   0x0000001e   Code   RO        10758    .text               mc_w.l(llshl.o)
    0x0800590c   0x00000024   Code   RO        10760    .text               mc_w.l(llsshr.o)
    0x08005930   0x00000040   Code   RO        10766    .text               mc_w.l(memmovea.o)
    0x08005970   0x00000024   Code   RO        10768    .text               mc_w.l(memseta.o)
    0x08005994   0x0000001a   Code   RO        10776    .text               mc_w.l(memcmp.o)
    0x080059ae   0x0000014e   Code   RO        11081    .text               mf_w.l(dadd.o)
    0x08005afc   0x000000e4   Code   RO        11083    .text               mf_w.l(dmul.o)
    0x08005be0   0x000000de   Code   RO        11085    .text               mf_w.l(ddiv.o)
    0x08005cbe   0x0000002c   Code   RO        11087    .text               mf_w.l(ffltl.o)
    0x08005cea   0x00000022   Code   RO        11089    .text               mf_w.l(dflti.o)
    0x08005d0c   0x00000042   Code   RO        11091    .text               mf_w.l(ffixl.o)
    0x08005d4e   0x0000003e   Code   RO        11093    .text               mf_w.l(dfixi.o)
    0x08005d8c   0x00000026   Code   RO        11095    .text               mf_w.l(f2d.o)
    0x08005db2   0x00000002   PAD
    0x08005db4   0x00000030   Code   RO        11097    .text               mf_w.l(cdcmple.o)
    0x08005de4   0x00000030   Code   RO        11099    .text               mf_w.l(cdrcmple.o)
    0x08005e14   0x00000038   Code   RO        11101    .text               mf_w.l(d2f.o)
    0x08005e4c   0x0000002c   Code   RO        11175    .text               mc_w.l(uidiv.o)
    0x08005e78   0x00000062   Code   RO        11177    .text               mc_w.l(uldiv.o)
    0x08005eda   0x00000020   Code   RO        11179    .text               mc_w.l(llushr.o)
    0x08005efa   0x00000000   Code   RO        11196    .text               mc_w.l(iusefp.o)
    0x08005efa   0x0000006e   Code   RO        11197    .text               mf_w.l(fepilogue.o)
    0x08005f68   0x000000ba   Code   RO        11199    .text               mf_w.l(depilogue.o)
    0x08006022   0x0000002e   Code   RO        11203    .text               mf_w.l(dscalb.o)
    0x08006050   0x000000a2   Code   RO        11205    .text               mf_w.l(dsqrt.o)
    0x080060f2   0x00000030   Code   RO        11209    .text               mf_w.l(dfixul.o)
    0x08006122   0x00000002   PAD
    0x08006124   0x00000024   Code   RO        11211    .text               mc_w.l(init.o)
    0x08006148   0x0000001a   Code   RO        11217    .text               mf_w.l(dfltui.o)
    0x08006162   0x00000056   Code   RO        11230    .text               mc_w.l(__dczerorl2.o)
    0x080061b8   0x00000016   Code   RO          466    i.ADC_Cmd           stm32f4xx_adc.o
    0x080061ce   0x00000002   PAD
    0x080061d0   0x00000030   Code   RO          467    i.ADC_CommonInit    stm32f4xx_adc.o
    0x08006200   0x00000054   Code   RO          486    i.ADC_Init          stm32f4xx_adc.o
    0x08006254   0x000000b8   Code   RO          491    i.ADC_RegularChannelConfig  stm32f4xx_adc.o
    0x0800630c   0x0000002c   Code   RO          496    i.ADC_TempSensorVrefintCmd  stm32f4xx_adc.o
    0x08006338   0x000000a4   Code   RO         9094    i.Adc_Init          adc.o
    0x080063dc   0x000000b8   Code   RO          308    i.AllInit           init_config.o
    0x08006494   0x00000054   Code   RO         9180    i.BEEP_Init         beep.o
    0x080064e8   0x00000004   Code   RO          210    i.BusFault_Handler  stm32f4xx_it.o
    0x080064ec   0x000001cc   Code   RO         9271    i.ControlPIDInit    pid.o
    0x080066b8   0x00000002   Code   RO          211    i.DebugMon_Handler  stm32f4xx_it.o
    0x080066ba   0x00000002   PAD
    0x080066bc   0x00000068   Code   RO         9483    i.DrvPpmGetOneCh    communication.o
    0x08006724   0x000000bc   Code   RO         9484    i.DrvRcPpmInit      communication.o
    0x080067e0   0x0000001e   Code   RO         9485    i.Float_to_Byte     communication.o
    0x080067fe   0x00000002   PAD
    0x08006800   0x00000030   Code   RO         9386    i.FlyStop           fly.o
    0x08006830   0x00000090   Code   RO         2203    i.GPIO_Init         stm32f4xx_gpio.o
    0x080068c0   0x00000046   Code   RO         2204    i.GPIO_PinAFConfig  stm32f4xx_gpio.o
    0x08006906   0x00000004   Code   RO         2210    i.GPIO_ResetBits    stm32f4xx_gpio.o
    0x0800690a   0x00000004   Code   RO         2211    i.GPIO_SetBits      stm32f4xx_gpio.o
    0x0800690e   0x00000012   Code   RO         2212    i.GPIO_StructInit   stm32f4xx_gpio.o
    0x08006920   0x000000b4   Code   RO         9216    i.GPS_USART_init    gps.o
    0x080069d4   0x0000000c   Code   RO         9486    i.GetPpmThrust      communication.o
    0x080069e0   0x00000194   Code   RO         8530    i.Gui_DrawFont_GBK16  gui.o
    0x08006b74   0x0000002e   Code   RO         8611    i.Gui_DrawPoint     lcd_driver.o
    0x08006ba2   0x00000004   Code   RO          212    i.HardFault_Handler  stm32f4xx_it.o
    0x08006ba6   0x00000002   PAD
    0x08006ba8   0x00000050   Code   RO         8976    i.IIC_Ack           myiic.o
    0x08006bf8   0x00000020   Code   RO         8977    i.IIC_Init          myiic.o
    0x08006c18   0x00000050   Code   RO         8978    i.IIC_NAck          myiic.o
    0x08006c68   0x0000006c   Code   RO         8983    i.IIC_Read_Byte     myiic.o
    0x08006cd4   0x00000068   Code   RO         8984    i.IIC_Send_Byte     myiic.o
    0x08006d3c   0x0000004c   Code   RO         8985    i.IIC_Start         myiic.o
    0x08006d88   0x0000004c   Code   RO         8986    i.IIC_Stop          myiic.o
    0x08006dd4   0x00000060   Code   RO         8987    i.IIC_Wait_Ack      myiic.o
    0x08006e34   0x000000ac   Code   RO         9490    i.JustFloat_send    communication.o
    0x08006ee0   0x00000070   Code   RO         8612    i.LCD_GPIO_Init     lcd_driver.o
    0x08006f50   0x0000002c   Code   RO         8613    i.LCD_SetParam      lcd_driver.o
    0x08006f7c   0x0000002c   Code   RO         9149    i.LED_Blink         led.o
    0x08006fa8   0x00000040   Code   RO         9150    i.LED_Init          led.o
    0x08006fe8   0x00000038   Code   RO         8615    i.Lcd_Clear         lcd_driver.o
    0x08007020   0x000001d2   Code   RO         8616    i.Lcd_Init          lcd_driver.o
    0x080071f2   0x00000002   PAD
    0x080071f4   0x0000002c   Code   RO         8617    i.Lcd_Reset         lcd_driver.o
    0x08007220   0x00000052   Code   RO         8618    i.Lcd_SetRegion     lcd_driver.o
    0x08007272   0x00000002   PAD
    0x08007274   0x00000030   Code   RO         8620    i.Lcd_WriteData     lcd_driver.o
    0x080072a4   0x00000030   Code   RO         8621    i.Lcd_WriteIndex    lcd_driver.o
    0x080072d4   0x00000014   Code   RO         8622    i.Lcd_WriteReg      lcd_driver.o
    0x080072e8   0x00000078   Code   RO         8720    i.MPU_Get_Gyrofloat  mpu9250.o
    0x08007360   0x00000050   Code   RO         8721    i.MPU_Get_Gyroscope  mpu9250.o
    0x080073b0   0x00000074   Code   RO         8725    i.MPU_Read_Len      mpu9250.o
    0x08007424   0x00000060   Code   RO         8731    i.MPU_Write_Len     mpu9250.o
    0x08007484   0x00000004   Code   RO          213    i.MemManage_Handler  stm32f4xx_it.o
    0x08007488   0x0000019c   Code   RO         9274    i.MotorControl      pid.o
    0x08007624   0x00000002   Code   RO          214    i.NMI_Handler       stm32f4xx_it.o
    0x08007626   0x00000002   PAD
    0x08007628   0x00000078   Code   RO          412    i.NVIC_Init         misc.o
    0x080076a0   0x00000014   Code   RO          413    i.NVIC_PriorityGroupConfig  misc.o
    0x080076b4   0x00000130   Code   RO         9275    i.PID_Runing        pid.o
    0x080077e4   0x00000058   Code   RO         9491    i.PPM_IRQH          communication.o
    0x0800783c   0x00000020   Code   RO         3099    i.RCC_AHB1PeriphClockCmd  stm32f4xx_rcc.o
    0x0800785c   0x00000020   Code   RO         3108    i.RCC_APB1PeriphClockCmd  stm32f4xx_rcc.o
    0x0800787c   0x00000020   Code   RO         3111    i.RCC_APB2PeriphClockCmd  stm32f4xx_rcc.o
    0x0800789c   0x00000020   Code   RO         3113    i.RCC_APB2PeriphResetCmd  stm32f4xx_rcc.o
    0x080078bc   0x000000e8   Code   RO         3120    i.RCC_GetClocksFreq  stm32f4xx_rcc.o
    0x080079a4   0x0000004c   Code   RO         8623    i.SPI_WriteData     lcd_driver.o
    0x080079f0   0x0000001a   Code   RO         9492    i.Serial_SendArray  communication.o
    0x08007a0a   0x00000002   PAD
    0x08007a0c   0x00000020   Code   RO         9493    i.Serial_SendByte   communication.o
    0x08007a2c   0x0000000a   Code   RO         9277    i.SetLimit          pid.o
    0x08007a36   0x00000002   PAD
    0x08007a38   0x000000ec   Code   RO          267    i.SetSysClock       system_stm32f4xx.o
    0x08007b24   0x00000014   Code   RO         9278    i.SetThrust         pid.o
    0x08007b38   0x00000028   Code   RO          416    i.SysTick_CLKSourceConfig  misc.o
    0x08007b60   0x00000010   Code   RO         5282    i.SysTick_Handler   delay.o
    0x08007b70   0x00000068   Code   RO          269    i.SystemInit        system_stm32f4xx.o
    0x08007bd8   0x0000003a   Code   RO         4458    i.TI1_Config        stm32f4xx_tim.o
    0x08007c12   0x00000050   Code   RO         4459    i.TI2_Config        stm32f4xx_tim.o
    0x08007c62   0x00000048   Code   RO         4460    i.TI3_Config        stm32f4xx_tim.o
    0x08007caa   0x00000050   Code   RO         4461    i.TI4_Config        stm32f4xx_tim.o
    0x08007cfa   0x00000002   PAD
    0x08007cfc   0x00000114   Code   RO         8938    i.TIM3_PWM_Init     pwm.o
    0x08007e10   0x00000008   Code   RO         9494    i.TIM4_IRQHandler   communication.o
    0x08007e18   0x00000018   Code   RO         4462    i.TIM_ARRPreloadConfig  stm32f4xx_tim.o
    0x08007e30   0x00000018   Code   RO         4474    i.TIM_Cmd           stm32f4xx_tim.o
    0x08007e48   0x00000006   Code   RO         4491    i.TIM_GetCapture3   stm32f4xx_tim.o
    0x08007e4e   0x0000006e   Code   RO         4497    i.TIM_ICInit        stm32f4xx_tim.o
    0x08007ebc   0x00000012   Code   RO         4498    i.TIM_ICStructInit  stm32f4xx_tim.o
    0x08007ece   0x00000012   Code   RO         4499    i.TIM_ITConfig      stm32f4xx_tim.o
    0x08007ee0   0x0000007c   Code   RO         4503    i.TIM_OC1Init       stm32f4xx_tim.o
    0x08007f5c   0x00000012   Code   RO         4506    i.TIM_OC1PreloadConfig  stm32f4xx_tim.o
    0x08007f6e   0x00000002   PAD
    0x08007f70   0x000000a4   Code   RO         4508    i.TIM_OC2Init       stm32f4xx_tim.o
    0x08008014   0x0000001a   Code   RO         4511    i.TIM_OC2PreloadConfig  stm32f4xx_tim.o
    0x0800802e   0x00000002   PAD
    0x08008030   0x000000a0   Code   RO         4513    i.TIM_OC3Init       stm32f4xx_tim.o
    0x080080d0   0x00000012   Code   RO         4516    i.TIM_OC3PreloadConfig  stm32f4xx_tim.o
    0x080080e2   0x00000002   PAD
    0x080080e4   0x00000078   Code   RO         4518    i.TIM_OC4Init       stm32f4xx_tim.o
    0x0800815c   0x0000001a   Code   RO         4520    i.TIM_OC4PreloadConfig  stm32f4xx_tim.o
    0x08008176   0x00000004   Code   RO         4536    i.TIM_SetCompare1   stm32f4xx_tim.o
    0x0800817a   0x00000004   Code   RO         4537    i.TIM_SetCompare2   stm32f4xx_tim.o
    0x0800817e   0x00000004   Code   RO         4538    i.TIM_SetCompare3   stm32f4xx_tim.o
    0x08008182   0x00000004   Code   RO         4539    i.TIM_SetCompare4   stm32f4xx_tim.o
    0x08008186   0x00000012   Code   RO         4541    i.TIM_SetIC1Prescaler  stm32f4xx_tim.o
    0x08008198   0x0000001a   Code   RO         4542    i.TIM_SetIC2Prescaler  stm32f4xx_tim.o
    0x080081b2   0x00000012   Code   RO         4543    i.TIM_SetIC3Prescaler  stm32f4xx_tim.o
    0x080081c4   0x0000001a   Code   RO         4544    i.TIM_SetIC4Prescaler  stm32f4xx_tim.o
    0x080081de   0x00000002   PAD
    0x080081e0   0x00000084   Code   RO         4546    i.TIM_TimeBaseInit  stm32f4xx_tim.o
    0x08008264   0x00000098   Code   RO         5357    i.USART1_IRQHandler  usart.o
    0x080082fc   0x000000c4   Code   RO         9217    i.USART2_IRQHandler  gps.o
    0x080083c0   0x00000012   Code   RO         5024    i.USART_ClearFlag   stm32f4xx_usart.o
    0x080083d2   0x0000001e   Code   RO         5025    i.USART_ClearITPendingBit  stm32f4xx_usart.o
    0x080083f0   0x00000018   Code   RO         5028    i.USART_Cmd         stm32f4xx_usart.o
    0x08008408   0x0000001a   Code   RO         5031    i.USART_GetFlagStatus  stm32f4xx_usart.o
    0x08008422   0x00000054   Code   RO         5032    i.USART_GetITStatus  stm32f4xx_usart.o
    0x08008476   0x0000004a   Code   RO         5034    i.USART_ITConfig    stm32f4xx_usart.o
    0x080084c0   0x000000d4   Code   RO         5035    i.USART_Init        stm32f4xx_usart.o
    0x08008594   0x0000000a   Code   RO         5042    i.USART_ReceiveData  stm32f4xx_usart.o
    0x0800859e   0x00000008   Code   RO         5045    i.USART_SendData    stm32f4xx_usart.o
    0x080085a6   0x00000004   Code   RO          215    i.UsageFault_Handler  stm32f4xx_it.o
    0x080085aa   0x000000ca   Code   RO         7121    i._MLPrintLog       log_stm32.o
    0x08008674   0x00000020   Code   RO        11019    i.__0printf         mc_w.l(printfa.o)
    0x08008694   0x00000024   Code   RO        11025    i.__0vsprintf       mc_w.l(printfa.o)
    0x080086b8   0x00000030   Code   RO        11120    i.__ARM_fpclassify  m_wm.l(fpclassify.o)
    0x080086e8   0x00000026   Code   RO        11122    i.__ARM_fpclassifyf  m_wm.l(fpclassifyf.o)
    0x0800870e   0x00000002   PAD
    0x08008710   0x00000118   Code   RO        10541    i.__hardfp_acosf    m_wm.l(acosf.o)
    0x08008828   0x00000250   Code   RO        10605    i.__hardfp_atan2f   m_wm.l(atan2f.o)
    0x08008a78   0x000000c8   Code   RO        10623    i.__hardfp_cos      m_wm.l(cos.o)
    0x08008b40   0x00000150   Code   RO        10635    i.__hardfp_cosf     m_wm.l(cosf.o)
    0x08008c90   0x00000014   Code   RO        10647    i.__hardfp_fabs     m_wm.l(fabs.o)
    0x08008ca4   0x00000004   PAD
    0x08008ca8   0x000003c4   Code   RO        10659    i.__hardfp_log      m_wm.l(log.o)
    0x0800906c   0x00000004   PAD
    0x08009070   0x00000c38   Code   RO        10673    i.__hardfp_pow      m_wm.l(pow.o)
    0x08009ca8   0x00000190   Code   RO        10699    i.__hardfp_sinf     m_wm.l(sinf.o)
    0x08009e38   0x0000007a   Code   RO        10711    i.__hardfp_sqrt     m_wm.l(sqrt.o)
    0x08009eb2   0x0000003a   Code   RO        10723    i.__hardfp_sqrtf    m_wm.l(sqrtf.o)
    0x08009eec   0x00000004   PAD
    0x08009ef0   0x00000438   Code   RO        11141    i.__ieee754_rem_pio2  m_wm.l(rred.o)
    0x0800a328   0x00000170   Code   RO        11103    i.__kernel_cos      m_wm.l(cos_i.o)
    0x0800a498   0x000000f8   Code   RO        11138    i.__kernel_poly     m_wm.l(poly.o)
    0x0800a590   0x00000130   Code   RO        11149    i.__kernel_sin      m_wm.l(sin_i.o)
    0x0800a6c0   0x00000030   Code   RO        11106    i.__mathlib_dbl_divzero  m_wm.l(dunder.o)
    0x0800a6f0   0x00000014   Code   RO        11107    i.__mathlib_dbl_infnan  m_wm.l(dunder.o)
    0x0800a704   0x00000014   Code   RO        11108    i.__mathlib_dbl_infnan2  m_wm.l(dunder.o)
    0x0800a718   0x00000020   Code   RO        11109    i.__mathlib_dbl_invalid  m_wm.l(dunder.o)
    0x0800a738   0x00000020   Code   RO        11110    i.__mathlib_dbl_overflow  m_wm.l(dunder.o)
    0x0800a758   0x00000020   Code   RO        11112    i.__mathlib_dbl_underflow  m_wm.l(dunder.o)
    0x0800a778   0x00000006   Code   RO        11125    i.__mathlib_flt_infnan  m_wm.l(funder.o)
    0x0800a77e   0x00000006   Code   RO        11126    i.__mathlib_flt_infnan2  m_wm.l(funder.o)
    0x0800a784   0x00000010   Code   RO        11127    i.__mathlib_flt_invalid  m_wm.l(funder.o)
    0x0800a794   0x00000010   Code   RO        11130    i.__mathlib_flt_underflow  m_wm.l(funder.o)
    0x0800a7a4   0x00000154   Code   RO        11146    i.__mathlib_rredf2  m_wm.l(rredf.o)
    0x0800a8f8   0x00000034   Code   RO         8176    i.__print_result_location  mpl.o
    0x0800a92c   0x0000000e   Code   RO        11224    i.__scatterload_copy  mc_w.l(handlers.o)
    0x0800a93a   0x00000002   Code   RO        11225    i.__scatterload_null  mc_w.l(handlers.o)
    0x0800a93c   0x0000000e   Code   RO        11226    i.__scatterload_zeroinit  mc_w.l(handlers.o)
    0x0800a94a   0x00000002   PAD
    0x0800a94c   0x0000000c   Code   RO        11185    i.__set_errno       mc_w.l(errno.o)
    0x0800a958   0x00000164   Code   RO        11026    i._fp_digits        mc_w.l(printfa.o)
    0x0800aabc   0x000006dc   Code   RO        11027    i._printf_core      mc_w.l(printfa.o)
    0x0800b198   0x00000024   Code   RO        11028    i._printf_post_padding  mc_w.l(printfa.o)
    0x0800b1bc   0x0000002e   Code   RO        11029    i._printf_pre_padding  mc_w.l(printfa.o)
    0x0800b1ea   0x0000000a   Code   RO        11031    i._sputc            mc_w.l(printfa.o)
    0x0800b1f4   0x00000614   Code   RO         6450    i.accel_6500_self_test  inv_mpu.o
    0x0800b808   0x00000088   Code   RO         8835    i.altitude11        spl06_01.o
    0x0800b890   0x0000014c   Code   RO         6451    i.compass_self_test  inv_mpu.o
    0x0800b9dc   0x00000064   Code   RO         6927    i.decode_gesture    inv_mpu_dmp_motion_driver.o
    0x0800ba40   0x00000044   Code   RO         5283    i.delay_init        delay.o
    0x0800ba84   0x00000044   Code   RO         5284    i.delay_ms          delay.o
    0x0800bac8   0x00000048   Code   RO         5285    i.delay_us          delay.o
    0x0800bb10   0x0000003c   Code   RO         6928    i.dmp_enable_6x_lp_quat  inv_mpu_dmp_motion_driver.o
    0x0800bb4c   0x0000021c   Code   RO         6929    i.dmp_enable_feature  inv_mpu_dmp_motion_driver.o
    0x0800bd68   0x00000058   Code   RO         6930    i.dmp_enable_gyro_cal  inv_mpu_dmp_motion_driver.o
    0x0800bdc0   0x0000003c   Code   RO         6931    i.dmp_enable_lp_quat  inv_mpu_dmp_motion_driver.o
    0x0800bdfc   0x00000018   Code   RO         6936    i.dmp_load_motion_driver_firmware  inv_mpu_dmp_motion_driver.o
    0x0800be14   0x000001cc   Code   RO         6937    i.dmp_read_fifo     inv_mpu_dmp_motion_driver.o
    0x0800bfe0   0x00000130   Code   RO         6940    i.dmp_set_accel_bias  inv_mpu_dmp_motion_driver.o
    0x0800c110   0x00000070   Code   RO         6941    i.dmp_set_fifo_rate  inv_mpu_dmp_motion_driver.o
    0x0800c180   0x00000130   Code   RO         6942    i.dmp_set_gyro_bias  inv_mpu_dmp_motion_driver.o
    0x0800c2b0   0x00000138   Code   RO         6944    i.dmp_set_orientation  inv_mpu_dmp_motion_driver.o
    0x0800c3e8   0x00000038   Code   RO         6947    i.dmp_set_shake_reject_thresh  inv_mpu_dmp_motion_driver.o
    0x0800c420   0x00000026   Code   RO         6948    i.dmp_set_shake_reject_time  inv_mpu_dmp_motion_driver.o
    0x0800c446   0x00000026   Code   RO         6949    i.dmp_set_shake_reject_timeout  inv_mpu_dmp_motion_driver.o
    0x0800c46c   0x00000046   Code   RO         6950    i.dmp_set_tap_axes  inv_mpu_dmp_motion_driver.o
    0x0800c4b2   0x00000026   Code   RO         6951    i.dmp_set_tap_count  inv_mpu_dmp_motion_driver.o
    0x0800c4d8   0x000001c0   Code   RO         6952    i.dmp_set_tap_thresh  inv_mpu_dmp_motion_driver.o
    0x0800c698   0x00000026   Code   RO         6953    i.dmp_set_tap_time  inv_mpu_dmp_motion_driver.o
    0x0800c6be   0x00000026   Code   RO         6954    i.dmp_set_tap_time_multi  inv_mpu_dmp_motion_driver.o
    0x0800c6e4   0x00000018   Code   RO        10649    i.fabs              m_wm.l(fabs.o)
    0x0800c6fc   0x0000001c   Code   RO         5359    i.fputc             usart.o
    0x0800c718   0x00000670   Code   RO         6452    i.get_st_6500_biases  inv_mpu.o
    0x0800cd88   0x000005bc   Code   RO         6454    i.gyro_6500_self_test  inv_mpu.o
    0x0800d344   0x0000002c   Code   RO         8991    i.iic_gpio_deinit   myiic.o
    0x0800d370   0x00000034   Code   RO         8992    i.iic_gpio_init     myiic.o
    0x0800d3a4   0x0000006a   Code   RO         7243    i.inv_apply_calibration  data_builder.o
    0x0800d40e   0x00000002   PAD
    0x0800d410   0x0000008c   Code   RO         7244    i.inv_build_accel   data_builder.o
    0x0800d49c   0x000000b0   Code   RO         7245    i.inv_build_compass  data_builder.o
    0x0800d54c   0x00000038   Code   RO         7246    i.inv_build_gyro    data_builder.o
    0x0800d584   0x0000002c   Code   RO         7248    i.inv_build_temp    data_builder.o
    0x0800d5b0   0x000000b0   Code   RO         7819    i.inv_compass_angle  ml_math_func.o
    0x0800d660   0x00000072   Code   RO         7821    i.inv_convert_to_body_with_scale  ml_math_func.o
    0x0800d6d2   0x00000002   PAD
    0x0800d6d4   0x00000050   Code   RO         7250    i.inv_db_load_func  data_builder.o
    0x0800d724   0x00000018   Code   RO         7251    i.inv_db_save_func  data_builder.o
    0x0800d73c   0x00000010   Code   RO         7252    i.inv_disable_compass_soft_iron_matrix  data_builder.o
